:100000000C9446010C946E010C946E010C946E01DC
:100010000C946E010C946E010C946E010C946E01A4
:100020000C946E010C946E010C944C0F0C94BB0F4D
:100030000C946E010C946E010C946E010C946E0184
:100040000C946E010C946E010C946E010C946E0174
:100050000C946E010C946E010C946E010C94020FC2
:100060000C946E010C946E010C946E010C946E0154
:100070000C946E010C946E010C946E010C946E0144
:100080000C946E010C946E010C946E010C946E0134
:100090000C94E30D0C946E010C946E010C946E01A3
:1000A0000C946E010C946E010C946E0100407A1059
:1000B000F35A00A0724E18090010A5D4E80000E819
:1000C0007648170000E40B54020000CA9A3B000077
:1000D00000E1F505000080969800000040420F0006
:1000E0000000A08601000000102700000000E803C7
:1000F000000000006400000000000A000000000092
:100100000100000000002C76D888DC674F0823DF50
:10011000C1DFAE59E1B1B796E5E3E453C63AE65123
:10012000997696E8E6C28426EB898C9B62ED407C4A
:100130006FFCEFBC9C9F40F2BAA56FA5F490055AE6
:100140002AF75C936B6CF9676DC11BFCE0E40D470B
:10015000FEF520E6B500D0ED902E0300943577052E
:100160000080841E080000204E0A000000C80C33E6
:100170003333330F986E12831141EF8D2114893B75
:10018000E65516CFFEE6DB18D1844B381BF77C1DF5
:10019000901DA4BBE424203284725E228100C9F148
:1001A00024ECA1E53D27080B00020202000009042F
:1001B00000000102020000052400100105240101D5
:1001C000010424020605240600010705810310002E
:1001D0004009040100020A00000007050202400075
:1001E0000007058302400000040309041201000215
:1001F000EF0201404F1B0692000101020301537000
:1002000061726B46756E004D6F766572204C656647
:10021000740000000000240027002A002D00300098
:1002200000000000250028002B002E0031000404EF
:10023000040404030405020202020403020202028F
:100240000606060606060404020202040404080266
:10025000011040804010204080408008020401804E
:1002600040201002011080102040402000000002B9
:1002700000090F0000030401000C00000000000052
:1002800000000000000000000000ED1111241FBE5E
:10029000CFEFDAE0DEBFCDBF11E0A0E0B1E0E4EDEA
:1002A000F9E302C005900D92A036B107D9F723E01B
:1002B000A0E6B1E001C01D92A735B207E1F711E059
:1002C000C6E4D1E004C02197FE010E94D619C534CE
:1002D000D107C9F70E948B120C94E81C0C94000003
:1002E000FC018091F301882311F13FB7F89482E07B
:1002F0008093E9002091F200822F90E018161906F1
:1003000014F481E090E0882339F0289844E6409383
:10031000F2014091F1004083222339F02091F20054
:10032000211103C02BE62093E8003FBF08958FEF13
:100330009FEF08952FB7F89483E08093E9009091A0
:10034000E800892F807295FF04C09091F20080E44C
:10035000891B2FBF08952091CD01260F3327331F0E
:1003600021323105ECF420914002FC0190E080E064
:10037000243069F082E00895A091CD012191AC0173
:1003800045555E4FA40FB52FB11D2C9301968617CE
:1003900098F38091CD01680F6093CD0180E00895BE
:1003A00081E00895089508950895E091F501809100
:1003B000F401E81730F4F0E0E05EFD4F808190E05A
:1003C00008958FEF9FEF08959091F5018091F401CA
:1003D0002FEF3FEF981748F4E92FF0E0E05EFD4F74
:1003E000208130E09F5F9093F501C90108958091CD
:1003F000F4019091F501891B990B0895CF92DF923A
:10040000EF92FF920F931F93CF93DF937C01CB0169
:100410008A012091F901222389F0EB016B01C40EBE
:10042000D51ECC15DD0569F06991D701ED91FC91E0
:100430000190F081E02DC7010995F3CF642F0E9450
:10044000AB01C801DF91CF911F910F91FF90EF9009
:10045000DF90CF900895CF93DF931F92CDB7DEB793
:1004600069832091F9012223F9F02091F6012032CD
:1004700058F021E030E0FC013383228390E080E0FB
:100480000F90DF91CF9108958091F701E82FF0E070
:10049000E657FE4F998190838F5F8093F701809399
:1004A000F60181E090E0ECCF61E0CE0101960E9480
:1004B000AB01F7CF8091820181110DC082E0809362
:1004C0007E0184E080937F0110928101109280016F
:1004D00081E0809382018EE791E00895282F30E03B
:1004E000F901E459FD4F9491F901E35BFD4F8491CB
:1004F000225D3D4FF9012491222309F430C0992354
:10050000E9F091509F30D0F4E92FF0E0E657FD4F2D
:100510000C94D619B802BC029902B002B4029E0231
:100520009E029E02BF02C502C902CD02D3029E02F4
:10053000D702909180009F7790938000E22FF0E0A7
:10054000EE0FFF1FE05EFD4FA591B4919FB7F894A9
:10055000EC91611132C080958E238C939FBF0895DA
:10056000909180009F7DE8CF90918000977FE4CFAD
:1005700094B59F7794BDE2CF94B59F7DFBCF9091CA
:1005800090009F7790939000D9CF909190009F7D9D
:10059000F9CF90919000977FF5CF9091C0009F7711
:1005A0009093C000CBCF9091C0009F7DF9CF9091E8
:1005B000C200977F9093C200C1CF8E2BCECF1092F6
:1005C000400281E080931F0210921A0261E082E0F3
:1005D0000E946E0261E083E00E946E02E9EBF0E0AF
:1005E00080818E7F808380818D7F808388E480936B
:1005F000B80085E48093BC000895CF93DF9391E029
:100600009093AA018823B9F0C091B800D091BA00A4
:100610008091BC008A7B8093BC0060E082E00E94F5
:100620006E0260E083E00E946E020E94DF02D093BF
:10063000BA00C093B800DF91CF9108953FB7F89406
:1006400080917A0190917B01A0917C01B0917D0114
:1006500026B5A89B05C02F3F19F00196A11DB11D1D
:100660003FBFBA2FA92F982F8827BC01CD01620F59
:10067000711D811D911D42E0660F771F881F991F14
:100680004A95D1F70895CF92DF92EF92FF920F93A0
:100690001F93CF93DF93D82FC62F613208F098C0F5
:1006A0000E941E036B017C018091400281116BC08E
:1006B00081E08093400280931F029FEF90931E027F
:1006C00010921D029C0F90931C0280931B0280913C
:1006D0001B02DD0FD82BD0931B0280911A028130B0
:1006E00009F078C010921A020E941E036B017C016F
:1006F00080911B028093BB00809142029091430243
:10070000A0914402B0914502892B8A2B8B2BA1F03A
:100710000E941E0300914202109143022091440264
:10072000309145026C197D098E099F09061717073C
:100730002807390708F448C08091BC0083FDD8CF52
:1007400085EC8093BC000E941E036B017C018091AC
:100750004002813009F440C080911D028C1710F4D2
:10076000C0911D02EAEFF1E0A0E2B2E080E08C135C
:1007700055C08C2FDF91CF911F910F91FF90EF907B
:10078000DF90CF9008958091420290914302A09112
:100790004402B0914502892B8A2B8B2B09F484CF1C
:1007A0000E941E03009142021091430220914402D4
:1007B000309145026C197D098E099F0906171707AC
:1007C0002807390708F070CF809141020E94FD028E
:1007D000C0E0CFCF85EEB5CF809142029091430229
:1007E000A0914402B0914502892B8A2B8B2B09F4EE
:1007F000AECF0E941E03009142021091430220914D
:100800004402309145026C197D098E099F09061733
:1008100017072807390708F09ACFD6CF91919D93F3
:100820008F5FA5CFCF92DF92EF92FF920F931F932E
:10083000CF93DF93D091F60181E0D13208F09CC0D4
:10084000C091F8010E941E036B017C01809140025F
:1008500081116CC082E08093400281E080931F028E
:100860008FEF80931E0210921D02D0931C02AAE803
:10087000B1E0EAEFF1E080E0D8138DC010921B02E6
:1008800080911B02CC0FC82BC0931B0280911A02CF
:10089000813009F084C010921A020E941E036B017D
:1008A0007C0180911B028093BB0080914202909159
:1008B0004302A0914402B0914502892B8A2B8B2BD5
:1008C000A1F00E941E030091420210914302209168
:1008D0004402309145026C197D098E099F09061763
:1008E00017072807390708F442C08091BC0083FD30
:1008F000D8CF85EC8093BC000E941E036B017C0165
:1009000080914002823009F44CC080911E028F3FDA
:1009100009F469C080911E02803209F466C080919A
:100920001E02803309F463C084E026C08091420235
:1009300090914302A0914402B0914502892B8A2BE9
:100940008B2B09F483CF0E941E0300914202109169
:10095000430220914402309145026C197D098E09B1
:100960009F09061717072807390708F06FCF8091EE
:1009700041020E94FD0285E01092F7011092F601FB
:100980001092F901DF91CF911F910F91FF90EF909D
:10099000DF90CF9008959D9191938F5F6DCF85EEFD
:1009A000A9CF8091420290914302A0914402B0915C
:1009B0004502892B8A2B8B2B09F4A2CF0E941E03A0
:1009C000009142021091430220914402309145026D
:1009D0006C197D098E099F09061717072807390723
:1009E00008F08ECFC4CF80E0C7CF82E0C5CF83E0D0
:1009F000C3CF0F931F93CF93DF938A01E901209711
:100A000011F4C6E4D2E091E09093F9018093F801EB
:100A10001092F7011092F601E881F9810190F081BE
:100A2000E02DCE010995D80111966C91E881F981EC
:100A30000190F081E02DCE010995E881F9810190C6
:100A4000F081E02DD8016C91CE010995CE010E9474
:100A5000120491E0811190E0892FDF91CF911F91D5
:100A60000F910895CF93DF9300D0CDB7DEB75A83AF
:100A70004983AE014F5F5F4F0E94F9040F900F90C2
:100A8000DF91CF9108951F93CF93DF93142FE90146
:100A9000209711F4C6E4D2E091E09093F90180939D
:100AA000F8011092F7011092F601E881F9810190A6
:100AB000F081E02DCE010995E881F9810190F08166
:100AC000E02D612FCE010995CE010E94120491E024
:100AD000811190E0892FDF91CF911F9108958F921E
:100AE0009F92AF92BF92CF92DF92EF92FF924B0113
:100AF0005C010E941E036B017C010E941E036C19A5
:100B00007D098E099F09683E734081059105A8F310
:100B100021E0821A9108A108B10888EEC80E83E08E
:100B2000D81EE11CF11C81149104A104B10429F721
:100B3000FF90EF90DF90CF90BF90AF909F908F90FD
:100B400008952FB7F89460917601709177018091A4
:100B50007801909179012FBF0895409163015091E0
:100B60006401209161013091620142175307B4F48E
:100B70009091E8009570E1F39091E80092FD19C022
:100B80008093F100809163019091640101968F73CD
:100B90009927892B19F48EEF8093E80080916301E7
:100BA000909164010196909364018093630181E0C8
:100BB000089580E00895EF92FF920F931F93CF93D3
:100BC000DF93F82E192FE62E042F81E0860F880F71
:100BD0000E94AD0583E00E94AD05CF2DD12FEC0E14
:100BE000FD2EF11CCE15DF05B9F007FF13C0FE0185
:100BF00084910E94AD05182F80E00E94AD058123ED
:100C000021968111EFCFDF91CF911F910F91FF902E
:100C1000EF9008958881EDCF81E0F5CFDF92EF92DC
:100C2000FF920F931F93CF93DF93D82E8A01EB018E
:100C30007B01E40EF51ECE15DF0559F0D7FE12C07C
:100C4000FE0184910E94AD0521968111F4CF0FEF32
:100C50001FEFC801DF91CF911F910F91FF90EF908F
:100C6000DF9008958881EECF0F931F93CF93DF938A
:100C70001F92CDB7DEB782E0898342E450E066EA96
:100C800071E080E80E940E060E945A02DC01129672
:100C90000D911C910115110589F0D801ED91FC9180
:100CA0000280F381E02DBE016F5F7F4FC80109957F
:100CB00097FD04C0F80100851185ECCF89810F9064
:100CC000DF91CF911F910F910895615030F02091E5
:100CD000F100FC0120830196F8CF289884E68093E8
:100CE000F201089590E080E008958F929F92AF9274
:100CF000BF92CF92DF92EF92FF920F931F93CF9309
:100D0000DF936C017B018A0180910B01882309F438
:100D10005CC08091F301882309F457C0809167017A
:100D200080FF05C08091E00082608093E000E801D0
:100D3000B12C8AEFA82E93E0892E2AE3922E2097D9
:100D400011F4BB20D9F10E949A0181110AC0AA9422
:100D5000AA20D9F161E070E080E090E00E946F0588
:100D6000EECF8C171D0611F00CF08C2F9FB7F89466
:100D70008092E9002091E80025FD02C09FBFDFCFEF
:100D8000282F30E0C21BD30BF701815020F0419196
:100D90004093F100FACFE20EF31EBB2021F09092B7
:100DA000E800B12CEBCF8091E80085FDE7CF909271
:100DB000E800BB24B394209709F3F3CF5D9884E651
:100DC00080936601101611063CF081E090E0F60178
:100DD0009383828310E000E0C801DF91CF911F91DF
:100DE0000F91FF90EF90DF90CF90BF90AF909F90CA
:100DF0008F900895CF93DF931F92CDB7DEB76983AD
:100E0000DC01ED91FC910280F381E02D41E050E0A6
:100E1000BE016F5F7F4F09950F90DF91CF910895CD
:100E200083E08093E9008091F200882319F08AE33F
:100E30008093E80008950E949A0190E00895CF936E
:100E4000DF931F92CDB7DEB7FC018485958597FDB2
:100E500008C02FEF3FEF358724870F90DF91CF91A8
:100E60000895CE0101960E947001019719F48981BD
:100E700090E0F3CF8FEF9FEFF0CF0F931F93CF93BF
:100E8000DF931F92CDB7DEB78C01FC018485958579
:100E900097FF0BC0CE0101960E947001019771F47B
:100EA000898190E0F80195878487F801848595858C
:100EB0000F90DF91CF911F910F9108958FEF9FEFCA
:100EC000F1CFFC018485958597FD0BC09FB7F89401
:100ED00082E08093E9008091F2009FBF90E001964C
:100EE00008959FB7F89482E08093E9008091F20022
:100EF0009FBF90E00895FC0180819181009711F0DF
:100F00000C94921B089542E050E06DE371E082E59D
:100F100092E00C947506CF93DF93FC0101900020C2
:100F2000E9F73197AF01481B590BBC0182E592E00C
:100F30000E947506EC010E9483078C0F9D1FDF91B4
:100F4000CF9108952F923F924F925F926F927F922E
:100F50008F929F92AF92BF92CF92DF92EF92FF92C9
:100F60000F931F93CF93DF9300D000D000D01F9238
:100F7000CDB7DEB789836B83C42E3D832C83FF827C
:100F8000EE820E94A1054B015C01EE80FF80EF28FC
:100F900021F486E492E09F838E83EC2CF12C9C2D2F
:100FA00091959A83312C212CD12C2801712C612C04
:100FB0002E143F040CF061C0A1E0A093F901B981A7
:100FC000B093F8011092F7011092F601AE81BF8143
:100FD000ED91FC9111970190F081E02D6B81CD0195
:100FE00009958E819F810E941204B1E0B093F901AE
:100FF00089818093F8011092F7011092F6016C2D0F
:1010000090E29C1508F460E289810E9443031092EB
:10101000F5018093F401AE81BF81ED91FC911197B0
:101020000084F185E02DCD010995892B09F1011589
:10103000110599F4AE81BF81ED91FC911197028465
:10104000F385E02DCD010995EC81FD81ED0DF11DBC
:10105000D7FCFA958083D394DECF0E94A10568194E
:1010600079098A099B09641575058605970510F3AA
:101070002E0C3F1CBA81CB0E9BCF01151105B1F090
:101080000E94A105681979098A099B0930E020E0CE
:10109000601771078207930748F08D2D0D2C000C07
:1010A000990B8E159F0514F4DD24DA948D2D279667
:1010B0000FB6F894DEBF0FBECDBFDF91CF911F9169
:1010C0000F91FF90EF90DF90CF90BF90AF909F90E7
:1010D0008F907F906F905F904F903F902F900895EA
:1010E0008F929F92AF92BF92CF92DF92EF92FF9238
:1010F0000F931F93CF93DF931F92CDB7DEB7B82E18
:10110000A62E842E922E6801780108EE13E09E012F
:101110002F5F3F4F41E00E94A20781E090E001C0B5
:10112000880F8A94EAF749819920A9F0482B4983CE
:1011300096016A2D8B2D0E9443050F90DF91CF9170
:101140001F910F91FF90EF90DF90CF90BF90AF90E5
:101150009F908F90089580954823E9CFEF92FF925A
:101160000F931F93CF93DF931F92CDB7DEB7E0901D
:10117000AF02F090B00208EE13E09E012F5F3F4FE8
:1011800041E065E78091AE020E94A207882339F012
:1011900089818E7790E0959587958093B1028091B3
:1011A000B1020F90DF91CF911F910F91FF90EF90BF
:1011B00008957F928F929F92AF92BF92CF92DF92CB
:1011C000EF92FF920F931F93CF93DF931F92CDB7B0
:1011D000DEB7A82E962E742E822EB02E08EE13E0C7
:1011E0009E012F5F3F4F41E00E94A207882399F1A3
:1011F000872D8819990BAC014F5F5F4F81E090E01C
:1012000002C0880F991F8A94E2F70197042E01C04B
:10121000880F0A94EAF72B2D01C0220F4A95EAF7AE
:10122000482F4095B9804B218223482B4983970151
:10123000692D8A2D0E9443050F90DF91CF911F9158
:101240000F91FF90EF90DF90CF90BF90AF909F9065
:101250008F907F90089580E0EFCF3F924F925F9202
:101260006F927F928F929F92AF92BF92CF92DF92B6
:10127000EF92FF920F931F93CF93DF93782E662EFA
:101280006A017901E8010E94A1054B015C012097E8
:1012900011F4C6E4D2E011E01093F9017092F80164
:1012A0001092F7011092F601E881F9810190F08126
:1012B000E02D662DCE010995CE010E9412041093F7
:1012C000F9017092F8011092F7011092F60162E0B4
:1012D000872D0E9443031092F5018093F40101E0F1
:1012E00010E02701712C612C33243394E881F981BB
:1012F0000084F185E02DCE010995892B49F111116A
:1013000027C0E114F104C9F4E881F9810284F3856E
:10131000E02D01110CC0CE010995F601208131812B
:10132000822B932B9183808311E00325DFCFCE01A5
:101330000995F60110828183F8CF0E94A1056819F2
:1013400079098A099B096415750586059705E0F2F8
:10135000CE010E941204E114F10499F00E94A1054B
:10136000AB01BC01481959096A097B09C701B0E002
:10137000A0E0481759076A077B0718F0111101C050
:101380001FEF812FDF91CF911F910F91FF90EF9071
:10139000DF90CF90BF90AF909F908F907F906F9095
:1013A0005F904F903F9008952F923F924F925F929F
:1013B0006F927F928F929F92AF92BF92CF92DF9265
:1013C000EF92FF920F931F93CF93DF93CDB7DEB7CA
:1013D000E7970FB6F894DEBF0FBECDBF8F8F4EA339
:1013E0005FA368A779A70AA71BA72CA73DA78B33E4
:1013F00009F048C20E94AE08883308F4BAC2B7E7C1
:10140000BF8BE3E0EA8FE090AF02F090B00208EE0D
:1014100013E09E012F5F3F4F41E06CE18091AE02EF
:101420000E94A207882351F08981887190E023E00F
:10143000959587952A95E1F78093B1028091B10245
:1014400020E030E4790102C0F594E7948A95E2F750
:101450006EE382E592E00E94FA06CE010D969E8B25
:101460008D8BDE011196B98FA88F6C01BF8800911A
:10147000AF021091B00228EE33E0AE014D5E5F4F37
:101480006B2D8091AE020E942D098B889C88B4013F
:10149000092C000C880B990B0E948218FF89F331EC
:1014A00009F4F8C121E082229924D6018D929C9200
:1014B00020E030E040E051E40E94E118E88DF98D31
:1014C0006083718382839383BA8DBB0EE2E0CE0E7C
:1014D000D11C288D398D2C5F3F4F398F288F8D89F6
:1014E0009E892817390719F69F8D9B3309F0E0C1B3
:1014F0008DEC9CECACE4BDE388AB99ABAAABBBAB89
:10150000A2E0B0E0BFA7AEA7C701B0E0A0E08CABFF
:101510009DABAEABBFAB19A218A2312C212CFE01A2
:101520003196FC8FEB8F9E01235F3F4F3BA32AA395
:101530003F893CA38F8D8DA3812C912C54011E8E4D
:101540001D8E0091AF021091B00228EE33E0AE0183
:101550004D5E5F4F6DA18091AE020E942D096B8997
:101560007C89072E000C880B990B0E9482186B0156
:101570007C019F8D9B3391F4AD8DBE8D129771F4DC
:101580006CA97DA98EA99FA90E9480189B01AC011E
:10159000C701B6010E94DC196B017C0126013701ED
:1015A00077FA709477F87094C501B4010E9480189E
:1015B0004B015C0120E030E0A901C701B6010E94A7
:1015C000F11A181614F073016201A7019601C50102
:1015D000B4010E94DD190E94C21A4B015C012FE682
:1015E00032E143E85AE3C301B2010E94E1182AA59F
:1015F0003BA54CA55DA50E94E118EB8DFC8D2081DB
:101600003181428153810E94DD196B017C01AB8DD8
:10161000BC8DCD92DD92ED92FC9213972EA13FA14D
:1016200048A559A5C301B2010E94E118A70196017E
:101630000E94DD19BF89B33109F449C120E030E0CF
:1016400040E05EE30E94E1186B017C0120E030E0A5
:10165000A9010E94F11A20E030E040E05FE387FD3D
:1016600031C1C701B6010E94DD190E94BB1A6E7F0D
:10167000EAA1FBA180819181682B792B7C8B6B8BFC
:101680002091AF023091B002AE014D5E5F4F6CA170
:101690008091AE020E94F9042D8D3E8D2F5F3F4F49
:1016A0003E8F2D8F3DA13E5F3DA38CA19A8D890F6A
:1016B0008CA3AAA1BBA11296BBA3AAA3EB8DFC8D00
:1016C0003496FC8FEB8F2D8D3E8D2330310509F044
:1016D00038CF33E62316310471F489EE881683E09F
:1016E0009806A104B10438F06AE282E592E00E9413
:1016F000FA06312C212CC501B4010E94801828A9BA
:1017000039A94AA95BA90E94E11820E030E040EA2B
:1017100050E40E947B1887FF05C0A8A1B9A11196CB
:10172000B9A3A8A3B4E68B169104A104B10408F0F0
:10173000EDC0EBE02E1631040CF4E8C028A139A16D
:101740002A3031050CF4E2C06EE282E592E00E949C
:10175000FA0620E030E040E45FE36EA17FA188A5B7
:1017600099A50E94E1186EA37FA388A799A720E0FE
:1017700030E040E45FE36AA57BA58CA59DA50E94AF
:10178000E1186AA77BA78CA79DA7CE010D966C01D7
:10179000FF88DE0111963D01D3016D917D918D9100
:1017A0009D913D01BF89B33109F4C4C020E030E010
:1017B00040E05EE30E94E1184B015C0120E030E074
:1017C000A9010E94F11A20E030E040E05FE387FDCC
:1017D000ACC0C501B4010E94DD190E94BB1A6E7F26
:1017E000F60180819181682B792B7C8B6B8B20910A
:1017F000AF023091B002AE014D5E5F4F6F2D809110
:10180000AE020E94F904FA8DFF0E22E0C20ED11C36
:10181000888D998D8615970509F0BECFAEA5BFA519
:10182000119709F04AC00091AF021091B00221E077
:1018300042E06AE68091AE020E9470080091AF0219
:101840001091B00221E043E06AE68091AE020E946E
:101850007008E7960FB6F894DEBF0FBECDBFDF91DC
:10186000CF911F910F91FF90EF90DF90CF90BF909D
:10187000AF909F908F907F906F905F904F903F9030
:101880002F90089523E12F8B32E03A8FE12C80E2F4
:10189000F82EDECD20E030E040E850E40E94E11870
:1018A000A88DB98D6D937D938D939C9313970CCEDA
:1018B00080E090E0A0E8BFE31FCEA1E0B0E0BFA7CA
:1018C000AEA729CEC701B6010E94DC19CECE20E01A
:1018D00030E040E85EE30E94E1186B017C0120E00B
:1018E00030E0A9010E94F11A20E030E040E05FE31F
:1018F00087FD07C0C701B6010E94DD190E94BB1A0F
:10190000BDCEC701B6010E94DC19F8CF61E070E0DE
:1019100080E090E00E946F05BFEF2B1A3B0AE4E6DF
:101920002E16310409F0FBCD0FCFC501B4010E9482
:10193000DC1953CF20E030E040E85EE30E94E1187C
:101940004B015C0120E030E0A9010E94F11A20E087
:1019500030E040E05FE387FD07C0C501B4010E94AD
:10196000DD190E94BB1A41CFC501B4010E94DC19E8
:10197000F8CFF6E0FF8B22E02A8F45CD85ED8093EE
:10198000BC008091420290914302A0914402B09128
:1019900045020796A11DB11D23E0B695A795979521
:1019A00087952A95D1F72091BC0024FD03C01092A1
:1019B00040020895409142025091430260914402D6
:1019C00070914502452B462B472B69F30097A105E3
:1019D000B10541F025E32A95F1F700000197A1092F
:1019E000B109E1CF809141020C94FD020F931F9346
:1019F000CF93DF93EC0188819981009759F02A8178
:101A00003B812617370730F081E0DF91CF911F919E
:101A10000F9108958B016F5F7F4F0E941B1C0097F1
:101A200059F0998388831B830A832C813D81232B62
:101A300059F7FC011082E8CF80E0E7CF0F931F93A6
:101A4000CF93DF93EC010C811D810F5F1F4FB80115
:101A50000E94F60C882369F0288139818C819D8150
:101A60006EE571E0820F931F0E94E11C1D830C83C1
:101A700081E0DF91CF911F910F910895EF92FF9236
:101A80000F931F93CF93DF93FB01E080F180E1146C
:101A9000F10441F480E0DF91CF911F910F91FF900D
:101AA000EF9008950481158101151105B1F0EC0145
:101AB0008C819D81080F191FB801CE010E94F60C80
:101AC000882341F3288139818C819D81B701820F60
:101AD000931F0E94E11C1D830C8381E0DCCFEF92F9
:101AE000FF920F931F93CF93DF93EC017B018A0149
:101AF000BA010E94F60C28813981811114C0211588
:101B0000310519F0C9010E94921B198218821D82A9
:101B10001C821B821A82CE01DF91CF911F910F91FF
:101B2000FF90EF9008951D830C83B701C9010E94B7
:101B3000E11CF1CFEF92FF920F931F93CF93DF93AE
:101B4000CDB7DEB7A1970FB6F894DEBF0FBECDBFFD
:101B50007C01CB01BA01F70111821082138212823B
:101B6000158214828E010F5F1F4F22E044E00E9415
:101B7000F4150097C9F0FC0101900020E9F73197B6
:101B8000AF01481B590BBC01C7010E946F0DA19604
:101B90000FB6F894DEBF0FBECDBFDF91CF911F917E
:101BA0000F91FF90EF900895F70180819181009748
:101BB00011F00E94921BF70111821082158214828B
:101BC00013821282E4CF1F920F920FB60F9211244C
:101BD0002F933F934F935F936F937F938F939F9335
:101BE000AF93BF93EF93FF938091B900887F8036C6
:101BF00009F44AC0F0F5883209F4A7C018F580311D
:101C000009F49BC0B8F4882309F4F9C0883009F4BA
:101C100094C0FF91EF91BF91AF919F918F917F9170
:101C20006F915F914F913F912F910F900FBE0F9049
:101C30001F901895883109F488C0803251F780933D
:101C40001E0214C0803409F49DC040F48033B9F3FF
:101C50008833F9F680931E0285ECB0C0803509F414
:101C600085C0883509F496C0883499F60E94BE0C68
:101C7000D0CF883909F48CC038F5883729F050F472
:101C8000883611F0803729F683E080934002109265
:101C9000F10157C0883809F47BC0803919F08038C9
:101CA00009F0B7CF8091F101803208F071C0E09166
:101CB000F10181E08E0F8093F1018091BB00F0E093
:101CC000EF52FE4F80833DC0803B39F0E0F4803A14
:101CD00009F479C0883A09F09CCF84E080934002EF
:101CE0001092CE011092CD01E091CB01F091CC0188
:101CF00009958091CD0181110FC081E08093CD01C4
:101D00001092AB0109C0803C09F4A6CF883C09F4CD
:101D1000A3CF883B09F07DCFE091CE0181E08E0F0B
:101D20008093CE01F0E0E555FE4F80818093BB00AB
:101D30009091CE018091CD0129C080911B028093AA
:101D4000BB0085EC8093BC0064CF90911D02809114
:101D50001C02981758F5E0911D0281E08E0F8093C8
:101D60001D02F0E0E650FE4F8081E9CFE0911D02B8
:101D700081E08E0F80931D028091BB00F0E0E65061
:101D8000FE4F808390911D0280911C029817C8F22B
:101D900085E8D8CFE0911D0281E08E0F80931D026F
:101DA0008091BB00F0E0E650FE4F808380911F02DF
:101DB00081115CCF81E080931A0284EA8093BC0099
:101DC0001092400226CF85EC8093BC001092400216
:101DD0008091F101803230F4E091F101F0E0EF52B6
:101DE000FE4F10826091F10170E0E091CF01F0911F
:101DF000D00181ED91E009951092F1010ACF109286
:101E00001E0234CF1F920F920FB60F9211242F9300
:101E10003F938F939F93AF93BF938091760190915F
:101E20007701A0917801B09179013091750123E09B
:101E3000230F2D3758F50196A11DB11D2093750173
:101E40008093760190937701A0937801B093790104
:101E500080917A0190917B01A0917C01B0917D01EC
:101E60000196A11DB11D80937A0190937B01A093EF
:101E70007C01B0937D01BF91AF919F918F913F9174
:101E80002F910F900FBE0F901F90189526E8230FEB
:101E90000296A11DB11DD2CF1F920F920FB60F92C5
:101EA00011248F939F938091E1009091E100937FA3
:101EB0009093E10083FF0FC01092E90091E09093AE
:101EC000EB001092EC0092E39093ED001092F3017E
:101ED00098E09093F00082FF22C093E09093E90095
:101EE0009091F200992319F09AE39093E800909171
:101EF0006601992341F0909166019150909366019B
:101F0000911101C05D9A9091F201992341F0909155
:101F1000F20191509093F201911101C0289A84FF2F
:101F200018C08091E2008E7E81608093E2008091F3
:101F3000E1008F7E8093E100809167018E7E806159
:101F4000809367019F918F910F900FBE0F901F900C
:101F5000189580FFF7CF8091E2008E7E806180939C
:101F6000E2008091E1008E7E8093E1008091670124
:101F70008E7E8160E5CF1F920F920FB60F921124D3
:101F8000CF92DF92EF92FF920F931F932F933F9385
:101F90004F935F936F937F938F939F93AF93BF9371
:101FA000EF93FF93CF93DF93CDB7DEB76C97DEBF90
:101FB000CDBF1092E9008091E80083FF25C068E062
:101FC000CE0145960E94650682EF8093E8008D89D8
:101FD00087FF39C09091E80090FFFCCF982F907652
:101FE00009F034C19E894F89588D2F89F88C911141
:101FF00031C0803861F5809168018093F1001092C2
:10200000F1008EEF8093E8006C960FB6F894DEBF77
:102010000FBECDBFDF91CF91FF91EF91BF91AF91F7
:102020009F918F917F916F915F914F913F912F91F0
:102030001F910F91FF90EF90DF90CF900F900FBE08
:102040000F901F9018959EEF9093E800C7CF1092C5
:10205000F100D5CF913059F48111D3CF41305105E2
:1020600081F6809168018D7F80936801CACF93309B
:1020700049F48111C6CF4130510519F680916801AC
:102080008260F2CF953041F48091E80080FFFCCF70
:1020900020682093E300B5CF963009F0A9C00B8DDE
:1020A0001C8D22E01092E9001092640110926301ED
:1020B000F2122EC010926201109261010E94340649
:1020C0001F8299E09983FA8291E09E8390EA988733
:1020D0009AEF99872091630130916401275F3F4F08
:1020E0003C832B838D831092E9001092640110923F
:1020F0006301109362010093610149E050E0BE0169
:102100006F5F7F4F80E00E940E060E94340679CFF9
:1021100010936201009361010E945A02DC01129641
:102120000D911C910115110509F451C1D801ED91D2
:10213000FC910480F581E02DBE016B5E7F4FC801EC
:102140000995009709F03EC1F80100851185EACF95
:10215000F3E0FF120EC08F89882309F440C082305B
:1021600061F440E86AE087E092E00E94DB058111BB
:1021700048CF81E28093EB0047CF813029F440E8DB
:1021800068E08EEF91E0F1CF833099F70E945A0218
:10219000DC011296ED90FC908E010F5F1F4F6801DD
:1021A000E114F10479F0D701ED91FC910680F781FB
:1021B000E02DB801C7010995080F111DF701E08452
:1021C000F184EECFD8011C92F60101900020E9F7CE
:1021D0003197BF016C197D0940E0C601C6CF68EE9A
:1021E00071E0FB01449150E080E80E940E0609CFA7
:1021F000973009F4BECF983021F481E08093F1004C
:1022000000CF993009F0FDCE837009F0B2CFE3E141
:10221000F1E081E031E096E32191222371F0809397
:10222000E9003093EB00DF0111972C912093EC0033
:102230009093ED008F5F873079F78EE78093EA0007
:102240001092EA008F898093F301DBCE8B8D9C8DF9
:102250001092E90010926401109263019093620160
:1022600080936101898D811192C08E899D89913AF7
:1022700049F4813209F07DCF47E050E064E071E03D
:1022800080E0B3CF913209F074CF833269F48F8943
:10229000988DB0E0A0E08093000190930101A0939D
:1022A0000201B0930301ADCE803269F48091E80061
:1022B00082FFFCCF67E084E091E00E9465068BEF2F
:1022C0008093E8009ECE823209F09BCE8F89809366
:1022D0000B01EEEFFFE7859194918B3F9C4D51F1FF
:1022E000E0E0F8E08091040190910501A0910601E1
:1022F000B0910701803B9440A105B105F1F48091B4
:102300000B0180FD1AC0EE3F8AE0F80789F587E7E8
:1023100097E791838083809160008093650188E1D5
:102320009BE00FB6F894A895809360000FBE909341
:10233000600067CEEEEFFAE0D5CF808191818737DC
:10234000974709F05ECEA8958091600088618093E0
:1023500060008091650180936000EE3F2AE0F20703
:1023600089F08091FE0A9091FF0A9183808349CE83
:10237000808191818737980751F29093FF0A80936B
:10238000FE0AC5CF1092FF0A1092FE0A3ACE0E94B2
:102390005A02DC0112960D911C910115110509F4E8
:1023A000E8CED801ED91FC910190F081E02DBE01C5
:1023B0006B5E7F4FC8010995811123CEF80100851E
:1023C0001185EBCF181619060CF41BCED2CEF1E016
:1023D000FF12BECE6CEE71E004CFE6E4F2E01382B1
:1023E000128288EE93E0A0E0B0E084839583A68318
:1023F000B7832DE131E031832083E2E5F2E01382FF
:10240000128284839583A683B7838FE291E09183C0
:1024100080838FEF9FEF95878487EEEAF2E088E66E
:1024200080831282118288EF9AE2A0E0B0E0818B73
:10243000928BA38BB48B118E10920D0310920E030E
:1024400010920F03109210031092110310921203B6
:102450001092130310921403109215031092160396
:10246000109217031092180380E090E0A0E8BFE3F9
:102470008093190390931A03A0931B03B0931C033A
:1024800010921D0310921E0310921F03109220033E
:10249000109221031092220310922303109224031E
:1024A00010922503109226031092270310922803FE
:1024B00010923603109235031092380310923703AE
:1024C00010923A031092390310923C0310923B038E
:1024D00010923E0310923D031092400310923F036E
:1024E000109242031092410310924403109243034E
:1024F0001092460310924503E2EAF2E01082118244
:102500001282138214821582168217821086118617
:10251000128613860895CF93DF93CDB7DEB7E19788
:102520000FB6F894DEBF0FBECDBF789484B582603D
:1025300084BD84B5816084BD85B5826085BD85B567
:10254000816085BD80916E00816080936E001092E5
:102550008100809181008260809381008091810060
:1025600081608093810080918000816080938000F1
:1025700080919100826080939100809191008160B0
:102580008093910080919000816080939000809171
:10259000C10084608093C1008091C10082608093FB
:1025A000C1008091C10081608093C1008091C3000F
:1025B00081608093C3008091C00082608093C000DE
:1025C0008091C20081608093C20080917A00846013
:1025D00080937A0080917A00826080937A00809163
:1025E0007A00816080937A0080917A00806880937D
:1025F0007A001092F30110926801109267018091A5
:10260000D70081608093D70080EA8093D80089B595
:10261000806189BD89B5826089BD09B400FEFDCFA6
:1026200061E070E080E090E00E946F058091D8004A
:102630008F7C80618093D8008091E000807F8093C0
:10264000E0008091E1008E7E8093E1008DE0809338
:10265000E200559A209A10910B016AE070E080E048
:1026600090E00E946F051123B1F30FEF1FEF10935D
:102670005F0200935E0280E491E00E948B0764E6B3
:1026800070E080E090E00E946F0586E491E00E9497
:102690008B071092F5011092F4011092F70110923D
:1026A000F6010E94DF0282ED91E09093CC018093CD
:1026B000CB0183ED91E09093D0018093CF011093F3
:1026C0005F0200935E02E090AF02F090B00201E082
:1026D00023E042E06BE68091AE020E94D908E090D0
:1026E000AF02F090B00200E022E044E06BE18091A4
:1026F000AE020E94D908E090AF02F090B00222E052
:1027000044E06CE18091AE020E94D9080091AF02D2
:102710001091B00220E046E06BE68091AE020E948C
:102720007008E090AF02F090B00201E023E042E0D8
:102730006CE18091AE020E94D908E090AF02F09067
:10274000B00203E022E045E069E68091AE020E941B
:10275000D9080091AF021091B00220E047E068E391
:102760008091AE020E9470080091AF021091B002F9
:1027700021E045E068E38091AE020E94700800917C
:10278000AF021091B00221E046E068E38091AE0212
:102790000E9470082091AF023091B00241E06FE1D9
:1027A0008091AE020E9443052091AF023091B002A9
:1027B00041E06DE18091AE020E9443052091AF029D
:1027C0003091B00242E061E28091AE020E94430586
:1027D0002091AF023091B00241E060E28091AE0200
:1027E0000E9443052091AF023091B00241E06EE1BA
:1027F0008091AE020E9443052091AF023091B00259
:1028000041E062E28091AE020E9443050E94AE0860
:1028100066E0883308F067E72091AF023091B0029C
:1028200043EE5EEF8091AE020E9432050E94AE0838
:1028300068E0883308F06AE72091AF023091B00277
:1028400045EC5EEF8091AE020E9432050E94AE0818
:102850006AE0883308F06DE72091AF023091B00252
:102860004DE956E08091AE020E9432052091AF0200
:102870003091B00246E350E063E18091AE020E94E5
:1028800032052091AF023091B0024FEC5FEF65E16D
:102890008091AE020E9432052091AF023091B002C9
:1028A0004DEF5FEF67E18091AE020E94320500E0DC
:1028B00010E028E831E44CE55FE862E87EE38BE372
:1028C0000E94D40900E010E029E932E44CE55FE819
:1028D00062E87EE383E40E94D40986E090E090936E
:1028E0004803809347031092A2021092A302109211
:1028F000A4021092A5021092A6021092A7021092B2
:10290000A8021092A9021092AA021092AB02109291
:10291000AC021092AD0280E591E00E948B078CE240
:1029200091E09093700180936F0190936A0180937E
:102930006901E3E5F2E02491E4E3F2E08491882385
:1029400099F090E0880F991FFC01EE5EFD4FA59174
:10295000B491FC01E05EFD4F859194918FB7F8949E
:10296000EC91E22BEC938FBFCE0101966C0180E0DD
:10297000282E80E0382EE090AF02F090B00208EEF2
:1029800013E021EB32E04EE06BE38091AE020E9457
:10299000A2076091B9027091BA027627672776275D
:1029A000072E000C880B990B0E9482182FE632E14B
:1029B00043E053E40E94491A4B015C0120E030E0FF
:1029C000A9010E94F11A18160CF0F3C001E020E0F2
:1029D00030E040E450E4C501B4010E94F11A181639
:1029E0000CF000E010914703002309F4EFC0609160
:1029F000BB027091BC02762767277627072E000C52
:102A0000880B990B0E9482182FE632E143E053E4D1
:102A10000E94491A6EA77FA788AB99AB6091BD024F
:102A20007091BE02762767277627072E000C880B49
:102A3000990B0E9482182FE632E143E053E40E9492
:102A4000491A2B013C0161E0812F0E946E028092A5
:102A5000A2029092A302A092A402B092A5028EA517
:102A60009FA5A8A9B9A98093A6029093A702A093B5
:102A7000A802B093A9024092AA025092AB026092BF
:102A8000AC027092AD0220E030E0A901C501B401B2
:102A90000E947B18882309F485C019A618A61BA6D6
:102AA0001AA61DA61CA642E050E06DE571E0CE011D
:102AB00088960E946F0D4091A2025091A3026091EE
:102AC000A4027091A502C6010E949A0DB601CE0122
:102AD00088960E943E0DC6010E947B07CE01889613
:102AE0000E941E0D4091A6025091A7026091A8027B
:102AF0007091A902C6010E949A0DB601CE01889676
:102B00000E943E0DC6010E947B07CE0188960E945E
:102B10001E0D4091AA025091AB026091AC027091DF
:102B2000AD02C6010E949A0DB601CE0188960E94A0
:102B30003E0DC6010E947B07CE0188960E941E0DA5
:102B40000E94A1051BA21AA21DA21CA21FA21EA2C6
:102B50002AE0A6010E941216F60101900020E9F772
:102B60003197AF014C195D09B601CE0182960E94E2
:102B70006F0DBE016E5D7F4FCE0188960E943E0DA7
:102B8000CE0182960E947B074CA55DA568A579A51C
:102B900082E592E00E9475060E948307CE01889626
:102BA0000E947B072114310409F4E5CE0E94000045
:102BB000E2CE20E030E040E450ECC501B4010E94D8
:102BC0007B18082F001F0027001F0CCF60E0812F0B
:102BD0000E946E02412C512C32014EA65FA668AABB
:102BE00079AA5301420133CFEF920F931F93CF93F2
:102BF000DF93E80134E047FD34E1042E000C550B6F
:102C000057FF03C0519541955109E32E022F242F00
:102C1000AE010E943416CE01DF91CF911F910F912A
:102C2000EF900895BB27FA01A62F62177105810561
:102C30009105330B30FB66F0AA27660F771F881FBC
:102C4000991FAA1FA21710F0A21B63953850A9F76D
:102C5000A05DAA3308F0A95DA19336F7B111B19335
:102C60001082CA010C946B18A9E0B0E0EAE3F6E127
:102C70000C94A5196A01F22EB02E102FFBE3AF2E93
:102C8000A01608F41BE31F5F012F27E0AE014F5F82
:102C90005F4F0E949317BC018981982F99709130E2
:102CA00009F43FC09BE2E1FC04C09E2D9170E0FC62
:102CB0003AC05E2D5071E82FE87083FF46C084E073
:102CC000911101C083E0EF2DE81B8F1508F0E0E0C3
:102CD000D6018E2F20E2552351F1992329F0D601F8
:102CE0009C93C60101966C0196012D5F3F4FE2FE59
:102CF00024C08EE4D6018C9391E411969C93119795
:102D000012968C93D9018E2F90E281111BC0E20F95
:102D1000F32FF11D10828EEF9FEF2996ECE00C94BB
:102D2000C1199DE2C6CF90E2C4CF2D93815081118D
:102D3000FCCFCE0ED11CE0E0D0CF8EE6D6018C9336
:102D400091E6DBCF9D938150E0CF482F447082FF06
:102D50003DC084E0911101C083E08F1510F4EF2D88
:102D6000E81BD6018E2F20E2552309F1992329F083
:102D7000D6019C93C60101966C0196012D5F3F4FD1
:102D8000E2FE1BC089E4D6018C938EE411968C93ED
:102D9000119786E412968C93D9018E2F90E28823A6
:102DA00009F4B5CF9D938150FACF2D9381508111B5
:102DB000FCCFCE0ED11CE0E0D9CF89E6D6018C93B2
:102DC0008EE611968C93119786E6E4CF9B0177FFF0
:102DD00002C030E020E0A1E0B0E0911102C0B0E01C
:102DE000A0E0F9013196AE0FBF1F8B2C912CBB20B8
:102DF00009F461C05401EFEFAE1ABE0AAA0DBB1D63
:102E0000FA161B0619F014F04F2D4A1B511188C0F9
:102E1000E3FC59C07601A42FB0E2A1114FC0C40E4B
:102E2000D11C992309F45BC040E0D6011196F6014C
:102E300090836D01552309F448C0012F060F9A8134
:102E4000582F507184FF03C0913309F401501016BC
:102E50000CF047C0093008F008E0EEE2FE2E5B01FE
:102E6000A01AB10885019194819491082F3F3207EF
:102E700029F4D601FC92F60131966F0162177307AF
:102E800094F1021713077CF5DB01A21BB30BAA24F4
:102E9000A394B12CAC0EBD1EAA0DBB1D11968C9136
:102EA00021503109D601119628153905F4F0F601A3
:102EB00080836D01DBCFB12CA12CA0CFF701B193A2
:102EC0007F01A150AACF9111B0CFD601942F50E32A
:102ED00002C05D9391509111FCCFC40ED11C40E013
:102EE000ACCF01E0BACF80E3DBCF6217730731F4D8
:102EF000963388F4953311F4552369F0F6018083F5
:102F0000FD01842F90E2811108C0A40FB11D1C9215
:102F100090E080E002CF81E3F1CF91938150F3CF35
:102F2000911183CF8ACF283008F027E03327DA01C8
:102F3000990F311D87FD916000966105710539F487
:102F400032602E5F3D9330E32A95E1F708959F3F6D
:102F500030F080387105610509F03C5F3C5F3D93BE
:102F6000913008F08068911DDF93CF931F930F93EA
:102F7000FF92EF92192F987F9695E92F9695969547
:102F8000E90FFF27EA5FFE4F99273327EE24FF243E
:102F9000A701E70105900894079428F4360FE71E6F
:102FA000F81E491F511D660F771F881F991F069431
:102FB000A1F70590079428F4E70EF81E491F561F45
:102FC000C11D770F881F991F661F0694A1F70590F2
:102FD000079428F4F80E491F561FC71FD11D880FEC
:102FE000991F661F771F0694A1F70590079420F498
:102FF000490F561FC71FD81F990F661F771F881FBD
:103000000694A9F784911095177041F0D695C7954D
:1030100057954795F794E7941A95C1F7ECEAF0E0D5
:1030200068941590159135916591959105907FE281
:103030007395E118F10A430B560BC90BD009C0F781
:10304000E10CF11E431F561FC91FD01D7EF47033C3
:1030500011F48A95E6CFE894015030F0080F0AF495
:103060000027021708F4202F2395022F7A3328F027
:1030700079E37D932A95E9F710C07D932A9589F627
:10308000069497956795379517951794E118F10A67
:10309000430B560BC90BD00998F023957E9173957D
:1030A0007A3308F070E37C932013B8F77E91706157
:1030B0007D9330F0839571E37D9370E32A95E1F77A
:1030C0001124EF90FF900F911F91CF91DF919927DD
:1030D00087FD90950895DC01FC01672F719177239E
:1030E000E1F7329704C07C916D9370836291AE17C3
:1030F000BF07C8F308950E94BD1808F481E0089541
:10310000E89409C097FB3EF4909580957095619581
:103110007F4F8F4F9F4F9923A9F0F92F96E9BB2737
:103120009395F695879577956795B795F111F8CFB3
:10313000FAF4BB0F11F460FF1BC06F5F7F4F8F4F1E
:103140009F4F16C0882311F096E911C0772321F014
:103150009EE8872F762F05C0662371F096E8862FAC
:1031600070E060E02AF09A95660F771F881FDAF703
:10317000880F9695879597F90895990F0008550F30
:10318000AA0BE0E8FEEF16161706E807F907C0F0ED
:1031900012161306E407F50798F0621B730B840BF5
:1031A000950B39F40A2661F0232B242B252B21F4CF
:1031B00008950A2609F4A140A6958FEF811D811D6F
:1031C00008950E94F4180C9465190E94571938F05C
:1031D0000E945E1920F0952311F00C944E190C9466
:1031E000541911240C9499190E94761970F3959F23
:1031F000C1F3950F50E0551F629FF001729FBB27EE
:10320000F00DB11D639FAA27F00DB11DAA1F649F89
:103210006627B00DA11D661F829F2227B00DA11D3C
:10322000621F739FB00DA11D621F839FA00D611DC2
:10323000221F749F3327A00D611D231F849F600DE3
:10324000211D822F762F6A2F11249F5750409AF00C
:10325000F1F088234AF0EE0FFF1FBB1F661F771F98
:10326000881F91505040A9F79E3F510580F00C9463
:103270004E190C9499195F3FE4F3983ED4F3869568
:1032800077956795B795F795E7959F5FC1F7FE2B03
:10329000880F911D9695879597F9089597F99F67DF
:1032A00080E870E060E008959FEF80EC08950024CE
:1032B0000A941616170618060906089500240A949B
:1032C00012161306140605060895092E0394000C21
:1032D00011F4882352F0BB0F40F4BF2B11F460FFB0
:1032E00004C06F5F7F4F8F4F9F4F089557FD9058D9
:1032F000440F551F59F05F3F71F04795880F97FBBA
:10330000991F61F09F3F79F0879508951216130673
:103310001406551FF2CF4695F1DF08C016161706A2
:103320001806991FF1CF86957105610508940895D7
:10333000E894BB2766277727CB0197F908952F924A
:103340003F924F925F926F927F928F929F92AF9235
:10335000BF92CF92DF92EF92FF920F931F93CF9382
:10336000DF93CDB7DEB7CA1BDB0B0FB6F894DEBF19
:103370000FBECDBF09942A88398848885F846E843F
:103380007D848C849B84AA84B984C884DF80EE8089
:10339000FD800C811B81AA81B981CE0FD11D0FB692
:1033A000F894DEBF0FBECDBFED010895EE0FFF1FF5
:1033B0000590F491E02D09945058BB27AA270E944C
:1033C000F4190C9465190E94571938F00E945E197F
:1033D00020F039F49F3F19F426F40C9454190EF49C
:1033E000E095E7FB0C944E19E92F0E94761958F3EB
:1033F000BA17620773078407950720F079F4A6F5DA
:103400000C9498190EF4E0950B2EBA2FA02D0B01F9
:10341000B90190010C01CA01A0011124FF27591B19
:1034200099F0593F50F4503E68F11A16F040A22F1F
:10343000232F342F4427585FF3CF46953795279590
:10344000A795F0405395C9F77EF41F16BA0B620B8F
:10345000730B840BBAF09150A1F0FF0FBB1F661FD6
:10346000771F881FC2F70EC0BA0F621F731F841F19
:1034700048F4879577956795B795F7959E3F08F03F
:10348000B0CF9395880F08F09927EE0F9795879501
:1034900008950E945D1A0C9465190E945E1958F0F7
:1034A0000E94571940F029F45F3F29F00C944E19FF
:1034B00051110C9499190C9454190E94761968F3BF
:1034C0009923B1F3552391F3951B550BBB27AA27DD
:1034D00062177307840738F09F5F5F4F220F331F17
:1034E000441FAA1FA9F335D00E2E3AF0E0E832D0DF
:1034F00091505040E695001CCAF72BD0FE2F29D0E2
:10350000660F771F881FBB1F261737074807AB07B3
:10351000B0E809F0BB0B802DBF01FF2793585F4F28
:103520003AF09E3F510578F00C944E190C9499197D
:103530005F3FE4F3983ED4F3869577956795B7950A
:10354000F7959F5FC9F7880F911D9695879597F915
:103550000895E1E0660F771F881FBB1F621773078E
:103560008407BA0720F0621B730B840BBA0BEE1FA3
:1035700088F7E09508950E94C21A6894B1110C94DE
:10358000991908950E947E1988F09F5798F0B92FD5
:103590009927B751B0F0E1F0660F771F881F991F88
:1035A0001AF0BA95C9F714C0B13091F00E94981979
:1035B000B1E008950C949819672F782F8827B85F89
:1035C00039F0B93FCCF3869577956795B395D9F7E0
:1035D0003EF490958095709561957F4F8F4F9F4FEA
:1035E00008950E94BD1808F48FEF08950F931F935C
:1035F000CF93DF938230910510F482E090E0E09168
:103600005503F091560330E020E0B0E0A0E03097A1
:1036100099F42115310509F44AC0281B390B2430CF
:103620003105D8F58A819B816115710589F1FB010E
:1036300093838283FE0111C04081518102811381F5
:1036400048175907E0F04817590799F4109761F0A7
:1036500012960C93129713961C933296CF01DF911A
:10366000CF911F910F910895009355031093560326
:10367000F4CF2115310551F04217530738F0A90155
:10368000DB019A01BD01DF01F801C1CFEF01F9CFE4
:103690009093560380935503CDCFFE01E20FF31FA5
:1036A000819391932250310939832883D7CF209178
:1036B000530330915403232B41F420910E01309198
:1036C0000F01309354032093530320910C01309148
:1036D0000D012115310541F42DB73EB74091100180
:1036E00050911101241B350BE0915303F0915403C9
:1036F000E217F307A0F42E1B3F0B2817390778F0C9
:10370000AC014E5F5F4F2417350748F04E0F5F1F27
:103710005093540340935303819391939FCFF0E0D0
:10372000E0E09CCFCF93DF930097E9F0FC01329764
:1037300013821282A0915503B0915603ED0130E03F
:1037400020E01097A1F420813181820F931F2091F6
:103750005303309154032817390709F061C0F093DF
:103760005403E0935303DF91CF910895EA01CE17FC
:10377000DF07E8F54A815B819E0141155105B1F7EC
:10378000E901FB83EA8349915991C40FD51FEC17D6
:10379000FD0761F4808191810296840F951FE901F4
:1037A00099838883828193819B838A83F0E0E0E020
:1037B00012968D919C9113970097B9F52D913C919C
:1037C0001197CD010296820F931F209153033091E0
:1037D00054032817390739F6309751F510925603DC
:1037E00010925503B0935403A0935303BCCFD383DB
:1037F000C28340815181840F951FC817D90761F496
:103800004E5F5F4F88819981480F591F51834083D4
:103810008A819B81938382832115310509F0B0CF82
:10382000F0935603E09355039ECFFD01DC01C0CF1A
:1038300013821282D7CFB0E0A0E0E1E2FCE10C9469
:10384000A1198C01009751F4CB010E94F61A8C014A
:10385000C801CDB7DEB7E0E10C94BD19FC01E60F5D
:10386000F71F9C0122503109E217F30708F49DC0AD
:10387000D901CD91DC911197C617D70798F0C530C3
:10388000D10530F3CE0104978617970708F3C61BBE
:10389000D70B2297C193D1936D937C93CF010E9454
:1038A000921BD6CF5B01AC1ABD0A4C018C0E9D1E3B
:1038B000A0915503B0915603512C412CF12CE12CD1
:1038C000109731F580915303909154038815990511
:1038D00009F05CC04616570608F058C080910C01EC
:1038E00090910D01009741F48DB79EB74091100162
:1038F00050911101841B950BE817F90708F055C08A
:10390000F0935403E0935303F90171836083A0CFD4
:103910008D919C91119712966C90129713967C90B2
:103920001397A815B90559F56C0142E0C40ED11CD6
:10393000CA14DB0420F1AC014A195B09DA011296C2
:10394000159780F06282738251834083D9016D9311
:103950007C93E114F10471F0D7011396FC93EE937C
:10396000129776CF22968C0F9D1FF9019183808349
:10397000F301EFCFF0935603E093550369CF481658
:10398000590608F42C017D01D3019ACFCB010E9486
:10399000F61A7C01009749F0AE01B8010E94D81CCC
:1039A000C8010E94921B870153CF10E000E050CF66
:1039B000FB01DC0102C001900D9241505040D8F74C
:1039C0000895FB01DC0101900D920020E1F70895BC
:0439D000F894FFCF99
:1039D400FFFFFFFF00E100000000000000005703AC
:1039E400800000C18081000000000000002B02FE66
:1039F400017206D401F701E401D50100000000FAC8
:103A04000675061B07100761071F073D070D0A000F
:103A1400524947485400536574757020494D550008
:103A240053657475702074696D65727300722C002F
:00000001FF
