:100000000C94BF040C941B090C94F4080C94CD08B8
:100010000C94A6080C94E7040C94E7040C947F0855
:100020000C94E7040C94E7040C9442090C94B40972
:100030000C94E7040C94E7040C94E7040C94E70494
:100040000C94E7040C94E7040C94E7040C94E70484
:100050000C94E7040C94E7040C94E7040C944D1AF8
:100060000C94E7040C948A0C0C94640C0C94E70434
:100070000C94E7040C94E7040C94E7040C94E70454
:100080000C94E7040C94E7040C94E7040C94E70444
:100090000C941E110C94E7040C94E7040C94E704F0
:1000A0000C94E7040C94E7040C94E7043D1E451EF1
:1000B0004E1E571E701E8B1EBC1E8B198E197D196D
:1000C00081198519AF19AF19AF19921996199A1993
:1000D000A019A419AF19AA19080B00020202010005
:1000E000090400000102020000052400100105249B
:1000F000010101042402060524060001070581030D
:1001000010004009040100020A0000000705020275
:1001100040000007058302400000040309041201A7
:100120000002EF0201404123368000010102030179
:1001300041726475696E6F204C4C43004172647566
:10014000696E6F204C656F6E6172646F004552522C
:100150004F523A204E6F2063616C6C6261636B207A
:10016000617661696C61626C6520666F7220706196
:10017000636B65742049442000FB00003E000B00C7
:1001800036000100020003000000650054FFEF008C
:1001900000FA80000B128200010002000000000043
:1001A00000000000000000000000280000FFFF45E4
:1001B00081FFFFFA7200000000000003E800000069
:1001C0000100017FFFFFFE8001001B000000000016
:1001D000000000000000000000004000004000009F
:1001E0000002CB47A2200000002000000000000019
:1001F00000400000006000000041FF000000000B14
:100200002A0000165500002182FD872650FD80003F
:1002100000001F0000000580000000000000010039
:100220000000020000000300004000000000000485
:100230006F0002653200005EC04000000000000058
:10024000000000000000000000FB8C6F5DFD5D08F9
:10025000D9007C733B006C12CC3200139D3200D06D
:10026000D632000800400001F4FFE6807902000069
:10027000000000D0D600002710FB00000040000066
:10028000000000000000000000000000010000006D
:100290000000000100010000000000FA36FFBC3041
:1002A0008E0005FBF0FFD95BC8FFD09ABE0000109E
:1002B000A9FFF41EB200CEBBF70000000100000051
:1002C00004000200020200000CFFC2800000018056
:1002D0000000CF800040000000000000000000008F
:1002E00000000006000000001400000000000000F4
:1002F00000000000000000000000000000000000FE
:100300000000000000000000000923A135000000EB
:1003100000000000000000000000000000033F6833
:10032000B6793528BCC67ED16C8000FFFF40000046
:10033000000000B26A0000000000000000000000A1
:100340000000003FF000000030000000000000004E
:10035000000000000000000000000000000000009D
:100360000000000000000040000000254D002F703C
:100370006D000005AE000C02D0000000000065001A
:1003800054FFEF00000000000000000100004400E6
:100390000100058BC10000010000000000006500A5
:1003A0000000540000FFEF0000000000000000000B
:1003B000000000000000000000000000000000003D
:1003C000000000000000000000000000000000002D
:1003D000000000000000000000000000010000001C
:1003E000020000000000000000000000000000000B
:1003F00000000000000000000000000000000000FD
:10040000000000000000000000001B0000000000D1
:1004100000000000000000000000000000000000DC
:1004200000000000000000000000000000000000CC
:10043000000000000000000000001B0000000000A1
:1004400000000000000000000000000000000000AC
:10045000000000000000000000000000000000009C
:10046000000000000000000000000000000000008C
:10047000000000000000000000D8DCBAA2F1DEB2EB
:10048000B8B4A88191F74A907F916AF3F9DBA8F993
:10049000B0BAA080F2CE81F3C2F1C1F2C3F3CCA214
:1004A000B280F1C6D880BAA7DFDFDFF2A7C3CBC521
:1004B000B6F087A2942448703C95406834589B78E5
:1004C000A2F183922D557DD8B1B4B8A1D09180F21C
:1004D00070F370F27C80A8F101B09887D943D88678
:1004E000C988BAA1F20EB89780F1A9DFDFDFAADFD1
:1004F000DFDFF2AA4CCD6CA90CC92C97979797F126
:10050000A989264666B0B4BA80ACDEF2CAF1B28CD4
:1005100002A9B69800890E161EB8A9B4992C547C6D
:10052000B08AA896365676F1B9AFB4B083C0B8A8F1
:100530009711B18F98B9AFF0240844106418F1A353
:1005400029557DAF83B593AFF0002850F1A3869F66
:1005500061A6DADEDFD9FAA38696DB31A6D9F8DF09
:10056000BAA68FC2C5C7B28CC1B8A2DFDFDFA3DFD6
:10057000DFDFD8D8F1B8A8B286B4980D355DB8AA37
:1005800098B0872D353DB2B6BAAF8C96198F9FA71C
:100590000E161EB49AB8AA872C547CB9A3DEDFDFEE
:1005A000A3B180F2C4CDC9F1B8A9B499830D355D6A
:1005B00089B9A32D557DB593A30E161EA92C547C85
:1005C000B8B4B0F19783A81184A50998A383F0DA91
:1005D000240844106418D8F1A529557DA5859502F5
:1005E0001A2E3A565A4048F9F3A3D9F8F0988324C2
:1005F00008441064189782A8F111F098A2240844C6
:10060000106418DAF3DED883A59401D9A302F1A20D
:10061000C3C5C7D8F18492A24DDA2AD84869D92A2D
:10062000D86855DA32D85071D932D8705DDA3AD8F4
:100630005879D93AD87893A34DDA2AD84869D92A73
:10064000D86855DA32D85071D932D8705DDA3AD8D4
:100650005879D93AD878A88A9AF02850789EF388A1
:1006600018F19F1D98A8D908D8C89F129EF315A805
:10067000DA1210D8F1AFC8978734B5B994A421F332
:10068000D922D8F22DF3D92AD8F235F3D932D8812C
:10069000A4606061D961D86C6869D969D8747071D7
:1006A000D971D8B1A384193D5DA3831A3E5E93101E
:1006B00030811011B8B0AF8F94F2DA3ED8B49AA856
:1006C0008729DAF8D8879A35DAF8D8879A3DDAF8A0
:1006D000D8B1B9A49885022E56A581000C14A39711
:1006E000B08AF12DD928D84DD948D86DD968D8B15C
:1006F000840DDA0ED8A32983DA2C0ED8A38449837B
:10070000DA2C4C0ED8B8B0A88A9AF520AADADFD82D
:10071000A840AAD0DADED8A860AADAD0DFD8F1974C
:1007200086A8319B069907AB9728889BF00C20146C
:1007300040B8B0B4A88C9CF0042851791D3014380E
:10074000B282ABD0982C505078789BF11AB0F08AD6
:100750009CA82951798B2951798A2470598B20586A
:10076000718A4469388B3940688A6448318B3049D2
:1007700060A588200971584468113964493019F11D
:10078000AC002C547CF08CA804285078F188972673
:10079000A85998AC8C02264666F0899CA829517904
:1007A000247059446938644831A98809205970ABCC
:1007B00011384069A8193148608CA83C415C207C04
:1007C00000F187981986A86E767EA999882D557DA7
:1007D0009EB9A38A228A6E8A568A5E9FB1830626B4
:1007E00046660E2E4E6E9DB8AD002C547CF2B18C38
:1007F000B499B9A32D557D8191AC38AD3AB58391AB
:10080000AC2DD928D84DD948D86DD968D88C9DAE93
:1008100029D904AED851D904AED879D904D881F3F6
:100820009DAD008DAE1981ADD901D8F2AEDA26D8D2
:100830008E912983A7D9ADADADADF32AD8D8F1B04B
:10084000AC89913E5E76F3AC2E2EF1B18C5A9CAC05
:100850002C2828289CAC3018A8988128343C972450
:10086000A728343C9C24F2B089AC912C4C6C8A9B18
:100870002DD9D8D851D9D8D879D9D8D8F19E88A32C
:1008800031DAD8D8912DD928D84DD948D86DD96822
:10089000D8B18393353D8025DAD8D88569DAD8D8A0
:1008A000B49381A328343CF3AB8BF8A391B609B47D
:1008B000D9ABDEFAB0879CB9A3DDF1202830389A95
:1008C000F12830389DF1A3A3A3A3F2A3B49080F242
:1008D000A3A3A3A3A3A3A3A3A3A3B2A3A3A3A3A3D9
:1008E000A3B087B599F128303898F1A3A3A3A397B3
:1008F000A3A3A3A3F39BA330DCB9A7F1262626FE6E
:10090000D8FF00000000250028002B002E00310039
:1009100000000000240027002A002D0030000404FD
:100920000404040304050202020204030202020298
:10093000060606060606040402020204040408026F
:100940000110408040102040804080080204018057
:1009500040201002011080102040402000000002C2
:1009600000090F0000030401000C0000000000005B
:100970000000000000000000000000009D21112484
:100980001FBECFEFDAE0DEBFCDBF13E0A0E0B1E0E5
:10099000EEE7F8E502C005900D92A43BB107D9F748
:1009A00028E0A4EBB3E001C01D92A83BB207E1F739
:1009B00014E0CFEBD4E004C02197FE010E94D326BF
:1009C000CE3BD107C9F70E94971A0C943D2C0C948A
:1009D000000008954091B7035091B8032091B503EA
:1009E0003091B60342175307B4F49091E800957024
:1009F000E1F39091E80092FD19C08093F10080919D
:100A0000B7039091B80301968F739927892B19F436
:100A10008EEF8093E8008091B7039091B803019620
:100A20009093B8038093B70381E0089580E0089520
:100A3000DF92EF92FF920F931F93CF93DF93D82E05
:100A4000F92EE42E062F10E0C8010196880F0E94AF
:100A5000EA0483E00E94EA04CD2DDF2D0C0F1D1F58
:100A6000C017D10789F0E7FE03C0FE01849101C0E1
:100A700088810E94EA04F82E80E00E94EA048F2117
:100A800021968111EDCF01C081E0DF91CF911F91BF
:100A90000F91FF90EF90DF900895DF92EF92FF9219
:100AA0000F931F93CF93DF93D82E8A017B01E40E1F
:100AB000F51EEB01CE15DF0571F0D7FE03C0FE0178
:100AC000849101C088810E94EA0421968111F2CFAD
:100AD0008FEF9FEF01C0C801DF91CF911F910F9160
:100AE000FF90EF90DF900895615030F02091F10079
:100AF000FC0120830196F8CF289884E68093EC03CC
:100B00000895CF92DF92EF92FF920F931F93CF93AE
:100B1000DF936C017A018B01C0E0D0E0CE15DF05D8
:100B200081F0D8016D918D01D601ED91FC9101907C
:100B3000F081E02DC6010995892B11F02196EECFA9
:100B40007E01C701DF91CF911F910F91FF90EF9030
:100B5000DF90CF900895FC01538D448D252F30E018
:100B6000842F90E0821B930B541710F0CF960895BA
:100B700001970895FC01918D828D981761F0828D07
:100B8000DF01A80FB11D5D968C91928D9F5F9F73C1
:100B9000928F90E008958FEF9FEF0895FC01918D63
:100BA000828D981731F0828DE80FF11D858D90E0D0
:100BB00008958FEF9FEF0895FC01918D228D892F6D
:100BC00090E0805C9F4F821B91098F739927089555
:100BD00087E794E00E94DC0521E0892B09F420E0FE
:100BE000822F0895FC01848DDF01A80FB11DA35A47
:100BF000BF4F2C91848D90E001968F739927848F3D
:100C0000A689B7892C93A089B1898C9182748C9321
:100C1000938D848D981306C00288F389E02D80811E
:100C20008F7D80830895EF92FF920F931F93CF9350
:100C3000DF93EC0181E0888F9B8D8C8D981305C02C
:100C4000E889F989808185FD26C0F62E0B8D10E09C
:100C50000F5F1F4F0F731127E02E8C8DE8120CC011
:100C60000FB607FCFACFE889F989808185FFF5CFB7
:100C7000CE010E94F205F1CF8B8DFE01E80FF11D30
:100C8000E35AFF4FF0829FB7F8940B8FEA89FB89F4
:100C90008081806209C09FB7F894EE89FF896083E4
:100CA000E889F9898081827480839FBF81E090E028
:100CB000DF91CF911F910F91FF90EF900895CF9307
:100CC000DF93EC01888D8823C9F0EA89FB89808154
:100CD00085FD05C0A889B9898C9186FD0FC00FB626
:100CE00007FCF5CF808185FFF2CFA889B9898C9167
:100CF00085FFEDCFCE010E94F205E7CFDF91CF91C6
:100D0000089580E090E0892B29F00E94E805811188
:100D10000C9400000895CF93DF931F92CDB7DEB7F8
:100D20006983DC01ED91FC910280F381E02D41E0CB
:100D300050E0BE016F5F7F4F09950F90DF91CF911B
:100D4000089583E08093E9008091F200882319F0F0
:100D50008AE38093E8000895FC018485958597FDDA
:100D60000BC09FB7F89482E08093E9008091F20075
:100D70009FBF90E0019608959FB7F89482E080931A
:100D8000E9008091F2009FBF90E00895089580E00F
:100D900090E0089581E08093B40308950E9468294B
:100DA0000F931F93CF93DF93EC0188819981009774
:100DB00029F02A813B812617370788F48B016F5F62
:100DC0007F4F0E94A228009761F0998388831B833C
:100DD0000A832C813D81232B11F4FC01108281E0D8
:100DE00001C080E0DF91CF911F910F9108950F9383
:100DF0001F93CF93DF931F92CDB7DEB782E0898335
:100E000042E450E068ED70E080E80E944D050E94E9
:100E10004C19DC0112960D911C91139701151105C7
:100E200089F0D801ED91FC910280F381E02DBE01A3
:100E30006F5F7F4FC801099597FD04C0F8010085D9
:100E40001185ECCF89810F90DF91CF911F910F9188
:100E500008958F929F92AF92BF92CF92DF92EF92BE
:100E6000FF920F931F93CF93DF936C017B018A0155
:100E700080910B01882309F45CC08091ED038823E5
:100E800009F457C08091BB0380FF05C08091E0004A
:100E900082608093E000E801B12C8AEFA82E93E0F5
:100EA000892E2AE3922E209711F4BB20D9F10E94BB
:100EB000E81081110AC0AA94AA20D9F161E070E07B
:100EC00080E090E00E94071AEECF282F30E0C21792
:100ED000D3070CF48C2F9FB7F8948092E9002091EF
:100EE000E80025FF1DC0282F30E0C21BD30BF701FF
:100EF000815020F041914093F100FACFE20EF31EB1
:100F0000BB2019F09092E8000AC08091E80085FDAE
:100F100007C09092E800BB24B394209709F0B12C4D
:100F20009FBFC1CF5D9884E68093BA031016110667
:100F300044F081E090E0F6019383828380E090E0CA
:100F400001C0C801DF91CF911F910F91FF90EF90E9
:100F5000DF90CF90BF90AF909F908F9008950E94A8
:100F6000E81090E008950F931F93CF93DF931F92A3
:100F7000CDB7DEB78C01FC018485958597FF0EC047
:100F8000CE0101960E94A110019719F4898190E089
:100F900002C08FEF9FEFF80195878487F801848561
:100FA00095850F90DF91CF911F910F910895CF9369
:100FB000DF931F92CDB7DEB7FC018485958597FD41
:100FC00005C02FEF3FEF358724870BC0CE01019678
:100FD0000E94A110019719F4898190E002C08FEF5F
:100FE0009FEF0F90DF91CF910895EF92FF920F93B3
:100FF0001F93CF93DF936115710511F480E01CC03E
:1010000041155105C1F07B01EC018C819D818A0164
:10101000080F191FB801CE010E94D006882371F372
:10102000288139818C819D81B701820F931F0E9495
:1010300083291D830C8381E0DF91CF911F910F9154
:10104000FF90EF9008956115710551F0FB0101903B
:101050000020E9F73197AF01461B570B0C94F507B9
:1010600080E00895CF93DF93EC0188819981009708
:1010700011F00E941928198218821D821C821B827D
:101080001A82DF91CF910895EF92FF920F931F93F1
:10109000CF93DF93EC017B018A01BA010E94D00655
:1010A000811104C0CE010E94320807C01D830C8349
:1010B000B701888199810E948329CE01DF91CF9168
:1010C0001F910F91FF90EF900895FB01DC011196A5
:1010D0001C921E9213961C921E92129715961C92A9
:1010E0001E9214978617970749F0608171816115E8
:1010F000710521F0448155810C94440808951F9294
:101100000F920FB60F9211242F933F934F935F933B
:101110006F937F938F939F93AF93BF93EF93FF93BF
:10112000E0911401F09115010995FF91EF91BF91A4
:10113000AF919F918F917F916F915F914F913F916F
:101140002F910F900FBE0F901F9018951F920F9226
:101150000FB60F9211242F933F934F935F936F938A
:101160007F938F939F93AF93BF93EF93FF93E09100
:101170001201F09113010995FF91EF91BF91AF9189
:101180009F918F917F916F915F914F913F912F919F
:101190000F900FBE0F901F9018951F920F920FB6D1
:1011A0000F9211242F933F934F935F936F937F93ED
:1011B0008F939F93AF93BF93EF93FF93E0911001B1
:1011C000F09111010995FF91EF91BF91AF919F911E
:1011D0008F917F916F915F914F913F912F910F90E0
:1011E0000FBE0F901F9018951F920F920FB60F927F
:1011F00011242F933F934F935F936F937F938F931C
:101200009F93AF93BF93EF93FF93E0910E01F09103
:101210000F010995FF91EF91BF91AF919F918F9130
:101220007F916F915F914F913F912F910F900FBEE2
:101230000F901F9018951F920F920FB60F921124C6
:101240002F933F934F935F936F937F938F939F93CE
:10125000AF93BF93EF93FF93E0910C01F0910D01D9
:101260000995FF91EF91BF91AF919F918F917F91E0
:101270006F915F914F913F912F910F900FBE0F9003
:101280001F9018951F920F920FB60F9211248F93F3
:101290009F938091E1009091E100937F9093E10012
:1012A00083FF0FC01092E90091E09093EB00109241
:1012B000EC0092E39093ED001092ED0398E0909390
:1012C000F00082FF20C093E09093E9009091F2003B
:1012D000992319F09AE39093E8009091BA03992327
:1012E00039F09091BA0391509093BA03992389F100
:1012F0009091EC03992339F09091EC0391509093E5
:10130000EC03992341F184FF10C08091E2008E7EAE
:1013100081608093E2008091E1008F7E8093E10004
:101320008091BB038E7E806111C080FF16C08091CA
:10133000E2008E7E80618093E2008091E1008E7EEB
:101340008093E1008091BB038E7E81608093BB031C
:1013500004C05D9ACDCF289AD6CF9F918F910F90E0
:101360000FBE0F901F9018951F920F920FB60F92FD
:101370001124CF92DF92EF92FF920F931F932F933E
:101380003F934F935F936F937F938F939F93AF930D
:10139000BF93EF93FF93CF93DF93CDB7DEB76C97F7
:1013A000DEBFCDBF1092E9008091E80083FFFBC152
:1013B00068E0CE0145960E94740582EF8093E800B4
:1013C0008D8987FF05C09091E80090FFFCCF03C096
:1013D0009EEF9093E800982F907609F0C6C09E8902
:1013E0004F89588D2F89F88C91110CC0803829F4C1
:1013F0008091BC038093F10002C01092F100109222
:10140000F10045C1913051F4811141C14130510584
:1014100009F03DC18091BC038D7F0BC0933061F416
:10142000811135C14130510509F031C18091BC03B2
:1014300082608093BC032BC1953049F48091E80011
:1014400080FFFCCF822F80688093E30020C196301C
:1014500009F05EC00B8D1C8D22E01092E900109205
:10146000B8031092B703F21232C01092B603109272
:10147000B5030E94F70699E0BE016F5F7F4FDB0165
:10148000E92F1D92EA95E9F79983FA8291E09E830C
:1014900090EA98879AEF99872091B7033091B80323
:1014A000275F3F4F3C832B838D831092E90010927E
:1014B000B8031092B7031093B6030093B50349E045
:1014C00050E080E00E944D050E94F706E0C01093B6
:1014D000B6030093B5030E944C19DC0112960D91DE
:1014E0001C9113970115110509F4BBC0D801ED91AA
:1014F000FC910480F581E02DBE016B5E7F4FC80139
:101500000995009709F0C7C0F80100851185EACF59
:10151000973009F445C1983021F481E08093F100BF
:10152000B6C0993009F0B3C0837009F039C1EDE15C
:10153000F1E081E031E096E32081211109C08EE7DE
:101540008093EA001092EA008F898093ED039FC098
:101550008093E9003093EB0021912093EC0090936D
:10156000ED008F5F873041F7EACF8B8D9C8D109215
:10157000E9001092B8031092B7039093B6038093DA
:10158000B503898D811153C08E899D89913A49F4A3
:10159000813209F005C147E050E064E071E080E08D
:1015A000BBC0913209F0FCC0833269F48F89988DF9
:1015B000A0E0B0E08093000190930101A0930201AC
:1015C000B093030164C0803269F48091E80082FF27
:1015D000FCCF67E084E091E00E9474058BEF80937C
:1015E000E80055C0823209F052C08F8980930B0108
:1015F000EEEFFFE7859194918B3F9C4D19F0E0E071
:10160000F8E002C0EEEFFAE080910401909105014C
:10161000A0910601B0910701803B9440A105B1055E
:1016200009F09EC080910B0180FF79C099C00E9493
:101630004C19FC01028113810115110509F4B0C098
:10164000D801ED91FC910190F081E02DBE016B5E1F
:101650007F4FC801099581111AC0F80100851185D5
:10166000EBCFF1E0FF1609F44EC0F3E0FF1298C093
:101670008F89882309F44AC0823089F440E860E108
:101680008CE391E00E941805882309F489C08EEF4D
:101690008093E80088C018161906CCF381C0813009
:1016A00029F440E86BE080E391E0ECCF833009F06F
:1016B00077C00E944C19DC011296ED90FC901397B4
:1016C0008E010F5F1F4F6801E114F10479F0D7011B
:1016D000ED91FC910680F781E02DB801C7010995D5
:1016E000080F111DF701E084F184EECFD8011C92A0
:1016F000F60101900020E9F73197BF016C197D09CF
:1017000040E0C601BFCF6EE171E002C06AE171E066
:10171000FB01449150E080E80E944D05B8CFEE3FB8
:101720002AE0F20751F0808191818737A7E79A0775
:1017300021F09093FF0A8093FE0A87E797E7918351
:101740008083809160008093B9039BE088E10FB6AD
:10175000F894A895809360000FBE9093600097CF97
:10176000808191818737974709F091CFA895809123
:1017700060008861809360008091B903809360006D
:10178000EE3FBAE0FB0739F08091FE0A9091FF0A24
:10179000918380837CCF1092FF0A1092FE0A77CF4C
:1017A00081E28093EB006C960FB6F894DEBF0FBE1B
:1017B000CDBFDF91CF91FF91EF91BF91AF919F91FD
:1017C0008F917F916F915F914F913F912F911F91D9
:1017D0000F91FF90EF90DF90CF900F900FBE0F9082
:1017E0001F9018956115710579F0FB01019000209B
:1017F000E9F73197AF01461B570BDC01ED91FC91E6
:101800000280F381E02D099480E090E008958F92AA
:101810009F92AF92BF92EF92FF920F931F93CF933D
:10182000DF93CDB7DEB7A1970FB6F894DEBF0FBE3A
:10183000CDBF7C01FA01CB0119A2223008F42AE0C5
:101840008E010F5D1F4F822E912CA12CB12CBF0158
:10185000A50194010E94B126F901CA0101501109A4
:101860006A3014F4605D01C0695CD8016C93232B6D
:10187000242B252B61F7B801C7010E94F20BA1961A
:101880000FB6F894DEBF0FBECDBFDF91CF911F9191
:101890000F91FF90EF90BF90AF909F908F90089521
:1018A0000F931F93CF93DF93EC010E94F20B8C01F7
:1018B0006DE971E0CE010E94F20B800F911FDF9164
:1018C000CF911F910F9108951F920F920FB60F9213
:1018D00011242F933F934F935F936F937F938F9335
:1018E0009F93AF93BF93EF93FF9387E794E00E949A
:1018F000F205FF91EF91BF91AF919F918F917F91F1
:101900006F915F914F913F912F910F900FBE0F906C
:101910001F9018951F920F920FB60F9211242F93BC
:101920008F939F93EF93FF93E0918704F091880446
:101930008081E0918D04F0918E0482FD12C090812F
:10194000809190048F5F8F7320919104821751F0E2
:10195000E0919004F0E0E958FB4F958F809390045C
:1019600001C08081FF91EF919F918F912F910F90F6
:101970000FBE0F901F901895FF920F931F93CF9358
:10198000DF93142FF22E032F91E090932F08809372
:10199000510810923008109252088BE194E00E9496
:1019A000E518CF2DD02FCE01810F911D8C01C017CE
:1019B000D10731F069918BE194E00E94E518F7CFEF
:1019C0000E94481391E0811190E0892FDF91CF911F
:1019D0001F910F91FF900895CF93DF9300D0CDB763
:1019E000DEB75A834983AE014F5F5F4F0E94CB142D
:1019F0000F900F90DF91CF910895CF93DF931F92B7
:101A0000CDB7DEB749839E012F5F3F4F41E00E9473
:101A1000BC0C0F90DF91CF9108952F923F924F927F
:101A20005F926F927F928F929F92AF92BF92CF926E
:101A3000DF92EF92FF920F931F93CF93DF9300D02B
:101A400000D000D0CDB7DEB7982E862E4D83590139
:101A50000E94411A6B017C01312C1E8222242394A6
:101A60009D81892F90E09C838B832801612C712CB0
:101A7000ED813E1608F042C020922F089092510846
:101A80001092300810925208682D8BE194E00E9469
:101A9000E5180E94481320922F0890925108109246
:101AA0003008109252086B817C8163197109613290
:101AB000710514F060E270E0613208F060E2892D97
:101AC0000E946D1210922E0880932D0890912D087F
:101AD00080912E08981709F443C00115110569F18A
:101AE0000E94411ADC01CB018C199D09AE09BF0986
:101AF00084159505A605B70500F132C0011511053D
:101B0000A9F10E94411ADC01CB018C199D09AE0993
:101B1000BF0920E030E080179107A207B30730F13A
:101B2000FD812F2F30E04E81842F440F990B8217B7
:101B30009307E4F48FEF8E8319C0F5012E81E20F35
:101B4000F11D27FDFA95FA83E9838BE194E00E9469
:101B50009C18E981FA818083FE81FF5FFE83B6CF06
:101B60008D81813208F080E2380E82CF8E812696F8
:101B70000FB6F894DEBF0FBECDBFDF91CF911F919E
:101B80000F91FF90EF90DF90CF90BF90AF909F901C
:101B90008F907F906F905F904F903F902F9008951F
:101BA000BF92CF92DF92EF92FF920F931F93CF934A
:101BB000DF931F92CDB7DEB7F82EE62EC42EB22EDD
:101BC000D02E08EE13E09E012F5F3F4F41E00E94B0
:101BD0000D0D882339F12C2D30E02B1931092F5FA1
:101BE0003F4F81E090E002C0880F991FBA94E2F75E
:101BF0000197022E01C0880F0A94EAF74D2D50E09C
:101C0000BA0102C0660F771F2A95E2F7482F409568
:101C1000998149238623482B49836E2D8F2D0E945D
:101C2000FD0C01C080E00F90DF91CF911F910F91CB
:101C3000FF90EF90DF90CF90BF900895CF92DF920A
:101C4000EF92FF920F931F93CF93DF931F92CDB725
:101C5000DEB7F82EE62ED42EC22E08EE13E09E013B
:101C60002F5F3F4F41E00E940D0D898141E050E020
:101C700001C0440FDA94EAF7CC2011F0482B02C0DF
:101C80004095482349836E2D8F2D0E94FD0C0F90A7
:101C9000DF91CF911F910F91FF90EF90DF90CF9048
:101CA00008954F925F926F927F928F929F92AF9220
:101CB000BF92CF92DF92EF92FF920F931F93CF9339
:101CC000DF9300D0CDB7DEB73C014B015A0169016B
:101CD000280110922E0810922D08109230081092B0
:101CE00052080E94C4198AE898E1909314048093E2
:101CF00013048BE898E190931204809311041092DE
:101D0000100488EB9BE0A0E0B0E080939B089093E8
:101D10009C08A0939D08B0939E0881E080939A0848
:101D200080911004109210048CE08093B80061ED53
:101D300072E087E294E00E94500C01E023E042E070
:101D40006BE6809169050E94D00D00E022E044E03E
:101D50006BE1809169050E94D00D22E044E06CE1C6
:101D6000809169050E94D00D20E046E06BE68091ED
:101D700069050E941E0EE4E4F9E02491E5E2F9E031
:101D800084918823D1F090E0880F991FFC01E05FD7
:101D9000F64FA591B491FC01EE5FF64F85919491B9
:101DA0004FB7F8943C91E22FE095232F2E232C93EC
:101DB000DC012C91E223EC934FBF6DEE72E087E2E1
:101DC00094E00E94500C0E94EE14843319F067EBEB
:101DD00072E002C069E972E087E294E00E94500C70
:101DE00021E047E06BE6809169050E941E0E6EE1DE
:101DF00070E080E090E00E94071A20E046E06BE689
:101E0000809169050E941E0E40E76DE6809169058C
:101E10000E94FD0C46E06EE6809169050E94FD0C73
:101E200040E06DE6809169050E94FD0C4FE765E298
:101E3000809169050E94FD0C20E045E06AE68091F2
:101E400069050E941E0E48E665E2809169050E94C0
:101E5000FD0C21E041E06AE6809169050E941E0EBA
:101E600064E170E080E090E00E94071A03E023E064
:101E700042E06BE6809169050E94D00D42E168E383
:101E8000809169050E94FD0C44E069E1809169053B
:101E90000E94FD0C01E023E045E06AE180916905C4
:101EA0000E94D00D03E023E042E06AE180916905E1
:101EB0000E94D00D22E044E06BE1809169050E9410
:101EC000D00D01E020E040E069E877E089E791E0AB
:101ED0000E949917882309F4D7C0198281E08A8368
:101EE00000E026E142E062E070E0CE0101960E944F
:101EF000991743E060E7809169050E94FD0C40E07E
:101F000061E7809169050E94FD0C20E040E060E0FF
:101F1000809169050E941E0E42E06FE18091690583
:101F20000E94FD0C4CE961E2809169050E94FD0C64
:101F300040E560E2809169050E94FD0C40E062E2AC
:101F4000809169050E94FD0C21E046E06AE68091DF
:101F500069050E941E0E21E043E06AE68091690552
:101F60000E941E0E20E047E06AE6809169050E940B
:101F70001E0E8AE290E090937B0580937A050E9482
:101F8000C41408EE13E02AE635E041E06AE38091EC
:101F900069050E940D0D0E94EE14883310F067E76A
:101FA00001C066E0A301809169050E94EC0C0E94CB
:101FB000EE14883310F06AE701C068E0A401809154
:101FC00069050E94EC0C0E94EE14883310F06DE756
:101FD00001C06AE0A501809169050E94EC0CA60190
:101FE00063E1809169050E94EC0CA20165E180919A
:101FF00069050E94EC0CA70167E1809169050E94C8
:10200000EC0C00E010E028EA31E44EEA57E461EA23
:102010007EE38BE30E9411150FEF1FEF2CEB32E4F0
:102020004EEA57E461EA7EE383E40E94111521E061
:1020300047E06AE6809169050E941E0E8AEC96E0F0
:10204000909315018093140180916A0080638093BE
:102050006A00EE9A08EE13E02AE635E041E06AE312
:10206000809169050E940D0D80916A0580937D0520
:1020700081E080937C0580917A0590917B05909317
:102080007F0580937E0506C06BE073E087E294E0F5
:102090000E94F20B0F900F90DF91CF911F910F9143
:1020A000FF90EF90DF90CF90BF90AF909F908F9078
:1020B0007F906F905F904F900895FC018081918197
:1020C0000C941928FB0144815581608171810C9425
:1020D000F507EF92FF920F931F93CF93DF93CDB746
:1020E000DEB762970FB6F894DEBF0FBECDBF8C018E
:1020F000CB01F801118210821382128215821482A0
:102100004AE09E012F5F3F4F7901B9010E942125CE
:10211000F70101900020E9F73197AF014E195F09EF
:10212000B701C8010E94440862960FB6F894DEBF5A
:102130000FBECDBFDF91CF911F910F91FF90EF9018
:1021400008952091ED03211103C08FEF9FEF0895B3
:102150005FB7F89422E02093E9002091F20030E08C
:102160001216130614F421E030E0422FFC0184E63D
:10217000415038F028988093EC039091F1009193AE
:10218000F7CF2115310521F08091F200882319F055
:102190005FBFC90108958BE68093E800F9CF0F93E4
:1021A0001F93CF93DF93C9E6D5E008EE13E02AE64C
:1021B00035E042E062E788810E940D0D89819A81B5
:1021C000982789279827DF91CF911F910F91089524
:1021D0002FB7F89483E08093E9009091E800892F6D
:1021E000807295FF04C09091F20080E4891B2FBF9C
:1021F0000895AC0190E02FE5FA01E90FF11D80810F
:10220000882319F020839F5FF7CF08958331A0F4CE
:10221000E82FF0E0EE0FFF1FEF5BFE4FA081B181D2
:10222000109751F0EC91F0E0EC5EFA4F908111962E
:102230008C91982381E009F480E008951F920F9219
:102240000FB60F9211242F933F934F935F936F9389
:102250007F938F939F93AF93BF93EF93FF9380915F
:10226000B900887F803609F49CC068F5883209F48B
:102270005BC090F4803109F454C038F4882309F429
:10228000F6C0883009F44DC0F6C0883109F44CC05E
:10229000803209F45DC0EFC0803409F468C048F4AE
:1022A000803309F455C0883309F0E5C0809377087E
:1022B000D8C0803509F44FC0883509F45DC0883432
:1022C00009F0D9C0D6C0883909F4C7C0A8F4883746
:1022D00009F467C038F4883609F463C0803709F41C
:1022E00060C0C9C0883809F4B8C0803909F45FC03B
:1022F000803809F0C0C05BC0803B09F486C038F468
:10230000803A09F466C0883A09F47FC0B4C0803CC2
:1023100009F4A7C0883C09F4A4C0883B09F48AC02A
:10232000AAC08091740810C09091760880917508B9
:10233000981770F5E091760881E08E0F809376080B
:10234000F0E0ED5AF74F80818093BB0085EC86C0AA
:10235000809377088EC0E091760881E08E0F80939D
:1023600076088091BB00F0E0ED5AF74F80839091A2
:102370007608809175086EC0E091760881E08E0F36
:10238000809376088091BB00F0E0ED5AF74F808390
:102390008091780881116DC081E08093730884EA90
:1023A00061C083E08093990810920F04CFCF809191
:1023B0000F04803208F051C0E0910F0481E08E0FCD
:1023C00080930F048091BB00F0E0E151FC4F8083CB
:1023D000BDCF85EC8093BC001092990880910F04CA
:1023E000803230F4E0910F04F0E0E151FC4F1082B4
:1023F00060910F0470E0E0911104F09112048FEEEF
:1024000093E0099510920F0436C084E080939908F8
:102410001092EE031092EB03E0911304F091140478
:1024200009958091EB03811105C081E08093EB0356
:102430001092CB03E091EE0381E08E0F8093EE03C8
:10244000F0E0E553FC4F80818093BB009091EE0358
:102450008091EB03981708F479CF85E88093BC004E
:102460000AC085EC8093BC001092990804C01092B9
:1024700077080E941419FF91EF91BF91AF919F913E
:102480008F917F916F915F914F913F912F910F901D
:102490000FBE0F901F901895CF93DF9391E090930C
:1024A00010048823B9F0C091B800D091BA0080918F
:1024B000BC008A7B8093BC0060E082E00E946019CF
:1024C00060E083E00E9460190E94C419D093BA00B2
:1024D000C093B800DF91CF9108958F929F92AF92F1
:1024E000BF92CF92DF92EF92FF920F931F93CF9301
:1024F000DF93F82ED62F613208F0BBC00E94E2199C
:102500004B015C01C0919908CC2331F180919B086B
:1025100090919C08A0919D08B0919E08892B8A2BD0
:102520008B2B81F30E94E21900919B0810919C086B
:1025300020919D0830919E08DC01CB0188199909F2
:10254000AA09BB09081719072A073B07D8F6809183
:102550009A080E944C128DC081E080939908809364
:1025600078089FEF90937708109276089D0F9093CC
:10257000750880937408909174088F2D880F892BAB
:102580008093740880917308813089F510927308E4
:102590000E94E2196B017C01809174088093BB005A
:1025A00080919B0890919C08A0919D08B0919E08F5
:1025B000892B8A2B8B2BA9F00E94E21980909B0813
:1025C00090909C08A0909D08B0909E08DC01CB01E3
:1025D0008C199D09AE09BF0988169906AA06BB0683
:1025E00090F18091BC0083FDD7CF85EC01C085EED2
:1025F0008093BC000E94E2196B017C0180919908D4
:10260000813031F580919B0890919C08A0919D08A4
:10261000B0919E08892B8A2B8B2B81F30E94E219A3
:1026200080909B0890909C08A0909D08B0909E0878
:10263000DC01CB018C199D09AE09BF0988169906EA
:10264000AA06BB06D8F680919A080E944C1212C0C6
:10265000809176088D1710F4D0917608E3E5F8E0C4
:10266000A9E7B8E0C0E0CD1729F081918D93CF5F45
:10267000FACFC0E08C2FDF91CF911F910F91FF9087
:10268000EF90DF90CF90BF90AF909F908F90089584
:102690008F929F92AF92BF92CF92DF92EF92FF9272
:1026A0000F931F93CF93DF9310915208113208F0CC
:1026B000C2C0D09151080E94E2196B017C01C09107
:1026C0009908CC2311F180919B0890919C08A091CE
:1026D0009D08B0919E08892B8A2B8B2B81F30E9439
:1026E000E21980909B0890909C08A0909D08B09063
:1026F0009E08DC01CB018C199D09AE09BF09881623
:102700009906AA06BB06D8F682C082E08093990893
:1027100081E0809378088FEF809377081092760895
:1027200010937508A1E3B8E0E3E5F8E080E018173E
:1027300021F09D9191938F5FFACF10927408909140
:1027400074088D2F880F892B8093740880917308EB
:10275000813089F5109273080E94E2196B017C01A7
:10276000809174088093BB0080919B0890919C0895
:10277000A0919D08B0919E08892B8A2B8B2BA9F0E4
:102780000E94E21900919B0810919C0820919D08DD
:1027900030919E08DC01CB018C199D09AE09BF095F
:1027A000081719072A073B0790F18091BC0083FDA9
:1027B000D7CF85EC01C085EE8093BC000E94E21962
:1027C0006B017C0180919908823039F580919B08DA
:1027D00090919C08A0919D08B0919E08892B8A2B0E
:1027E0008B2B81F30E94E21900919B0810919C08A9
:1027F00020919D0830919E08DC01CB018C199D0928
:10280000AE09BF09081719072A073B07D8F68091B8
:102810009A080E944C12C5E013C0809177088F3F40
:1028200079F080917708803241F080917708803389
:1028300031F0C4E005C0C1E003C0C2E001C0C3E0A4
:10284000109230081092520810922F088C2FDF91AE
:10285000CF911F910F91FF90EF90DF90CF90BF909D
:10286000AF909F908F9008954F925F926F927F925A
:102870008F929F92AF92BF92DF92EF92FF920F934F
:102880001F93CF93DF93182FD62E7A01E9010E9470
:10289000411A4B015C0101E000932F08109351088D
:1028A00010923008109252086D2D8BE194E00E9436
:1028B000E5180E94481300932F08109230081092D8
:1028C000520862E0812F0E946D1210922E088093B0
:1028D0002D0810E02E01612C712CDD24D3949091F1
:1028E0002D0880912E08981739F1111125C02097D5
:1028F000B1F48BE194E0002331F00E949C18F701C1
:10290000108281830AC00E949C18F70120813181C6
:10291000822B932B9183808311E00D25E0CF0E94C1
:10292000411ADC01CB0188199909AA09BB09841550
:102930009505A605B705E8F20E944813209799F07F
:102940000E94411AAB01BC01481959096A097B0967
:10295000CE01A0E0B0E0481759076A077B0718F0DE
:10296000111101C01FEF812FDF91CF911F910F91A6
:10297000FF90EF90DF90BF90AF909F908F907F90EF
:102980006F905F904F90089521E042E06AE6809159
:1029900069050C941E0ECF93DF93EA0191E09093AA
:1029A0002F088093510810923008109252088BE142
:1029B00094E00E94E51869818BE194E00E94E5189B
:1029C00068818BE194E00E94E5180E94481391E031
:1029D000811190E0892FDF91CF9108950F931F937C
:1029E000CF93DF931F92CDB7DEB708EE13E09E01C1
:1029F0002F5F3F4F41E065E7809169050E940D0D13
:102A0000882339F089818E7790E09595879580931A
:102A10006A0580916A050F90DF91CF911F910F9108
:102A200008952F923F924F925F926F927F928F9272
:102A30009F92AF92BF92CF92DF92EF92FF920F934D
:102A40001F93CF93DF93CDB7DEB7AF970FB6F89450
:102A5000DEBF0FBECDBF898F4CA35DA36EA37FA346
:102A600008A719A72AA73BA78B3309F05DC20E94CC
:102A7000EE14883308F45AC217E703E06EE387E2E6
:102A800094E00E948B06CE010D969E8B8D8BDE010D
:102A900011967D015C01912E28EE33E0AE014D5E72
:102AA0005F4F692D809169050E943414CB88DC88C2
:102AB000B6010D2C000C880B990B0E945D2513317B
:102AC00091F0F1E0CF22DD24D501CD92DC9220E01F
:102AD00030E040E051E40E94BC25F701608371833F
:102AE000828393830CC020E030E040E850E40E94F1
:102AF000BC25D7016D937D938D939C931397900E76
:102B0000B2E0AB0EB11CE4E0EE0EF11C8D899E89A3
:102B1000E816F90609F6998D9B3329F48DEC9CECA7
:102B2000ACE4BDE304C080E090E0A0E8BFE38CA784
:102B30009DA7AEA7BFA7A6E0B0E0BBA3AAA31D8E2A
:102B40001C8E212C312CFE013196FB8FEA8FCE0199
:102B50000D9698A38F8F1E8F998D99A3412C512C80
:102B60003201188E1F8A28EE33E0AE014D5E5F4FB2
:102B700069A1809169050E9434146B897C89072EB4
:102B8000000C880B990B0E945D256B017C01A98DBF
:102B9000AB3361F4EF89F88D329741F420E030E0F7
:102BA00040E856E40E94D9266B017C01460157019A
:102BB000B7FAB094B7F8B094C301B2010E945B2594
:102BC0002B013C0120E030E0A901C701B6010E94C1
:102BD0007C2718162CF0782D692D9A2D8B2D04C08A
:102BE0007C2D6D2D9E2D8F2D272F362F492F582F61
:102BF000C301B2010E94DA260E944D272B013C013D
:102C00002CA13DA14EA15FA1C501B4010E94BC252C
:102C10006B017C012FE632E143E85AE3C501B401C0
:102C20000E94BC2528A539A54AA55BA50E94BC2504
:102C3000AA8DBB8D2D913D914D915C910E94DA261C
:102C40009B01AC01EA8DFB8D61937193819391930C
:102C5000FB8FEA8FC701B601133141F10E94DA26DA
:102C600020E030E040E05EE30E94BC256B017C0187
:102C700020E030E0A9010E947C2720E030E040E025
:102C80005FE387FD05C0C701B6010E94DA2604C0D4
:102C9000C701B6010E94D9260E9446276E7FAF8DDC
:102CA000B8A18D919C91682B792B20C00E94DA26C7
:102CB00020E030E040E85EE30E94BC256B017C012F
:102CC00020E030E0A9010E947C2720E030E040E0D5
:102CD0005FE387FD05C0C701B6010E94DA2604C084
:102CE000C701B6010E94D9260E9446277C8B6B8BB8
:102CF000AE014D5E5F4F6E8D809169050E94CB14D1
:102D0000EF89F88D3196F88FEF8BF9A1FE5FF9A36B
:102D10002E8D200F2E8F8F8D98A1029698A38F8FC6
:102D2000AF89B88D139709F01ECFB3E62B16310487
:102D300071F4E9EE4E16E3E05E066104710438F0CA
:102D40006AE287E294E00E948B06212C312CC301B9
:102D5000B2010E945B252CA53DA54EA55FA50E9452
:102D6000BC2520E030E040EA50E40E94562587FF71
:102D700005C08C8D9D8D01969D8F8C8F94E6491694
:102D800051046104710488F5ABE02A1631046CF13A
:102D9000EC8DFD8D3A974CF16EE287E294E00E9453
:102DA0008B0620E030E040E45FE36CA17DA18EA1C2
:102DB0009FA10E94BC256CA37DA38EA39FA320E0AE
:102DC00030E040E45FE368A579A58AA59BA50E9451
:102DD000BC2568A779A78AA79BA7CE0101967C018D
:102DE000DE011D966D01B12E49C061E070E080E00A
:102DF00090E00E94071ABFEF2B1A3B0AE4E62E165A
:102E0000310409F0A0CEC8CF20E030E040E05EE31E
:102E1000D7016D917D918D919C910E94BC252B01D4
:102E20003C0120E030E0A9010E947C2720E030E056
:102E300040E05FE387FD25C0C301B2010E94DA26AE
:102E40000E9446276E7FF60180819181682B792B45
:102E50007C8B6B8BAE014D5E5F4F6B2D8091690556
:102E60000E94CB14B00EB2E0CB0ED11CE4E0EE0E0B
:102E7000F11C8D899E898E159F0561F1133121F614
:102E800005C0C301B2010E94D926DACF20E030E0AC
:102E900040E85EE3D7016D917D918D919C910E94F8
:102EA000BC252B013C0120E030E0A9010E947C27D9
:102EB00020E030E040E05FE387FD05C0C301B201E0
:102EC0000E94DA2604C0C301B2010E94D9260E94E2
:102ED0004627BECFAAA1BBA11197BBA3AAA3AB2B28
:102EE00009F02DCE0E94C41421E043E06AE68091EF
:102EF00069050E941E0EAF960FB6F894DEBF0FBE96
:102F0000CDBFDF91CF911F910F91FF90EF90DF9098
:102F1000CF90BF90AF909F908F907F906F905F9079
:102F20004F903F902F90089513E101C016E002E00A
:102F3000A5CD2F923F924F925F926F927F928F9288
:102F40009F92AF92BF92CF92DF92EF92FF920F9338
:102F50001F93CF93DF933C015B01342E522E202E22
:102F60004F716DE6809169050E94FD0C452D6EE65E
:102F7000809169050E94FD0C80E190E00E9481270C
:102F80006C01002331F080E190E00E9481277C01F8
:102F900002C0E12CF12CC0E0D0E0CA15DB0508F03E
:102FA00072C0CE014096A816B90618F44A2C4C1AE5
:102FB00002C080E1482E842D90E020E031E0251908
:102FC00031092817390714F4452C4194222071F057
:102FD000D70180E090E0841560F4FE01E80FF91F4E
:102FE000E60DF71DE491ED930196F5CF7301EC0E1C
:102FF000FD1E9701442D6FE6809169050E94BC0C6F
:10300000842C912CC114D10431F1432D4F716DE604
:10301000809169050E94FD0C452D6EE68091690541
:103020000E94FD0C08EE13E09601442D6FE680919E
:1030300069050E940D0DA401B601C7010E946D290A
:10304000892B49F0C6010E941928222029F1C701C5
:103050000E94192821C0C80DD91D540CCA15DB05C2
:1030600008F09BCF511001C03394432D4F716DE692
:10307000809169050E94FD0C452D6EE680916905E1
:103080000E94FD0C8ACFC6010E941928222031F02F
:10309000C7010E94192802C080E001C081E0DF91D1
:1030A000CF911F910F91FF90EF90DF90CF90BF9045
:1030B000AF909F908F907F906F905F904F903F90D8
:1030C0002F9008954091EB03262F30E0240F311DFF
:1030D00021323105DCF4209199082430C9F4FC0137
:1030E00080E090E0861758F43091EB032191DC01E9
:1030F000A553BC4FA30FB11D2C930196F3CF809124
:10310000EB03680F6093EB0380E0089581E008957E
:1031100082E00895089508950895E0912E08809121
:103120002D08E81730F4F0E0E758F74F808190E081
:1031300008958FEF9FEF089590912E0880912D08AC
:10314000981750F4E92FF0E0E758F74F208130E06E
:103150009F5F90932E0802C02FEF3FEFC9010895A3
:1031600080912D0890E020912E08821B91090895EE
:10317000CF92DF92EF92FF920F931F93CF93DF9343
:103180007C01CB018A0120912F08222389F0EB01D9
:103190006B01C40ED51ECC15DD0569F06991D70110
:1031A000ED91FC910190F081E02DC7010995F3CFDD
:1031B000642F0E946218C801DF91CF911F910F9177
:1031C000FF90EF90DF90CF900895CF93DF931F9201
:1031D000CDB7DEB7698320912F082223D1F020914B
:1031E0005208203240F021E030E0FC01338322839A
:1031F00080E090E015C080913008E82FF0E0EF5CAF
:10320000F74F998190838F5F8093300880935208A5
:1032100005C061E0CE0101960E94621881E090E055
:103220000F90DF91CF91089585ED8093BC00809140
:103230009B0890919C08A0919D08B0919E080796CC
:10324000A11DB11D23E0B695A795979587952A9561
:10325000D1F72091BC0024FF1CC040919B085091E5
:103260009C0860919D0870919E08452B462B472B2A
:1032700081F30097A105B10541F02AE22A95F1F703
:1032800000C00197A109B109E4CF80919A080C947C
:103290004C121092990808958091AC0881110DC0CC
:1032A00082E08093A80884E08093A9081092AB087C
:1032B0001092AA0881E08093AC0888EA98E008950B
:1032C000362F90E0FC01E45AF64F4491FC01E35C98
:1032D000F64F2491FC01E25EF64F8491882309F4B5
:1032E00052C04423E1F150E0FA013197EF30F1058B
:1032F000B0F5E35AFF4F0C94D326909180009F774E
:1033000007C0909180009F7D03C090918000977FBF
:103310009093800024C094B59F7702C094B59F7DA0
:1033200094BD1DC0909190009F7707C09091900030
:103330009F7D03C090919000977F909390000FC065
:103340009091C0009F7703C09091C0009F7D9093A3
:10335000C00005C09091C200977F9093C200E82FF3
:10336000F0E0EE0FFF1FEE5FF64FA591B4919FB70F
:10337000F894311104C08C912095282302C0EC915F
:103380002E2B2C939FBF08951092990881E0809373
:1033900078081092730861E082E00E94601961E091
:1033A00083E00E946019E9EBF0E080818E7F8083EA
:1033B00080818D7F808388E48093B80085E480934A
:1033C000BC0008953FB7F8948091A4089091A50897
:1033D000A091A608B091A70826B5A89B05C02F3FCD
:1033E00019F00196A11DB11D3FBFBA2FA92F982F2B
:1033F0008827820F911DA11DB11DBC01CD0142E0A6
:10340000660F771F881F991F4A95D1F708958F92ED
:103410009F92AF92BF92CF92DF92EF92FF926B0199
:103420007C010E94E2194B015C01C114D104E1044A
:10343000F104F1F00E94E219DC01CB01881999092D
:10344000AA09BB09883E9340A105B10570F321E0AC
:10345000C21AD108E108F10888EE880E83E0981EB0
:10346000A11CB11CC114D104E104F10419F7DDCF92
:10347000FF90EF90DF90CF90BF90AF909F908F9094
:1034800008952FB7F8946091A0087091A1088091D9
:10349000A2089091A3082FBF08951F920F920FB614
:1034A0000F9211242F933F938F939F93AF93BF93CA
:1034B0008091A0089091A108A091A208B091A308C2
:1034C00030919F0823E0230F2D3720F40196A11D92
:1034D000B11D05C026E8230F0296A11DB11D209342
:1034E0009F088093A0089093A108A093A208B0938E
:1034F000A3088091A4089091A508A091A608B09176
:10350000A7080196A11DB11D8093A4089093A5085A
:10351000A093A608B093A708BF91AF919F918F91F8
:103520003F912F910F900FBE0F901F901895CF9342
:10353000DF93CDB7DEB7C657D1090FB6F894DEBF1B
:103540000FBECDBF789484B5826084BD84B58160A0
:1035500084BD85B5826085BD85B5816085BD80915E
:103560006E00816080936E001092810080918100D6
:1035700082608093810080918100816080938100CE
:1035800080918000816080938000809191008260B2
:10359000809391008091910081608093910080914F
:1035A00090008160809390008091C100846080933E
:1035B000C1008091C10082608093C1008091C100F0
:1035C00081608093C1008091C30081608093C300BB
:1035D0008091C00082608093C0008091C2008160B1
:1035E0008093C20080917A00846080937A008091F9
:1035F0007A00826080937A0080917A008160809363
:103600007A0080917A00806880937A001092ED03AE
:103610001092BC031092BB038091D700816080930D
:10362000D70080EA8093D80089B5806189BD89B5CB
:10363000826089BD09B400FEFDCF61E070E080E0EA
:1036400090E00E94071A8091D8008F7C806180935F
:10365000D8008091E000807F8093E0008091E100BD
:103660008E7E8093E1008DE08093E200559A209A4F
:1036700010910B016AE070E080E090E00E94071A70
:103680001123B1F38FEF9FEF9093340480933304B1
:1036900060EA71E087E294E00E94500C64E670E01A
:1036A00080E090E00E94071A1092CA031092C903AA
:1036B00067EA71E087E294E00E94500C1091C90320
:1036C000111125C087E794E00E94DC05892BD1F316
:1036D00087E794E00E94DC05892BB1F06BEC71E088
:1036E00087E294E00E94500C87E794E00E945F0616
:1036F00061E087E794E00E94130664E670E080E0F2
:1037000090E00E94071A11E01093C903D7CF6AEE28
:1037100071E087E294E00E94500C6DEFE62EFF24EA
:10372000FA940FEC1FEF26E330E04DE956E065EC2C
:103730007EEF83EE9EEF0E94510E64EF71E087E210
:1037400094E00E94500C8CE291E09093C40380932B
:10375000C3039093BE038093BD039E012F5F3F4F31
:10376000190180E090E0DC01A250BF4FE596BFAFA9
:10377000AEAFE597FC01E21BF30BE796FFAFEEAFB0
:10378000E79780917C05882309F42BC280907A0505
:1037900090907B050E94E2192B013C016401DD241D
:1037A0000E94CF108C01C816D906D4F5893C91052A
:1037B0005CF10E94C4140E94CF108C01892BA1F5EA
:1037C0000E94E219DC01CB0184199509A609B70909
:1037D000893F9A42A105B10570F3FAC1570121E270
:1037E000E216F1041CF050E2A52EB12CAA20B1F093
:1037F00008EE13E091014A2D64E7809169050E946B
:103800000D0DEA18FB0851F70E94CF108C01C81665
:10381000D90634F47C01EC18FD08E0CF1982F1CF11
:103820000115110509F4D4C10E94E219DC01CB0194
:1038300084199509A609B709893F9A42A105B105DE
:1038400008F0C6C1C016D10609F0AACF882059F0E9
:1038500008EE13E022E835E0482D64E78091690521
:103860000E940D0D02C01092820582E895E000973B
:1038700009F061C5E0917805F0917905E480F58063
:10388000FE24EF24FE24A084B184BA24AB24BA24FD
:1038900004851585102701271027608171817627FF
:1038A00067277627072E000C880B990B0E945D2551
:1038B00020E030E040E858E30E94BC252B013C01A9
:1038C0006093CE057093CF058093D0059093D1057A
:1038D000B701FF0C880B990B0E945D2520E030E0BA
:1038E00040E858E30E94BC256B017C016093D2053F
:1038F0007093D3058093D4059093D505B501BB0C87
:10390000880B990B0E945D2520E030E040E858E3E9
:103910000E94BC25A7966CAF7DAF8EAF9FAFA797D7
:103920006093D6057093D7058093D8059093D905F9
:10393000B801110F880B990B0E945D2520E030E043
:1039400040E858E30E94BC25AB966CAF7DAF8EAFCC
:103950009FAFAB976093DA057093DB058093DC052E
:103960009093DD0582E895E0892B09F0E1C4E091B0
:103970007805F0917905648D758D962F872FAD961A
:103980009FAF8EAFAD979093EB058093EA0560A152
:1039900071A1B62FA72FAF96BFAFAEAFAF97B093C1
:1039A000ED05A093EC0504A115A110270127102710
:1039B0001093EF050093EE05AB962CAD3DAD4EADEB
:1039C0005FADAB97C701B6010E94BC254B015C01FE
:1039D000A7962CAD3DAD4EAD5FADA797C301B2012B
:1039E0000E94BC259B01AC01C501B4010E94D926EF
:1039F0009B01AC010E94DA26E3966CAF7DAF8EAFDF
:103A00009FAFE3976093C2057093C3058093C4058D
:103A10009093C505A7019601C301B2010E94BC2580
:103A20004B015C01AB962CAD3DAD4EAD5FADAB97A0
:103A3000A7966CAD7DAD8EAD9FADA7970E94BC25BE
:103A40009B01AC01C501B4010E94DA269B01AC01C7
:103A50000E94DA264B015C016093C6057093C7058E
:103A60008093C8059093C905A3019201C301B201D7
:103A70000E94BC252B013C01A7019601C701B6019C
:103A80000E94BC259B01AC01C301B2010E94D92652
:103A90006B017C01A7962CAD3DAD4EAD5FADA797F8
:103AA000CA01B9010E94BC259B01AC01C701B60146
:103AB0000E94D9266B017C01AB962CAD3DAD4EAD7D
:103AC0005FADAB97CA01B9010E94BC259B01AC0157
:103AD000C701B6010E94DA266B017C016093CA051A
:103AE0007093CB058093CC059093CD05AD96EEAD4C
:103AF000FFADAD97BF01FF0F880B990B0E945D25AD
:103B00002B013C0120E030E040E056E4E3966CAD50
:103B10007DAD8EAD9FADE3970E94BC259B01AC01AE
:103B2000C301B2010E94D9260E9446277093F10575
:103B30006093F005AF962EAD3FADAF97B901330F4F
:103B4000880B990B0E945D252B013C0120E030E0A1
:103B500040E056E4C501B4010E94BC259B01AC01C4
:103B6000C301B2010E94D9260E9446277093F30533
:103B70006093F205B801110F880B990B0E945D2527
:103B80004B015C0120E030E040E056E4C701B601A3
:103B90000E94BC259B01AC01C501B4010E94D9263D
:103BA0000E9446277093F5056093F40586E0E0EFE8
:103BB000F5E0DE01919601900D928A95E1F786E09D
:103BC000FE01B196DE01979601900D928A95E1F77C
:103BD00086E0FE01B796DE019D9601900D928A95D2
:103BE000E1F786E0FE01BD96A3E6B5E001900D92F7
:103BF0008A95E1F71A8219821C821B821E821D821D
:103C00008091090890910A08DC01ED91FC910084F3
:103C1000F185E02D0995892B09F46FC193E0E92E18
:103C20002EE7F22E34E0832E912CAA24A394B12CFB
:103C30008091090890910A08DC01ED91FC910084C3
:103C4000F185E02D0995892B09F460C1809109085F
:103C500090910A08DC01ED91FC910284F385E02D3E
:103C60000995E091FA07F091FB07E730F10508F0BC
:103C7000FAC0EA5AFF4F0C94D3268E3709F02EC1B2
:103C8000B092FB07A092FA0729C180930408E2E0F2
:103C9000F0E0F093FB07E093FA0720C18093060859
:103CA00023E030E03093FB072093FA0717C18F3FE2
:103CB00039F0809302089092FB078092FA070EC1B8
:103CC0001092F8071092FB071092FA078093F907F9
:103CD00080910108882309F4C3C061E072E0BAC092
:103CE0009091030820910208921708F0F7C0E92F7D
:103CF000F0E0EC50F94F80839F5F291719F0909303
:103D00000308ECC01092030885E090E09093FB0755
:103D10008093FA07E3C04091020860911904709102
:103D20001A04E4EFF6E020E030E090E050E02417E1
:103D3000350748F4A1919A27DB01A90FB11D9C9189
:103D40002F5F3F4FF4CF891307C0A6E0B0E0B093D8
:103D5000FB07A093FA07C2C01092F8071092FB0766
:103D60001092FA071092F90780910108882309F44C
:103D700077C066E172E06EC01092FB071092FA07FE
:103D8000813809F05CC0809106088F3F51F0E82F20
:103D9000F0E0EC50F94F9081F082992311F0890FF7
:103DA000F6CF809102088093F807B2E0B093F9074C
:103DB000E091FC07F091FD07309709F43DC0809138
:103DC00004089091FE07891748F4E80FF11DE80FE9
:103DD000F11D0190F081E02D09952EC08091010820
:103DE000882351F1C090FF07D09000080DE411E046
:103DF000F8016491611113C00091FF071091000850
:103E00004091040850E060E070E02AE0C8010E94A0
:103E1000070C6DE971E0C8010E94F20B0DC0D601DC
:103E2000ED91FC910190F081E02DC60109950F5FA5
:103E30001F4F892BE9F6E0CF8091020854C0109201
:103E4000F807BEEFB093F90780910108882341F08D
:103E500067E272E08091FF07909100080E94500C89
:103E60008091F80740C080910108882399F16EE3A2
:103E700072E08091FF07909100080E94F20B409041
:103E8000FA075090FB070091FF0710910008052CDE
:103E9000000C6608770877FE12C0D801ED91FC91FE
:103EA0000190F081E02D6DE2C80109954427552766
:103EB000BA0144195509660977092AE003C02AE0C6
:103EC000B301A201C8010E94070C6DE971E0C801AD
:103ED0000E94F20B1092FB071092FA071092F8075B
:103EE000E092F90780E0809307088091F9078093BA
:103EF0000808833009F49CCE09C01092F80781E0CD
:103F00008093F907109207088093080880910708AA
:103F10008823C9F1E596AEADBFADE597AA50BA4F7B
:103F2000F101E7968EAD9FADE7978E0F9F1F8E3FF5
:103F3000910518F48D918193F4CF66E572E087E2E4
:103F400094E00E94F20B2AE04EEF50E060E070E057
:103F500087E294E00E94070C6DE971E087E294E04B
:103F60000E94F20B86E0F101DE01D39601900D92E2
:103F70008A95E1F786E0FE01F396DE01D99601907D
:103F80000D928A95E1F786E0FE01F996ADE5B5E080
:103F900001900D928A95E1F76F961FAE1EAE6F9756
:103FA000A1961FAE1EAEA197A3961FAE1EAEA397FD
:103FB00042E050E06DE672E0CE01835A9F4F0E94CE
:103FC00044086091630570916405C1010E94691005
:103FD000B101CE01835A9F4F0E946210C1010E941D
:103FE0005D1060E772E0CE01835A9F4F0E94230864
:103FF0006091650570916605C1010E946910B1016B
:10400000CE01835A9F4F0E946210C1010E945D1031
:1040100060E772E0CE01835A9F4F0E9423086091AF
:10402000670570916805C1010E946910B101CE0158
:10403000835A9F4F0E946210C1010E945D1060E789
:1040400072E0CE01835A9F4F0E942308609157056A
:1040500070915805CE01895A9F4F0E94691060E700
:1040600072E0CE01895A9F4F0E9423086091590542
:1040700070915A05C1010E946910B101CE01895A9F
:104080009F4F0E946210C1010E945D1060E772E0C4
:10409000CE01895A9F4F0E94230860915B05709161
:1040A0005C05C1010E946910B101CE01895A9F4F80
:1040B0000E946210C1010E945D1063961FAE1EAE89
:1040C000639765961FAE1EAE659767961FAE1EAED0
:1040D000679743E050E062E772E0CE018F5A9F4F4E
:1040E0000E94440860915D0570915E05C1010E94C7
:1040F0006910B101CE018F5A9F4F0E946210C10119
:104100000E945D1060E772E0CE018F5A9F4F0E94BF
:10411000230860915F0570916005C1010E946910DC
:10412000B101CE018F5A9F4F0E946210C1010E94BF
:104130005D1060E772E0CE018F5A9F4F0E94230806
:104140006091610570916205C1010E946910B10121
:10415000CE018F5A9F4F0E946210C1010E945D10D4
:1041600060E772E0CE018F5A9F4F0E942308609152
:10417000510570915205CE01855B9F4F0E946910D9
:1041800060E772E0CE01855B9F4F0E94230860913B
:10419000530570915405C1010E946910B101CE010F
:1041A000855B9F4F0E946210C1010E945D1060E715
:1041B00072E0CE01855B9F4F0E94230860915505F8
:1041C00070915605C1010E946910B101CE01855B55
:1041D0009F4F0E946210C1010E945D1066E772E06D
:1041E000CE01855B9F4F0E942308BE01635A7F4F1B
:1041F000C1010E9465086D964EAD5FAD6D976996E1
:104200006EAD7FAD6997C1010E94F507811103C0B2
:10421000C1010E943208B101CE018B5B9F4F0E9409
:104220006508C1010E945D10BE016F5A7F4FC10138
:104230000E94650861964EAD5FAD61972D966EAD9B
:104240007FAD2D97C1010E94F507811103C0C10107
:104250000E943208B101CE01CF960E946508C101CB
:104260000E945D10CE01CF960E945D10CE018B5B47
:104270009F4F0E945D10CE01855B9F4F0E945D1095
:10428000CE018F5A9F4F0E945D10CE01895A9F4FD9
:104290000E945D10CE01835A9F4F0E945D1087E2FD
:1042A00094E00E94D707823709F03FC01092CA03FA
:1042B0001092C90369E772E087E294E00E94500C13
:1042C0008091CA0381110BC087E294E00E94D70756
:1042D00091E0833609F090E09093CA03F1CF6AEE43
:1042E00071E087E294E00E94500C85EEE82EFF24F6
:1042F000FA940EEC1FEF25E330E042E856E06AED59
:104300007EEF80E49FEF0E94510E64EF71E087E240
:1043100094E00E94500C8CE291E09093C40380934F
:10432000C3039093BE038093BD030E94810629CAF4
:10433000E2E8F5E020CBFC01A1CA6F927F928F9258
:104340009F92AF92BF92CF92DF92EF92FF920F9324
:104350001F93CF93DF93CDB7DEB7AE970FB6F89428
:10436000DEBF0FBECDBFE4E1F5E01192B5E0E8326B
:10437000FB07D9F710922B0510922C0580912B0585
:1043800090912C0582E1E6E1F5E0DF011D928A952E
:10439000E9F781E08093280580912905882309F4B5
:1043A0003BC161E273E087E294E00E94F20B8091EE
:1043B000A7039091A803A091A9038CA79DA7AEA7DE
:1043C0008091AA039091AB03A091AC0389A79AA70F
:1043D000ABA785E00E9406118E01045D1F4F81117D
:1043E00003C0C8010E94F91089E00E9406119E01D5
:1043F000275D3F4F7901811103C0C9010E94F91067
:10440000FF92EF9280911D058F9380911C058F93F1
:1044100080911B058F9380911A058F931F930F93A3
:10442000809118051F928F9380E393E09F938F9361
:104430008E010F5F1F4F1F930F930E948A29B801AF
:1044400087E294E00E94F20B8DE00E9406110FB605
:10445000F894DEBF0FBECDBF882319F0BCE3FB2E5E
:1044600002C0AFE5FA2E8BE00E940611882319F0F6
:10447000FEE5EF2E02C0EFE5EE2E8CE00E94061165
:10448000882319F076E7D72E02C06FE5D62E8EE08E
:104490000E940611882319F05EE3C52E02C04FE585
:1044A000C42E81E00E940611882319F031E4932E76
:1044B00002C02FE5922E82E00E940611882319F097
:1044C00092E4892E02C08FE5882E83E00E940611B7
:1044D000882319F0B8E57B2E02C0AFE57A2E84E080
:1044E0000E940611882319F0F9E56F2E02C0EFE54E
:1044F0006E2E88E00E940611882319F07EE3A72E15
:1045000002C06FE5A62E87E00E940611882319F0ED
:104510005CE3B52E02C04FE5B42E80E00E94061188
:10452000882311F088E501C08FE51F926F921F92DA
:104530007F921F928F921F929F921F92AF921F9213
:104540008F931F92BF921F92CF921F92DF921F9262
:10455000EF921F92FF928CE493E09F938F931F93AF
:104560000F930E948A29B80187E294E00E94F20B1F
:104570008091AD039091AE03A091AF038EA39FA352
:10458000A8A78091B0039091B103A091B2038BA32F
:104590009CA3ADA386E00E9406110FB6F894DEBF7F
:1045A0000FBECDBFDE0196966D01811103C0CD0116
:1045B0000E94F9108AE00E9406119E012D5D3F4F76
:1045C0007901811103C0C9010E94F9108091190578
:1045D0001F928F93DF92CF92FF92EF9280912105ED
:1045E0008F93809120058F9380911F058F938091E9
:1045F0001E058F938BE693E09F938F931F930F93EA
:104600000E948A29B80187E294E00E94500C0FB6FC
:10461000F894DEBF0FBECDBF1092140584E18093E5
:10462000150510922A0510922C0510922B05109258
:104630002E0510922D051092310510923205109220
:104640003305109234058FEF90E0A0E0B0E0809346
:10465000350590933605A0933705B0933805109231
:10466000390510923A0510923B0510923C05809353
:104670003D0590933E05A0933F05B093400540E073
:1046800050E86FEF7FEF40934105509342056093F0
:104690004305709344058FEF9FE7A0E0B0E080935F
:1046A000450590934605A0934705B0934805409370
:1046B000490550934A0560934B0570934C058093D0
:1046C0004D0590934E05A0934F05B0935005109261
:1046D000300510922F0581E0809329058BE98093A6
:1046E000150488E08093180480E091E0909317040B
:1046F000809316040E94812790931A0480931904D2
:1047000080E090E0209116043091170482179307FF
:10471000E0F46091150470E09C0148E050E0F9017C
:10472000EE0FFF1F27FF04C09F012627372701C078
:104730009F014150510999F7E0911904F0911A0431
:10474000E80FF91F20830196DDCF10921E0410920E
:104750001D0488EE93E0A0E0B0E080931F049093E6
:104760002004A0932104B09322042BE631E030937F
:104770001C0420931B0410927A04109279048093F5
:104780007B0490937C04A0937D04B0937E042DE77A
:1047900031E030937804209377042DEC30E03093AF
:1047A0008404209383042CEC30E03093860420931F
:1047B000850428EC30E0309388042093870429ECAA
:1047C00030E030938A04209389042AEC30E030935F
:1047D0008C0420938B042EEC30E030938E042093D5
:1047E0008D041092900410929104109292041092F1
:1047F000930410922A041092290480932B0490931E
:104800002C04A0932D04B0932E048FE891E0909394
:104810002804809327048FEF9FEF909334048093B4
:104820003304109211081092120810921908109275
:104830001A08109221081092220810920B08109268
:104840000C088EE78093F2071092F3071092F4079A
:104850001092F5071092F60781E88093F7071092FF
:10486000F8071092F9071092FB071092FA071092BE
:10487000FD071092FC071092FE071092010810929B
:104880000208109203081092040810920508109272
:104890000608109207081092080882E08093C8006A
:1048A0001092CD0080E18093CC0010928F0486E0BE
:1048B0008093CA008091C90080618093C900809173
:1048C000C90088608093C9008091C9008068809386
:1048D000C9008091C9008F7D8093C90087E794E06B
:1048E00090930A088093090887E294E09093000867
:1048F0008093FF0781E08093010867E873E087E217
:1049000094E00E94500C88E68093690510927C0523
:104910001092C2051092C3051092C4051092C505ED
:104920001092C6051092C7051092C8051092C905CD
:104930001092CA051092CB051092CC051092CD05AD
:1049400080E090E0A0E8BFE38093CE059093CF0590
:10495000A093D005B093D1051092D2051092D30543
:104960001092D4051092D5051092D6051092D70555
:104970001092D8051092D9051092DA051092DB0535
:104980001092DC051092DD051092EB051092EA05FD
:104990001092ED051092EC051092EF051092EE05C5
:1049A0001092F1051092F0051092F3051092F205A5
:1049B0001092F5051092F4051092640510926305AB
:1049C00010926605109265051092680510926705B1
:1049D00010925E0510925D051092600510925F05C1
:1049E00010926205109261051092580510925705B9
:1049F00010925A051092590510925C0510925B05B1
:104A000010925205109251051092540510925305C0
:104A10001092560510925505AE960FB6F894DEBF6B
:104A20000FBECDBFDF91CF911F910F91FF90EF90FF
:104A3000DF90CF90BF90AF909F908F907F906F90BE
:104A40000895BB274A3031F4992322F4BDE29095B2
:104A500081959F4F0C942D25BB27FB015527AA2735
:104A6000880F991FAA1FA41710F0A41B83955051FB
:104A7000B9F7A05DAA3308F0A95DA193009779F773
:104A8000B111B1931192CB010C944625DC01FC01CC
:104A9000672F71917723E1F7329704C07C916D9372
:104AA00070836291AE17BF07C8F308950E949825DE
:104AB00008F481E00895E89409C097FB3EF49095CE
:104AC0008095709561957F4F8F4F9F4F9923A9F0E7
:104AD000F92F96E9BB279395F69587957795679576
:104AE000B795F111F8CFFAF4BB0F11F460FF1BC0BA
:104AF0006F5F7F4F8F4F9F4F16C0882311F096E94D
:104B000011C0772321F09EE8872F762F05C06623FA
:104B100071F096E8862F70E060E02AF09A95660FB3
:104B2000771F881FDAF7880F9695879597F908956C
:104B3000990F0008550FAA0BE0E8FEEF16161706AE
:104B4000E807F907C0F012161306E407F50798F016
:104B5000621B730B840B950B39F40A2661F0232B2F
:104B6000242B252B21F408950A2609F4A140A695AB
:104B70008FEF811D811D08950E94CF250C94402642
:104B80000E94322638F00E94392620F0952311F039
:104B90000C9429260C942F2611240C9474260E9420
:104BA000512670F3959FC1F3950F50E0551F629FFA
:104BB000F001729FBB27F00DB11D639FAA27F00D76
:104BC000B11DAA1F649F6627B00DA11D661F829F9D
:104BD0002227B00DA11D621F739FB00DA11D621F82
:104BE000839FA00D611D221F749F3327A00D611D9F
:104BF000231F849F600D211D822F762F6A2F112481
:104C00009F5750409AF0F1F088234AF0EE0FFF1FB3
:104C1000BB1F661F771F881F91505040A9F79E3F0A
:104C2000510580F00C9429260C9474265F3FE4F320
:104C3000983ED4F3869577956795B795F795E79560
:104C40009F5FC1F7FE2B880F911D9695879597F969
:104C5000089597F99F6780E870E060E008959FEFFE
:104C600080EC089500240A94161617061806090603
:104C7000089500240A9412161306140605060895D2
:104C8000092E0394000C11F4882352F0BB0F40F45A
:104C9000BF2B11F460FF04C06F5F7F4F8F4F9F4F9A
:104CA000089557FD9058440F551F59F05F3F71F01C
:104CB0004795880F97FB991F61F09F3F79F0879583
:104CC0000895121613061406551FF2CF4695F1DF0C
:104CD00008C0161617061806991FF1CF869571059C
:104CE000610508940895E894BB2766277727CB01D0
:104CF00097F908952F923F924F925F926F927F9211
:104D00008F929F92AF92BF92CF92DF92EF92FF92DB
:104D10000F931F93CF93DF93CDB7DEB7CA1BDB0B87
:104D20000FB6F894DEBF0FBECDBF09942A8839882C
:104D300048885F846E847D848C849B84AA84B98433
:104D4000C884DF80EE80FD800C811B81AA81B9813F
:104D5000CE0FD11D0FB6F894DEBF0FBECDBFED0153
:104D60000895A1E21A2EAA1BBB1BFD010DC0AA1FAC
:104D7000BB1FEE1FFF1FA217B307E407F50720F0C4
:104D8000A21BB30BE40BF50B661F771F881F991F3F
:104D90001A9469F760957095809590959B01AC0188
:104DA000BD01CF010895EE0FFF1F0590F491E02D96
:104DB00009945058BB27AA270E94F1260C9440263C
:104DC0000E94322638F00E94392620F039F49F3FA5
:104DD00019F426F40C942F260EF4E095E7FB0C94BE
:104DE0002926E92F0E94512658F3BA176207730744
:104DF0008407950720F079F4A6F50C9473260EF439
:104E0000E0950B2EBA2FA02D0B01B90190010C01DA
:104E1000CA01A0011124FF27591B99F0593F50F4F2
:104E2000503E68F11A16F040A22F232F342F44274A
:104E3000585FF3CF469537952795A795F040539542
:104E4000C9F77EF41F16BA0B620B730B840BBAF012
:104E50009150A1F0FF0FBB1F661F771F881FC2F77D
:104E60000EC0BA0F621F731F841F48F48795779591
:104E70006795B795F7959E3F08F0B0CF9395880F4B
:104E800008F09927EE0F9795879508950E944D2772
:104E90006894B1110C94742608950E94592688F0E4
:104EA0009F5798F0B92F9927B751B0F0E1F0660FEE
:104EB000771F881F991F1AF0BA95C9F714C0B1302F
:104EC00091F00E947326B1E008950C947326672F29
:104ED000782F8827B85F39F0B93FCCF3869577955E
:104EE0006795B395D9F73EF4909580957095619547
:104EF0007F4F8F4F9F4F08950E94982508F48FEFA2
:104F000008950F931F93CF93DF938230910510F490
:104F100082E090E0E091B608F091B70820E030E040
:104F2000A0E0B0E0309719F14081518102811381F6
:104F300048175907C8F08417950769F4109731F09E
:104F400012960C93129713961C9327C00093B608E1
:104F50001093B70822C02115310519F042175307E5
:104F600018F49A01BD01EF01DF01F801DBCF211533
:104F70003105F9F0281B390B2430310580F48A8182
:104F80009B816115710521F0FB019383828304C02D
:104F90009093B7088093B608FE01329644C0FE0194
:104FA000E20FF31F819391932250310939832883B3
:104FB0003AC02091B4083091B508232B41F42091D8
:104FC0001801309119013093B5082093B40820914D
:104FD0001601309117012115310541F42DB73EB767
:104FE00040911A0150911B01241B350BE091B4082C
:104FF000F091B508E217F307A0F42E1B3F0B28171A
:10500000390778F0AC014E5F5F4F2417350748F041
:105010004E0F5F1F5093B5084093B408819391934E
:1050200002C0E0E0F0E0CF01DF91CF911F910F913E
:105030000895CF93DF93009709F481C0FC01329764
:1050400013821282A091B608B091B708109781F42C
:1050500020813181820F931F2091B4083091B508CF
:105060002817390751F5F093B508E093B40867C0E5
:10507000ED0120E030E0CE17DF0740F44A815B818C
:105080009E0141155105F1F0EA01F5CFD383C283AA
:1050900040815181840F951FC817D90759F4888121
:1050A0009981840F951F0296918380838A819B81C9
:1050B000938382832115310529F4F093B708E09397
:1050C000B6083DC0E901FB83EA8349915991C40FB9
:1050D000D51FEC17FD0761F480819181840F951F26
:1050E0000296E90199838883828193819B838A83D5
:1050F000E0E0F0E012968D919C911397009719F0E3
:10510000FD01DC01F7CF8D919C9111979D012E5FE0
:105110003F4F820F931F2091B4083091B508281794
:10512000390769F4309729F41092B7081092B6083D
:1051300002C013821282B093B508A093B408DF9125
:10514000CF910895A0E0B0E0E8EAF8E20C947E2662
:10515000EC01009721F4CB010E948127B4C0FC012F
:10516000E60FF71F9C0122503109E217F30708F4FC
:10517000A8C0D9010D911C91119706171707B0F01F
:105180000530110508F49BC0C801049786179707DE
:1051900008F495C002501109061B170B01931193D7
:1051A0006D937C93CF010E94192889C05B01A01ADE
:1051B000B10A4C01800E911EA091B608B091B708BB
:1051C000612C712CE12CF12C109709F446C08D91C3
:1051D0009C911197A815B905B1F56C0142E0C40E78
:1051E000D11CCA14DB0478F14C018A189B086401B5
:1051F00042E0C40ED11C1296BC9012971396AC914B
:10520000B5E0CB16D10440F0B282A38391828082B4
:10521000D9016D937C9309C00E5F1F4F800F911FC2
:10522000F90191838083EB2DFA2FE114F10431F021
:10523000D7011396FC93EE93129741C0F093B708F1
:10524000E093B6083CC06816790608F43C017D017D
:1052500012960D90BC91A02DB7CF8091B40890917B
:10526000B50888169906E1F466167706C8F48091A9
:10527000160190911701009741F48DB79EB74091A8
:105280001A0150911B01841B950BE817F907C8F40C
:10529000F093B508E093B408F901718360830FC0FF
:1052A000CB010E9481277C01009759F0A801BE0123
:1052B0000E947A29CE010E941928C70104C0CE019C
:1052C00002C080E090E0CDB7DEB7EEE00C949A2605
:1052D00081E090E0F8940C943D2CFB01DC0104C0CB
:1052E0008D910190801921F441505040C8F7881BDE
:1052F000990B0895FB01DC0102C001900D92415011
:105300005040D8F70895FB01DC0101900D92002078
:10531000E1F70895AEE0B0E0E0E9F9E20C94882608
:105320000D891E8986E08C831A8309838FEF9FE79E
:105330009E838D83AE01475E5F4F6F89788DCE016E
:1053400001960E94AC29EF81F885E00FF11F1082D1
:105350002E96E4E00C94A426ABE0B0E0E2EBF9E298
:105360000C947A266C017B018A01FC01178216825B
:10537000838181FFCCC1CE0101963C01F60193816E
:10538000F70193FD859193FF81917F01882309F4B3
:10539000BAC1853239F493FD859193FF81917F01E4
:1053A000853229F4B60190E00E94A32BE7CF912C1F
:1053B000212C312CFFE1F315D8F08B3279F038F441
:1053C000803279F08332A1F4232D20611DC08D320B
:1053D00061F0803369F4232D216016C0832D826033
:1053E000382EE32DE4603E2E2AC0F32DF8601DC058
:1053F00037FC2DC020ED280F2A3040F08E32B9F452
:1054000036FC81C1232D2064322E19C036FE06C021
:105410008AE0989E200D1124922E11C0EAE02E9E63
:10542000200D1124222EF32DF0623F2E08C08C3661
:1054300021F4832D8068382E02C0883641F4F701AC
:1054400093FD859193FF81917F018111B3CF982FB7
:105450009F7D9554933028F40C5F1F4F9FE39983F1
:105460000DC0833631F0833771F0833509F059C0B0
:1054700021C0F801808189830E5F1F4F88248394A7
:10548000912C530113C02801F2E04F0E511CF8017A
:10549000A080B18036FE03C0692D70E002C06FEFBE
:1054A0007FEFC5010E94982B4C018201F32DFF77FD
:1054B0003F2E16C0280122E0420E511CF801A080A8
:1054C000B18036FE03C0692D70E002C06FEF7FEF40
:1054D000C5010E948D2B4C01F32DF0683F2E8201F7
:1054E00033FC1BC0822D90E088169906B0F4B601FB
:1054F00080E290E00E94A32B2A94F4CFF50137FCC0
:10550000859137FE81915F01B60190E00E94A32B47
:1055100021102A9421E0821A91088114910471F7D4
:10552000E8C0843611F0893641F5F80137FE07C02E
:1055300060817181828193810C5F1F4F08C06081FF
:105540007181072E000C880B990B0E5F1F4FF32DF6
:10555000FF763F2E97FF09C09095809570956195D5
:105560007F4F8F4F9F4FF0683F2E2AE030E0A3011E
:105570000E94DF2B882E861845C0853731F4232DF5
:105580002F7EB22E2AE030E025C0932D997FB92ED0
:105590008F36C1F018F4883579F0B5C0803719F02E
:1055A000883721F0B0C0E92FE061BE2EB4FE0DC0F7
:1055B000FB2DF460BF2E09C034FE0AC0292F2660DF
:1055C000B22E06C028E030E005C020E130E002C085
:1055D00020E132E0F801B7FE07C06081718182816D
:1055E00093810C5F1F4F06C06081718180E090E065
:1055F0000E5F1F4FA3010E94DF2B882E8618FB2D04
:10560000FF773F2E36FE0DC0232D2E7FA22E89144C
:1056100058F434FE0BC032FC09C0832D8E7EA82EB8
:1056200005C0B82CA32C03C0B82C01C0B92CA4FE13
:105630000FC0FE01E80DF11D8081803321F49A2D09
:10564000997EA92E09C0A2FE06C0B394B39404C0EB
:105650008A2D867809F0B394A3FC11C0A0FE06C081
:10566000B21488F4280C922C9B180EC0B21460F46B
:10567000B60180E290E00E94A32BB394F7CFB2145E
:1056800018F42B1802C0982C212CA4FE10C0B601CF
:1056900080E390E00E94A32BA2FE17C0A1FC03C0F0
:1056A00088E790E002C088E590E0B6010CC08A2D42
:1056B000867859F0A1FE02C08BE201C080E2A7FC0F
:1056C0008DE2B60190E00E94A32B891438F4B60154
:1056D00080E390E00E94A32B9A94F7CF8A94F30181
:1056E000E80DF11D8081B60190E00E94A32B81108E
:1056F000F5CF222009F442CEB60180E290E00E946C
:10570000A32B2A94F6CFF6018681978102C08FEFF2
:105710009FEF2B96E2E10C949626FC0105906150D8
:1057200070400110D8F7809590958E0F9F1F0895B7
:10573000FC016150704001900110D8F78095909560
:105740008E0F9F1F08950F931F93CF93DF93FB013D
:10575000238121FD03C08FEF9FEF2CC022FF16C0D5
:1057600046815781248135814217530744F4A08133
:10577000B1819D012F5F3F4F318320838C93268120
:1057800037812F5F3F4F3783268314C08B01EC0195
:10579000FB010084F185E02D0995892BE1F6D80104
:1057A00016968D919C911797019617969C938E93C0
:1057B0001697CE01DF91CF911F910F910895FA01B5
:1057C000AA27283051F1203181F1E8946F936E7F40
:1057D0006E5F7F4F8F4F9F4FAF4FB1E03ED0B4E031
:1057E0003CD0670F781F891F9A1FA11D680F791F72
:1057F0008A1F911DA11D6A0F711D811D911DA11D83
:1058000020D009F468943F912AE0269F1124301992
:10581000305D3193DEF6CF010895462F4770405D2D
:105820004193B3E00FD0C9F7F6CF462F4F70405DDC
:105830004A3318F0495D31FD4052419302D0A9F737
:10584000EACFB4E0A6959795879577956795BA9531
:10585000C9F700976105710508959B01AC010A2EF7
:1058600006945795479537952795BA95C9F7620FCE
:0E587000731F841F951FA01D0895F894FFCF8D
:10587E00FFFFFFFF00E1000000000000E904E90463
:10588E00E904E904E9040000B808200000C18081A1
:10589E00000000020802040202020102800240021D
:1058AE0010022003020301038003400320031003B0
:1058BE00043F013D013B013901370135013301310F
:1058CE00012F012D012B01290127012501230100A3
:1058DE000000002D012B0100000000E518B818C7CC
:1058EE00068C18B0189C188D180000000013068145
:1058FE0005AB055F06DC05BA05CE05000000008B82
:10590E00062907AF07A106AC06D707B3070D0A0095
:10591E004D41535445520057616974696E67206357
:10592E006F6E6E656374696F6E2077697468206F31
:10593E0074686572206D6F76657200426C75657461
:10594E006F6F746820636F6E6E656374696F6E201F
:10595E00636F6E6669726D65640053657475702051
:10596E00494D550053657475702074696D65727379
:10597E00004552524F523A205041594C4F41445FCC
:10598E004552524F52004552524F523A20435243C3
:10599E005F4552524F52004552524F523A20535485
:1059AE004F505F425954455F4552524F5200455237
:1059BE00524F523A20556E646566696E6564207367
:1059CE0074617465200044696D656E73696F6E65F0
:1059DE00207269636576757461202020006D200049
:1059EE002C002073200020650057616974696E6772
:1059FE0020636F6E6E656374696F6E20776974686D
:105A0E00206D616E61676572004D505536303530D0
:105A1E0020636F6E6E656374696F6E20737563635A
:105A2E0065737366756C004D505536303530206396
:105A3E006F6E6E656374696F6E206661696C656406
:105A4E0000496E697469616C697A696E67204932C2
:105A5E004320646576696365732E2E2E005465733C
:105A6E0074696E672064657669636520636F6E6E18
:105A7E00656374696F6E732E2E2E004572726F728F
:105A8E0020696E697469616C697A696E672121217A
:105A9E000058496E7075742044656275673A20002F
:105AAE004C543A20253375202573204C3A28253640
:105ABE00642C202536642C2025732900202563258F
:105ACE006325632563207C20256325632563207C65
