:100000000C94A2040C9497080C9470080C94490862
:100010000C9422080C94CA040C94CA040C94FB0798
:100020000C94CA040C94CA040C94BE080C943E09A7
:100030000C94CA040C94CA040C94CA040C94CA0408
:100040000C94CA040C94CA040C94CA040C94CA04F8
:100050000C94CA040C94CA040C94CA040C948D1316
:100060000C94CA040C94A20B0C947C0B0C94CA0440
:100070000C94CA040C94CA040C94CA040C94CA04C8
:100080000C94CA040C94CA040C94CA040C94CA04B8
:100090000C9451100C94CA040C94CA040C94CA0415
:1000A0000C94CA040C94CA040C94CA045C125F1227
:1000B0004E12521256128012801280126312671270
:1000C0006B127112751280127B12080B0002020271
:1000D00001000904000001020200000524001001D3
:1000E0000524010101042402060524060001070578
:1000F000810310004009040100020A000000070506
:1001000002024000000705830240000004030904C6
:1001100012010002EF02014041233680000101027A
:10012000030141726475696E6F204C4C430041724B
:100130006475696E6F204C656F6E6172646F00FB51
:1001400000003E000B00360001000200030000002A
:10015000650054FFEF0000FA80000B1282000100DE
:10016000020000000000000000000000000000008D
:10017000280000FFFF4581FFFFFA72000000000029
:100180000003E80000000100017FFFFFFE80010086
:100190001B00000000000000000000000000000044
:1001A0004000004000000002CB47A22000000020D9
:1001B000000000000000004000000060000000415E
:1001C000FF000000000B2A0000165500002182FDF0
:1001D000872650FD800000001F0000000580000001
:1001E00000000000010000000200000003000040C9
:1001F0000000000000046F0002653200005EC04095
:10020000000000000000000000000000000000FBF3
:100210008C6F5DFD5D08D9007C733B006C12CC32A5
:1002200000139D3200D0D632000800400001F4FFD8
:10023000E68079020000000000D0D600002710FB05
:10024000000000400000000000000000000000006E
:10025000000001000000000000010001000000009B
:1002600000FA36FFBC308E0005FBF0FFD95BC8FFFB
:10027000D09ABE000010A9FFF41EB200CEBBF7005A
:1002800000000100000004000200020200000CFF58
:10029000C280000001800000CF800040000000000C
:1002A0000000000000000000000600000000140034
:1002B000000000000000000000000000000000003E
:1002C0000000000000000000000000000000000925
:1002D00023A1350000000000000000000000000025
:1002E000000000033F68B6793528BCC67ED16C801B
:1002F00000FFFF400000000000B26A0000000000A4
:100300000000000000000000003FF000000030008E
:1003100000000000000000000000000000000000DD
:10032000000000000000000000000000004000008D
:1003300000254D002F706D000005AE000C02D000AE
:1003400000000000650054FFEF0000000000000006
:100350000001000044000100058BC1000001000005
:100360000000000065000000540000FFEF000000E6
:10037000000000000000000000000000000000007D
:10038000000000000000000000000000000000006D
:10039000000000000000000000000000000000005D
:1003A000000001000000020000000000000000004A
:1003B000000000000000000000000000000000003D
:1003C000000000000000000000000000000000002D
:1003D0001B00000000000000000000000000000002
:1003E000000000000000000000000000000000000D
:1003F00000000000000000000000000000000000FD
:100400001B000000000000000000000000000000D1
:1004100000000000000000000000000000000000DC
:1004200000000000000000000000000000000000CC
:10043000000000000000000000000000000000D8E4
:10044000DCBAA2F1DEB2B8B4A88191F74A907F91EC
:100450006AF3F9DBA8F9B0BAA080F2CE81F3C2F159
:10046000C1F2C3F3CCA2B280F1C6D880BAA7DFDF55
:10047000DFF2A7C3CBC5B6F087A2942448703C95A1
:10048000406834589B78A2F183922D557DD8B1B441
:10049000B8A1D09180F270F370F27C80A8F101B025
:1004A0009887D943D886C988BAA1F20EB89780F147
:1004B000A9DFDFDFAADFDFDFF2AA4CCD6CA90CC910
:1004C0002C97979797F1A989264666B0B4BA80AC65
:1004D000DEF2CAF1B28C02A9B69800890E161EB8D7
:1004E000A9B4992C547CB08AA896365676F1B9AF47
:1004F000B4B083C0B8A89711B18F98B9AFF02408F1
:1005000044106418F1A329557DAF83B593AFF00073
:100510002850F1A3869F61A6DADEDFD9FAA386967A
:10052000DB31A6D9F8DFBAA68FC2C5C7B28CC1B875
:10053000A2DFDFDFA3DFDFDFD8D8F1B8A8B286B44F
:10054000980D355DB8AA98B0872D353DB2B6BAAFD3
:100550008C96198F9FA70E161EB49AB8AA872C5492
:100560007CB9A3DEDFDFA3B180F2C4CDC9F1B8A9A5
:10057000B499830D355D89B9A32D557DB593A30E2F
:10058000161EA92C547CB8B4B0F19783A81184A589
:100590000998A383F0DA240844106418D8F1A52937
:1005A000557DA58595021A2E3A565A4048F9F3A36F
:1005B000D9F8F098832408441064189782A8F111A0
:1005C000F098A2240844106418DAF3DED883A594C6
:1005D00001D9A302F1A2C3C5C7D8F18492A24DDA12
:1005E0002AD84869D92AD86855DA32D85071D93210
:1005F000D8705DDA3AD85879D93AD87893A34DDAD9
:100600002AD84869D92AD86855DA32D85071D932EF
:10061000D8705DDA3AD85879D93AD878A88A9AF059
:100620002850789EF38818F19F1D98A8D908D8C83B
:100630009F129EF315A8DA1210D8F1AFC89787342D
:10064000B5B994A421F3D922D8F22DF3D92AD8F23E
:1006500035F3D932D881A4606061D961D86C6869FA
:10066000D969D8747071D971D8B1A384193D5DA3CB
:10067000831A3E5E931030811011B8B0AF8F94F2A0
:10068000DA3ED8B49AA88729DAF8D8879A35DAF802
:10069000D8879A3DDAF8D8B1B9A49885022E56A524
:1006A00081000C14A397B08AF12DD928D84DD948D0
:1006B000D86DD968D8B1840DDA0ED8A32983DA2C85
:1006C0000ED8A3844983DA2C4C0ED8B8B0A88A9AE5
:1006D000F520AADADFD8A840AAD0DADED8A860AA26
:1006E000DAD0DFD8F19786A8319B069907AB972817
:1006F000889BF00C201440B8B0B4A88C9CF004285F
:1007000051791D301438B282ABD0982C5050787883
:100710009BF11AB0F08A9CA82951798B2951798ACA
:100720002470598B2058718A4469388B3940688A03
:100730006448318B304960A588200971584468119C
:100740003964493019F1AC002C547CF08CA8042891
:100750005078F1889726A85998AC8C02264666F006
:10076000899CA8295179247059446938644831A971
:100770008809205970AB11384069A8193148608C3C
:10078000A83C415C207C00F187981986A86E767E93
:10079000A999882D557D9EB9A38A228A6E8A568A88
:1007A0005E9FB183062646660E2E4E6E9DB8AD0046
:1007B0002C547CF2B18CB499B9A32D557D8191ACA8
:1007C00038AD3AB58391AC2DD928D84DD948D86DDC
:1007D000D968D88C9DAE29D904AED851D904AED8E9
:1007E00079D904D881F39DAD008DAE1981ADD901C1
:1007F000D8F2AEDA26D88E912983A7D9ADADADADAA
:10080000F32AD8D8F1B0AC89913E5E76F3AC2E2EA7
:10081000F1B18C5A9CAC2C2828289CAC3018A89894
:100820008128343C9724A728343C9C24F2B089AC1E
:10083000912C4C6C8A9B2DD9D8D851D9D8D879D93C
:10084000D8D8F19E88A331DAD8D8912DD928D84D9F
:10085000D948D86DD968D8B18393353D8025DAD889
:10086000D88569DAD8D8B49381A328343CF3AB8B0C
:10087000F8A391B609B4D9ABDEFAB0879CB9A3DD71
:10088000F1202830389AF12830389DF1A3A3A3A392
:10089000F2A3B49080F2A3A3A3A3A3A3A3A3A3A3AF
:1008A000B2A3A3A3A3A3A3B087B599F12830389826
:1008B000F1A3A3A3A397A3A3A3A3F39BA330DCB9A2
:1008C000A7F1262626FED8FF0000000025002800FC
:1008D0002B002E00310000000000240027002A0019
:1008E0002D00300004040404040304050202020283
:1008F00004030202020206060606060604040202B9
:10090000020404040802011040804010204080408E
:100910008008020401804020100201108010204055
:1009200040200000000200090F0000030401000C39
:1009300000000000000000000000000000000000B7
:100940000000991D11241FBECFEFDAE0DEBFCDBF3E
:1009500012E0A0E0B1E0E6EDFFE402C005900D92E8
:10096000AA3FB107D9F727E0AAEFB2E001C01D9274
:10097000AB3EB207E1F714E0C2EAD4E004C021972D
:10098000FE010E947F22C13AD107C9F70E94EC19EB
:100990000C94E9270C94000008954091FD025091B9
:1009A000FE022091FB023091FC0242175307B4F47F
:1009B0009091E8009570E1F39091E80092FD19C0E4
:1009C0008093F1008091FD029091FE0201968F7359
:1009D0009927892B19F48EEF8093E8008091FD020E
:1009E0009091FE0201969093FE028093FD0281E0B9
:1009F000089580E00895DF92EF92FF920F931F9386
:100A0000CF93DF93D82EF92EE42E062F10E0C801E5
:100A10000196880F0E94CD0483E00E94CD04CD2D65
:100A2000DF2D0C0F1D1FC017D10789F0E7FE03C093
:100A3000FE01849101C088810E94CD04F82E80E0DF
:100A40000E94CD048F2121968111EDCF01C081E05C
:100A5000DF91CF911F910F91FF90EF90DF9008955C
:100A6000DF92EF92FF920F931F93CF93DF93D82ED5
:100A70008A017B01E40EF51EEB01CE15DF0571F056
:100A8000D7FE03C0FE01849101C088810E94CD047D
:100A900021968111F2CF8FEF9FEF01C0C801DF9146
:100AA000CF911F910F91FF90EF90DF9008956150CB
:100AB00030F02091F100FC0120830196F8CF2898B6
:100AC00084E6809322030895CF92DF92EF92FF9203
:100AD0000F931F93CF93DF936C017A018B01C0E0DA
:100AE000D0E0CE15DF0581F0D8016D918D01D601E2
:100AF000ED91FC910190F081E02DC6010995892BC3
:100B000011F02196EECF7E01C701DF91CF911F91A9
:100B10000F91FF90EF90DF90CF900895FC01538DDF
:100B2000448D252F30E0842F90E0821B930B5417C7
:100B300010F0CF96089501970895FC01918D828D54
:100B4000981761F0828DDF01A80FB11D5D968C9121
:100B5000928D9F5F9F73928F90E008958FEF9FEF2C
:100B60000895FC01918D828D981731F0828DE80FE8
:100B7000F11D858D90E008958FEF9FEF0895FC01A2
:100B8000918D228D892F90E0805C9F4F821B91096F
:100B90008F73992708958BEC93E00E94BF0521E0A5
:100BA000892B09F420E0822F0895FC01848DDF0158
:100BB000A80FB11DA35ABF4F2C91848D90E00196D0
:100BC0008F739927848FA689B7892C93A089B189BF
:100BD0008C9182748C93938D848D981306C00288B7
:100BE000F389E02D80818F7D80830895EF92FF92BD
:100BF0000F931F93CF93DF93EC0181E0888F9B8D40
:100C00008C8D981305C0E889F989808185FD26C0FF
:100C1000F62E0B8D10E00F5F1F4F0F731127E02E84
:100C20008C8DE8120CC00FB607FCFACFE889F98961
:100C3000808185FFF5CFCE010E94D505F1CF8B8D48
:100C4000FE01E80FF11DE35AFF4FF0829FB7F894C1
:100C50000B8FEA89FB898081806209C09FB7F89475
:100C6000EE89FF896083E889F989808182748083B5
:100C70009FBF81E090E0DF91CF911F910F91FF9096
:100C8000EF900895CF93DF93EC01888D8823C9F00E
:100C9000EA89FB89808185FD05C0A889B9898C9185
:100CA00086FD0FC00FB607FCF5CF808185FFF2CF20
:100CB000A889B9898C9185FFEDCFCE010E94D50519
:100CC000E7CFDF91CF91089580E090E0892B29F064
:100CD0000E94CB0581110C9400000895CF93DF93FF
:100CE0001F92CDB7DEB76983DC01ED91FC910280E4
:100CF000F381E02D41E050E0BE016F5F7F4F099529
:100D00000F90DF91CF910895FC018485958597FD23
:100D10000BC09FB7F89482E08093E9008091F200C5
:100D20009FBF90E0019608959FB7F89482E080936A
:100D3000E9008091F2009FBF90E00895089580E05F
:100D400090E0089581E08093FA0208950C949B0F3F
:100D50000F931F93CF93DF931F92CDB7DEB782E03F
:100D6000898342E450E06AEC70E080E80E9430053C
:100D70000E940E13DC0112960D911C911397011520
:100D8000110589F0D801ED91FC910280F381E02DED
:100D9000BE016F5F7F4FC801099597FD04C0F80140
:100DA00000851185ECCF89810F90DF91CF911F9144
:100DB0000F9108958F929F92AF92BF92CF92DF9240
:100DC000EF92FF920F931F93CF93DF936C017B0100
:100DD0008A0180911501882309F45CC08091230366
:100DE000882309F457C080914B0380FF05C0809190
:100DF000E00082608093E000E801B12C8AEFA82E29
:100E000093E0892E2AE3922E209711F4BB20D9F18A
:100E10000E941B1081110AC0AA94AA20D9F161E096
:100E200070E080E090E00E944713EECF282F30E082
:100E3000C217D3070CF48C2F9FB7F8948092E90067
:100E40002091E80025FF1DC0282F30E0C21BD30BE6
:100E5000F701815020F041914093F100FACFE20E6A
:100E6000F31EBB2019F09092E8000AC08091E800C0
:100E700085FD07C09092E800BB24B394209709F049
:100E8000B12C9FBFC1CF5D9884E6809300031016FC
:100E9000110644F081E090E0F6019383828380E0C4
:100EA00090E001C0C801DF91CF911F910F91FF9099
:100EB000EF90DF90CF90BF90AF909F908F9008956C
:100EC0000E941B1090E008950F931F93CF93DF9320
:100ED0001F92CDB7DEB78C01FC018485958597FF05
:100EE0000EC0CE0101960E946D0F019719F4898101
:100EF00090E002C08FEF9FEFF80195878487F8019B
:100F0000848595850F90DF91CF911F910F91089562
:100F1000CF93DF931F92CDB7DEB7FC018485958513
:100F200097FD05C02FEF3FEF358724870BC0CE011B
:100F300001960E946D0F019719F4898190E002C01B
:100F40008FEF9FEF0F90DF91CF9108950F931F9335
:100F5000CF93DF93EC0188819981009729F02A8152
:100F60003B812617370788F48B016F5F7F4F0E9404
:100F70004E24009761F0998388831B830A832C8118
:100F80003D81232B11F4FC01108281E001C080E03F
:100F9000DF91CF911F910F910895EF92FF920F93E0
:100FA0001F93CF93DF936115710511F480E01CC08E
:100FB00041155105C1F07B01EC018C819D818A01B5
:100FC000080F191FB801CE010E94A607882371F3EC
:100FD000288139818C819D81B701820F931F0E94E6
:100FE0002F251D830C8381E0DF91CF911F910F91FD
:100FF000FF90EF9008951F920F920FB60F92112459
:101000002F933F934F935F936F937F938F939F9310
:10101000AF93BF93EF93FF93E0910C01F0910D011B
:101020000995FF91EF91BF91AF919F918F917F9122
:101030006F915F914F913F912F910F900FBE0F9045
:101040001F9018951F920F920FB60F9211242F9395
:101050003F934F935F936F937F938F939F93AF9340
:10106000BF93EF93FF93E0910A01F0910B01099573
:10107000FF91EF91BF91AF919F918F917F916F9170
:101080005F914F913F912F910F900FBE0F901F9046
:1010900018951F920F920FB60F9211242F933F9322
:1010A0004F935F936F937F938F939F93AF93BF9370
:1010B000EF93FF93E0910801F09109010995FF91E9
:1010C000EF91BF91AF919F918F917F916F915F91C0
:1010D0004F913F912F910F900FBE0F901F90189539
:1010E0001F920F920FB60F9211242F933F934F939D
:1010F0005F936F937F938F939F93AF93BF93EF9380
:10110000FF93E0910601F09107010995FF91EF919E
:10111000BF91AF919F918F917F916F915F914F910F
:101120003F912F910F900FBE0F901F9018951F9217
:101130000F920FB60F9211242F933F934F935F930B
:101140006F937F938F939F93AF93BF93EF93FF938F
:10115000E0910401F09105010995FF91EF91BF9194
:10116000AF919F918F917F916F915F914F913F913F
:101170002F910F900FBE0F901F9018951F920F92F6
:101180000FB60F9211242F933F934F935F936F935A
:101190007F938F939F93AF93BF93CF93EF93FF93DF
:1011A000C091E1008091E100837F8093E100C3FF63
:1011B0000FC01092E90081E08093EB001092EC00E8
:1011C00082E38093ED001092230388E08093F00087
:1011D000C2FF18C00E949B0F80910003882339F042
:1011E00080910003815080930003882389F18091CE
:1011F0002203882339F080912203815080932203B7
:10120000882341F1C4FF10C08091E2008E7E81608E
:101210008093E2008091E1008F7E8093E1008091D5
:101220004B038E7E806111C0C0FF16C08091E2002A
:101230008E7E80618093E2008091E1008E7E8093BB
:10124000E10080914B038E7E816080934B0304C04C
:101250005D9ACDCF289AD6CFFF91EF91CF91BF91D4
:10126000AF919F918F917F916F915F914F913F913E
:101270002F910F900FBE0F901F9018951F920F92F5
:101280000FB60F921124CF92DF92EF92FF920F933D
:101290001F932F933F934F935F936F937F938F93FE
:1012A0009F93AF93BF93EF93FF93CF93DF93CDB70C
:1012B000DEB76C97DEBFCDBF1092E9008091E800E9
:1012C00083FFFBC168E0CE0145960E94570582EF7F
:1012D0008093E8008D8987FF05C09091E80090FF1A
:1012E000FCCF03C09EEF9093E800982F907609F012
:1012F000C6C09E894F89588D2F89F88C91110CC0DA
:10130000803829F480914C038093F10002C0109240
:10131000F1001092F10045C1913051F4811141C1A9
:101320004130510509F03DC180914C038D7F0BC0C8
:10133000933061F4811135C14130510509F031C15B
:1013400080914C03826080934C032BC1953049F40B
:101350008091E80080FFFCCF822F80688093E300BB
:1013600020C1963009F05EC00B8D1C8D22E01092DA
:10137000E9001092FE021092FD02F21232C01092A9
:10138000FC021092FB020E94A80699E0BE016F5F6A
:101390007F4FDB01E92F1D92EA95E9F79983FA82E5
:1013A00091E09E8390EA98879AEF99872091FD02B9
:1013B0003091FE02275F3F4F3C832B838D83109239
:1013C000E9001092FE021092FD021093FC020093BD
:1013D000FB0249E050E080E00E9430050E94A80630
:1013E000E0C01093FC020093FB020E940E13DC018C
:1013F00012960D911C9113970115110509F4BBC0AC
:10140000D801ED91FC910480F581E02DBE016B5E69
:101410007F4FC8010995009709F0C7C0F801008502
:101420001185EACF973009F445C1983021F481E065
:101430008093F100B6C0993009F0B3C0837009F011
:1014400039C1EDE1F1E081E031E096E32081211145
:1014500009C08EE78093EA001092EA008F8980939A
:1014600023039FC08093E9003093EB0021912093E8
:10147000EC009093ED008F5F873041F7EACF8B8DC2
:101480009C8D1092E9001092FE021092FD02909342
:10149000FC028093FB02898D811153C08E899D8946
:1014A000913A49F4813209F005C147E050E06EE01D
:1014B00071E080E0BBC0913209F0FCC0833269F476
:1014C0008F89988DA0E0B0E0809300019093010196
:1014D000A0930201B093030164C0803269F480914B
:1014E000E80082FFFCCF67E08EE091E00E945705A4
:1014F0008BEF8093E80055C0823209F052C08F898B
:1015000080931501EEEFFFE7859194918B3F9C4D01
:1015100019F0E0E0F8E002C0EEEFFAE080910E0191
:1015200090910F01A0911001B0911101803B944066
:10153000A105B10509F09EC08091150180FF79C019
:1015400099C00E940E13FC0102811381011511053F
:1015500009F4B0C0D801ED91FC910190F081E02D2B
:10156000BE016B5E7F4FC801099581111AC0F80159
:1015700000851185EBCFF1E0FF1609F44EC0F3E0D2
:10158000FF1298C08F89882309F44AC0823089F4F9
:1015900040E860E18EE291E00E94FB04882309F4B8
:1015A00089C08EEF8093E80088C018161906CCF326
:1015B00081C0813029F440E86BE082E291E0ECCF19
:1015C000833009F077C00E940E13DC011296ED9073
:1015D000FC9013978E010F5F1F4F6801E114F10417
:1015E00079F0D701ED91FC910680F781E02DB801EB
:1015F000C7010995080F111DF701E084F184EECFB2
:10160000D8011C92F60101900020E9F73197BF0143
:101610006C197D0940E0C601BFCF60E171E002C0F6
:101620006CE071E0FB01449150E080E80E943005DD
:10163000B8CFEE3F2AE0F20751F0808191818737E1
:10164000A7E79A0721F09093FF0A8093FE0A87E7A5
:1016500097E791838083809160008093FF029BE0F5
:1016600088E10FB6F894A895809360000FBE909320
:10167000600097CF808191818737974709F091CF9C
:10168000A895809160008861809360008091FF023E
:1016900080936000EE3FBAE0FB0739F08091FE0ACC
:1016A0009091FF0A918380837CCF1092FF0A109261
:1016B000FE0A77CF81E28093EB006C960FB6F89428
:1016C000DEBF0FBECDBFDF91CF91FF91EF91BF91F4
:1016D000AF919F918F917F916F915F914F913F91CA
:1016E0002F911F910F91FF90EF90DF90CF900F906F
:1016F0000FBE0F901F9018951F920F920FB60F926A
:1017000011242F933F934F935F936F937F938F9306
:101710009F93AF93BF93EF93FF938BEC93E00E9463
:10172000D505FF91EF91BF91AF919F918F917F91DF
:101730006F915F914F913F912F910F900FBE0F903E
:101740001F9018951F920F920FB60F9211242F938E
:101750008F939F93EF93FF93E091DB03F091DC0372
:101760008081E091E103F091E20382FD12C090815B
:101770008091E4038F5F8F732091E503821751F00E
:10178000E091E403F0E0E553FC4F958F8093E40390
:1017900001C08081FF91EF919F918F912F910F90C8
:1017A0000FBE0F901F901895FF920F931F93CF932A
:1017B000DF93142FF22E032F91E0909377078093FD
:1017C00099071092780710929A078FE693E00E948B
:1017D0000212CF2DD02FCE01810F911D8C01C01789
:1017E000D10731F069918FE693E00E940212F7CFA2
:1017F0000E94D21491E0811190E0892FDF91CF9166
:101800001F910F91FF900895CF93DF9300D0CDB734
:10181000DEB75A834983AE014F5F5F4F0E94551672
:101820000F900F90DF91CF910895CF93DF931F9288
:10183000CDB7DEB749839E012F5F3F4F41E00E9445
:10184000D40B0F90DF91CF9108952F923F924F923A
:101850005F926F927F928F929F92AF92BF92CF9240
:10186000DF92EF92FF920F931F93CF93DF9300D0FD
:1018700000D000D0CDB7DEB7982E862E4D8359010B
:101880000E9481136B017C01312C1E82222423943F
:101890009D81892F90E09C838B832801612C712C82
:1018A000ED813E1608F042C020927707909299078A
:1018B0001092780710929A07682D8FE693E00E94A5
:1018C00002120E94D21420927707909299071092E8
:1018D000780710929A076B817C81631971096132D4
:1018E000710514F060E270E0613208F060E2892D69
:1018F0000E94F713109276078093750790917507F1
:1019000080917607981709F443C00115110569F114
:101910000E948113DC01CB018C199D09AE09BF091E
:1019200084159505A605B70500F132C0011511050E
:10193000A9F10E948113DC01CB018C199D09AE092C
:10194000BF0920E030E080179107A207B30730F10C
:10195000FD812F2F30E04E81842F440F990B821789
:101960009307E4F48FEF8E8319C0F5012E81E20F07
:10197000F11D27FDFA95FA83E9838FE693E00E9433
:10198000B911E981FA818083FE81FF5FFE83B6CFC2
:101990008D81813208F080E2380E82CF8E812696CA
:1019A0000FB6F894DEBF0FBECDBFDF91CF911F9170
:1019B0000F91FF90EF90DF90CF90BF90AF909F90EE
:1019C0008F907F906F905F904F903F902F900895F1
:1019D000CF92DF92EF92FF920F931F93CF93DF93FB
:1019E0001F92CDB7DEB7F82EE62ED42EC22E08EE0B
:1019F00013E09E012F5F3F4F41E00E94250C89813B
:101A000041E050E001C0440FDA94EAF7CC2011F035
:101A1000482B02C04095482349836E2D8F2D0E948C
:101A2000150C0F90DF91CF911F910F91FF90EF90C8
:101A3000DF90CF900895BF92CF92DF92EF92FF9206
:101A40000F931F93CF93DF931F92CDB7DEB7F82E7E
:101A5000E62EC42EB22ED02E08EE13E09E012F5F8C
:101A60003F4F41E00E94250C882339F12C2D30E0B6
:101A70002B1931092F5F3F4F81E090E002C0880FA2
:101A8000991FBA94E2F70197022E01C0880F0A94B9
:101A9000EAF74D2D50E0BA0102C0660F771F2A9574
:101AA000E2F7482F4095998149238623482B4983A3
:101AB0006E2D8F2D0E94150C01C080E00F90DF91DC
:101AC000CF911F910F91FF90EF90DF90CF90BF903B
:101AD00008954F925F926F927F928F929F92AF92F2
:101AE000BF92CF92DF92EF92FF920F931F93CF930B
:101AF000DF9300D0CDB7DEB73C014B015A0169013D
:101B000028011092760710927507109278071092AC
:101B10009A070E94971287EA91E190934A03809373
:101B2000490388EA91E19093480380934703109218
:101B3000240388EB9BE0A0E0B0E08093E307909360
:101B4000E407A093E507B093E60781E08093E207FE
:101B500080912403109224038CE08093B80085EDDB
:101B600091E00E94E91301E023E042E06BE68091FE
:101B7000AB040E941B0D00E022E044E06BE1809189
:101B8000AB040E941B0D22E044E06CE18091AB04A9
:101B90000E941B0D20E046E06BE68091AB040E94A2
:101BA000E80CEAE0F9E02491EBEEF8E08491882378
:101BB000D1F090E0880F991FFC01EA52F74FA591F0
:101BC000B491FC01E853F74F859194914FB7F89485
:101BD0003C91E22FE095232F2E232C93DC012C91B6
:101BE000E223EC934FBF81EF91E00E94E9130E9442
:101BF0007816843319F08BEB91E002C08DE991E007
:101C00000E94E91321E047E06BE68091AB040E945B
:101C1000E80C6EE170E080E090E00E94471320E065
:101C200046E06BE68091AB040E94E80C40E76DE66D
:101C30008091AB040E94150C46E06EE68091AB04E7
:101C40000E94150C40E06DE68091AB040E94150CDB
:101C50004FE765E28091AB040E94150C20E045E05F
:101C60006AE68091AB040E94E80C48E665E2809148
:101C7000AB040E94150C21E041E06AE68091AB04C0
:101C80000E94E80C64E170E080E090E00E9447135D
:101C900003E023E042E06BE68091AB040E941B0D61
:101CA00042E168E38091AB040E94150C44E069E1D5
:101CB0008091AB040E94150C01E023E045E06AE14D
:101CC0008091AB040E941B0D03E023E042E06AE137
:101CD0008091AB040E941B0D22E044E06BE18091F7
:101CE000AB040E941B0D01E020E040E069E877E0D2
:101CF0008FE391E00E942319882309F4D7C0198249
:101D000081E08A8300E026E142E062E070E0CE01FB
:101D100001960E94231943E060E78091AB040E9482
:101D2000150C40E061E78091AB040E94150C20E0A7
:101D300040E060E08091AB040E94E80C42E06FE17B
:101D40008091AB040E94150C4CE961E28091AB04D8
:101D50000E94150C40E560E28091AB040E94150CD6
:101D600040E062E28091AB040E94150C21E046E065
:101D70006AE68091AB040E94E80C21E043E06AE649
:101D80008091AB040E94E80C20E047E06AE6809175
:101D9000AB040E94E80C8AE290E09093BD0480932B
:101DA000BC040E944E1608EE13E02CEA34E041E039
:101DB0006AE38091AB040E94250C0E947816883358
:101DC00010F067E701C066E0A3018091AB040E94B8
:101DD000040C0E947816883310F06AE701C068E0AE
:101DE000A4018091AB040E94040C0E9478168833F1
:101DF00010F06DE701C06AE0A5018091AB040E947C
:101E0000040CA60163E18091AB040E94040CA201C2
:101E100065E18091AB040E94040CA70167E1809109
:101E2000AB040E94040C00E010E028EA31E44EEA22
:101E300057E461EA7EE38BE30E949B160FEF1FEFEE
:101E40002CEB32E44EEA57E461EA7EE383E40E943D
:101E50009B1621E047E06AE68091AB040E94E80C03
:101E600082EA96E090930D0180930C0180916A00C4
:101E7000806380936A00EE9A08EE13E02CEA34E067
:101E800041E06AE38091AB040E94250C8091AC0490
:101E90008093BF0481E08093BE048091BC04909144
:101EA000BD049093C1048093C00404C08FE092E00D
:101EB0000E94D7130F900F90DF91CF911F910F9138
:101EC000FF90EF90DF90CF90BF90AF909F908F905A
:101ED0007F906F905F904F90089520912303211180
:101EE00003C08FEF9FEF08955FB7F89422E020932F
:101EF000E9002091F20030E01216130614F421E0FC
:101F000030E0422FFC0184E6415038F0289880935D
:101F100022039091F1009193F7CF2115310521F023
:101F20008091F200882319F05FBFC90108958BE604
:101F30008093E800F9CF83E08093E9008091F2007C
:101F4000882319F08AE38093E800089541E050E087
:101F500065E272E00C94CD07CF92DF92EF92FF9290
:101F60000F931F93CF93DF93CDB7DEB762970FB672
:101F7000F894DEBF0FBECDBF8C01CB01F8011182FA
:101F8000108213821282158214824AE09E012F5F12
:101F90003F4F6901B9010E94EF20F6010190002036
:101FA000E9F731977F01EC18FD08B701C8010E94DD
:101FB000A607F8012081318181110EC0211531055C
:101FC00019F0C9010E94C523F801118210821582FF
:101FD00014821382128207C0F801F582E482B601EE
:101FE000C9010E942F2562960FB6F894DEBF0FBE7E
:101FF000CDBFDF91CF911F910F91FF90EF90DF90B8
:10200000CF9008950F931F93CF93DF93CBEAD4E043
:1020100008EE13E02CEA34E042E062E788810E9497
:10202000250C89819A81982789279827DF91CF915C
:102030001F910F9108952FB7F89483E08093E900E2
:102040009091E800892F807295FF04C09091F20072
:1020500080E4891B2FBF0895AC0190E02FE5FA01C1
:10206000E90FF11D8081882319F020839F5FF7CF4E
:1020700008958331A0F4E82FF0E0EE0FFF1FEF5B2F
:10208000FE4FA081B181109751F0EC91F0E0E8593A
:10209000FB4F908111968C91982381E009F480E0A8
:1020A00008951F920F920FB60F9211242F933F9312
:1020B0004F935F936F937F938F939F93AF93BF9350
:1020C000EF93FF938091B900887F803609F49CC01C
:1020D00068F5883209F45BC090F4803109F454C08B
:1020E00038F4882309F4F6C0883009F44DC0F6C0EE
:1020F000883109F44CC0803209F45DC0EFC08034EF
:1021000009F468C048F4803309F455C0883309F0F5
:10211000E5C08093BF07D8C0803509F44FC088352B
:1021200009F45DC0883409F0D9C0D6C0883909F4F3
:10213000C7C0A8F4883709F467C038F4883609F4B2
:1021400063C0803709F460C0C9C0883809F4B8C0DA
:10215000803909F45FC0803809F0C0C05BC0803BA3
:1021600009F486C038F4803A09F466C0883A09F464
:102170007FC0B4C0803C09F4A7C0883C09F4A4C067
:10218000883B09F48AC0AAC08091BC0710C0909116
:10219000BE078091BD07981770F5E091BE0781E0FA
:1021A0008E0F8093BE07F0E0E556F84F8081809354
:1021B000BB0085EC86C08093BF078EC0E091BE0750
:1021C00081E08E0F8093BE078091BB00F0E0E55662
:1021D000F84F80839091BE078091BD076EC0E0915B
:1021E000BE0781E08E0F8093BE078091BB00F0E0B8
:1021F000E556F84F80838091C00781116DC081E062
:102200008093BB0784EA61C083E08093E10710926A
:102210004603CFCF80914603803208F051C0E09151
:10222000460381E08E0F809346038091BB00F0E06F
:10223000EA5DFC4F8083BDCF85EC8093BC0010929B
:10224000E10780914603803230F4E0914603F0E0EC
:10225000EA5DFC4F10826091460370E0E091470315
:10226000F091480386E293E009951092460336C048
:1022700084E08093E1071092250310922103E091FE
:102280004903F0914A03099580912103811105C00A
:1022900081E08093210310920103E091250381E006
:1022A0008E0F80932503F0E0EF5FFC4F80818093D9
:1022B000BB009091250380912103981708F479CFF2
:1022C00085E88093BC000AC085EC8093BC00109226
:1022D000E10704C01092BF070E94D612FF91EF9150
:1022E000BF91AF919F918F917F916F915F914F912E
:1022F0003F912F910F900FBE0F901F901895409116
:102300002103262F30E0240F311D21323105DCF46A
:102310002091E1072430C9F4FC0180E090E08617A9
:1023200058F4309121032191DC01AF5FBC4FA30F22
:10233000B11D2C930196F3CF80912103680F609318
:10234000210380E0089581E0089582E008950895D2
:1023500008950895E091760780917507E81730F4A5
:10236000F0E0EF53F84F808190E008958FEF9FEFFA
:1023700008959091760780917507981750F4E92F8A
:10238000F0E0EF53F84F208130E09F5F90937607A5
:1023900002C02FEF3FEFC90108958091750790E0CB
:1023A00020917607821B91090895CF92DF92EF92D8
:1023B000FF920F931F93CF93DF937C01CB018A0190
:1023C00020917707222389F0EB016B01C40ED51E03
:1023D000CC15DD0569F06991D701ED91FC91019073
:1023E000F081E02DC7010995F3CF642F0E947F1182
:1023F000C801DF91CF911F910F91FF90EF90DF9077
:10240000CF900895CF93DF931F92CDB7DEB7698346
:10241000209177072223D1F020919A07203240F0B3
:1024200021E030E0FC013383228380E090E015C09E
:1024300080917807E82FF0E0E758F84F9981908372
:102440008F5F8093780780939A0705C061E0CE0183
:1024500001960E947F1181E090E00F90DF91CF9173
:102460000895362F90E0FC01EE5DF64F4491FC019B
:10247000ED5FF64F2491FC01EC51F74F84918823D6
:1024800009F452C04423E1F150E0FA013197EF30F2
:10249000F105B0F5EA5AFF4F0C947F22909180002D
:1024A0009F7707C0909180009F7D03C0909180002E
:1024B000977F9093800024C094B59F7702C094B515
:1024C0009F7D94BD1DC0909190009F7707C0909113
:1024D00090009F7D03C090919000977F9093900013
:1024E0000FC09091C0009F7703C09091C0009F7D66
:1024F0009093C00005C09091C200977F9093C20056
:10250000E82FF0E0EE0FFF1FE853F74FA591B491CD
:102510009FB7F894311104C08C912095282302C0F4
:10252000EC912E2B2C939FBF08950E94142510929E
:10253000E10781E08093C0071092BB0761E082E071
:102540000E94311261E083E00E943112E9EBF0E079
:1025500080818E7F808380818D7F808388E48093DB
:10256000B80085E48093BC000895CF93DF9391E099
:10257000909324038823B9F0C091B800D091BA0099
:102580008091BC008A7B8093BC0060E082E00E9466
:10259000311260E083E00E9431120E949712D093C2
:1025A000BA00C093B800DF91CF91089585ED809374
:1025B000BC008091E3079091E407A091E507B091FA
:1025C000E6070796A11DB11D23E0B695A79597953F
:1025D00087952A95D1F72091BC0024FF1CC040911B
:1025E000E3075091E4076091E5077091E607452BFA
:1025F000462B472B81F30097A105B10541F02AE254
:102600002A95F1F700C00197A109B109E4CF8091A3
:10261000E2070C94B5121092E107089580916703C8
:1026200081110DC082E08093630384E08093640392
:10263000109266031092650381E08093670383E63E
:1026400093E008953FB7F89480915F039091600301
:10265000A0916103B091620326B5A89B05C02F3FEE
:1026600019F00196A11DB11D3FBFBA2FA92F982FB8
:102670008827820F911DA11DB11DBC01CD0142E033
:10268000660F771F881F991F4A95D1F708958F927B
:102690009F92AF92BF92CF92DF92EF92FF926B0127
:1026A0007C010E9422134B015C01C114D104E1049E
:1026B000F104F1F00E942213DC01CB018819990981
:1026C000AA09BB09883E9340A105B10570F321E03A
:1026D000C21AD108E108F10888EE880E83E0981E3E
:1026E000A11CB11CC114D104E104F10419F7DDCF20
:1026F000FF90EF90DF90CF90BF90AF909F908F9022
:1027000008952FB7F89460915B0370915C038091FA
:102710005D0390915E032FBF08951F920F920FB635
:102720000F9211242F933F938F939F93AF93BF9357
:1027300080915B0390915C03A0915D03B0915E0377
:1027400030915A0323E0230F2D3720F40196A11D69
:10275000B11D05C026E8230F0296A11DB11D2093CF
:102760005A0380935B0390935C03A0935D03B09343
:102770005E0380915F0390916003A0916103B0912B
:1027800062030196A11DB11D80935F0390936003C6
:10279000A0936103B0936203BF91AF919F918F911A
:1027A0003F912F910F900FBE0F901F90189500979B
:1027B00069F0FC0101900020E9F73197AF01481B57
:1027C000590BBC018BE793E00C94DA0680E090E0B3
:1027D0000895CF93DF930E94D713EC018AE592E02E
:1027E0000E94D7138C0F9D1FDF91CF9108958F9278
:1027F0009F92AF92BF92CF92DF92EF92FF920F9390
:102800001F93CF93DF93F82ED62F613208F0BBC011
:102810000E9422134B015C01C091E107CC2331F1EE
:102820008091E3079091E407A091E507B091E60756
:10283000892B8A2B8B2B81F30E9422130091E307B3
:102840001091E4072091E5073091E607DC01CB0108
:1028500088199909AA09BB09081719072A073B070C
:10286000D8F68091E2070E94B5128DC081E0809376
:10287000E1078093C0079FEF9093BF071092BE07B8
:102880009D0F9093BD078093BC079091BC078F2D3F
:10289000880F892B8093BC078091BB07813089F515
:1028A0001092BB070E9422136B017C018091BC0730
:1028B0008093BB008091E3079091E407A091E50726
:1028C000B091E607892B8A2B8B2BA9F00E9422134B
:1028D0008090E3079090E407A090E507B090E607AA
:1028E000DC01CB018C199D09AE09BF098816990638
:1028F000AA06BB0690F18091BC0083FDD7CF85EC82
:1029000001C085EE8093BC000E9422136B017C0104
:102910008091E107813031F58091E3079091E407E0
:10292000A091E507B091E607892B8A2B8B2B81F3C9
:102930000E9422138090E3079090E407A090E5079F
:10294000B090E607DC01CB018C199D09AE09BF09E7
:1029500088169906AA06BB06D8F68091E2070E945F
:10296000B51212C08091BE078D1710F4D091BE072A
:10297000EBE9F7E0A1ECB7E0C0E0CD1729F08191D9
:102980008D93CF5FFACFC0E08C2FDF91CF911F9155
:102990000F91FF90EF90DF90CF90BF90AF909F90FE
:1029A0008F9008958F929F92AF92BF92CF92DF92B5
:1029B000EF92FF920F931F93CF93DF9310919A079B
:1029C000113208F0C2C0D09199070E9422136B0106
:1029D0007C01C091E107CC2311F18091E307909134
:1029E000E407A091E507B091E607892B8A2B8B2B92
:1029F00081F30E9422138090E3079090E407A09057
:102A0000E507B090E607DC01CB018C199D09AE0902
:102A1000BF0988169906AA06BB06D8F682C082E0CE
:102A20008093E10781E08093C0078FEF8093BF0719
:102A30001092BE071093BD07A9E7B7E0EBE9F7E0F6
:102A400080E0181721F09D9191938F5FFACF10923B
:102A5000BC079091BC078D2F880F892B8093BC07F2
:102A60008091BB07813089F51092BB070E94221329
:102A70006B017C018091BC078093BB008091E307D0
:102A80009091E407A091E507B091E607892B8A2B86
:102A90008B2BA9F00E9422130091E3071091E40709
:102AA0002091E5073091E607DC01CB018C199D09E7
:102AB000AE09BF09081719072A073B0790F1809153
:102AC000BC0083FDD7CF85EC01C085EE8093BC00B0
:102AD0000E9422136B017C018091E107823039F55D
:102AE0008091E3079091E407A091E507B091E60794
:102AF000892B8A2B8B2B81F30E9422130091E307F1
:102B00001091E4072091E5073091E607DC01CB0145
:102B10008C199D09AE09BF09081719072A073B0739
:102B2000D8F68091E2070E94B512C5E013C08091EB
:102B3000BF078F3F79F08091BF07803241F08091CD
:102B4000BF07803331F0C4E005C0C1E003C0C2E07C
:102B500001C0C3E01092780710929A07109277078D
:102B60008C2FDF91CF911F910F91FF90EF90DF900D
:102B7000CF90BF90AF909F908F9008954F925F92AB
:102B80006F927F928F929F92AF92BF92DF92EF925D
:102B9000FF920F931F93CF93DF93182FD62E7A01B6
:102BA000E9010E9481134B015C0101E0009377076A
:102BB000109399071092780710929A076D2D8FE65F
:102BC00093E00E9402120E94D214009377071092A1
:102BD000780710929A0762E0812F0E94F7131092F3
:102BE00076078093750710E02E01612C712CDD248F
:102BF000D3949091750780917607981739F1111148
:102C000025C02097B1F48FE693E0002331F00E94B5
:102C1000B911F701108281830AC00E94B911F7012E
:102C200020813181822B932B9183808311E00D25AC
:102C3000E0CF0E948113DC01CB0188199909AA0910
:102C4000BB0984159505A605B705E8F20E94D214C4
:102C5000209799F00E948113AB01BC0148195909D2
:102C60006A097B09CE01A0E0B0E0481759076A075E
:102C70007B0718F0111101C01FEF812FDF91CF9159
:102C80001F910F91FF90EF90DF90BF90AF909F90BA
:102C90008F907F906F905F904F90089521E042E079
:102CA0006AE68091AB040C94E80CCF93DF93EA01C1
:102CB00091E090937707809399071092780710928C
:102CC0009A078FE693E00E94021269818FE693E0F3
:102CD0000E94021268818FE693E00E9402120E9415
:102CE000D21491E0811190E0892FDF91CF91089566
:102CF0000F931F93CF93DF931F92CDB7DEB708EEEC
:102D000013E09E012F5F3F4F41E065E78091AB04E8
:102D10000E94250C882339F089818E7790E0959563
:102D200087958093AC048091AC040F90DF91CF9194
:102D30001F910F9108952F923F924F925F926F9241
:102D40007F928F929F92AF92BF92CF92DF92EF923B
:102D5000FF920F931F93CF93DF93CDB7DEB7AF975B
:102D60000FB6F894DEBF0FBECDBF898F4CA35DA315
:102D70006EA37FA308A719A72AA73BA78B3309F047
:102D80005DC20E947816883308F45AC217E703E040
:102D90006EE38BE793E00E946E06CE010D969E8B4C
:102DA0008D8BDE0111967D015C01912E28EE33E0C2
:102DB000AE014D5E5F4F692D8091AB040E94BE1540
:102DC000CB88DC88B6010D2C000C880B990B0E9477
:102DD0002B21133191F0F1E0CF22DD24D501CD92EA
:102DE000DC9220E030E040E051E40E948A21F701CB
:102DF00060837183828393830CC020E030E040E8DD
:102E000050E40E948A21D7016D937D938D939C930A
:102E10001397900EB2E0AB0EB11CE4E0EE0EF11C85
:102E20008D899E89E816F90609F6998D9B3329F458
:102E30008DEC9CECACE4BDE304C080E090E0A0E845
:102E4000BFE38CA79DA7AEA7BFA7A6E0B0E0BBA33A
:102E5000AAA31D8E1C8E212C312CFE013196FB8FD6
:102E6000EA8FCE010D9698A38F8F1E8F998D99A30F
:102E7000412C512C3201188E1F8A28EE33E0AE010E
:102E80004D5E5F4F69A18091AB040E94BE156B89B6
:102E90007C89072E000C880B990B0E942B216B015B
:102EA0007C01A98DAB3361F4EF89F88D329741F441
:102EB00020E030E040E856E40E9485226B017C016E
:102EC00046015701B7FAB094B7F8B094C301B20104
:102ED0000E9429212B013C0120E030E0A901C7011B
:102EE000B6010E94282318162CF0782D692D9A2DF2
:102EF0008B2D04C07C2D6D2D9E2D8F2D272F362FD1
:102F0000492F582FC301B2010E9486220E94F92244
:102F10002B013C012CA13DA14EA15FA1C501B40133
:102F20000E948A216B017C012FE632E143E85AE3DB
:102F3000C501B4010E948A2128A539A54AA55BA52F
:102F40000E948A21AA8DBB8D2D913D914D915C915E
:102F50000E9486229B01AC01EA8DFB8D61937193E7
:102F600081939193FB8FEA8FC701B601133141F131
:102F70000E94862220E030E040E05EE30E948A2149
:102F80006B017C0120E030E0A9010E94282320E0B1
:102F900030E040E05FE387FD05C0C701B6010E9455
:102FA000862204C0C701B6010E9485220E94F22237
:102FB0006E7FAF8DB8A18D919C91682B792B20C02D
:102FC0000E94862220E030E040E85EE30E948A21F1
:102FD0006B017C0120E030E0A9010E94282320E061
:102FE00030E040E05FE387FD05C0C701B6010E9405
:102FF000862204C0C701B6010E9485220E94F222E7
:103000007C8B6B8BAE014D5E5F4F6E8D8091AB0400
:103010000E945516EF89F88D3196F88FEF8BF9A144
:10302000FE5FF9A32E8D200F2E8F8F8D98A1029613
:1030300098A38F8FAF89B88D139709F01ECFB3E691
:103040002B16310471F4E9EE4E16E3E05E066104DE
:10305000710438F06AE28BE793E00E946E06212C3F
:10306000312CC301B2010E9429212CA53DA54EA5FA
:103070005FA50E948A2120E030E040EA50E40E94EF
:10308000242187FF05C08C8D9D8D01969D8F8C8F8F
:1030900094E6491651046104710488F5ABE02A16E0
:1030A00031046CF1EC8DFD8D3A974CF16EE28BE7BB
:1030B00093E00E946E0620E030E040E45FE36CA104
:1030C0007DA18EA19FA10E948A216CA37DA38EA3C6
:1030D0009FA320E030E040E45FE368A579A58AA5DE
:1030E0009BA50E948A2168A779A78AA79BA7CE01E2
:1030F00001967C01DE011D966D01B12E49C061E093
:1031000070E080E090E00E944713BFEF2B1A3B0A6B
:10311000E4E62E16310409F0A0CEC8CF20E030E05E
:1031200040E05EE3D7016D917D918D919C910E946D
:103130008A212B013C0120E030E0A9010E942823D4
:1031400020E030E040E05FE387FD25C0C301B2012D
:103150000E9486220E94F2226E7FF6018081918178
:10316000682B792B7C8B6B8BAE014D5E5F4F6B2D8B
:103170008091AB040E945516B00EB2E0CB0ED11C6C
:10318000E4E0EE0EF11C8D899E898E159F0561F19C
:10319000133121F605C0C301B2010E948522DACFA6
:1031A00020E030E040E85EE3D7016D917D918D91A4
:1031B0009C910E948A212B013C0120E030E0A90172
:1031C0000E94282320E030E040E05FE387FD05C057
:1031D000C301B2010E94862204C0C301B2010E9451
:1031E00085220E94F222BECFAAA1BBA11197BBA348
:1031F000AAA3AB2B09F02DCE0E944E1621E043E08E
:103200006AE68091AB040E94E80CAF960FB6F89482
:10321000DEBF0FBECDBFDF91CF911F910F91FF9009
:10322000EF90DF90CF90BF90AF909F908F907F9066
:103230006F905F904F903F902F90089513E101C0E1
:1032400016E002E0A5CD2F923F924F925F926F92CF
:103250007F928F929F92AF92BF92CF92DF92EF9226
:10326000FF920F931F93CF93DF933C015B01342EAA
:10327000522E202E4F716DE68091AB040E94150CEA
:10328000452D6EE68091AB040E94150C80E190E024
:103290000E942D236C01002331F080E190E00E9418
:1032A0002D237C0102C0E12CF12CC0E0D0E0CA1536
:1032B000DB0508F072C0CE014096A816B90618F4D6
:1032C0004A2C4C1A02C080E1482E842D90E020E068
:1032D00031E0251931092817390714F4452C419498
:1032E000222071F0D70180E090E0841560F4FE01A7
:1032F000E80FF91FE60DF71DE491ED930196F5CF68
:103300007301EC0EFD1E9701442D6FE68091AB0416
:103310000E94D40B842C912CC114D10431F1432D83
:103320004F716DE68091AB040E94150C452D6EE641
:103330008091AB040E94150C08EE13E09601442D19
:103340006FE68091AB040E94250CA401B601C70171
:103350000E941925892B49F0C6010E94C52322200D
:1033600029F1C7010E94C52321C0C80DD91D540CE5
:10337000CA15DB0508F09BCF511001C03394432DD3
:103380004F716DE68091AB040E94150C452D6EE6E1
:103390008091AB040E94150C8ACFC6010E94C52300
:1033A000222031F0C7010E94C52302C080E001C085
:1033B00081E0DF91CF911F910F91FF90EF90DF900F
:1033C000CF90BF90AF909F908F907F906F905F90C5
:1033D0004F903F902F900895CF93DF93CDB7DEB7F6
:1033E000C654D1090FB6F894DEBF0FBECDBF789496
:1033F00084B5826084BD84B5816084BD85B58260FA
:1034000085BD85B5816085BD80916E0081608093AA
:103410006E00109281008091810082608093810013
:103420008091810081608093810080918000816023
:1034300080938000809191008260809391008091C0
:1034400091008160809391008091900081608093D1
:1034500090008091C10084608093C1008091C10080
:1034600082608093C1008091C10081608093C1001F
:103470008091C30081608093C3008091C00082600E
:103480008093C0008091C20081608093C2008091CF
:103490007A00846080937A0080917A0082608093C1
:1034A0007A0080917A00816080937A0080917A001E
:1034B000806880937A001092230310924C0310923C
:1034C0004B038091D70081608093D70080EA80937E
:1034D000D80089B5806189BD89B5826089BD09B48C
:1034E00000FEFDCF61E070E080E090E00E944713B5
:1034F0008091D8008F7C80618093D8008091E0001B
:10350000807F8093E0008091E1008E7E8093E100D7
:103510008DE08093E200559A209A109115016AE09F
:1035200070E080E090E00E9447131123B1F38FEF29
:103530009FEF909388038093870387E292E00E9435
:10354000E91364E670E080E090E00E944713109277
:1035500059038DE292E00E94E91380915903811191
:103560000BC08BE793E00E94880791E0833609F057
:1035700090E090935903F1CF2DEFE22EFF24FA94BF
:103580000FEC1FEF26E330E04DE956E065EC7EEFEF
:1035900083EE9EEF0E94690D8DE492E00E94E91394
:1035A0008CE291E0909354038093530390934E03E5
:1035B00080934D038091BE04882309F41EC280903D
:1035C000BC049090BD040E9422132B013C016401B5
:1035D000DD240E9402108C01C816D906E4F5893C4E
:1035E00091056CF10E944E160E9402108C01892BED
:1035F000B1F50E942213DC01CB0184199509A609BB
:10360000B709893F9A42A105B10570F3EDC1570191
:1036100031E2E316F1041CF090E2A92EB12CAA20AD
:10362000C1F008EE13E09E012F5F3F4F4A2D64E783
:103630008091AB040E94250CEA18FB0841F70E9418
:1036400002108C01C816D90634F47C01EC18FD0870
:10365000DECF1982F1CF0115110509F4C5C10E9411
:103660002213DC01CB0184199509A609B709893F0A
:103670009A42A105B10508F0B7C1C016D10609F0FC
:10368000A8CF882059F008EE13E024EC34E0482D50
:1036900064E78091AB040E94250C02C01092C40420
:1036A000A4ECB4E0109709F042C2E091BA04F091A2
:1036B000BB04E480F580FE24EF24FE24A084B184C2
:1036C000BA24AB24BA2404851585102701271027B6
:1036D00060817181762767277627072E000C880B7B
:1036E000990B0E942B2120E030E040E858E30E9433
:1036F0008A212B013C016093100570931105809382
:10370000120590931305B701FF0C880B990B0E94CB
:103710002B2120E030E040E858E30E948A216B0131
:103720007C016093140570931505809316059093A2
:103730001705B501BB0C880B990B0E942B2120E0CB
:1037400030E040E858E30E948A2169AF7AAF8BAF3E
:103750009CAF609318057093190580931A05909398
:103760001B05B801110F880B990B0E942B2120E03B
:1037700030E040E858E30E948A2121966CAF7DAF8B
:103780008EAF9FAF219760931C0570931D058093AA
:103790001E0590931F0584EC94E0892B09F0C4C1A9
:1037A000E091BA04F091BB04048D158D1027012718
:1037B000102710932D0500932C0520A031A0322452
:1037C0002324322430922F0520922E0564A175A166
:1037D000B62FA72F2396BFAFAEAF2397B093310577
:1037E000A093300521962CAD3DAD4EAD5FAD219738
:1037F000C701B6010E948A214B015C0129AD3AAD97
:103800004BAD5CADC301B2010E948A219B01AC01AA
:10381000C501B4010E9485229B01AC010E94862251
:1038200027966CAF7DAF8EAF9FAF2797609304054F
:10383000709305058093060590930705A7019601EF
:10384000C301B2010E948A214B015C0121962CAD7B
:103850003DAD4EAD5FAD219769AD7AAD8BAD9CAD01
:103860000E948A219B01AC01C501B4010E948622FD
:103870009B01AC010E9486224B015C01609308050C
:103880007093090580930A0590930B05A30192019B
:10389000C301B2010E948A212B013C01A7019601BC
:1038A000C701B6010E948A219B01AC01C301B2018C
:1038B0000E9485226B017C0129AD3AAD4BAD5CAD18
:1038C000CA01B9010E948A219B01AC01C701B6015E
:1038D0000E9485226B017C0121962CAD3DAD4EAD41
:1038E0005FAD2197CA01B9010E948A219B01AC01F9
:1038F000C701B6010E9486226B017C0160930C0512
:1039000070930D0580930E0590930F05B801110F6C
:10391000880B990B0E942B212B013C0120E030E009
:1039200040E056E427966CAD7DAD8EAD9FAD2797F8
:103930000E948A219B01AC01C301B2010E94852231
:103940000E94F2227093330560933205B101330C6B
:10395000880B990B0E942B212B013C0120E030E0C9
:1039600040E056E4C501B4010E948A219B01AC01EC
:10397000C301B2010E9485220E94F2227093350594
:103980006093340523962EAD3FAD2397B901330FD5
:10399000880B990B0E942B214B015C0120E030E049
:1039A00040E056E4C701B6010E948A219B01AC01A8
:1039B000C501B4010E9485220E94F222709337054E
:1039C0006093360586E0E2E3F5E0DE019196019032
:1039D0000D928A95E1F786E0FE01B196DE01979699
:1039E00001900D928A95E1F786E0FE01B796DE011F
:1039F0009D9601900D928A95E1F786E0FE01BD96B5
:103A0000A5EAB4E001900D928A95E1F76091A504D2
:103A10007091A604CE01C3960E94AC0FCE01C3964E
:103A20000E94A60F6091A7047091A804CE01019690
:103A30000E94AC0F4D815E8169817A81CE01C3966F
:103A40000E94CD0789819A810E94C523CE01C39629
:103A50000E94A60F6091A9047091AA04CE0101965C
:103A60000E94AC0F4D815E8169817A81CE01C3963F
:103A70000E94CD0789819A810E94C523CE01C396F9
:103A80000E94A60F4FA958AD6BA97CA98BE793E0C4
:103A90000E94DA068AE592E00E94D7130E949B0FEB
:103AA0008BA99CA90E94C5238BE793E00E948807FD
:103AB0008237B9F5109259038DE292E00E94E91322
:103AC0008091590381110BC08BE793E00E94880716
:103AD00091E0833609F090E090935903F1CF8DE5A2
:103AE00092E00E94E91385EEE82EFF24FA940EEC92
:103AF0001FEF25E330E042E856E06AED7EEF80E418
:103B00009FEF0E94690D8DE492E00E94E9138CE220
:103B100091E0909354038093530390934E038093CA
:103B20004D030E94640646CDE4ECF4E03DCEFD0179
:103B3000C0CD6F927F928F929F92AF92BF92CF92A1
:103B4000DF92EF92FF920F931F93CF93DF93CDB746
:103B5000DEB7AE970FB6F894DEBF0FBECDBFE8E676
:103B6000F4E01192B4E0EC37FB07D9F710927F0430
:103B70001092800480917F049091800482E1EAE6B3
:103B8000F4E0DF011D928A95E9F781E080937C04DF
:103B900080917D04882309F433C187E692E00E9476
:103BA000D7138091ED029091EE02A091EF028CA7C5
:103BB0009DA7AEA78091F0029091F102A091F20230
:103BC00089A79AA7ABA785E00E9439108E01045DF2
:103BD0001F4F811103C0C8010E942C1089E00E9470
:103BE00039109E01275D3F4F7901811103C0C90142
:103BF0000E942C10FF92EF92809171048F9380911C
:103C000070048F9380916F048F9380916E048F93D3
:103C10001F930F9380916C041F928F9386E792E01D
:103C20009F938F938E010F5F1F4F1F930F930E94DF
:103C30003625C8010E94D7138DE00E9439100FB6B7
:103C4000F894DEBF0FBECDBF882319F0BCE3FB2E76
:103C500002C0AFE5FA2E8BE00E943910882319F0DC
:103C6000FEE5EF2E02C0EFE5EE2E8CE00E9439104B
:103C7000882319F076E7D72E02C06FE5D62E8EE0A6
:103C80000E943910882319F05EE3C52E02C04FE56B
:103C9000C42E81E00E943910882319F031E4932E5C
:103CA00002C02FE5922E82E00E943910882319F07D
:103CB00092E4892E02C08FE5882E83E00E9439109D
:103CC000882319F0B8E57B2E02C0AFE57A2E84E098
:103CD0000E943910882319F0F9E56F2E02C0EFE534
:103CE0006E2E88E00E943910882319F07EE3A72EFB
:103CF00002C06FE5A62E87E00E943910882319F0D4
:103D00005CE3B52E02C04FE5B42E80E00E9439106E
:103D1000882311F088E501C08FE51F926F921F92F2
:103D20007F921F928F921F929F921F92AF921F922B
:103D30008F931F92BF921F92CF921F92DF921F927A
:103D4000EF921F92FF9282E992E09F938F931F93CD
:103D50000F930E943625C8010E94D7138091F30269
:103D60009091F402A091F5028EA39FA3A8A7809141
:103D7000F6029091F702A091F8028BA39CA3ADA349
:103D800086E00E9439100FB6F894DEBF0FBECDBF9B
:103D9000DE0196966D01811103C0CD010E942C10A9
:103DA0008AE00E9439109E012D5D3F4F79018111FB
:103DB00003C0C9010E942C1080916D041F928F9343
:103DC000DF92CF92FF92EF92809175048F93809152
:103DD00074048F93809173048F93809172048F93F6
:103DE00081EB92E09F938F931F930F930E94362550
:103DF000C8010E94E9130FB6F894DEBF0FBECDBF15
:103E00001092680484E18093690410927E041092F9
:103E1000800410927F041092820410928104109208
:103E200085041092860410928704109288048FEF04
:103E300090E0A0E0B0E08093890490938A04A0937E
:103E40008B04B0938C0410928D0410928E04109207
:103E50008F04109290048093910490939204A09305
:103E60009304B093940440E050E86FEF7FEF4093E9
:103E700095045093960460939704709398048FEF81
:103E80009FE7A0E0B0E08093990490939A04A093F8
:103E90009B04B0939C0440939D0450939E046093B4
:103EA0009F047093A0048093A1049093A204A09314
:103EB000A304B093A404109284041092830481E0BC
:103EC00080937D048BE98093380588E080933B05DF
:103ED00080E091E090933A05809339050E942D236C
:103EE00090933D0580933C0580E090E0209139055A
:103EF00030913A0582179307E0F46091380570E03D
:103F00009C0148E050E0F901EE0FFF1F27FF04C0BD
:103F10009F012627372701C09F014150510999F77A
:103F2000E0913C05F0913D05E80FF91F20830196D3
:103F3000DDCF109272031092710388EE93E0A0E03F
:103F4000B0E08093730390937403A0937503B093D0
:103F500076032BE631E03093700320936F031092C9
:103F6000CE031092CD038093CF039093D003A09300
:103F7000D103B093D2032DE731E03093CC032093EB
:103F8000CB032DEC30E03093D8032093D7032CECF7
:103F900030E03093DA032093D90328EC30E03093FB
:103FA000DC032093DB0329EC30E03093DE03209325
:103FB000DD032AEC30E03093E0032093DF032EECA6
:103FC00030E03093E2032093E1031092E403109277
:103FD000E5031092E6031092E70310927E0310921D
:103FE0007D0380937F0390938003A0938103B0931C
:103FF00082038FE891E090937C0380937B038FEFA3
:104000009FEF909388038093870310925907109233
:104010005A07109261071092620710926907109276
:104020006A0710925307109254078EE780933A075D
:1040300010923B0710923C0710923D0710923E07EA
:1040400081E880933F071092400710924107109239
:1040500043071092420710924507109244071092AE
:1040600046071092490710924A0710924B07109288
:104070004C0710924D0710924E0710924F07109266
:10408000500782E08093C8001092CD008FEC80939F
:10409000CC001092E30386E08093CA008091C900AF
:1040A00080618093C9008091C90088608093C900B5
:1040B0008091C90080688093C9008091C9008F7D7C
:1040C0008093C9008BEC93E0909352078093510743
:1040D0008BE793E0909348078093470781E08093B4
:1040E00049078DEC92E00E94E91388E68093AB04C7
:1040F0001092BE0410920405109205051092060558
:1041000010920705109208051092090510920A05F1
:1041100010920B0510920C0510920D0510920E05D1
:1041200010920F0580E090E0A0E8BFE380931005B7
:1041300090931105A0931205B093130510921405E6
:104140001092150510921605109217051092180579
:104150001092190510921A0510921B0510921C0559
:1041600010921D0510921E0510921F0510922D052C
:1041700010922C0510922F0510922E0510923105E9
:1041800010923005109233051092320510923505C9
:104190001092340510923705109236051092A6043D
:1041A0001092A5041092A8041092A7041092AA04D9
:1041B0001092A904AE960FB6F894DEBF0FBECDBF25
:1041C000DF91CF911F910F91FF90EF90DF90CF90F3
:1041D000BF90AF909F908F907F906F900895BB2776
:1041E0004A3031F4992322F4BDE2909581959F4F96
:1041F0000C94FB20BB27FB015527AA27880F991F8A
:10420000AA1FA41710F0A41B83955051B9F7A05D05
:10421000AA3308F0A95DA193009779F7B111B19382
:104220001192CB010C941421DC01FC01672F7191D8
:104230007723E1F7329704C07C916D93708362918C
:10424000AE17BF07C8F308950E94662108F481E005
:104250000895E89409C097FB3EF490958095709579
:1042600061957F4F8F4F9F4F9923A9F0F92F96E9C2
:10427000BB279395F695879577956795B795F11137
:10428000F8CFFAF4BB0F11F460FF1BC06F5F7F4FD4
:104290008F4F9F4F16C0882311F096E911C07723E6
:1042A00021F09EE8872F762F05C0662371F096E8EF
:1042B000862F70E060E02AF09A95660F771F881FBE
:1042C000DAF7880F9695879597F90895990F000862
:1042D000550FAA0BE0E8FEEF16161706E807F907D8
:1042E000C0F012161306E407F50798F0621B730B73
:1042F000840B950B39F40A2661F0232B242B252BF4
:1043000021F408950A2609F4A140A6958FEF811D96
:10431000811D08950E949D210C940E220E9400226E
:1043200038F00E94072220F0952311F00C94F72119
:104330000C94FD2111240C9442220E941F2270F340
:10434000959FC1F3950F50E0551F629FF001729F3A
:10435000BB27F00DB11D639FAA27F00DB11DAA1F49
:10436000649F6627B00DA11D661F829F2227B00D96
:10437000A11D621F739FB00DA11D621F839FA00D21
:10438000611D221F749F3327A00D611D231F849F71
:10439000600D211D822F762F6A2F11249F575040C8
:1043A0009AF0F1F088234AF0EE0FFF1FBB1F661F43
:1043B000771F881F91505040A9F79E3F510580F00C
:1043C0000C94F7210C9442225F3FE4F3983ED4F31F
:1043D000869577956795B795F795E7959F5FC1F7B0
:1043E000FE2B880F911D9695879597F9089597F95B
:1043F0009F6780E870E060E008959FEF80EC08958B
:1044000000240A94161617061806090608950024B3
:104410000A9412161306140605060895092E03942D
:10442000000C11F4882352F0BB0F40F4BF2B11F4A1
:1044300060FF04C06F5F7F4F8F4F9F4F089557FD00
:104440009058440F551F59F05F3F71F04795880F02
:1044500097FB991F61F09F3F79F087950895121699
:1044600013061406551FF2CF4695F1DF08C0161645
:1044700017061806991FF1CF8695710561050894F6
:104480000895E894BB2766277727CB0197F908950D
:104490002F923F924F925F926F927F928F929F9254
:1044A000AF92BF92CF92DF92EF92FF920F931F9342
:1044B000CF93DF93CDB7DEB7CA1BDB0B0FB6F894F3
:1044C000DEBF0FBECDBF09942A88398848885F8433
:1044D0006E847D848C849B84AA84B984C884DF80A4
:1044E000EE80FD800C811B81AA81B981CE0FD11D88
:1044F0000FB6F894DEBF0FBECDBFED010895EE0FED
:10450000FF1F0590F491E02D09945058BB27AA276E
:104510000E949D220C940E220E94002238F00E94DC
:10452000072220F039F49F3F19F426F40C94FD2162
:104530000EF4E095E7FB0C94F721E92F0E941F226F
:1045400058F3BA17620773078407950720F079F4C8
:10455000A6F50C9441220EF4E0950B2EBA2FA02D57
:104560000B01B90190010C01CA01A0011124FF2720
:10457000591B99F0593F50F4503E68F11A16F0401B
:10458000A22F232F342F4427585FF3CF469537951A
:104590002795A795F0405395C9F77EF41F16BA0BDF
:1045A000620B730B840BBAF09150A1F0FF0FBB1F8D
:1045B000661F771F881FC2F70EC0BA0F621F731FD6
:1045C000841F48F4879577956795B795F7959E3F33
:1045D00008F0B0CF9395880F08F09927EE0F9795C4
:1045E000879508950E94F9226894B1110C94422293
:1045F00008950E94272288F09F5798F0B92F992795
:10460000B751B0F0E1F0660F771F881F991F1AF0BD
:10461000BA95C9F714C0B13091F00E944122B1E0BF
:1046200008950C944122672F782F8827B85F39F0BE
:10463000B93FCCF3869577956795B395D9F73EF456
:1046400090958095709561957F4F8F4F9F4F0895FE
:104650000E94662108F48FEF08950F931F93CF9364
:10466000DF938230910510F482E090E0E091E90759
:10467000F091EA0720E030E0A0E0B0E0309719F1D7
:10468000408151810281138148175907C8F084176E
:10469000950769F4109731F012960C9312971396C0
:1046A0001C9327C00093E9071093EA0722C0211545
:1046B000310519F04217530718F49A01BD01EF01B3
:1046C000DF01F801DBCF21153105F9F0281B390B8B
:1046D0002430310580F48A819B816115710521F0B8
:1046E000FB019383828304C09093EA078093E907D8
:1046F000FE01329644C0FE01E20FF31F81939193B5
:1047000022503109398328833AC02091E70730913C
:10471000E807232B41F420911801309119013093BF
:10472000E8072093E7072091160130911701211522
:10473000310541F42DB73EB740911A0150911B014C
:10474000241B350BE091E707F091E807E217F30728
:10475000A0F42E1B3F0B2817390778F0AC014E5FF1
:104760005F4F2417350748F04E0F5F1F5093E8073F
:104770004093E7078193919302C0E0E0F0E0CF011E
:10478000DF91CF911F910F910895CF93DF93009701
:1047900009F481C0FC01329713821282A091E907CB
:1047A000B091EA07109781F420813181820F931F25
:1047B0002091E7073091E8072817390751F5F09362
:1047C000E807E093E70767C0ED0120E030E0CE178F
:1047D000DF0740F44A815B819E0141155105F1F0EC
:1047E000EA01F5CFD383C28340815181840F951FA5
:1047F000C817D90759F488819981840F951F0296AB
:10480000918380838A819B819383828321153105E3
:1048100029F4F093EA07E093E9073DC0E901FB833F
:10482000EA8349915991C40FD51FEC17FD0761F434
:1048300080819181840F951F0296E9019983888375
:10484000828193819B838A83E0E0F0E012968D91D0
:104850009C911397009719F0FD01DC01F7CF8D9122
:104860009C9111979D012E5F3F4F820F931F2091C6
:10487000E7073091E8072817390769F4309729F4DA
:104880001092EA071092E90702C013821282B093D5
:10489000E807A093E707DF91CF910895A0E0B0E08B
:1048A000E4E5F4E20C944C22EC01009721F4CB01F6
:1048B0000E942D23B4C0FC01E60FF71F9C0122507B
:1048C0003109E217F30708F4A8C0D9010D911C9132
:1048D000119706171707B0F00530110508F49BC0B3
:1048E000C80104978617970708F495C0025011096C
:1048F000061B170B019311936D937C93CF010E94BC
:10490000C52389C05B01A01AB10A4C01800E911E1B
:10491000A091E907B091EA07612C712CE12CF12CF0
:10492000109709F446C08D919C911197A815B9056F
:10493000B1F56C0142E0C40ED11CCA14DB0478F15D
:104940004C018A189B08640142E0C40ED11C1296E7
:10495000BC9012971396AC91B5E0CB16D10440F001
:10496000B282A38391828082D9016D937C9309C026
:104970000E5F1F4F800F911FF90191838083EB2DF4
:10498000FA2FE114F10431F0D7011396FC93EE9362
:10499000129741C0F093EA07E093E9073CC068161C
:1049A000790608F43C017D0112960D90BC91A02D72
:1049B000B7CF8091E7079091E80788169906E1F450
:1049C00066167706C8F4809116019091170100973A
:1049D00041F48DB79EB740911A0150911B01841B81
:1049E000950BE817F907C8F4F093E807E093E70799
:1049F000F901718360830FC0CB010E942D237C01DC
:104A0000009759F0A801BE010E942625CE010E9400
:104A1000C523C70104C0CE0102C080E090E0CDB73D
:104A2000DEB7EEE00C94682281E090E0F8940C94FC
:104A3000E927FB01DC0104C08D910190801921F46C
:104A400041505040C8F7881B990B0895FB01DC01C9
:104A500002C001900D9241505040D8F70895FB01DB
:104A6000DC0101900D920020E1F70895AEE0B0E086
:104A7000ECE3F5E20C9456220D891E8986E08C83C6
:104A80001A8309838FEF9FE79E838D83AE01475E74
:104A90005F4F6F89788DCE0101960E945825EF8176
:104AA000F885E00FF11F10822E96E4E00C9472223C
:104AB000ABE0B0E0EEE5F5E20C9448226C017B013E
:104AC0008A01FC0117821682838181FFCCC1CE014D
:104AD00001963C01F6019381F70193FD859193FFC7
:104AE00081917F01882309F4BAC1853239F493FD9D
:104AF000859193FF81917F01853229F4B60190E081
:104B00000E944F27E7CF912C212C312CFFE1F31588
:104B1000D8F08B3279F038F4803279F08332A1F416
:104B2000232D20611DC08D3261F0803369F4232D67
:104B3000216016C0832D8260382EE32DE4603E2E66
:104B40002AC0F32DF8601DC037FC2DC020ED280FC2
:104B50002A3040F08E32B9F436FC81C1232D206416
:104B6000322E19C036FE06C08AE0989E200D112410
:104B7000922E11C0EAE02E9E200D1124222EF32D3C
:104B8000F0623F2E08C08C3621F4832D8068382EC9
:104B900002C0883641F4F70193FD859193FF81911E
:104BA0007F018111B3CF982F9F7D9554933028F4C6
:104BB0000C5F1F4F9FE399830DC0833631F083371D
:104BC00071F0833509F059C021C0F80180818983D3
:104BD0000E5F1F4F88248394912C530113C028012A
:104BE000F2E04F0E511CF801A080B18036FE03C0E8
:104BF000692D70E002C06FEF7FEFC5010E9444276E
:104C00004C018201F32DFF773F2E16C0280122E0D0
:104C1000420E511CF801A080B18036FE03C0692D00
:104C200070E002C06FEF7FEFC5010E9439274C0191
:104C3000F32DF0683F2E820133FC1BC0822D90E0E3
:104C400088169906B0F4B60180E290E00E944F27E2
:104C50002A94F4CFF50137FC859137FE81915F01ED
:104C6000B60190E00E944F2721102A9421E0821A79
:104C700091088114910471F7E8C0843611F08936E7
:104C800041F5F80137FE07C060817181828193810F
:104C90000C5F1F4F08C060817181072E000C880BCC
:104CA000990B0E5F1F4FF32DFF763F2E97FF09C024
:104CB00090958095709561957F4F8F4F9F4FF068CD
:104CC0003F2E2AE030E0A3010E948B27882E861811
:104CD00045C0853731F4232D2F7EB22E2AE030E0F7
:104CE00025C0932D997FB92E8F36C1F018F48835E1
:104CF00079F0B5C0803719F0883721F0B0C0E92FBE
:104D0000E061BE2EB4FE0DC0FB2DF460BF2E09C0C5
:104D100034FE0AC0292F2660B22E06C028E030E0FB
:104D200005C020E130E002C020E132E0F801B7FE2A
:104D300007C060817181828193810C5F1F4F06C023
:104D40006081718180E090E00E5F1F4FA3010E949F
:104D50008B27882E8618FB2DFF773F2E36FE0DC041
:104D6000232D2E7FA22E891458F434FE0BC032FC62
:104D700009C0832D8E7EA82E05C0B82CA32C03C09D
:104D8000B82C01C0B92CA4FE0FC0FE01E80DF11D26
:104D90008081803321F49A2D997EA92E09C0A2FE2C
:104DA00006C0B394B39404C08A2D867809F0B394F6
:104DB000A3FC11C0A0FE06C0B21488F4280C922CEB
:104DC0009B180EC0B21460F4B60180E290E00E941D
:104DD0004F27B394F7CFB21418F42B1802C0982CB5
:104DE000212CA4FE10C0B60180E390E00E944F2762
:104DF000A2FE17C0A1FC03C088E790E002C088E5CE
:104E000090E0B6010CC08A2D867859F0A1FE02C050
:104E10008BE201C080E2A7FC8DE2B60190E00E9427
:104E20004F27891438F4B60180E390E00E944F27A1
:104E30009A94F7CF8A94F301E80DF11D8081B601B1
:104E400090E00E944F278110F5CF222009F442CE36
:104E5000B60180E290E00E944F272A94F6CFF60137
:104E60008681978102C08FEF9FEF2B96E2E10C9431
:104E70006422FC010590615070400110D8F78095C4
:104E800090958E0F9F1F0895FC0161507040019016
:104E90000110D8F7809590958E0F9F1F08950F935E
:104EA0001F93CF93DF93FB01238121FD03C08FEF7D
:104EB0009FEF2CC022FF16C0468157812481358187
:104EC0004217530744F4A081B1819D012F5F3F4FEA
:104ED000318320838C93268137812F5F3F4F378327
:104EE000268314C08B01EC01FB010084F185E02DC9
:104EF0000995892BE1F6D80116968D919C9117970B
:104F0000019617969C938E931697CE01DF91CF91C1
:104F10001F910F910895FA01AA27283051F12031ED
:104F200081F1E8946F936E7F6E5F7F4F8F4F9F4F3D
:104F3000AF4FB1E03ED0B4E03CD0670F781F891F7F
:104F40009A1FA11D680F791F8A1F911DA11D6A0F4D
:104F5000711D811D911DA11D20D009F468943F9100
:104F60002AE0269F11243019305D3193DEF6CF01FF
:104F70000895462F4770405D4193B3E00FD0C9F7C5
:104F8000F6CF462F4F70405D4A3318F0495D31FD32
:104F90004052419302D0A9F7EACFB4E0A695979585
:104FA000879577956795BA95C9F70097610571055B
:104FB00008959B01AC010A2E0694579547953795A5
:104FC0002795BA95C9F7620F731F841F951FA01DFF
:064FD0000895F894FFCFE4
:104FD600FFFFFFFFCC04CC04CC04CC04CC0400E1DE
:104FE6000000000000000000EB07200000C18081E7
:104FF60000000002080204020202010280024002CE
:105006001002200302030103800340032003100360
:10501600043F013D013B01390137013501330131BF
:10502600012F012D012B0129012701250123010053
:105036000000002D012B01000000000212D5119F77
:1050460006A911CD11B911AA1100000000F60564D8
:10505600058E054206BF059D05B105000000006EE0
:1050660006DA066007A6068406880764074D5055CB
:105076003630353020636F6E6E656374696F6E20EF
:105086007375636365737366756C004D5055363082
:10509600353020636F6E6E656374696F6E2066616E
:1050A600696C656400496E697469616C697A696ED8
:1050B600672049324320646576696365732E2E2E18
:1050C6000054657374696E6720646576696365204C
:1050D600636F6E6E656374696F6E732E2E2E004558
:1050E60072726F7220696E697469616C697A696E31
:1050F60067212121002C00534C4156450057616918
:1051060074696E6720636F6E6E656374696F6E2077
:1051160077697468206D616E6167657200536574A6
:1051260075702074696D657273000D0A005365749D
:10513600757020494D550058496E70757420446548
:105146006275673A20004C543A2025337520257342
:10515600204C3A282536642C202536642C202573CD
:105166002900202563256325632563207C2025638C
:1051760025632563207C202563256325632563201D
:1051860000523A282536642C202536642C202573B7
:10519600292025732052543A20253375004176760E
:1051A6006961746120636F6D756E6963617A696F99
:1051B6006E6520626C7565746F6F7468004C420092
:0A51C6004C33005242005233000047
:00000001FF
