:100000000C94A2040C94EF120C94C8120C94A1123C
:100010000C947A120C94CA040C94CA040C945312D3
:100020000C94CA040C94CA040C94AE070C942008D7
:100030000C94CA040C94CA040C94CA040C94CA0408
:100040000C94CA040C94CA040C94CA040C94CA04F8
:100050000C94CA040C94CA040C94CA040C9409129B
:100060000C94CA040C94840A0C945E0A0C94CA047E
:100070000C94CA040C94CA040C94CA040C94CA04C8
:100080000C94CA040C94CA040C94CA040C94CA04B8
:100090000C94430F0C94CA040C94CA040C94CA0424
:1000A0000C94CA040C94CA040C94CA046511681117
:1000B00057115B115F118911891189116C11701130
:1000C00074117A117E1189118411080B0002020249
:1000D00001000904000001020200000524001001D3
:1000E0000524010101042402060524060001070578
:1000F000810310004009040100020A000000070506
:1001000002024000000705830240000004030904C6
:1001100012010002EF02014041233680000101027A
:10012000030141726475696E6F204C4C430041724B
:100130006475696E6F204C656F6E6172646F00FB51
:1001400000003E000B00360001000200030000002A
:10015000650054FFEF0000FA80000B1282000100DE
:10016000020000000000000000000000000000008D
:10017000280000FFFF4581FFFFFA72000000000029
:100180000003E80000000100017FFFFFFE80010086
:100190001B00000000000000000000000000000044
:1001A0004000004000000002CB47A22000000020D9
:1001B000000000000000004000000060000000415E
:1001C000FF000000000B2A0000165500002182FDF0
:1001D000872650FD800000001F0000000580000001
:1001E00000000000010000000200000003000040C9
:1001F0000000000000046F0002653200005EC04095
:10020000000000000000000000000000000000FBF3
:100210008C6F5DFD5D08D9007C733B006C12CC32A5
:1002200000139D3200D0D632000800400001F4FFD8
:10023000E68079020000000000D0D600002710FB05
:10024000000000400000000000000000000000006E
:10025000000001000000000000010001000000009B
:1002600000FA36FFBC308E0005FBF0FFD95BC8FFFB
:10027000D09ABE000010A9FFF41EB200CEBBF7005A
:1002800000000100000004000200020200000CFF58
:10029000C280000001800000CF800040000000000C
:1002A0000000000000000000000600000000140034
:1002B000000000000000000000000000000000003E
:1002C0000000000000000000000000000000000925
:1002D00023A1350000000000000000000000000025
:1002E000000000033F68B6793528BCC67ED16C801B
:1002F00000FFFF400000000000B26A0000000000A4
:100300000000000000000000003FF000000030008E
:1003100000000000000000000000000000000000DD
:10032000000000000000000000000000004000008D
:1003300000254D002F706D000005AE000C02D000AE
:1003400000000000650054FFEF0000000000000006
:100350000001000044000100058BC1000001000005
:100360000000000065000000540000FFEF000000E6
:10037000000000000000000000000000000000007D
:10038000000000000000000000000000000000006D
:10039000000000000000000000000000000000005D
:1003A000000001000000020000000000000000004A
:1003B000000000000000000000000000000000003D
:1003C000000000000000000000000000000000002D
:1003D0001B00000000000000000000000000000002
:1003E000000000000000000000000000000000000D
:1003F00000000000000000000000000000000000FD
:100400001B000000000000000000000000000000D1
:1004100000000000000000000000000000000000DC
:1004200000000000000000000000000000000000CC
:10043000000000000000000000000000000000D8E4
:10044000DCBAA2F1DEB2B8B4A88191F74A907F91EC
:100450006AF3F9DBA8F9B0BAA080F2CE81F3C2F159
:10046000C1F2C3F3CCA2B280F1C6D880BAA7DFDF55
:10047000DFF2A7C3CBC5B6F087A2942448703C95A1
:10048000406834589B78A2F183922D557DD8B1B441
:10049000B8A1D09180F270F370F27C80A8F101B025
:1004A0009887D943D886C988BAA1F20EB89780F147
:1004B000A9DFDFDFAADFDFDFF2AA4CCD6CA90CC910
:1004C0002C97979797F1A989264666B0B4BA80AC65
:1004D000DEF2CAF1B28C02A9B69800890E161EB8D7
:1004E000A9B4992C547CB08AA896365676F1B9AF47
:1004F000B4B083C0B8A89711B18F98B9AFF02408F1
:1005000044106418F1A329557DAF83B593AFF00073
:100510002850F1A3869F61A6DADEDFD9FAA386967A
:10052000DB31A6D9F8DFBAA68FC2C5C7B28CC1B875
:10053000A2DFDFDFA3DFDFDFD8D8F1B8A8B286B44F
:10054000980D355DB8AA98B0872D353DB2B6BAAFD3
:100550008C96198F9FA70E161EB49AB8AA872C5492
:100560007CB9A3DEDFDFA3B180F2C4CDC9F1B8A9A5
:10057000B499830D355D89B9A32D557DB593A30E2F
:10058000161EA92C547CB8B4B0F19783A81184A589
:100590000998A383F0DA240844106418D8F1A52937
:1005A000557DA58595021A2E3A565A4048F9F3A36F
:1005B000D9F8F098832408441064189782A8F111A0
:1005C000F098A2240844106418DAF3DED883A594C6
:1005D00001D9A302F1A2C3C5C7D8F18492A24DDA12
:1005E0002AD84869D92AD86855DA32D85071D93210
:1005F000D8705DDA3AD85879D93AD87893A34DDAD9
:100600002AD84869D92AD86855DA32D85071D932EF
:10061000D8705DDA3AD85879D93AD878A88A9AF059
:100620002850789EF38818F19F1D98A8D908D8C83B
:100630009F129EF315A8DA1210D8F1AFC89787342D
:10064000B5B994A421F3D922D8F22DF3D92AD8F23E
:1006500035F3D932D881A4606061D961D86C6869FA
:10066000D969D8747071D971D8B1A384193D5DA3CB
:10067000831A3E5E931030811011B8B0AF8F94F2A0
:10068000DA3ED8B49AA88729DAF8D8879A35DAF802
:10069000D8879A3DDAF8D8B1B9A49885022E56A524
:1006A00081000C14A397B08AF12DD928D84DD948D0
:1006B000D86DD968D8B1840DDA0ED8A32983DA2C85
:1006C0000ED8A3844983DA2C4C0ED8B8B0A88A9AE5
:1006D000F520AADADFD8A840AAD0DADED8A860AA26
:1006E000DAD0DFD8F19786A8319B069907AB972817
:1006F000889BF00C201440B8B0B4A88C9CF004285F
:1007000051791D301438B282ABD0982C5050787883
:100710009BF11AB0F08A9CA82951798B2951798ACA
:100720002470598B2058718A4469388B3940688A03
:100730006448318B304960A588200971584468119C
:100740003964493019F1AC002C547CF08CA8042891
:100750005078F1889726A85998AC8C02264666F006
:10076000899CA8295179247059446938644831A971
:100770008809205970AB11384069A8193148608C3C
:10078000A83C415C207C00F187981986A86E767E93
:10079000A999882D557D9EB9A38A228A6E8A568A88
:1007A0005E9FB183062646660E2E4E6E9DB8AD0046
:1007B0002C547CF2B18CB499B9A32D557D8191ACA8
:1007C00038AD3AB58391AC2DD928D84DD948D86DDC
:1007D000D968D88C9DAE29D904AED851D904AED8E9
:1007E00079D904D881F39DAD008DAE1981ADD901C1
:1007F000D8F2AEDA26D88E912983A7D9ADADADADAA
:10080000F32AD8D8F1B0AC89913E5E76F3AC2E2EA7
:10081000F1B18C5A9CAC2C2828289CAC3018A89894
:100820008128343C9724A728343C9C24F2B089AC1E
:10083000912C4C6C8A9B2DD9D8D851D9D8D879D93C
:10084000D8D8F19E88A331DAD8D8912DD928D84D9F
:10085000D948D86DD968D8B18393353D8025DAD889
:10086000D88569DAD8D8B49381A328343CF3AB8B0C
:10087000F8A391B609B4D9ABDEFAB0879CB9A3DD71
:10088000F1202830389AF12830389DF1A3A3A3A392
:10089000F2A3B49080F2A3A3A3A3A3A3A3A3A3A3AF
:1008A000B2A3A3A3A3A3A3B087B599F12830389826
:1008B000F1A3A3A3A397A3A3A3A3F39BA330DCB9A2
:1008C000A7F1262626FED8FF0000000025002800FC
:1008D0002B002E00310000000000240027002A0019
:1008E0002D00300004040404040304050202020283
:1008F00004030202020206060606060604040202B9
:10090000020404040802011040804010204080408E
:100910008008020401804020100201108010204055
:1009200040200000000200090F0000030401000C39
:1009300000000000000000000000000000000000B7
:1009400000007B1D11241FBECFEFDAE0DEBFCDBF5C
:1009500012E0A0E0B1E0ECE1FDE402C005900D92F0
:10096000A83DB107D9F727E0A8EDB2E001C01D927C
:10097000A93CB207E1F714E0C2EAD4E004C0219731
:10098000FE010E94D420C13AD107C9F70E944B1939
:100990000C948C260C9400004091DB025091DC02F8
:1009A0002091D9023091DA0242175307B4F49091A2
:1009B000E8009570E1F39091E80092FD19C08093F2
:1009C000F1008091DB029091DC0201968F739927F0
:1009D000892B19F48EEF8093E8008091DB029091CF
:1009E000DC0201969093DC028093DB0281E00895A3
:1009F00080E00895DF92EF92FF920F931F93CF93C1
:100A0000DF93D82EF92EE42E062F10E0C8010196B0
:100A1000880F0E94CC0483E00E94CC04CD2DDF2DF2
:100A20000C0F1D1FC017D10789F0E7FE03C0FE01A0
:100A3000849101C088810E94CC04F82E80E00E943D
:100A4000CC048F2121968111EDCF01C081E0DF918F
:100A5000CF911F910F91FF90EF90DF900895DF925B
:100A6000EF92FF920F931F93CF93DF93D82E8A01BB
:100A70007B01E40EF51EEB01CE15DF0571F0D7FE0C
:100A800003C0FE01849101C088810E94CC0421969C
:100A90008111F2CF8FEF9FEF01C0C801DF91CF919D
:100AA0001F910F91FF90EF90DF900895615030F00B
:100AB0002091F100FC0120830196F8CF289884E66C
:100AC0008093DF020895CF92DF92EF92FF920F930F
:100AD0001F93CF93DF936C017A018B01C0E0D0E0CC
:100AE000CE15DF0581F0D8016D918D01D601ED9114
:100AF000FC910190F081E02DC6010995892B11F040
:100B00002196EECF7E01C701DF91CF911F910F910A
:100B1000FF90EF90DF90CF900895FC01538D448DAE
:100B2000252F30E0842F90E0821B930B541710F098
:100B3000CF96089501970895FC01918D828D9817A5
:100B400061F0828DDF01A80FB11D5D968C91928DB1
:100B50009F5F9F73928F90E008958FEF9FEF0895AE
:100B6000FC01918D828D981731F0828DE80FF11D77
:100B7000858D90E008958FEF9FEF0895FC01918D92
:100B8000228D892F90E0805C9F4F821B91098F738B
:100B9000992708958BEC93E00E94BE0521E0892BF4
:100BA00009F420E0822F0895FC01848DDF01A80F55
:100BB000B11DA35ABF4F2C91848D90E001968F7385
:100BC0009927848FA689B7892C93A089B1898C91A4
:100BD00082748C93938D848D981306C00288F38958
:100BE000E02D80818F7D80830895EF92FF920F9397
:100BF0001F93CF93DF93EC0181E0888F9B8D8C8DC9
:100C0000981305C0E889F989808185FD26C0F62EF4
:100C10000B8D10E00F5F1F4F0F731127E02E8C8D8F
:100C2000E8120CC00FB607FCFACFE889F989808179
:100C300085FFF5CFCE010E94D405F1CF8B8DFE014B
:100C4000E80FF11DE35AFF4FF0829FB7F8940B8F26
:100C5000EA89FB898081806209C09FB7F894EE8998
:100C6000FF896083E889F9898081827480839FBFCE
:100C700081E090E0DF91CF911F910F91FF90EF9075
:100C80000895CF93DF93EC01888D8823C9F0EA891A
:100C9000FB89808185FD05C0A889B9898C9186FD75
:100CA0000FC00FB607FCF5CF808185FFF2CFA88972
:100CB000B9898C9185FFEDCFCE010E94D405E7CF95
:100CC000DF91CF91089580E090E0892B29F00E9478
:100CD000CA0581110C9400000895CF93DF931F92F1
:100CE000CDB7DEB76983DC01ED91FC910280F38121
:100CF000E02D41E050E0BE016F5F7F4F09950F90FE
:100D0000DF91CF91089583E08093E9008091F20014
:100D1000882319F08AE38093E8000895FC01848514
:100D2000958597FD0BC09FB7F89482E08093E9000A
:100D30008091F2009FBF90E0019608959FB7F894CC
:100D400082E08093E9008091F2009FBF90E00895D7
:100D5000089580E090E0089581E08093D80208959E
:100D60000F931F93CF93DF931F92CDB7DEB782E02F
:100D7000898342E450E06AEC70E080E80E942F052D
:100D80000E942611DC0112960D911C9113970115FA
:100D9000110589F0D801ED91FC910280F381E02DDD
:100DA000BE016F5F7F4FC801099597FD04C0F80130
:100DB00000851185ECCF89810F90DF91CF911F9134
:100DC0000F9108958F929F92AF92BF92CF92DF9230
:100DD000EF92FF920F931F93CF93DF936C017B01F0
:100DE0008A0180911501882309F45CC08091E0029A
:100DF000882309F457C08091290380FF05C08091A2
:100E0000E00082608093E000E801B12C8AEFA82E18
:100E100093E0892E2AE3922E209711F4BB20D9F17A
:100E20000E94B40E81110AC0AA94AA20D9F161E0EF
:100E300070E080E090E00E94C311EECF282F30E0F8
:100E4000C217D3070CF48C2F9FB7F8948092E90057
:100E50002091E80025FF1DC0282F30E0C21BD30BD6
:100E6000F701815020F041914093F100FACFE20E5A
:100E7000F31EBB2019F09092E8000AC08091E800B0
:100E800085FD07C09092E800BB24B394209709F039
:100E9000B12C9FBFC1CF5D9884E68093DE0210160F
:100EA000110644F081E090E0F6019383828380E0B4
:100EB00090E001C0C801DF91CF911F910F91FF9089
:100EC000EF90DF90CF90BF90AF909F908F9008955C
:100ED0000E94B40E90E008950F931F93CF93DF9379
:100EE0001F92CDB7DEB78C01FC018485958597FFF5
:100EF0000EC0CE0101960E946D0E019719F48981F2
:100F000090E002C08FEF9FEFF80195878487F8018A
:100F1000848595850F90DF91CF911F910F91089552
:100F2000CF93DF931F92CDB7DEB7FC018485958503
:100F300097FD05C02FEF3FEF358724870BC0CE010B
:100F400001960E946D0E019719F4898190E002C00C
:100F50008FEF9FEF0F90DF91CF9108951F920F9227
:100F60000FB60F9211248F939F938091E10090917F
:100F7000E100937F9093E10083FF0FC01092E9009E
:100F800091E09093EB001092EC0092E39093ED00CF
:100F90001092E00298E09093F00082FF20C093E06E
:100FA0009093E9009091F200992319F09AE39093BD
:100FB000E8009091DE02992339F09091DE02915081
:100FC0009093DE02992389F19091DF02992339F001
:100FD0009091DF0291509093DF02992341F184FFB9
:100FE00010C08091E2008E7E81608093E20080914B
:100FF000E1008F7E8093E100809129038E7E8061E5
:1010000011C080FF16C08091E2008E7E80618093C7
:10101000E2008091E1008E7E8093E10080912903BF
:101020008E7E81608093290304C05D9ACDCF289A7B
:10103000D6CF9F918F910F900FBE0F901F90189554
:101040001F920F920FB60F921124CF92DF92EF9260
:10105000FF920F931F932F933F934F935F936F9341
:101060007F938F939F93AF93BF93EF93FF93CF9310
:10107000DF93CDB7DEB76C97DEBFCDBF1092E9002E
:101080008091E80083FFFBC168E0CE0145960E9495
:10109000560582EF8093E8008D8987FF05C0909107
:1010A000E80090FFFCCF03C09EEF9093E800982FDC
:1010B000907609F0C6C09E894F89588D2F89F88C8B
:1010C00091110CC0803829F480912A038093F1009B
:1010D00002C01092F1001092F10045C1913051F41C
:1010E000811141C14130510509F03DC180912A0370
:1010F0008D7F0BC0933061F4811135C141305105B2
:1011000009F031C180912A03826080932A032BC1A8
:10111000953049F48091E80080FFFCCF822F8068F1
:101120008093E30020C1963009F05EC00B8D1C8DCA
:1011300022E01092E9001092DC021092DB02F2121F
:1011400032C01092DA021092D9020E94B00699E0E1
:10115000BE016F5F7F4FDB01E92F1D92EA95E9F732
:101160009983FA8291E09E8390EA98879AEF998713
:101170002091DB023091DC02275F3F4F3C832B83C1
:101180008D831092E9001092DC021092DB02109322
:10119000DA020093D90249E050E080E00E942F0576
:1011A0000E94B006E0C01093DA020093D9020E94B8
:1011B0002611DC0112960D911C9113970115110552
:1011C00009F4BBC0D801ED91FC910480F581E02DBC
:1011D000BE016B5E7F4FC8010995009709F0C7C03B
:1011E000F80100851185EACF973009F445C19830A0
:1011F00021F481E08093F100B6C0993009F0B3C0CA
:10120000837009F039C1EDE1F1E081E031E096E36E
:101210002081211109C08EE78093EA001092EA0034
:101220008F898093E0029FC08093E9003093EB00A8
:1012300021912093EC009093ED008F5F873041F770
:10124000EACF8B8D9C8D1092E9001092DC021092F7
:10125000DB029093DA028093D902898D811153C009
:101260008E899D89913A49F4813209F005C147E0A0
:1012700050E06EE071E080E0BBC0913209F0FCC04C
:10128000833269F48F89988DA0E0B0E080930001EB
:1012900090930101A0930201B093030164C08032D6
:1012A00069F48091E80082FFFCCF67E08EE091E076
:1012B0000E9456058BEF8093E80055C0823209F0FA
:1012C00052C08F8980931501EEEFFFE785919491CD
:1012D0008B3F9C4D19F0E0E0F8E002C0EEEFFAE041
:1012E00080910E0190910F01A0911001B091110118
:1012F000803B9440A105B10509F09EC08091150185
:1013000080FF79C099C00E942611FC0102811381DF
:101310000115110509F4B0C0D801ED91FC910190BF
:10132000F081E02DBE016B5E7F4FC80109958111F0
:101330001AC0F80100851185EBCFF1E0FF1609F422
:101340004EC0F3E0FF1298C08F89882309F44AC089
:10135000823089F440E860E18EE291E00E94FA0474
:10136000882309F489C08EEF8093E80088C018169E
:101370001906CCF381C0813029F440E86BE082E2A9
:1013800091E0ECCF833009F077C00E942611DC0198
:101390001296ED90FC9013978E010F5F1F4F68011E
:1013A000E114F10479F0D701ED91FC910680F78109
:1013B000E02DB801C7010995080F111DF701E08460
:1013C000F184EECFD8011C92F60101900020E9F7DC
:1013D0003197BF016C197D0940E0C601BFCF60E1C4
:1013E00071E002C06CE071E0FB01449150E080E8E4
:1013F0000E942F05B8CFEE3F2AE0F20751F080811E
:1014000091818737A7E79A0721F09093FF0A80938D
:10141000FE0A87E797E7918380838091600080933D
:10142000DD029BE088E10FB6F894A89580936000F8
:101430000FBE9093600097CF808191818737974747
:1014400009F091CFA8958091600088618093600039
:101450008091DD0280936000EE3FBAE0FB0739F037
:101460008091FE0A9091FF0A918380837CCF109235
:10147000FF0A1092FE0A77CF81E28093EB006C9610
:101480000FB6F894DEBF0FBECDBFDF91CF91FF91B5
:10149000EF91BF91AF919F918F917F916F915F91EC
:1014A0004F913F912F911F910F91FF90EF90DF90FF
:1014B000CF900F900FBE0F901F9018951F920F9214
:1014C0000FB60F9211242F933F934F935F936F9317
:1014D0007F938F939F93AF93BF93EF93FF938BEC87
:1014E00093E00E94D405FF91EF91BF91AF919F913E
:1014F0008F917F916F915F914F913F912F910F90BD
:101500000FBE0F901F9018951F920F920FB60F925B
:1015100011242F938F939F93EF93FF93E091DB031D
:10152000F091DC038081E091E103F091E20382FD20
:1015300012C090818091E4038F5F8F732091E50347
:10154000821751F0E091E403F0E0E553FC4F958FF2
:101550008093E40301C08081FF91EF919F918F916F
:101560002F910F900FBE0F901F901895FF920F9321
:101570001F93CF93DF93142FF22E032F91E09093BC
:101580004F038093710310925003109272038FEBFC
:1015900093E00E94F510CF2DD02FCE01810F911D29
:1015A0008C01C017D10731F069918FEB93E00E9455
:1015B000F510F7CF0E94311491E0811190E0892F4E
:1015C000DF91CF911F910F91FF900895CF93DF93FB
:1015D00000D0CDB7DEB75A834983AE014F5F5F4F6E
:1015E0000E94B4150F900F90DF91CF910895CF9383
:1015F000DF931F92CDB7DEB749839E012F5F3F4F28
:1016000041E00E94B60A0F90DF91CF9108952F928A
:101610003F924F925F926F927F928F929F92AF9282
:10162000BF92CF92DF92EF92FF920F931F93CF93CF
:10163000DF9300D000D000D0CDB7DEB7982E862E35
:101640004D8359010E94FD116B017C01312C1E82DA
:10165000222423949D81892F90E09C838B832801F1
:10166000612C712CED813E1608F042C020924F0390
:10167000909271031092500310927203682D8FEBB9
:1016800093E00E94F5100E94311420924F03909233
:10169000710310925003109272036B817C81631965
:1016A00071096132710514F060E270E0613208F096
:1016B00060E2892D0E94561310924E0380934D03D1
:1016C00090914D0380914E03981709F443C0011582
:1016D000110569F10E94FD11DC01CB018C199D09F6
:1016E000AE09BF0984159505A605B70500F132C0FE
:1016F00001151105A9F10E94FD11DC01CB018C1926
:101700009D09AE09BF0920E030E080179107A207CC
:10171000B30730F1FD812F2F30E04E81842F440F2D
:10172000990B82179307E4F48FEF8E8319C0F501AC
:101730002E81E20FF11D27FDFA95FA83E9838FEBE5
:1017400093E00E94AB10E981FA818083FE81FF5F04
:10175000FE83B6CF8D81813208F080E2380E82CFD1
:101760008E8126960FB6F894DEBF0FBECDBFDF91F7
:10177000CF911F910F91FF90EF90DF90CF90BF908E
:10178000AF909F908F907F906F905F904F903F9021
:101790002F900895BF92CF92DF92EF92FF920F9316
:1017A0001F93CF93DF931F92CDB7DEB7F82EE62EAF
:1017B000C42EB22ED02E08EE13E09E012F5F3F4FB5
:1017C00041E00E94070B882339F12C2D30E02B19C2
:1017D00031092F5F3F4F81E090E002C0880F991FD1
:1017E000BA94E2F70197022E01C0880F0A94EAF733
:1017F0004D2D50E0BA0102C0660F771F2A95E2F71F
:10180000482F4095998149238623482B49836E2D83
:101810008F2D0E94F70A01C080E00F90DF91CF91D9
:101820001F910F91FF90EF90DF90CF90BF900895A0
:10183000CF92DF92EF92FF920F931F93CF93DF939C
:101840001F92CDB7DEB7F82EE62ED42EC22E08EEAC
:1018500013E09E012F5F3F4F41E00E94070B8981FB
:1018600041E050E001C0440FDA94EAF7CC2011F0D7
:10187000482B02C04095482349836E2D8F2D0E942E
:10188000F70A0F90DF91CF911F910F91FF90EF908A
:10189000DF90CF9008951092B90381E08093980370
:1018A0001092930361E082E00E943A1161E083E0CC
:1018B0000E943A11E9EBF0E080818E7F8083808185
:1018C0008D7F808388E48093B80085E48093BC009A
:1018D00008954F925F926F927F928F929F92AF92F4
:1018E000BF92CF92DF92EF92FF920F931F93CF930D
:1018F000DF9300D0CDB7DEB73C014B015A0169013F
:10190000280110924E0310924D0310925003109232
:1019100072030E944B0C89E990E190932803809315
:1019200027038AE990E19093260380932503109280
:10193000240388EB9BE0A0E0B0E08093BB0390938E
:10194000BC03A093BD03B093BE0381E08093BA03B0
:1019500080912403109224038CE08093B80085EDDD
:1019600091E00E94481301E023E042E06BE68091A1
:1019700016070E94CA0B00E022E044E06BE1809170
:1019800016070E94CA0B22E044E06CE18091160722
:101990000E94CA0B20E046E06BE6809116070E9489
:1019A000180CEAE0F9E02491EBEEF8E0849188234A
:1019B000D1F090E0880F991FFC01EA52F74FA591F2
:1019C000B491FC01E853F74F859194914FB7F89487
:1019D0003C91E22FE095232F2E232C93DC012C91B8
:1019E000E223EC934FBF81EF91E00E9448130E94E5
:1019F000D715843319F08BEB91E002C08DE991E0AB
:101A00000E94481321E047E06BE6809116070E9490
:101A1000180C6EE170E080E090E00E94C31120E0BD
:101A200046E06BE6809116070E94180C40E76DE6D1
:101A3000809116070E94F70A46E06EE6809116072D
:101A40000E94F70A40E06DE6809116070E94F70AAF
:101A50004FE765E2809116070E94F70A20E045E013
:101A60006AE6809116070E94180C48E665E28091AC
:101A700016070E94F70A21E041E06AE68091160706
:101A80000E94180C64E170E080E090E00E94C311B5
:101A900003E023E042E06BE6809116070E94CA0B48
:101AA00042E168E3809116070E94F70A44E069E189
:101AB000809116070E94F70A01E023E045E06AE101
:101AC000809116070E94CA0B03E023E042E06AE11E
:101AD000809116070E94CA0B22E044E06BE18091DE
:101AE00016070E94CA0B01E020E040E069E877E0B9
:101AF0008FE391E00E948218882309F4D7C01982ED
:101B000081E08A8300E026E142E062E070E0CE01FD
:101B100001960E94821843E060E7809116070E94B8
:101B2000F70A40E061E7809116070E94F70A20E07B
:101B300040E060E0809116070E94180C42E06FE1DF
:101B4000809116070E94F70A4CE961E2809116071E
:101B50000E94F70A40E560E2809116070E94F70AAA
:101B600040E062E2809116070E94F70A21E046E019
:101B70006AE6809116070E94180C21E043E06AE6AD
:101B8000809116070E94180C20E047E06AE68091D9
:101B900016070E94180C8AE290E090932807809321
:101BA00027070E94AD1508EE13E027E137E041E07A
:101BB0006AE3809116070E94070B0E94D7158833AD
:101BC00010F067E701C066E0A301809116070E944C
:101BD000E60A0E94D715883310F06AE701C068E072
:101BE000A401809116070E94E60A0E94D715883347
:101BF00010F06DE701C06AE0A501809116070E9410
:101C0000E60AA60163E1809116070E94E60AA20196
:101C100065E1809116070E94E60AA70167E18091BD
:101C200016070E94E60A00E010E028EA31E44EEAD6
:101C300057E461EA7EE38BE30E94FA150FEF1FEF92
:101C40002CEB32E44EEA57E461EA7EE383E40E943F
:101C5000FA1521E047E06AE6809116070E94180C09
:101C60008CEA96E090930D0180930C0180916A00BC
:101C7000806380936A00EE9A08EE13E027E137E074
:101C800041E06AE3809116070E94070B80911707D5
:101C900080932A0781E080932907809127079091FC
:101CA000280790932C0780932B0704C08FE092E0C5
:101CB0000E9436130F900F90DF91CF911F910F91DB
:101CC000FF90EF90DF90CF90BF90AF909F908F905C
:101CD0007F906F905F904F9008952091E0022111C6
:101CE00003C08FEF9FEF08955FB7F89422E0209331
:101CF000E9002091F20030E01216130614F421E0FE
:101D000030E0422FFC0184E6415038F0289880935F
:101D1000DF029091F1009193F7CF2115310521F069
:101D20008091F200882319F05FBFC90108958BE606
:101D30008093E800F9CF0F931F93CF93DF93C6E111
:101D4000D7E008EE13E027E137E042E062E7888160
:101D50000E94070B89819A81982789279827DF910C
:101D6000CF911F910F9108952FB7F89483E080933E
:101D7000E9009091E800892F807295FF04C090914E
:101D8000F20080E4891B2FBF0895AC0190E02FE59D
:101D9000FA01E90FF11D8081882319F020839F5FEC
:101DA000F7CF08958331A0F4E82FF0E0EE0FFF1F86
:101DB000EF5BFE4FA081B181109751F0EC91F0E004
:101DC000E254FB4F908111968C91982381E009F4A5
:101DD00080E00895CF93DF9391E0909324038823CC
:101DE000B9F0C091B800D091BA008091BC008A7B54
:101DF0008093BC0060E082E00E943A1160E083E0E2
:101E00000E943A110E944B0CD093BA00C093B800C4
:101E1000DF91CF91089585ED8093BC008091BB0345
:101E20009091BC03A091BD03B091BE030796A11D84
:101E3000B11D23E0B695A795979587952A95D1F77B
:101E40002091BC0024FF1CC04091BB035091BC03F7
:101E50006091BD037091BE03452B462B472B81F348
:101E60000097A105B10541F02AE22A95F1F700C0DB
:101E70000197A109B109E4CF8091BA030C94EA0E4D
:101E80001092B90308951F920F920FB60F9211246A
:101E90002F933F934F935F936F937F938F939F9372
:101EA000AF93BF93EF93FF938091B900887F803603
:101EB00009F49CC068F5883209F45BC090F4803165
:101EC00009F454C038F4882309F4F6C0883009F4C2
:101ED0004DC0F6C0883109F44CC0803209F45DC0B1
:101EE000EFC0803409F468C048F4803309F455C069
:101EF000883309F0E5C080939703D8C0803509F492
:101F00004FC0883509F45DC0883409F0D9C0D6C007
:101F1000883909F4C7C0A8F4883709F467C038F4D1
:101F2000883609F463C0803709F460C0C9C08838B6
:101F300009F4B8C0803909F45FC0803809F0C0C026
:101F40005BC0803B09F486C038F4803A09F466C06F
:101F5000883A09F47FC0B4C0803C09F4A7C0883C2B
:101F600009F4A4C0883B09F48AC0AAC080919403F4
:101F700010C09091960380919503981770F5E091A9
:101F8000960381E08E0F80939603F0E0ED58FC4FAE
:101F900080818093BB0085EC86C0809397038EC0C0
:101FA000E091960381E08E0F809396038091BB00B1
:101FB000F0E0ED58FC4F808390919603809195035B
:101FC0006EC0E091960381E08E0F8093960380911E
:101FD000BB00F0E0ED58FC4F8083809198038111A5
:101FE0006DC081E08093930384EA61C083E08093B5
:101FF000B90310922303CFCF80912303803208F0DE
:1020000051C0E091230381E08E0F809323038091E0
:10201000BB00F0E0ED5FFC4F8083BDCF85EC80938B
:10202000BC001092B90380912303803230F4E09118
:102030002303F0E0ED5FFC4F10826091230370E01A
:10204000E0912503F091260383E093E00995109237
:10205000230336C084E08093B903109202031092E8
:102060000103E0912703F091280309958091010372
:10207000811105C081E0809301031092E102E0919B
:10208000020381E08E0F80930203F0E0EF51FD4FD9
:1020900080818093BB009091020380910103981787
:1020A00008F479CF85E88093BC000AC085EC809362
:1020B000BC001092B90304C0109297030E940B0F4A
:1020C000FF91EF91BF91AF919F918F917F916F9110
:1020D0005F914F913F912F910F900FBE0F901F90E6
:1020E000189540910103262F30E0240F311D213235
:1020F0003105DCF42091B9032430C9F4FC0180E0FF
:1021000090E0861758F4309101032191DC01AF5122
:10211000BD4FA30FB11D2C930196F3CF8091010306
:10212000680F6093010380E0089581E0089582E0E4
:102130000895089508950895E0914E0380914D0308
:10214000E81730F4F0E0E756FC4F808190E0089506
:102150008FEF9FEF089590914E0380914D03981754
:1021600050F4E92FF0E0E756FC4F208130E09F5F0C
:1021700090934E0302C02FEF3FEFC9010895809165
:102180004D0390E020914E03821B9109089508951C
:10219000CF92DF92EF92FF920F931F93CF93DF9333
:1021A0007C01CB018A0120914F03222389F0EB01AE
:1021B0006B01C40ED51ECC15DD0569F06991D70100
:1021C000ED91FC910190F081E02DC7010995F3CFCD
:1021D000642F0E947110C801DF91CF911F910F9160
:1021E000FF90EF90DF90CF900895CF93DF931F92F1
:1021F000CDB7DEB7698320914F032223D1F0209120
:102200007203203240F021E030E0FC01338322836E
:1022100080E090E015C080915003E82FF0E0EF5A85
:10222000FC4F998190838F5F80935003809372035A
:1022300005C061E0CE0101960E94711081E090E03E
:102240000F90DF91CF9108950E94C723809145039D
:1022500081110DC082E08093410384E080934203AA
:10226000109244031092430381E08093450381E47C
:1022700093E00895362F90E0FC01EE5DF64F449117
:10228000FC01ED5FF64F2491FC01EC51F74F849176
:10229000882309F452C04423E1F150E0FA01319758
:1022A000EF30F105B0F5EA5AFF4F0C94D42090912D
:1022B00080009F7707C0909180009F7D03C0909120
:1022C0008000977F9093800024C094B59F7702C0D0
:1022D00094B59F7D94BD1DC0909190009F7707C0DD
:1022E000909190009F7D03C090919000977F909374
:1022F00090000FC09091C0009F7703C09091C000E4
:102300009F7D9093C00005C09091C200977F9093ED
:10231000C200E82FF0E0EE0FFF1FE853F74FA59142
:10232000B4919FB7F894311104C08C912095282363
:1023300002C0EC912E2B2C939FBF08953FB7F894C9
:1023400080913D0390913E03A0913F03B0914003E3
:1023500026B5A89B05C02F3F19F00196A11DB11D00
:102360003FBFBA2FA92F982F8827820F911DA11D3B
:10237000B11DBC01CD0142E0660F771F881F991F78
:102380004A95D1F708958F929F92AF92BF92CF92C4
:10239000DF92EF92FF926B017C010E949E114B0134
:1023A0005C01C114D104E104F104F1F00E949E111A
:1023B000DC01CB0188199909AA09BB09883E934021
:1023C000A105B10570F321E0C21AD108E108F108B6
:1023D00088EE880E83E0981EA11CB11CC114D104A4
:1023E000E104F10419F7DDCFFF90EF90DF90CF907B
:1023F000BF90AF909F908F9008952FB7F894609101
:10240000390370913A0380913B0390913C032FBFB5
:1024100008951F920F920FB60F9211242F933F939E
:102420008F939F93AF93BF938091390390913A0319
:10243000A0913B03B0913C033091380323E0230F7C
:102440002D3720F40196A11DB11D05C026E8230FEC
:102450000296A11DB11D20933803809339039093F8
:102460003A03A0933B03B0933C0380913D039091CA
:102470003E03A0913F03B09140030196A11DB11D01
:1024800080933D0390933E03A0933F03B09340039A
:10249000BF91AF919F918F913F912F910F900FBE60
:1024A0000F901F9018951F920F920FB60F92112444
:1024B0002F933F934F935F936F937F938F939F934C
:1024C000AF93BF93EF93FF93E0910C01F0910D0157
:1024D0000995FF91EF91BF91AF919F918F917F915E
:1024E0006F915F914F913F912F910F900FBE0F9081
:1024F0001F9018951F920F920FB60F9211242F93D1
:102500003F934F935F936F937F938F939F93AF937B
:10251000BF93EF93FF93E0910A01F0910B010995AE
:10252000FF91EF91BF91AF919F918F917F916F91AB
:102530005F914F913F912F910F900FBE0F901F9081
:1025400018951F920F920FB60F9211242F933F935D
:102550004F935F936F937F938F939F93AF93BF93AB
:10256000EF93FF93E0910801F09109010995FF9124
:10257000EF91BF91AF919F918F917F916F915F91FB
:102580004F913F912F910F900FBE0F901F90189574
:102590001F920F920FB60F9211242F933F934F93D8
:1025A0005F936F937F938F939F93AF93BF93EF93BB
:1025B000FF93E0910601F09107010995FF91EF91DA
:1025C000BF91AF919F918F917F916F915F914F914B
:1025D0003F912F910F900FBE0F901F9018951F9253
:1025E0000F920FB60F9211242F933F934F935F9347
:1025F0006F937F938F939F93AF93BF93EF93FF93CB
:10260000E0910401F09105010995FF91EF91BF91CF
:10261000AF919F918F917F916F915F914F913F917A
:102620002F910F900FBE0F901F901895FC01DB01AA
:102630009C919150492F4F3FC1F0242F30E0DF0192
:10264000A20FB31F8C918E3771F04150F4CF492FF8
:1026500050E0DF01A40FB51F8C918E3719F4291BB0
:102660002C93292F91509F3F91F70895009769F07F
:10267000FC0101900020E9F73197AF01481B590B8D
:10268000BC0188E694E00C94E20680E090E00895B6
:10269000CF93DF930E943613EC0182E692E00E9412
:1026A00036138C0F9D1FDF91CF9108958F929F92CB
:1026B000AF92BF92CF92DF92EF92FF920F931F9350
:1026C000CF93DF93F82ED62F613208F0BBC00E9463
:1026D0009E114B015C01C091B903CC2331F1809173
:1026E000BB039091BC03A091BD03B091BE03892BA5
:1026F0008A2B8B2B81F30E949E110091BB031091BA
:10270000BC032091BD033091BE03DC01CB018819CD
:102710009909AA09BB09081719072A073B07D8F620
:102720008091BA030E94EA0E8DC081E08093B903C4
:10273000809398039FEF90939703109296039D0FB9
:102740009093950380939403909194038F2D880F19
:10275000892B8093940380919303813089F51092A3
:1027600093030E949E116B017C01809194038093DE
:10277000BB008091BB039091BC03A091BD03B091BD
:10278000BE03892B8A2B8B2BA9F00E949E1180906F
:10279000BB039090BC03A090BD03B090BE03DC01CE
:1027A000CB018C199D09AE09BF0988169906AA06A6
:1027B000BB0690F18091BC0083FDD7CF85EC01C0B2
:1027C00085EE8093BC000E949E116B017C0180917C
:1027D000B903813031F58091BB039091BC03A09186
:1027E000BD03B091BE03892B8A2B8B2B81F30E94F2
:1027F0009E118090BB039090BC03A090BD03B0904D
:10280000BE03DC01CB018C199D09AE09BF098816F6
:102810009906AA06BB06D8F68091BA030E94EA0E72
:1028200012C0809196038D1710F4D0919603E3E7C0
:10283000F3E0A9E9B3E0C0E0CD1729F081918D93D1
:10284000CF5FFACFC0E08C2FDF91CF911F910F9116
:10285000FF90EF90DF90CF90BF90AF909F908F90C0
:1028600008958F929F92AF92BF92CF92DF92EF9294
:10287000FF920F931F93CF93DF9310917203113246
:1028800008F0C2C0D09171030E949E116B017C01BF
:10289000C091B903CC2311F18091BB039091BC038B
:1028A000A091BD03B091BE03892B8A2B8B2B81F3A2
:1028B0000E949E118090BB039090BC03A090BD032A
:1028C000B090BE03DC01CB018C199D09AE09BF0994
:1028D00088169906AA06BB06D8F682C082E08093C5
:1028E000B90381E0809398038FEF80939703109250
:1028F000960310939503A1E5B3E0E3E7F3E080E0EE
:10290000181721F09D9191938F5FFACF1092940345
:10291000909194038D2F880F892B8093940380913D
:102920009303813089F5109293030E949E116B01ED
:102930007C01809194038093BB008091BB039091B4
:10294000BC03A091BD03B091BE03892B8A2B8B2BB6
:10295000A9F00E949E110091BB031091BC0320912D
:10296000BD033091BE03DC01CB018C199D09AE097A
:10297000BF09081719072A073B0790F18091BC008F
:1029800083FDD7CF85EC01C085EE8093BC000E940B
:102990009E116B017C018091B903823039F58091E1
:1029A000BB039091BC03A091BD03B091BE03892BE2
:1029B0008A2B8B2B81F30E949E110091BB031091F7
:1029C000BC032091BD033091BE03DC01CB018C1907
:1029D0009D09AE09BF09081719072A073B07D8F652
:1029E0008091BA030E94EA0EC5E013C0809197035C
:1029F0008F3F79F080919703803241F08091970367
:102A0000803331F0C4E005C0C1E003C0C2E001C0C2
:102A1000C3E0109250031092720310924F038C2F58
:102A2000DF91CF911F910F91FF90EF90DF90CF90AA
:102A3000BF90AF909F908F9008954F925F926F924A
:102A40007F928F929F92AF92BF92DF92EF92FF920E
:102A50000F931F93CF93DF93182FD62E7A01E9019E
:102A60000E94FD114B015C0101E000934F031093A4
:102A7000710310925003109272036D2D8FEB93E04F
:102A80000E94F5100E94311400934F0310925003DE
:102A90001092720362E0812F0E94561310924E032F
:102AA00080934D0310E02E01612C712CDD24D39412
:102AB00090914D0380914E03981739F1111125C063
:102AC0002097B1F48FEB93E0002331F00E94AB101C
:102AD000F701108281830AC00E94AB10F7012081A8
:102AE0003181822B932B9183808311E00D25E0CFE0
:102AF0000E94FD11DC01CB0188199909AA09BB09C3
:102B000084159505A605B705E8F20E9431142097B3
:102B100099F00E94FD11AB01BC01481959096A09DD
:102B20007B09CE01A0E0B0E0481759076A077B0790
:102B300018F0111101C01FEF812FDF91CF911F916C
:102B40000F91FF90EF90DF90BF90AF909F908F908C
:102B50007F906F905F904F90089521E042E06AE689
:102B6000809116070C94180CCF93DF93EA0191E043
:102B700090934F038093710310925003109272034D
:102B80008FEB93E00E94F51069818FEB93E00E9438
:102B9000F51068818FEB93E00E94F5100E943114CC
:102BA00091E0811190E0892FDF91CF9108950F93EB
:102BB0001F93CF93DF931F92CDB7DEB708EE13E0DC
:102BC0009E012F5F3F4F41E065E7809116070E940D
:102BD000070B882339F089818E7790E0959587954A
:102BE00080931707809117070F90DF91CF911F9166
:102BF0000F9108952F923F924F925F926F927F9222
:102C00008F929F92AF92BF92CF92DF92EF92FF92FC
:102C10000F931F93CF93DF93CDB7DEB7AF970FB668
:102C2000F894DEBF0FBECDBF898F4CA35DA36EA30A
:102C30007FA308A719A72AA73BA78B3309F05DC27A
:102C40000E94D715883308F45AC217E703E06EE3F1
:102C500088E694E00E946D06CE010D969E8B8D8BCA
:102C6000DE0111967D015C01912E28EE33E0AE016C
:102C70004D5E5F4F692D809116070E941D15CB8810
:102C8000DC88B6010D2C000C880B990B0E94842166
:102C9000133191F0F1E0CF22DD24D501CD92DC9209
:102CA00020E030E040E051E40E943922F7016083E7
:102CB0007183828393830CC020E030E040E850E4CD
:102CC0000E943922D7016D937D938D939C93139726
:102CD000900EB2E0AB0EB11CE4E0EE0EF11C8D895B
:102CE0009E89E816F90609F6998D9B3329F48DEC37
:102CF0009CECACE4BDE304C080E090E0A0E8BFE35E
:102D00008CA79DA7AEA7BFA7A6E0B0E0BBA3AAA3D0
:102D10001D8E1C8E212C312CFE013196FB8FEA8FEB
:102D2000CE010D9698A38F8F1E8F998D99A3412C5C
:102D3000512C3201188E1F8A28EE33E0AE014D5E11
:102D40005F4F69A1809116070E941D156B897C89D0
:102D5000072E000C880B990B0E9484216B017C01CB
:102D6000A98DAB3361F4EF89F88D329741F420E0FF
:102D700030E040E856E40E94DA206B017C01460115
:102D80005701B7FAB094B7F8B094C301B2010E94EA
:102D900082212B013C0120E030E0A901C701B601EE
:102DA0000E94342218162CF0782D692D9A2D8B2D27
:102DB00004C07C2D6D2D9E2D8F2D272F362F492F52
:102DC000582FC301B2010E94DB200E9453212B0126
:102DD0003C012CA13DA14EA15FA1C501B4010E94FF
:102DE00039226B017C012FE632E143E85AE3C50149
:102DF000B4010E94392228A539A54AA55BA50E94E5
:102E00003922AA8DBB8D2D913D914D915C910E94EF
:102E1000DB209B01AC01EA8DFB8D61937193819363
:102E20009193FB8FEA8FC701B601133141F10E94E4
:102E3000DB2020E030E040E05EE30E9439226B01BD
:102E40007C0120E030E0A9010E94342220E030E043
:102E500040E05FE387FD05C0C701B6010E94DB20AB
:102E600004C0C701B6010E94DA200E944C216E7F87
:102E7000AF8DB8A18D919C91682B792B20C00E94B9
:102E8000DB2020E030E040E85EE30E9439226B0165
:102E90007C0120E030E0A9010E94342220E030E0F3
:102EA00040E05FE387FD05C0C701B6010E94DB205B
:102EB00004C0C701B6010E94DA200E944C217C8B1D
:102EC0006B8BAE014D5E5F4F6E8D809116070E9439
:102ED000B415EF89F88D3196F88FEF8BF9A1FE5F6D
:102EE000F9A32E8D200F2E8F8F8D98A1029698A377
:102EF0008F8FAF89B88D139709F01ECFB3E62B16CD
:102F0000310471F4E9EE4E16E3E05E0661047104EB
:102F100038F06AE288E694E00E946D06212C312C9C
:102F2000C301B2010E9482212CA53DA54EA55FA53B
:102F30000E94392220E030E040EA50E40E9447211C
:102F400087FF05C08C8D9D8D01969D8F8C8F94E69B
:102F5000491651046104710488F5ABE02A16310466
:102F60006CF1EC8DFD8D3A974CF16EE288E694E0C1
:102F70000E946D0620E030E040E45FE36CA17DA19B
:102F80008EA19FA10E9439226CA37DA38EA39FA333
:102F900020E030E040E45FE368A579A58AA59BA521
:102FA0000E94392268A779A78AA79BA7CE0101961C
:102FB0007C01DE011D966D01B12E49C061E070E01B
:102FC00080E090E00E94C311BFEF2B1A3B0AE4E6B9
:102FD0002E16310409F0A0CEC8CF20E030E040E04A
:102FE0005EE3D7016D917D918D919C910E94392274
:102FF0002B013C0120E030E0A9010E94342220E0B6
:1030000030E040E05FE387FD25C0C301B2010E94CC
:10301000DB200E944C216E7FF60180819181682B1C
:10302000792B7C8B6B8BAE014D5E5F4F6B2D80914E
:1030300016070E94B415B00EB2E0CB0ED11CE4E02E
:10304000EE0EF11C8D899E898E159F0561F113315D
:1030500021F605C0C301B2010E94DA20DACF20E0D8
:1030600030E040E85EE3D7016D917D918D919C91B8
:103070000E9439222B013C0120E030E0A9010E948E
:10308000342220E030E040E05FE387FD05C0C3016B
:10309000B2010E94DB2004C0C301B2010E94DA2009
:1030A0000E944C21BECFAAA1BBA11197BBA3AAA38A
:1030B000AB2B09F02DCE0E94AD1521E043E06AE66E
:1030C000809116070E94180CAF960FB6F894DEBFD9
:1030D0000FBECDBFDF91CF911F910F91FF90EF9069
:1030E000DF90CF90BF90AF909F908F907F906F9028
:1030F0005F904F903F902F90089513E101C016E02C
:1031000002E0A5CD2F923F924F925F926F927F92F5
:103110008F929F92AF92BF92CF92DF92EF92FF92E7
:103120000F931F93CF93DF933C015B01342E522EFC
:10313000202E4F716DE6809116070E94F70A452DEB
:103140006EE6809116070E94F70A80E190E00E94E7
:10315000A6226C01002331F080E190E00E94A622BB
:103160007C0102C0E12CF12CC0E0D0E0CA15DB05E7
:1031700008F072C0CE014096A816B90618F44A2C81
:103180004C1A02C080E1482E842D90E020E031E00E
:10319000251931092817390714F4452C41942220A8
:1031A00071F0D70180E090E0841560F4FE01E80F33
:1031B000F91FE60DF71DE491ED930196F5CF73012C
:1031C000EC0EFD1E9701442D6FE6809116070E94BC
:1031D000B60A842C912CC114D10431F1432D4F71C6
:1031E0006DE6809116070E94F70A452D6EE68091E4
:1031F00016070E94F70A08EE13E09601442D6FE6C9
:10320000809116070E94070BA401B601C7010E9416
:10321000CC23892B49F0C6010E943E23222029F1AC
:10322000C7010E943E2321C0C80DD91D540CCA15E8
:10323000DB0508F09BCF511001C03394432D4F7133
:103240006DE6809116070E94F70A452D6EE6809183
:1032500016070E94F70A8ACFC6010E943E23222049
:1032600031F0C7010E943E2302C080E001C081E02E
:10327000DF91CF911F910F91FF90EF90DF90CF9052
:10328000BF90AF909F908F907F906F905F904F9086
:103290003F902F900895CF93DF93CDB7DEB7C05402
:1032A000D1090FB6F894DEBF0FBECDBF789484B5B8
:1032B000826084BD84B5816084BD85B5826085BD32
:1032C00085B5816085BD80916E00816080936E00C0
:1032D00010928100809181008260809381008091B2
:1032E0008100816080938100809180008160809363
:1032F0008000809191008260809391008091910084
:103300008160809391008091900081608093900013
:103310008091C10084608093C1008091C10082606F
:103320008093C1008091C10081608093C100809131
:10333000C30081608093C3008091C000826080934D
:10334000C0008091C20081608093C20080917A00A9
:10335000846080937A0080917A00826080937A0002
:1033600080917A00816080937A0080917A008068F1
:1033700080937A001092E00210922A03109229039F
:103380008091D70081608093D70080EA8093D80035
:1033900089B5806189BD89B5826089BD09B400FEA7
:1033A000FDCF61E070E080E090E00E94C311809169
:1033B000D8008F7C80618093D8008091E000807F6E
:1033C0008093E0008091E1008E7E8093E1008DE0AB
:1033D0008093E200559A209A109115016AE070E0FE
:1033E00080E090E00E94C3111123B1F38FEF9FEFB3
:1033F000909375048093740485E292E00E944813D0
:1034000064E670E080E090E00E94C3111092370300
:103410008BE292E00E9448138091370381110BC028
:1034200088E694E00E94900791E0833609F090E0EE
:1034300090933703F1CF8BE492E00E9448134DEF55
:10344000E42EFF24FA940FEC1FEF26E330E04DE961
:1034500056E065EC7EEF83EE9EEF0E94690C85E5F9
:1034600092E00E9448138CE291E0909332038093A3
:10347000310390932C0380932B03E091DB03F091B5
:10348000DC0382E08083E091D703F091D8031082BF
:10349000E091D903F091DA0380E180831092E30395
:1034A000E091DF03F091E00386E08083E091DD03AB
:1034B000F091DE03808180618083E091DD03F091F3
:1034C000DE03808188608083E091DD03F091DE037C
:1034D000808180688083E091DD03F091DE0380814C
:1034E0008F7D80838BEC93E0909315078093140776
:1034F00088E694E090930B0780930A0781E080931D
:103500000C07E9E0F9E02491EAEEF8E084918823E1
:1035100099F090E0880F991FFC01EA52F74FA591AE
:10352000B491FC01E853F74F859194918FB7F894CB
:10353000EC91E22BEC938FBF80912907882309F44B
:1035400012C280902707909028070E949E112B019D
:103550003C016401DD240E949B0E8C01C816D90633
:10356000E4F5893C91056CF10E94AD150E949B0E1B
:103570008C01892BB1F50E949E11DC01CB018419CD
:103580009509A609B709893F9A42A105B10570F3CB
:10359000E1C1570131E2E316F1041CF090E2A92EDB
:1035A000B12CAA20C1F008EE13E09E012F5F3F4F1F
:1035B0004A2D64E7809116070E94070BEA18FB0862
:1035C00041F70E949B0E8C01C816D90634F47C0189
:1035D000EC18FD08DECF1982F1CF0115110509F4B1
:1035E000B9C10E949E11DC01CB0184199509A6097D
:1035F000B709893F9A42A105B10508F0ABC1C016D1
:10360000D10609F0A8CF882059F008EE13E02FE288
:1036100037E0482D64E7809116070E94070B02C02F
:1036200010922F072FE237E02115310509F061C212
:10363000E0912507F0912607E480F580FE24EF2431
:10364000FE24A084B184BA24AB24BA240485158551
:103650001027012710276081718176276727762739
:10366000072E000C880B990B0E94842120E030E08B
:1036700040E858E30E9439222B013C0160937B070C
:1036800070937C0780937D0790937E07B701FF0CB2
:10369000880B990B0E94842120E030E040E858E339
:1036A0000E9439226B017C0160937F077093800731
:1036B0008093810790938207B501BB0C880B990B0F
:1036C0000E94842120E030E040E858E30E94392243
:1036D0006BAB7CAB8DAB9EAB609383077093840721
:1036E0008093850790938607B801110F880B990B7B
:1036F0000E94842120E030E040E858E30E94392213
:103700006FAB78AF89AF9AAF6093870770938807E4
:103710008093890790938A072FE237E0232B09F0E3
:10372000E5C1E0912507F0912607048D158D10273E
:1037300001271027109398070093970760A171A1A4
:10374000962F872F9CAF8BAF90939A078093990702
:1037500064A175A1362E272E30929C0720929B07DC
:103760002FA938AD49AD5AADC701B6010E94392223
:103770004B015C012BA93CA94DA95EA9C301B20173
:103780000E9439229B01AC01C501B4010E94DA20DC
:103790009B01AC010E94DB2021966CAF7DAF8EAF08
:1037A0009FAF219760936F077093700780937107A5
:1037B00090937207A7019601C301B2010E943922BA
:1037C0004B015C012FA938AD49AD5AAD6BA97CA95D
:1037D0008DA99EA90E9439229B01AC01C501B401AB
:1037E0000E94DB209B01AC010E94DB204B015C01AD
:1037F00060937307709374078093750790937607AF
:10380000A3019201C301B2010E9439222B013C01A4
:10381000A7019601C701B6010E9439229B01AC01A4
:10382000C301B2010E94DA206B017C012BA93CA9E3
:103830004DA95EA9CA01B9010E9439229B01AC01C0
:10384000C701B6010E94DA206B017C012FA938ADB7
:1038500049AD5AADCA01B9010E9439229B01AC01A0
:10386000C701B6010E94DB206B017C0160937707E2
:10387000709378078093790790937A07B801110FB6
:10388000880B990B0E9484212B013C0120E030E041
:1038900040E056E421966CAD7DAD8EAD9FAD219795
:1038A0000E9439229B01AC01C301B2010E94DA20BF
:1038B0000E944C2170939E0760939D07ABADBCADF9
:1038C000BD01BB0F880B990B0E9484212B013C0189
:1038D00020E030E040E056E4C501B4010E94392206
:1038E0009B01AC01C301B2010E94DA200E944C216D
:1038F0007093A00760939F07B101330C880B990B5D
:103900000E9484214B015C0120E030E040E056E45D
:10391000C701B6010E9439229B01AC01C501B40167
:103920000E94DA200E944C217093A2076093A107A5
:1039300086E0EDE9F7E0DE01919601900D928A951F
:10394000E1F786E0FE01B196DE01979601900D92B7
:103950008A95E1F786E0FE01B796DE019D9601901B
:103960000D928A95E1F786E0FE01BD96ABEFB4E0DB
:1039700001900D928A95E1F7ABEFB4E001E015E01C
:10398000F8018D91819325E0E730F207D1F73FEF01
:1039900030931007E1E0F5E080E091919E3719F453
:1039A0008093100703C08F5F8630B9F786E0898364
:1039B000BE016F5F7F4F81E095E00E94161320915A
:1039C000BC043091BD0480E0D8019D918D01892710
:1039D000F901E80FF11D8081B5E007301B07A1F761
:1039E0001092FE06909110079093FF06E6E0E09398
:1039F0000007809301078091140790911507DC015F
:103A0000ED91FC910280F381E02D44E050E06DEFF8
:103A100076E009958091140790911507DC01ED91EE
:103A2000FC910280F381E02D46E050E061E075E01A
:103A300009958091140790911507DC01ED91FC9197
:103A40000280F381E02D42E050E061E077E00995EB
:103A500061E086E00E943A1164EF71E080E090E05E
:103A60000E94C31160E086E00E943A1188E694E06B
:103A70000E9490078237B9F5109237038BE292E0EB
:103A80000E9448138091370381110BC088E694E0AF
:103A90000E94900791E0833609F090E090933703FD
:103AA000F1CF8BE492E00E94481385EEE82EFF24CC
:103AB000FA940EEC1FEF25E330E042E856E06AEDA1
:103AC0007EEF80E49FEF0E94690C85E592E00E9402
:103AD0004813ECE2F1E0F0933203E0933103F0930A
:103AE0002C03E0932B030E94630626CDEFE2F7E060
:103AF0001CCEF901A1CD6F927F928F929F92AF92CF
:103B0000BF92CF92DF92EF92FF920F931F93CF93CA
:103B1000DF93CDB7DEB7AE970FB6F894DEBF0FBE1A
:103B2000CDBFEEEBF4E01192B4E0E23DFB07D9F734
:103B30001092D5041092D6048091D5049091D604A9
:103B400082E1E0ECF4E0DF011D928A95E9F781E083
:103B50008093D2048091D304882309F433C185E68D
:103B600092E00E9436138091CB029091CC02A091FA
:103B7000CD028CA79DA7AEA78091CE029091CF02D7
:103B8000A091D00289A79AA7ABA785E00E94D20E88
:103B90008E01045D1F4F811103C0C8010E94C50E34
:103BA00089E00E94D20E9E01275D3F4F790181116D
:103BB00003C0C9010E94C50EFF92EF928091C70415
:103BC0008F938091C6048F938091C5048F938091C9
:103BD000C4048F931F930F938091C2041F928F93FD
:103BE00084E792E09F938F938E010F5F1F4F1F9387
:103BF0000F930E94D923C8010E9436138DE00E94C2
:103C0000D20E0FB6F894DEBF0FBECDBF882319F0D9
:103C1000BCE3FB2E02C0AFE5FA2E8BE00E94D20E71
:103C2000882319F0FEE5EF2E02C0EFE5EE2E8CE0C2
:103C30000E94D20E882319F076E7D72E02C06FE5D6
:103C4000D62E8EE00E94D20E882319F05EE3C52E98
:103C500002C04FE5C42E81E00E94D20E882319F0E5
:103C600031E4932E02C02FE5922E82E00E94D20E04
:103C7000882319F092E4892E02C08FE5882E83E014
:103C80000E94D20E882319F0B8E57B2E02C0AFE562
:103C90007A2E84E00E94D20E882319F0F9E56F2E67
:103CA00002C0EFE56E2E88E00E94D20E882319F044
:103CB0007EE3A72E02C06FE5A62E87E00E94D20EFB
:103CC000882319F05CE3B52E02C04FE5B42E80E0E6
:103CD0000E94D20E882311F088E501C08FE51F9263
:103CE0006F921F927F921F928F921F929F921F92AC
:103CF000AF921F928F931F92BF921F92CF921F92EB
:103D0000DF921F92EF921F92FF9280E992E09F93C1
:103D10008F931F930F930E94D923C8010E943613DB
:103D20008091D1029091D202A091D3028EA39FA341
:103D3000A8A78091D4029091D502A091D6028BA31E
:103D40009CA3ADA386E00E94D20E0FB6F894DEBF0E
:103D50000FBECDBFDE0196966D01811103C0CD016E
:103D60000E94C50E8AE00E94D20E9E012D5D3F4F3B
:103D70007901811103C0C9010E94C50E8091C3045D
:103D80001F928F93DF92CF92FF92EF928091CB049C
:103D90008F938091CA048F938091C9048F938091EF
:103DA000C8048F938FEA92E09F938F931F930F9392
:103DB0000E94D923C8010E9448130FB6F894DEBFB1
:103DC0000FBECDBF1092BE0484E18093BF04109259
:103DD000D4041092D6041092D5041092D8041092F4
:103DE000D7041092DB041092DC041092DD041092D0
:103DF000DE048FEF90E0A0E0B0E08093DF049093CA
:103E0000E004A093E104B093E2041092E304109262
:103E1000E4041092E5041092E6048093E704909382
:103E2000E804A093E904B093EA0440E050E86FEF9F
:103E30007FEF4093EB045093EC046093ED04709398
:103E4000EE048FEF9FE7A0E0B0E08093EF04909343
:103E5000F004A093F104B093F2044093F304509360
:103E6000F4046093F5047093F6048093F704909340
:103E7000F804A093F904B093FA041092DA041092B3
:103E8000D90481E08093D3041092C2031092C1033D
:103E900088EE93E0A0E0B0E08093C3039093C40366
:103EA000A093C503B093C6032BE631E03093C00363
:103EB0002093BF031092CE031092CD038093CF03C3
:103EC0009093D003A093D103B093D2032DE731E0B8
:103ED0003093CC032093CB032DEC30E03093D80308
:103EE0002093D7032CEC30E03093DA032093D903EE
:103EF00028EC30E03093DC032093DB0329EC30E046
:103F00003093DE032093DD032AEC30E03093E003AE
:103F10002093DF032EEC30E03093E2032093E103A3
:103F20001092E4031092E5031092E6031092E70367
:103F300010926B0410926A0480936C0490936D0449
:103F4000A0936E04B0936F048FE891E0909369049E
:103F5000809368048FEF9FEF9093750480937404AF
:103F60008BE98093B80488E08093BB0480E091E003
:103F70009093BA048093B9040E94A6229093BD0442
:103F80008093BC0480E090E02091B9043091BA04A1
:103F900082179307E0F46091B80470E09C0148E058
:103FA00050E0F901EE0FFF1F27FF04C09F012627F5
:103FB000372701C09F014150510999F7E091BC0496
:103FC000F091BD04E80FF91F20830196DDCF109218
:103FD000A9071092AA071092B1071092B207109287
:103FE000B9071092BA071092A3071092A40788E6A7
:103FF000809316071092290710926F07109270078E
:104000001092710710927207109273071092740742
:104010001092750710927607109277071092780722
:104020001092790710927A0780E090E0A0E8BFE351
:1040300080937B0790937C07A0937D07B0937E07C6
:1040400010927F07109280071092810710928207CA
:1040500010928307109284071092850710928607AA
:1040600010928707109288071092890710928A078A
:10407000109298071092970710929A07109299073A
:1040800010929C0710929B0710929E0710929D071A
:104090001092A00710929F071092A2071092A107FA
:1040A0008EE78093FD061092FE061092FF06109296
:1040B00000071092010781E880930207109203071E
:1040C0001092040710920607109205071092080735
:1040D000109207071092090710920C0710920D0713
:1040E00010920E0710920F071092100710921107EE
:1040F00010921207109213071092FC041092FB0406
:104100001092FE041092FD04109200051092FF041C
:10411000AE960FB6F894DEBF0FBECDBFDF91CF9144
:104120001F910F91FF90EF90DF90CF90BF90AF90D5
:104130009F908F907F906F9008952F923F924F9213
:104140005F926F927F928F929F92AF92BF92CF9227
:10415000DF92EF92FF920F931F93CF93DF93CDB730
:10416000DEB7CA1BDB0B0FB6F894DEBF0FBECDBFA8
:1041700009942A88398848885F846E847D848C8479
:104180009B84AA84B984C884DF80EE80FD800C8182
:104190001B81AA81B981CE0FD11D0FB6F894DEBF65
:1041A0000FBECDBFED010895EE0FFF1F0590F491F6
:1041B000E02D09945058BB27AA270E94F2200C94A6
:1041C000FA210E94EC2138F00E94F32120F039F40A
:1041D0009F3F19F426F40C94E9210EF4E095E7FBD7
:1041E0000C94E321E92F0E940B2258F3BA176207BF
:1041F00073078407950720F079F4A6F50C942D2217
:104200000EF4E0950B2EBA2FA02D0B01B9019001F1
:104210000C01CA01A0011124FF27591B99F0593F35
:1042200050F4503E68F11A16F040A22F232F342F7D
:104230004427585FF3CF469537952795A795F040CB
:104240005395C9F77EF41F16BA0B620B730B840BE0
:10425000BAF09150A1F0FF0FBB1F661F771F881F98
:10426000C2F70EC0BA0F621F731F841F48F48795F0
:1042700077956795B795F7959E3F08F0B0CF9395E2
:10428000880F08F09927EE0F9795879508950E945B
:10429000BF2108F481E008950E9453216894B11170
:1042A0000C942E2208950E94132288F09F5798F0B4
:1042B000B92F9927B751B0F0E1F0660F771F881F2B
:1042C000991F1AF0BA95C9F714C0B13091F00E9445
:1042D0002D22B1E008950C942D22672F782F882786
:1042E000B85F39F0B93FCCF3869577956795B3956C
:1042F000D9F73EF490958095709561957F4F8F4FDB
:104300009F4F0895E89409C097FB3EF490958095DF
:10431000709561957F4F8F4F9F4F9923A9F0F92F8B
:1043200096E9BB279395F695879577956795B79509
:10433000F111F8CFFAF4BB0F11F460FF1BC06F5FEF
:104340007F4F8F4F9F4F16C0882311F096E911C001
:10435000772321F09EE8872F762F05C0662371F022
:1043600096E8862F70E060E02AF09A95660F771F36
:10437000881FDAF7880F9695879597F90895990F12
:104380000008550FAA0BE0E8FEEF16161706E8071F
:10439000F907C0F012161306E407F50798F0621B40
:1043A000730B840B950B39F40A2661F0232B242B15
:1043B000252B21F408950A2609F4A140A6958FEF34
:1043C000811D811D089597F99F6780E870E060E086
:1043D00008959FEF80EC089500240A94161617069E
:1043E00018060906089500240A94121613061406E6
:1043F00005060895092E0394000C11F4882352F049
:10440000BB0F40F4BF2B11F460FF04C06F5F7F4F00
:104410008F4F9F4F089557FD9058440F551F59F0E7
:104420005F3F71F04795880F97FB991F61F09F3FA1
:1044300079F087950895121613061406551FF2CFCA
:104440004695F1DF08C0161617061806991FF1CF1A
:1044500086957105610508940895E894BB27662741
:104460007727CB0197F908950E94BF2108F48FEFB9
:1044700008950E944C220C94FA210E94EC2138F0FD
:104480000E94F32120F0952311F00C94E3210C9469
:10449000E92111240C942E220E940B2270F3959F87
:1044A000C1F3950F50E0551F629FF001729FBB272B
:1044B000F00DB11D639FAA27F00DB11DAA1F649FC7
:1044C0006627B00DA11D661F829F2227B00DA11D7A
:1044D000621F739FB00DA11D621F839FA00D611D00
:1044E000221F749F3327A00D611D231F849F600D21
:1044F000211D822F762F6A2F11249F5750409AF04A
:10450000F1F088234AF0EE0FFF1FBB1F661F771FD5
:10451000881F91505040A9F79E3F510580F00C94A0
:10452000E3210C942E225F3FE4F3983ED4F386956A
:1045300077956795B795F795E7959F5FC1F7FE2B40
:10454000880F911D9695879597F908950F931F935E
:10455000CF93DF938230910510F482E090E0E091F8
:10456000C707F091C80720E030E0A0E0B0E0309746
:1045700019F1408151810281138148175907C8F010
:104580008417950769F4109731F012960C931297DF
:1045900013961C9327C00093C7071093C80722C027
:1045A0002115310519F04217530718F49A01BD017E
:1045B000EF01DF01F801DBCF21153105F9F0281BF0
:1045C000390B2430310580F48A819B816115710596
:1045D00021F0FB019383828304C09093C8078093EA
:1045E000C707FE01329644C0FE01E20FF31F81931C
:1045F000919322503109398328833AC02091C5070D
:104600003091C607232B41F42091180130911901F4
:104610003093C6072093C5072091160130911701EA
:104620002115310541F42DB73EB740911A01509143
:104630001B01241B350BE091C507F091C607E2175B
:10464000F307A0F42E1B3F0B2817390778F0AC01B5
:104650004E5F5F4F2417350748F04E0F5F1F509392
:10466000C6074093C5078193919302C0E0E0F0E054
:10467000CF01DF91CF911F910F910895CF93DF93D9
:10468000009709F481C0FC01329713821282A09135
:10469000C707B091C807109781F420813181820F3C
:1046A000931F2091C5073091C6072817390751F588
:1046B000F093C607E093C50767C0ED0120E030E046
:1046C000CE17DF0740F44A815B819E0141155105F9
:1046D000F1F0EA01F5CFD383C28340815181840F89
:1046E000951FC817D90759F488819981840F951FA0
:1046F0000296918380838A819B8193838283211593
:10470000310529F4F093C807E093C7073DC0E901DC
:10471000FB83EA8349915991C40FD51FEC17FD071C
:1047200061F480819181840F951F0296E90199833C
:104730008883828193819B838A83E0E0F0E01296F4
:104740008D919C911397009719F0FD01DC01F7CF33
:104750008D919C9111979D012E5F3F4F820F931F6A
:104760002091C5073091C6072817390769F430979B
:1047700029F41092C8071092C70702C01382128250
:10478000B093C607A093C507DF91CF91089581E04C
:1047900090E0F8940C948C26FB01DC0104C08D9110
:1047A0000190801921F441505040C8F7881B990BA3
:1047B0000895AEE0B0E0EFEDF3E20C94AB200D898C
:1047C0001E8986E08C831A8309838FEF9FE79E837F
:1047D0008D83AE01475E5F4F6F89788DCE01019664
:1047E0000E94FB23EF81F885E00FF11F10822E96C7
:1047F000E4E00C94C720ABE0B0E0E1E0F4E20C941C
:104800009D206C017B018A01FC0117821682838145
:1048100081FFCCC1CE0101963C01F6019381F701E5
:1048200093FD859193FF81917F01882309F4BAC19B
:10483000853239F493FD859193FF81917F01853213
:1048400029F4B60190E00E94F225E7CF912C212CAB
:10485000312CFFE1F315D8F08B3279F038F4803247
:1048600079F08332A1F4232D20611DC08D3261F0D7
:10487000803369F4232D216016C0832D8260382E89
:10488000E32DE4603E2E2AC0F32DF8601DC037FCF6
:104890002DC020ED280F2A3040F08E32B9F436FCBE
:1048A00081C1232D2064322E19C036FE06C08AE055
:1048B000989E200D1124922E11C0EAE02E9E200D0C
:1048C0001124222EF32DF0623F2E08C08C3621F4E5
:1048D000832D8068382E02C0883641F4F70193FD9D
:1048E000859193FF81917F018111B3CF982F9F7D97
:1048F0009554933028F40C5F1F4F9FE399830DC0AC
:10490000833631F0833771F0833509F059C021C007
:10491000F801808189830E5F1F4F88248394912C36
:10492000530113C02801F2E04F0E511CF801A08082
:10493000B18036FE03C0692D70E002C06FEF7FEFDB
:10494000C5010E94E7254C018201F32DFF773F2E20
:1049500016C0280122E0420E511CF801A080B1804F
:1049600036FE03C0692D70E002C06FEF7FEFC50116
:104970000E94DC254C01F32DF0683F2E820133FCB0
:104980001BC0822D90E088169906B0F4B60180E233
:1049900090E00E94F2252A94F4CFF50137FC85912E
:1049A00037FE81915F01B60190E00E94F22521104F
:1049B0002A9421E0821A91088114910471F7E8C0C9
:1049C000843611F0893641F5F80137FE07C0608161
:1049D0007181828193810C5F1F4F08C0608171815A
:1049E000072E000C880B990B0E5F1F4FF32DFF76DF
:1049F0003F2E97FF09C090958095709561957F4FE8
:104A00008F4F9F4FF0683F2E2AE030E0A3010E94B5
:104A10002E26882E861845C0853731F4232D2F7E0B
:104A2000B22E2AE030E025C0932D997FB92E8F3623
:104A3000C1F018F4883579F0B5C0803719F088379F
:104A400021F0B0C0E92FE061BE2EB4FE0DC0FB2DF9
:104A5000F460BF2E09C034FE0AC0292F2660B22E92
:104A600006C028E030E005C020E130E002C020E1CF
:104A700032E0F801B7FE07C06081718182819381C5
:104A80000C5F1F4F06C06081718180E090E00E5F77
:104A90001F4FA3010E942E26882E8618FB2DFF771C
:104AA0003F2E36FE0DC0232D2E7FA22E891458F4E2
:104AB00034FE0BC032FC09C0832D8E7EA82E05C0AB
:104AC000B82CA32C03C0B82C01C0B92CA4FE0FC075
:104AD000FE01E80DF11D8081803321F49A2D997E2D
:104AE000A92E09C0A2FE06C0B394B39404C08A2DB7
:104AF000867809F0B394A3FC11C0A0FE06C0B214DE
:104B000088F4280C922C9B180EC0B21460F4B601E5
:104B100080E290E00E94F225B394F7CFB21418F42B
:104B20002B1802C0982C212CA4FE10C0B60180E3E3
:104B300090E00E94F225A2FE17C0A1FC03C088E706
:104B400090E002C088E590E0B6010CC08A2D86781E
:104B500059F0A1FE02C08BE201C080E2A7FC8DE209
:104B6000B60190E00E94F225891438F4B60180E382
:104B700090E00E94F2259A94F7CF8A94F301E80D11
:104B8000F11D8081B60190E00E94F2258110F5CFE1
:104B9000222009F442CEB60180E290E00E94F22584
:104BA0002A94F6CFF6018681978102C08FEF9FEF9E
:104BB0002B96E2E10C94B920FC0105906150704005
:104BC0000110D8F7809590958E0F9F1F0895FC01D6
:104BD0006150704001900110D8F7809590958E0F2C
:104BE0009F1F08950F931F93CF93DF93FB012381A2
:104BF00021FD03C08FEF9FEF2CC022FF16C046811E
:104C00005781248135814217530744F4A081B18133
:104C10009D012F5F3F4F318320838C932681378105
:104C20002F5F3F4F3783268314C08B01EC01FB01BC
:104C30000084F185E02D0995892BE1F6D8011696BF
:104C40008D919C911797019617969C938E9316972A
:104C5000CE01DF91CF911F910F910895FA01AA27FC
:104C6000283051F1203181F1E8946F936E7F6E5FAF
:104C70007F4F8F4F9F4FAF4FB1E03ED0B4E03CD05D
:104C8000670F781F891F9A1FA11D680F791F8A1F40
:104C9000911DA11D6A0F711D811D911DA11D20D0A7
:104CA00009F468943F912AE0269F11243019305D61
:104CB0003193DEF6CF010895462F4770405D419352
:104CC000B3E00FD0C9F7F6CF462F4F70405D4A339F
:104CD00018F0495D31FD4052419302D0A9F7EACF67
:104CE000B4E0A6959795879577956795BA95C9F796
:104CF00000976105710508959B01AC010A2E069489
:104D00005795479537952795BA95C9F7620F731F41
:0C4D1000841F951FA01D0895F894FFCF8C
:104D1C00FFFFFFFFC710C710C710C710C71000E177
:104D2C000000000000000000C907200000C18081C5
:104D3C00000000020802040202020102800240028A
:104D4C00100220030203010380034003200310031D
:104D5C00043F013D013B013901370135013301317C
:104D6C00012F012D012B0129012701250123010010
:104D7C000000002D012B0100000000F510C810A947
:104D8C00069B10BF10AB109C1000000000F50563D3
:104D9C00058D054106BE059C05B005000000006DA3
:104DAC0006E206680783068E0690076C074D505581
:104DBC003630353020636F6E6E656374696F6E20AC
:104DCC007375636365737366756C004D505536303F
:104DDC00353020636F6E6E656374696F6E2066612B
:104DEC00696C656400496E697469616C697A696E95
:104DFC00672049324320646576696365732E2E2ED5
:104E0C000054657374696E67206465766963652008
:104E1C00636F6E6E656374696F6E732E2E2E004514
:104E2C0072726F7220696E697469616C697A696EED
:104E3C006721212100534C41564500576169746923
:104E4C006E6720636F6E6E656374696F6E20776931
:104E5C007468206D616E616765720053657475705E
:104E6C0020494D550053657475702074696D6572D9
:104E7C0073000D0A0058496E707574204465627594
:104E8C00673A20004C543A20253375202573204C6A
:104E9C003A282536642C202536642C2025732900CD
:104EAC00202563256325632563207C2025632563EA
:104EBC002563207C20256325632563256320005210
:104ECC003A282536642C202536642C20257329207D
:104EDC0025732052543A20253375004C42004C3334
:084EEC000052420052330000A5
:00000001FF
