:100000000C94E0060C9467170C9440170C94191785
:100010000C94F2160C9408070C9408070C94CB1659
:100020000C9408070C9408070C948E170C94FD1779
:100030000C9408070C9408070C9408070C94080704
:100040000C9408070C9408070C9408070C940807F4
:100050000C9408070C9408070C9408070C9481165C
:100060000C9408070C9408070C9408070C940807D4
:100070000C9408070C9408070C9408070C940807C4
:100080000C9408070C9408070C9408070C940807B4
:100090000C9462150C9408070C9408070C9408073C
:1000A0000C9408070C9408070C940807084AD73BDF
:1000B0003BCE016E84BCBFFDC12F3D6C74319ABD37
:1000C00056833DDA3D00C77F11BED9E4BB4C3E915B
:1000D0006BAAAABE000000803F00080B00020202CB
:1000E00000000904000001020200000524001001C4
:1000F0000524010101042402060524060001070568
:10010000810310004009040100020A0000000705F5
:1001100002024000000705830240000004030904B6
:1001200012010002EF02014041233680000101026A
:10013000030141726475696E6F204C4C430041723B
:100140006475696E6F204C656F6E6172646F00003C
:1001500000000200090F0000030401000C00000071
:10016000000000000000000000000000000000F897
:10017000F62A3F68F57A0006FFFE000300000065DE
:100180000054FFEF0000FA80000B12820001030C04
:1001900030C30A74562D0D62DBC716F4BA023883D9
:1001A000F8833000F883258EF8833000F883FFFF52
:1001B000FFFF0CBDD811240004001A8279A100367B
:1001C000003C000000000010000038836FA2003ED9
:1001D00003304000000002CAE3093E800000200016
:1001E00000000000000040000000600000001FA4AC
:1001F000E8E4FFF5DCB9005B79CF1F3F7876008635
:100200007C5A00862347FAB986310074878A000039
:10021000000000004305FFFFE9A800002182FAB8B2
:100220004D46FFFADF3DFFFFB2B3000000003FFF85
:10023000BA98005DAC08000A637800014621FFFF10
:100240000000000042B500060064006400061406C9
:10025000029F0F479132D90E9FC91DCF4C343BB638
:100260007AE80064000600C800000000FFFE1000ED
:100270000000000000000000000000000000000777
:100280000000FFF10000FA460000A2B800001000D4
:10029000000004D6000004CC000004CC00000000E4
:1002A0000000000000000000000000000000000648
:1002B00000020005000700000000006400000000CC
:1002C00000000000000C0005006400200000000099
:1002D00000000000000000004000000003000000DB
:1002E0000032F8980000FF650000830F0000000650
:1002F0000000FFF10000FA460000A2B80000000074
:1003000000000000000000000000000000000000ED
:10031000003200000000000000000000100000009B
:1003200000010000000D0000B26A000200000001A0
:10033000FB83007C0000FB15FC001FB4FF83000062
:10034000000100650007006403E800640028000065
:10035000FFFD0000000016A00000000000000000EB
:100360001000002F0000000001F400001000002821
:100370000000FFFF4581FFFFFA720000000000004F
:100380000000004400010005BAC6004778A2000042
:100390000000000000000000060000000014000043
:1003A00023BB002EA25B00000568000BCF490004B0
:1003B000FFFD000200000000000200000000001B22
:1003C00000000000000000000000000000000064C9
:1003D0000007000800060006FFFE00000000000005
:1003E000000000000000000000000000000000000D
:1003F00000000000000000000000000000000000FD
:100400000000000000000000000000000000002EBE
:10041000A25B00000568000BCF490000000000F857
:10042000F62A3F68F57A0004FFFD00020000001B79
:1004300000000000000000000000000E000EFFFFA2
:10044000FFCF0004000000000032FFFFFF9C00000F
:100450004305000000000000000100000064FFE50B
:10046000000000000000000000000000000000008C
:100470000001000000000001000000000000000179
:1004800080000001800000018000002426D30001CC
:10049000000100000000000600100096003C000073
:1004A000000000000000000000001F9E655D0C0AB7
:1004B0004E68CDCF770950166759C619CE82000015
:1004C000000000000000000000000047711C000058
:1004D00000000000000017D7840003000000001196
:1004E000DC4703000000C7938F9D1E1B1C19FFFFF4
:1004F000FFFF000000000EDFA4381F9E655D0000B6
:1005000000000047711C0203188500004000000035
:1005100000000000000300000000000000003FFF9A
:10052000FFFDFFFFF4C9FFFFBCF000010C0F00004E
:1005300000000000000000000000000000000000BB
:100540000000000000000000000000000000F5B7FF
:10055000BAB3677DDF7E72902E554CF6E6880000B8
:100560000000000000000000000000000000D8DCD7
:10057000B4B8B0D8B9ABF3F8FAB3B7BB8E9EAEF14E
:1005800032F51BF1B4B8B08097F1A9DFDFDFAADF45
:10059000DFDFF2AA4CCD6CA90CC92C97F1A98926F2
:1005A0004666B28999A92D557DB0B08AA89636566F
:1005B00076F1BAA3B4B280C0B8A89711B28398BA42
:1005C000A3F0240844106418B2B9B49883F1A329A5
:1005D000557DBAB5B1A38393F0002850F5B2B6AA01
:1005E000839328547CF1B9A3829361BAA2DADEDF47
:1005F000DB819AB9AEF5606870F1DABAA2DFD9BAD8
:10060000A2FAB9A38292DB31BAA2D9BAA2F8DF85E5
:10061000A4D0C1BBAD83C2C5C7B8A2DFDFDFBAA01B
:10062000DFDFDFD8D8F1B8AAB38DB4980D355DB24D
:10063000B6BAAF8C96198F9FA70E161EB49AB8AA99
:10064000872C547CBAA4B08AB691325676B2849480
:10065000A4C808CDD8B8B4B0F19982A82D557D981A
:10066000A80E161EA22C547C92A4F02C5078F18473
:10067000A898C4CDFCD80DDBA8FC2DF3D9BAA6F8F8
:10068000DABAA6DED8BAB2B68696A6D0F3C841DAF0
:10069000A6C8F8D8B0B4B882A892F52C548898F1BE
:1006A00035D9F418D8F1A2D0F8F9A884D9C7DFF861
:1006B000F883C5DADF69DF83C1D8F40114F1A882B9
:1006C0004EA884F311D182F5D992289788F109F4C4
:1006D0001C1CD884A8F3C0F9D1D99782F129F40D54
:1006E000D8F3F9F9D1D982F4C203D8DEDF1AD8F1F0
:1006F000A2FAF9A88498D9C7DFF8F8F883C7DADF37
:1007000069DFF883C3D8F40114F198A8822EA88475
:10071000F311D182F5D992509788F109F41CD8844D
:10072000A8F3C0F8F9D1D99782F149F40DD8F3F9BB
:10073000F9D1D982F4C403D8DEDFD8F1AD8898CCE2
:10074000A809F9D98292A8F57CF1883ACF944A6E2B
:1007500098DB6931DAADF2DEF9D88795A8F221D1BC
:10076000DAA5F9F417D9F1AE8ED0C0C3AE82C68433
:10077000C3A88595C8A588F2C0F1F4010EF18E9E3C
:10078000A8C63E56F554F18872F40115F1984585D6
:100790006EF58E9E0488F142985A8E9E068869F402
:1007A000011CF1981E1108D0F504F11E9702029861
:1007B0003625DBF9D985A5F3C1DA85A5F3DFD88520
:1007C00095A8F309DAA5FAD88292A8F578F1881AE3
:1007D000849F26889821DAF41DF3D8879F39D1AFFA
:1007E000D9DFDFFBF9F40CF3D8FAD0F8DAF9F9D055
:1007F000DFD9F9D8F40BD8F3879F39D1AFD9DFDF30
:10080000F41DF3D8FAFCA869F9F9AFD0DADEFAD909
:10081000F88F9FA8F1CCF398DB45D9AFDFD0F8D89B
:10082000F18F9FA8CAF38809DAAF8FCBF8D8F2AD61
:10083000978D0CD9A5DFF9BAA6F3FAF412F2D89580
:100840000DD1D9BAA6F3FADAA5F2C1BAA6F3DFD868
:10085000F1BAB2B68696A6D0CAF349DAA6CBF8D8D2
:10086000B0B4B8D8AD84F2C0DFF18FCBC3A8B2B6B4
:100870008696C8C1CBC3F3B0B48898A821DB718D2C
:100880009D71859521D9ADF2FAD88597A828D9F41C
:1008900008D8F28D29DAF405D9F285A4C2F2D8A8D5
:1008A0008D9401D1D9F411F2D88721D8F40AD8F265
:1008B0008498A8C801D1D9F411D8F3A4C8BBAFD08B
:1008C000F2DEF8F8F8F8F8F8F8F8D8F1B8F6B5B9B3
:1008D000B08A95A3DE3CA3D9F8D85CA3D9F8D87C1C
:1008E000A3D9F8D8F8F9D1A5D9DFDAFAD8B185308B
:1008F000F7D9DED8F830ADDADED8F2B48C99A32D72
:10090000557DA083DFDFDFB591A0F629D9FBD8A004
:10091000FC29D9FAD8A0D051D9F8D8FC51D9F9D8A6
:1009200079D9FBD8A0D0FC79D9FAD8A1F9F9F9F98D
:10093000F9A0DADFDFDFD8A1F8F8F8F8F8ACDEF8D4
:10094000ADDE8393AC2C547CF1A8DFDFDFF69D2C69
:10095000DAA0DFD9FADB2DF8D8A850DAA0D0DED99A
:10096000D0F8F8F8DB55F8D8A878DAA0D0DFD9D0DD
:10097000FAF8F8F8F8DB7DF8D89CA88CF530DB386D
:10098000D9D0DEDFA0D0DEDFD8A848DB58D9DFD051
:10099000DEA0DFD0DED8A868DB70D9DFDFA0DFDF24
:1009A000D8F1A888902C547C98A8D05C38D1DAF281
:1009B000AE8CDFF9D8B087A8C1C1B188A8C6F9F953
:1009C000DA36D8A8F9DA36D8A8F9DA36D8A8F9DAB2
:1009D00036D8A8F9DA36D8F78D9DADF818DAF2AE28
:1009E000DFD8F7ADFA30D9A4DEF9D8F2AEDEFAF9E5
:1009F00083A7D9C3C5C7F1889BA77AADF7DEDFA46B
:100A0000F8849408A797F300AEF29819A488C6A3B7
:100A10009488F632DFF28393DB09D9F2AADFD8D8C3
:100A2000AEF8F9D1DAF3A4DEA7F1889B7AD8F38483
:100A300094AE19F9DAAAF1DFD8A881C0C3C5C7A35B
:100A40009283F628ADDED9F8D8A350ADD9F8D8A353
:100A500078ADD9F8D8F8F9D1A1DADEC3C5C7D8A1E5
:100A60008194F818F2B089ACC3C5C7F1D8B8B4B056
:100A70009786A8319B069907AB9728889BF00C2096
:100A80001440B0B4B8F0A88A9A285078B79BA82927
:100A90005179247059446938644831F1BBAB8800FE
:100AA0002C547CF0B38BB8A804285078F1B088B4EB
:100AB0009726A85998BBABB38B02264666B0B8F010
:100AC0008A9CA82951798B2951798A2470598B20C5
:100AD00058718A4469388B3940688A6448318B3050
:100AE000496088F1AC002C547CF08CA80428507824
:100AF000F1889726A85998AC8C02264666F0899C06
:100B0000A8295179247059446938644831A9880961
:100B1000205970AB11384069A8193148608CA83C45
:100B2000415C207C00F187981986A86E767EA99991
:100B3000882D557DD8B1B5B9A3DFDFDFAED0DFAAF0
:100B4000D0DEF2ABF8F9D9B087C4AAF1DFDFBBAFD2
:100B5000DFDFB9D8B1F1A3978E60DFB084F2C8F8B7
:100B6000F9D9DED89385F14AB183A308B5839A08F1
:100B700010B79F10D8F1B0BAAEB08AC2B2B68E9E8E
:100B8000F1FBD9F41DD8F9D90CF1D8F8F8AD61D939
:100B9000AEFBD8F40CF1D8F8F8AD19D9AEFBDFD81C
:100BA000F416F1D8F8AD8D61D9F4F4ACF59C9C8DB8
:100BB000DF2BBAB6AEFAF8F40BD8F1AED0F8AD51DF
:100BC000DAAEFAF8F1D8B9B1B6A3839C08B9B1830B
:100BD0009AB5AAC0FD3083B79F10B58B93F202027D
:100BE000D1ABDADED8F1B080BAABC0C3B284C1C336
:100BF000D8B1B9F38BA391B609B4D9ABDEB0879C59
:100C0000B9A3DDF1B38B8B8B8B8BB0872028303869
:100C1000B28BB69BF2A3C0C8C2C4CCC6A3A3A3F137
:100C2000B087B59AD8F39BA3A3DCBAACDFB9A3FE17
:100C3000F2ABC4AAF1DFDFBBAFDFDFA3A3A3D8D839
:100C4000D8BBB3B7F1AAF9DAFFD9809AAA28B48041
:100C500098A720B79787A86688F07951F1902C87DC
:100C60000CA781976293F071716085940129517985
:100C700090A5F1284C6C870C95188578A383902853
:100C80004C6C886CD8F3A28200F210A8921980A252
:100C9000F2D926D8F188A84DD948D896A83980D954
:100CA0003CD89580A839A68698D92CDA87A72CD865
:100CB000A8899519A980D938D8A88939A980DA3C9A
:100CC000D8A82EA83990D90CD8A8953198D90CD885
:100CD000A809D9FFD801DAFFD89539A9DA26FFD8B3
:100CE00090A80D8999A810809821DA2ED88999A802
:100CF0003180DA2ED8A886963180DA2ED8A88731AE
:100D000080DA2ED8A88292F34180F1D92ED8A88219
:100D1000F31980F1D92ED882ACF3C0A28022F1A6BB
:100D20002EA72EA92298A829DAACDEFFD8A2F22A93
:100D3000F1A92E8292A8F23180A696F1D900AC8C4E
:100D40009C0C30ACDED0DEFFD88C9CACD010ACDE7E
:100D50008092A2F24C82A8F1CAF235F19688A6D907
:100D600000D8F1FF00000000250028002B002E0015
:100D7000310000000000240027002A002D00300070
:100D80000404040404030405020202020403020230
:100D90000202060606060606040402020204040411
:100DA000080201104080401020408040800802046A
:100DB00001804020100201108010204040202F1A96
:100DC00011241FBECFEFDAE0DEBFCDBF12E0A0E0FE
:100DD000B1E0E6E3F9E502C005900D92A83CB10749
:100DE000D9F727E0A8ECB2E001C01D92AC31B20700
:100DF000E1F716E0C0EED6E004C02197FE010E94A4
:100E0000D925CF3DD107C9F70E94DF1C0C94992C3E
:100E10000C940000089580913D0390913E03891B3E
:100E2000990B089581E08093C8020895089508956C
:100E3000FC0180913703882311F13FB7F89482E0D9
:100E40008093E9002091F200822F90E01816190695
:100E500014F481E090E0882339F0289844E6409328
:100E600036034091F1004083222339F02091F200B3
:100E7000211103C02BE62093E8003FBF08958FEFB8
:100E80009FEF08952FB7F89483E08093E900909145
:100E9000E800892F807295FF04C09091F20080E4F1
:100EA000891B2FBF0895AC0190E02FE5FA01E90FEF
:100EB000F11D8081882319F020839F5FF7CF08956B
:100EC000E82FF0E0EE0FFF1FEF5BFE4FA081B18136
:100ED000109751F0EC91F0E0E55FFB4F9081119697
:100EE0008C91982381E009F480E008952091130308
:100EF000260F3327331F21323105ECF42091A9034B
:100F0000FC0190E080E0243069F082E00895A09137
:100F100013032191AC014D505D4FA40FB52FB11DAE
:100F20002C930196861798F380911303680F6093B2
:100F3000130380E0089581E00895E0913E038091DD
:100F40003D03E81730F4F0E0E757FC4F808190E074
:100F500008958FEF9FEF089590913E0380913D0398
:100F60002FEF3FEF981748F4E92FF0E0E757FC4FD9
:100F7000208130E09F5F90933E03C9010895CF9296
:100F8000DF92EF92FF920F931F93CF93DF937C0139
:100F9000CB018A0120913F03222389F0EB016B01F1
:100FA000C40ED51ECC15DD0569F06991D701ED9110
:100FB000FC910190F081E02DC7010995F3CF642FDA
:100FC0000E947607C801DF91CF911F910F91FF908A
:100FD000EF90DF90CF900895CF93DF931F92CDB71E
:100FE000DEB7698320913F032223F9F02091620349
:100FF000203258F021E030E0FC013383228390E07E
:1010000080E00F90DF91CF91089580914003E82F09
:10101000F0E0EF5BFC4F998190838F5F80934003FA
:101020008093620381E090E0ECCF61E0CE01019615
:101030000E947607F7CF8091EB0281110DC082E00C
:101040008093E70284E08093E8021092EA02109213
:10105000E90281E08093EB0287EE92E00895282F69
:1010600030E0F901E15BFE4F9491F901E156F24F56
:1010700084912058324FF9012491222309F430C081
:101080009923E9F091509F30D0F4E92FF0E0E55B2F
:10109000F74F0C94D92579087D085A08710875080E
:1010A0005F085F085F08800886088A088E08940831
:1010B0005F089808909180009F7790938000E22FBE
:1010C000F0E0EE0FFF1FEC59F24FA591B4919FB7DE
:1010D000F894EC91611132C080958E238C939FBF60
:1010E0000895909180009F7DE8CF90918000977F38
:1010F000E4CF94B59F7794BDE2CF94B59F7DFBCFAD
:10110000909190009F7790939000D9CF909190000C
:101110009F7DF9CF90919000977FF5CF9091C0007F
:101120009F779093C000CBCF9091C0009F7DF9CF67
:101130009091C200977F9093C200C1CF8E2BCECFEB
:101140001092A90381E0809388031092830361E0E9
:1011500082E00E942F0861E083E00E942F08E9EB03
:10116000F0E080818E7F808380818D7F808388E422
:101170008093B80085E48093BC000895CF93DF93FB
:1011800091E0909338038823B9F0C091B800D091D2
:10119000BA008091BC008A7B8093BC0060E082E052
:1011A0000E942F0860E083E00E942F080E94A008A0
:1011B000D093BA00C093B800DF91CF9108953FB7A4
:1011C000F8948091E3029091E402A091E502B0913D
:1011D000E60226B5A89B05C02F3F19F00196A11D78
:1011E000B11D3FBFBA2FA92F982F8827BC01CD0171
:1011F000620F711D811D911D42E0660F771F881FD0
:10120000991F4A95D1F70895CF92DF92EF92FF92FE
:101210000F931F93CF93DF93D82FC62F613208F01F
:1012200098C00E94DF086B017C018091A9038111A5
:101230006BC081E08093A903809388039FEF909314
:101240008703109286039C0F9093850380938403F9
:1012500080918403DD0FD82BD09384038091830386
:10126000813009F078C0109283030E94DF086B017F
:101270007C01809184038093BB008091AB039091AB
:10128000AC03A091AD03B091AE03892B8A2B8B2BBD
:10129000A1F00E94DF080091AB031091AC032091F4
:1012A000AD033091AE036C197D098E099F090617B5
:1012B00017072807390708F448C08091BC0083FD50
:1012C000D8CF85EC8093BC000E94DF086B017C01C5
:1012D0008091A903813009F440C0809186038C1766
:1012E00010F4C0918603E3E6F3E0A9E8B3E080E000
:1012F0008C1355C08C2FDF91CF911F910F91FF90D0
:10130000EF90DF90CF9008958091AB039091AC0364
:10131000A091AD03B091AE03892B8A2B8B2B09F4DE
:1013200084CF0E94DF080091AB031091AC032091A1
:10133000AD033091AE036C197D098E099F09061724
:1013400017072807390708F070CF8091AA030E9479
:10135000BE08C0E0CFCF85EEB5CF8091AB039091B2
:10136000AC03A091AD03B091AE03892B8A2B8B2BDC
:1013700009F4AECF0E94DF080091AB031091AC03DB
:101380002091AD033091AE036C197D098E099F0940
:10139000061717072807390708F09ACFD6CF91917B
:1013A0009D938F5FA5CFCF92DF92EF92FF920F9325
:1013B0001F93CF93DF93D091620381E0D13208F085
:1013C0009CC0C09161030E94DF086B017C01809189
:1013D000A90381116CC082E08093A90381E080930E
:1013E00088038FEF8093870310928603D093850341
:1013F000A1E4B3E0E3E6F3E080E0D8138DC01092FF
:10140000840380918403CC0FC82BC0938403809104
:101410008303813009F084C0109283030E94DF08A7
:101420006B017C01809184038093BB008091AB03AE
:101430009091AC03A091AD03B091AE03892B8A2BA0
:101440008B2BA1F00E94DF080091AB031091AC033D
:101450002091AD033091AE036C197D098E099F096F
:10146000061717072807390708F442C08091BC0007
:1014700083FDD8CF85EC8093BC000E94DF086B0110
:101480007C018091A903823009F44CC080918703CC
:101490008F3F09F469C080918703803209F466C0E8
:1014A00080918703803309F463C084E026C0809173
:1014B000AB039091AC03A091AD03B091AE03892B27
:1014C0008A2B8B2B09F483CF0E94DF080091AB039A
:1014D0001091AC032091AD033091AE036C197D09DE
:1014E0008E099F09061717072807390708F06FCFDD
:1014F0008091AA030E94BE0885E0109240031092DA
:10150000620310923F03DF91CF911F910F91FF90E3
:10151000EF90DF90CF9008959D9191938F5F6DCF65
:1015200085EEA9CF8091AB039091AC03A091AD0360
:10153000B091AE03892B8A2B8B2B09F4A2CF0E948A
:10154000DF080091AB031091AC032091AD03309103
:10155000AE036C197D098E099F0906171707280726
:10156000390708F08ECFC4CF80E0C7CF82E0C5CF67
:1015700083E0C3CFCF93DF93EA0191E090933F03E1
:101580008093610310924003109262038FEA93E00C
:101590000E94EC0769818FEA93E00E94EC07688162
:1015A0008FEA93E00E94EC070E94D30991E0811139
:1015B00090E0892FDF91CF9108958F929F92AF9203
:1015C000BF92CF92DF92EF92FF924B015C010E949B
:1015D000DF086B017C010E94DF086C197D098E0910
:1015E0009F09683E734081059105A8F321E0821AA6
:1015F0009108A108B10888EEC80E83E0D81EE11C4E
:10160000F11C81149104A104B10429F7FF90EF901B
:10161000DF90CF90BF90AF909F908F9008952FB79D
:10162000F8946091DF027091E0028091E102909164
:10163000E2022FBF089508954091CB025091CC0251
:101640002091C9023091CA0242175307B4F4909115
:10165000E8009570E1F39091E80092FD19C0809345
:10166000F1008091CB029091CC0201968F73992763
:10167000892B19F48EEF8093E8008091CB02909132
:10168000CC0201969093CC028093CB0281E0089526
:1016900080E00895EF92FF920F931F93CF93DF9313
:1016A000F82E192FE62E042F81E0860F880F0E9456
:1016B0001C0B83E00E941C0BCF2DD12FEC0EFD2EB6
:1016C000F11CCE15DF05B9F007FF13C0FE018491B0
:1016D0000E941C0B182F80E00E941C0B8123219676
:1016E0008111EFCFDF91CF911F910F91FF90EF907C
:1016F00008958881EDCF81E0F5CFDF92EF92FF92E0
:101700000F931F93CF93DF93D82E8A01EB017B01B8
:10171000E40EF51ECE15DF0559F0D7FE12C0FE010E
:1017200084910E941C0B21968111F4CF0FEF1FEFC3
:10173000C801DF91CF911F910F91FF90EF90DF9043
:1017400008958881EECF0F931F93CF93DF931F925D
:10175000CDB7DEB782E0898342E450E06AED70E005
:1017600080E80E947D0B0E941B08DC0112960D91FF
:101770001C910115110589F0D801ED91FC910280B1
:10178000F381E02DBE016F5F7F4FC801099597FD82
:1017900004C0F80100851185ECCF89810F90DF919D
:1017A000CF911F910F910895615030F02091F10079
:1017B000FC0120830196F8CF289884E680933603B5
:1017C000089590E080E008958F929F92AF92BF922B
:1017D000CF92DF92EF92FF920F931F93CF93DF93FD
:1017E0006C017B018A0180910B01882309F45CC0A4
:1017F00080913703882309F457C08091CF0280FF7E
:1018000005C08091E00082608093E000E801B12C87
:101810008AEFA82E93E0892E2AE3922E209711F4C6
:10182000BB20D9F10E94420781110AC0AA94AA20C4
:10183000D9F161E070E080E090E00E94DD0AEECF37
:101840008C171D0611F00CF08C2F9FB7F894809226
:10185000E9002091E80025FD02C09FBFDFCF282FBF
:1018600030E0C21BD30BF701815020F0419140932F
:10187000F100FACFE20EF31EBB2021F09092E800B7
:10188000B12CEBCF8091E80085FDE7CF9092E80086
:10189000BB24B394209709F3F3CF5D9884E680933B
:1018A000CE02101611063CF081E090E0F601938321
:1018B000828310E000E0C801DF91CF911F910F916A
:1018C000FF90EF90DF90CF90BF90AF909F908F9060
:1018D0000895CF93DF931F92CDB7DEB76983DC0104
:1018E000ED91FC910280F381E02D41E050E0BE01DA
:1018F0006F5F7F4F09950F90DF91CF91089583E03F
:101900008093E9008091F200882319F08AE38093A4
:10191000E80008950E94420790E00895CF93DF9376
:101920001F92CDB7DEB7FC018485958597FD08C071
:101930002FEF3FEF358724870F90DF91CF910895E8
:10194000CE0101960E941807019719F4898190E051
:10195000F3CF8FEF9FEFF0CF0F931F93CF93DF93D2
:101960001F92CDB7DEB78C01FC018485958597FF6A
:101970000BC0CE0101960E941807019771F489816E
:1019800090E0F80195878487F801848595850F900C
:10199000DF91CF911F910F9108958FEF9FEFF1CFBE
:1019A000FC018485958597FD0BC09FB7F89482E074
:1019B0008093E9008091F2009FBF90E00196089526
:1019C0009FB7F89482E08093E9008091F2009FBF76
:1019D00090E00895FF920F931F93CF93DF93042F0E
:1019E000F22E132F91E090933F03809361031092A6
:1019F0004003109262038FEA93E00E94EC07CF2D20
:101A0000D12F0C0F1D2F111DC017D10731F0699177
:101A10008FEA93E00E94EC07F7CF0E94D30991E090
:101A2000811190E0892FDF91CF911F910F91FF904D
:101A30000895CF93DF9300D0CDB7DEB75A834983A3
:101A4000AE014F5F5F4F0E94BA0A0F900F90DF9177
:101A5000CF910895CF93DF931F92CDB7DEB749831F
:101A60009E012F5F3F4F41E00E94EA0C0F90DF91F3
:101A7000CF910895FC0101900020E9F73197AF0163
:101A8000481B590BBC018BEB93E00C94E40BCF93F8
:101A9000DF930E943A0DEC018BE891E00E943A0D31
:101AA0008C0F9D1FDF91CF9108954F925F926F929F
:101AB0007F928F929F92AF92BF92DF92EF92FF92AE
:101AC0000F931F93CF93DF93182FD62E7A01E9013E
:101AD0000E940F0B4B015C0101E000933F03109348
:101AE000610310924003109262036D2D8FEA93E020
:101AF0000E94EC070E94D30900933F031092400319
:101B00001092620362E0812F0E94040910923E034A
:101B100080933D0310E02E01712C612CDD24D394C1
:101B200090913E0380913D03981739F1111125C022
:101B30002097C1F401110EC08FEA93E00E94AC0718
:101B4000F70120813181822B932B9183808311E0D7
:101B50000D25E6CF8FEA93E00E94AC07F7011082D3
:101B60008183F6CF0E940F0B681979098A099B09B6
:101B70006415750586059705E8F20E94D30920973C
:101B800099F00E940F0BAB01BC01481959096A0971
:101B90007B09CE01B0E0A0E0481759076A077B0730
:101BA00018F0111101C01FEF812FDF91CF911F910C
:101BB0000F91FF90EF90DF90BF90AF909F908F902C
:101BC0007F906F905F904F9008952F923F924F9229
:101BD0005F926F927F928F929F92AF92BF92CF92BD
:101BE000DF92EF92FF920F931F93CF93DF9300D07A
:101BF00000D0CDB7DEB7782E662E4C833A8329838A
:101C00000E940F0B6B017C01512C1B822C81222E18
:101C1000312C4801B12CA12C8C81581608F051C0F0
:101C200091E090933F0370926103109240031092F1
:101C30006203662D8FEA93E00E94EC070E94D309AD
:101C400021E020933F031092400310926203B10100
:101C5000651971096132710514F060E270E061325A
:101C600008F060E2872D0E940409482E10923E037E
:101C700080933D0380913E034816E9F0011511055C
:101C800079F48FEA93E00E94AC07E981FA819B81A5
:101C9000E90FF11D97FDFA9580839F5F9B83EACF43
:101CA0000E940F0B6C197D098E099F096815790533
:101CB0008A059B0530F38C81813208F080E2580E52
:101CC000ABCF01151105C1F00E940F0B6C197D09F6
:101CD0008E099F0930E020E06017710782079307A3
:101CE00058F02B81822F220F990B2C81281719066F
:101CF00019F014F08FEF8B838B810F900F900F9062
:101D00000F90DF91CF911F910F91FF90EF90DF9097
:101D1000CF90BF90AF909F908F907F906F905F908B
:101D20004F903F902F9008950F931F93CF93DF9381
:101D30001F92CDB7DEB708EE13E09E012F5F3F4F35
:101D400041E065E7809163060E94E50D882339F044
:101D500089818E7790E09595879580936406809130
:101D600064060F90DF91CF911F910F9108950F930B
:101D70001F93CF93DF93C3E6D6E008EE13E024E68B
:101D800036E042E062E788810E94E50D89819A8110
:101D9000982789279827DF91CF911F910F91089558
:101DA000BF92CF92DF92EF92FF920F931F93CF9348
:101DB000DF931F92CDB7DEB7F82EE62EC42EB22EDB
:101DC000D02E08EE13E09E012F5F3F4F41E00E94AE
:101DD000E50D882371F18C2D8B19990BAC014F5FA8
:101DE0005F4F81E090E002C0880F991FBA94E2F73C
:101DF0000197042E01C0880F0A94EAF70D2D01C047
:101E0000000F4A95EAF7482F40959981492380238E
:101E1000482B49836E2D8F2D0E942A0D0F90DF9144
:101E2000CF911F910F91FF90EF90DF90CF90BF90D7
:101E3000089580E0F3CFCF92DF92EF92FF920F935D
:101E40001F93CF93DF931F92CDB7DEB7F82EE62E08
:101E5000C42ED22E08EE13E09E012F5F3F4F41E0CB
:101E60000E94E50D81E090E001C0880FCA94EAF776
:101E70004981DD2081F0482B49836E2D8F2D0E94F2
:101E80002A0D0F90DF91CF911F910F91FF90EF904E
:101E9000DF90CF90089580954823EECF2F923F9208
:101EA0004F925F926F927F928F929F92AF92BF926A
:101EB000CF92DF92EF92FF920F931F93CF93DF9316
:101EC000CDB7DEB7E1970FB6F894DEBF0FBECDBF3A
:101ED0008D8F4EA35FA368A779A70AA71BA72CA77E
:101EE0003DA713E18B3339F40E94940E17E703E00A
:101EF000883310F416E002E06EE38BEB93E00E946F
:101F0000690C9E01235F3F4F3E8B2D8BCE010196C6
:101F1000988F8F8B6901B12E28EE33E0AE014D5EB4
:101F20005F4F6B2D809163060E94550DEB88FC88F6
:101F3000B7010F2C000C880B990B0E9485241331DC
:101F400009F4CEC1B1E0EB22FF24F601F182E08278
:101F500020E030E040E051E40E94E424AF89B88DF5
:101F60006D937D938D939C931397B00EF2E0CF0EFB
:101F7000D11C2F89388D2C5F3F4F388F2F8B8D8947
:101F80009E892817390741F69D8D9B3309F0B5C10D
:101F90008DEC9CECACE4BDE38EA79FA7A8ABB9ABDE
:101FA000ACE0B0E0BDA3ACA31AA219A2312C212C45
:101FB000FE013196FA8FE98F9E01235F3F4F3F8FDD
:101FC0002E8F18A33D8D3BA3812C912C54011C8E88
:101FD0001B8E28EE33E0AE014D5E5F4F6BA180910A
:101FE00063060E94550D6B897C89072E000C880BB7
:101FF000990B0E9485246B017C018D8D8B3371F4CC
:10200000AB8DBC8D129751F420E030E040E856E4EF
:10201000C701B6010E94DF256B017C012601370153
:1020200077FA709477F87094C501B4010E94832404
:102030004B015C0120E030E0A901C701B6010E941C
:102040008927181614F073016201A7019601C501D2
:10205000B4010E94E0250E9433274B015C012FE66A
:1020600032E143E85AE3C301B2010E94E4242AA505
:102070003BA54CA55DA50E94E424E98DFA8D208145
:102080003181428153810E94E0256B017C01A98D41
:10209000BA8DCD92DD92ED92FC9213972EA13FA1C5
:1020A00048A559A5C301B2010E94E424A7019601E5
:1020B0000E94E025133109F42AC120E030E040E01D
:1020C0005EE30E94E4246B017C0120E030E0A90182
:1020D0000E94892720E030E040E05FE387FD12C1E5
:1020E000C701B6010E94E0250E942C276E7FEE8D6D
:1020F000FF8D80819181682B792B7C8B6B8BAE015E
:102100004D5E5F4F68A1809163060E94BA0A2B8DD5
:102110003C8D2F5F3F4F3C8F2B8F3BA13E5F3BA3FE
:1021200088A1800F88A3AE8DBF8D1296BF8FAE8F12
:10213000E98DFA8D3496FA8FE98F2B8D3C8D233003
:10214000310509F046CF33E62316310471F489EEE8
:10215000881683E09806A104B10438F06AE28BEB9C
:1021600093E00E94690C312C212CC501B4010E941E
:1021700083242EA53FA548A959A90E94E42420E064
:1021800030E040EA50E40E947E2487FF05C0A9A108
:10219000BAA11196BAA3A9A3B4E68B169104A1041F
:1021A000B10408F0D3C0EBE02E1631040CF4CEC01D
:1021B00029A13AA12A3031050CF4C8C06EE28BEB9C
:1021C00093E00E94690C20E030E040E45FE36EA100
:1021D0007FA188A599A50E94E4246EA37FA388A768
:1021E00099A720E030E040E45FE36AA57BA58CA5D9
:1021F0009DA50E94E4246AA77BA78CA79DA7CE017A
:102200000D967C01D12EDE0111963D01D3016D9119
:102210007D918D919D913D01133109F4ABC020E07A
:1022200030E040E05EE30E94E4244B015C0120E0EA
:1022300030E0A9010E94892720E030E040E05FE320
:1022400087FD93C0C501B4010E94E0250E942C27A0
:102250006E7FF70180819181682B792B7C8B6B8B52
:10226000AE014D5E5F4F6D2D809163060E94BA0AEC
:10227000D00EF2E0EF0EF11C2F89388D26153705B0
:1022800029F68CA19DA101979DA38CA3892B09F010
:102290008BCE21E042E06AE6809163060E941B0F2C
:1022A00021E043E06AE6809163060E941B0FE196FD
:1022B0000FB6F894DEBF0FBECDBFDF91CF911F9157
:1022C0000F91FF90EF90DF90CF90BF90AF909F90D5
:1022D0008F907F906F905F904F903F902F900895D8
:1022E00020E030E040E850E40E94E424EF89F88DDB
:1022F000608371838283938338CE80E090E0A0E88E
:10230000BFE34ACEC701B6010E94DF25EDCE20E033
:1023100030E040E85EE30E94E4246B017C0120E0B1
:1023200030E0A9010E94892720E030E040E05FE32F
:1023300087FD07C0C701B6010E94E0250E942C2737
:10234000DCCEC701B6010E94DF25F8CF61E070E066
:1023500080E090E00E94DD0ABFEF2B1A3B0AE4E622
:102360002E16310409F024CE29CFC501B4010E94F4
:10237000DF256CCF20E030E040E85EE30E94E424FB
:102380004B015C0120E030E0A9010E94892720E098
:1023900030E040E05FE387FD07C0C501B4010E9463
:1023A000E0250E942C275ACFC501B4010E94DF25E9
:1023B000F8CF2F923F924F925F926F927F928F92BF
:1023C0009F92AF92BF92CF92DF92EF92FF920F93C4
:1023D0001F93CF93DF93CDB7DEB72D970FB6F89449
:1023E000DEBF0FBECDBF9D838C837F836E834A018A
:1023F000398728871B870A87FD86EC8610923E0363
:1024000010923D0310924003109262030E94A008B4
:1024100086E197E090933C0380933B0387E197E04C
:1024200090933A03809339031092380388EB9BE032
:10243000A0E0B0E08093AB039093AC03A093AD0316
:10244000B093AE0381E08093AA0380913803109289
:1024500038038CE08093B80086EC91E00E94470D31
:1024600001E023E042E06BE6809163060E94D00E1B
:1024700000E022E044E06BE1809163060E94D00E10
:1024800022E044E06CE1809163060E94D00E20E0DF
:1024900046E06BE6809163060E941B0FE6EAFDE0D2
:1024A0002491E7E8FDE084918823C1F090E0880F53
:1024B000991FFC01EE58F24FA591B491FC01EC5923
:1024C000F24F859194914FB7F8943C912095322327
:1024D0003C93DC01EC912E232C934FBF82EE91E0D4
:1024E0000E94470D0E94940E843309F0B3C08EE819
:1024F00091E00E94470D11E01B8321E047E06BE66D
:10250000809163060E941B0F64E670E080E090E01B
:102510000E94DD0A87E08B8307E023E042E06AE661
:10252000809163060E94D00E64E670E080E090E047
:102530000E94DD0A1B839E012D5F3F4F41E06BE649
:10254000809163060E94EA0C1B829E012D5F3F4F23
:1025500041E068E3809163060E94EA0C1B829E01C1
:102560002D5F3F4F41E063E2809163060E94EA0CD9
:102570001B829E012D5F3F4F41E06CE1809163061D
:102580000E94EA0C80E88B839E012D5F3F4F41E063
:1025900067E3809163060E94EA0C1B839E012D5F16
:1025A0003F4F41E06BE6809163060E94EA0C84E0B5
:1025B0008B839E012D5F3F4F41E069E1809163066F
:1025C0000E94EA0C1B839E012D5F3F4F41E06AE1B0
:1025D000809163060E94EA0C40E06DE680916306FC
:1025E0000E942A0D40E06EE6809163060E942A0D4B
:1025F00080E190E00E94F9275C0180E190E00E9478
:10260000F9272C01312CE12CD12CC12C96EF292E4D
:10261000C6014096F22CFC18873F9B4010F480E1E5
:10262000F82E80E091E08E199109F816190619F03C
:1026300014F0FE2CF194D20190E080E09601225932
:102640003E4F8F1550F4F901E80FF91FE491ED9317
:102650000196F7CF8CEA91E04CCF92014F2D6FE6B7
:10266000809163060E94EA0C6F2C712CA114B104B6
:1026700009F440C0432D4F716DE6809163060E94BE
:102680002A0D4E2D6EE6809163060E942A0D08EEFB
:1026900013E095014F2D6FE6809163060E94E50DD2
:1026A000A301B501C2010E94DB29892B19F1C501E3
:1026B0000E949528C2010E94952880E092E00E9425
:1026C0003A0D2D960FB6F894DEBF0FBECDBFDF9149
:1026D000CF911F910F91FF90EF90DF90CF90BF901F
:1026E000AF909F908F907F906F905F904F903F90B2
:1026F0002F900895C60CD71CE6EFCE16EBE0DE0651
:1027000088F4EF0C09F43394432D4F716DE68091FA
:1027100063060E942A0D4E2D6EE6809163060E948C
:102720002A0D76CFC5010E949528C2010E949528E6
:1027300080E094E09A838983AE014F5F5F4F60E74A
:10274000809163060E94BA0A88E18B839E012D5F07
:102750003F4F41E06BE1809163060E94EA0C80EC00
:102760008B839E012D5F3F4F41E06AE680916306B7
:102770000E94EA0C82E08B839E012D5F3F4F41E077
:1027800068E3809163060E94EA0C21E042E06AE679
:10279000809163060E941B0F20E047E06AE680916B
:1027A00063060E941B0F8CE190E090937506809366
:1027B00074060E94940E66E0883308F067E74C8147
:1027C0005D81809163060E94190D0E94940E68E05D
:1027D000883308F06AE74E815F81809163060E942A
:1027E000190D0E94940E6AE0883308F06DE7A40189
:1027F000809163060E94190D4885598563E1809197
:1028000063060E94190D4A855B8565E18091630628
:102810000E94190D4C855D8567E1809163060E94D9
:10282000190D00E010E028ED31E44AE25CE56FECC0
:102830007EE38BE30E944E0F00E010E023EF32E4D2
:102840004AE25CE56FEC7EE383E40E944E0F21E0F8
:1028500047E06AE6809163060E941B0F82E197E0E1
:10286000909315018093140180916A008063809396
:102870006A00EE9A08EE13E024E636E041E06AE3EF
:10288000809163060E94E50D80916406809377062F
:1028900081E08093760680917406909175069093FE
:1028A0007906809378060DCFFC0180819181009795
:1028B00011F00C949528089585ED8093BC008091CB
:1028C000AB039091AC03A091AD03B091AE0307961A
:1028D000A11DB11D23E0B695A795979587952A95DB
:1028E000D1F72091BC0024FD03C01092A9030895E4
:1028F0004091AB035091AC036091AD037091AE0376
:10290000452B462B472B69F30097A105B10541F0F4
:1029100025E32A95F1F700000197A109B109E1CF5C
:102920008091AA030C94BE080F931F93CF93DF935B
:10293000EC0188819981009759F02A813B81261703
:10294000370730F081E0DF91CF911F910F9108950B
:102950008B016F5F7F4F0E941E29009759F099836A
:1029600088831B830A832C813D81232B59F7FC012B
:102970001082E8CF80E0E7CFEF92FF920F931F9392
:10298000CF93DF93FB01E080F180E114F10441F487
:1029900080E0DF91CF911F910F91FF90EF9008950C
:1029A0000481158101151105B1F0EC018C819D8127
:1029B000080F191FB801CE010E949414882341F317
:1029C000288139818C819D81B701820F931F0E94DC
:1029D000F1291D830C8381E0DCCF0F931F93CF93EC
:1029E000DF93EC010C811D810F5F1F4FB8010E9426
:1029F0009414882369F0288139818C819D8165EA4E
:102A000072E0820F931F0E94F1291D830C8381E0E5
:102A1000DF91CF911F910F910895CF92DF92EF92A6
:102A2000FF920F931F93CF93DF93CDB7DEB76297DB
:102A30000FB6F894DEBF0FBECDBF8C01CB01F801FD
:102A40001182108213821282158214824AE09E0142
:102A50002F5F3F4F6901B9010E942724F6010190C1
:102A60000020E9F731977F01EC18FD08B701C80194
:102A70000E949414F8012081318181111CC021151C
:102A8000310519F0C9010E949528F80111821082C0
:102A9000158214821382128262960FB6F894DEBFFA
:102AA0000FBECDBFDF91CF911F910F91FF90EF909F
:102AB000DF90CF900895F582E482B601C9010E94AB
:102AC000F129EACF1F920F920FB60F9211242F9384
:102AD0003F934F935F936F937F938F939F93AF93A6
:102AE000BF93EF93FF938091B900887F803609F4FC
:102AF0004AC0F0F5883209F4A7C018F5803109F40E
:102B00009BC0B8F4882309F4F9C0883009F494C054
:102B1000FF91EF91BF91AF919F918F917F916F91B5
:102B20005F914F913F912F910F900FBE0F901F908B
:102B30001895883109F488C0803251F78093870353
:102B400014C0803409F49DC040F48033B9F3883355
:102B5000F9F68093870385ECB0C0803509F485C011
:102B6000883509F496C0883499F60E945C14D0CF59
:102B7000883909F48CC038F5883729F050F4883644
:102B800011F0803729F683E08093A9031092350372
:102B900057C0883809F47BC0803919F0803809F0B3
:102BA000B7CF80913503803208F071C0E0913503D2
:102BB00081E08E0F809335038091BB00F0E0EB5EE7
:102BC000FC4F80833DC0803B39F0E0F4803A09F44B
:102BD00079C0883A09F09CCF84E08093A9031092D1
:102BE000140310921303E0913B03F0913C03099509
:102BF0008091130381110FC081E080931303109221
:102C0000F30209C0803C09F4A6CF883C09F4A3CFA5
:102C1000883B09F07DCFE091140381E08E0F809313
:102C20001403F0E0ED50FD4F80818093BB00909144
:102C300014038091130329C0809184038093BB0007
:102C400085EC8093BC0064CF9091860380918503CE
:102C5000981758F5E091860381E08E0F80938603E4
:102C6000F0E0ED59FC4F8081E9CFE091860381E0EF
:102C70008E0F809386038091BB00F0E0ED59FC4FEE
:102C8000808390918603809185039817C8F285E828
:102C9000D8CFE091860381E08E0F809386038091E8
:102CA000BB00F0E0ED59FC4F8083809188038111D7
:102CB0005CCF81E08093830384EA8093BC00109210
:102CC000A90326CF85EC8093BC001092A9038091C4
:102CD0003503803230F4E0913503F0E0EB5EFC4FD9
:102CE00010826091350370E0E0913903F0913A036E
:102CF00085E193E00995109235030ACF109287037E
:102D000034CF1F920F920FB60F9211242F933F933F
:102D10008F939F93AF93BF938091DF029091E002D6
:102D2000A091E102B091E2023091DE0223E0230F94
:102D30002D3758F50196A11DB11D2093DE02809319
:102D4000DF029093E002A093E102B093E20280914F
:102D5000E3029091E402A091E502B091E6020196AF
:102D6000A11DB11D8093E3029093E402A093E502BC
:102D7000B093E602BF91AF919F918F913F912F91B8
:102D80000F900FBE0F901F90189526E8230F029604
:102D9000A11DB11DD2CF1F920F920FB60F92112419
:102DA0002F933F934F935F936F937F938F939F9353
:102DB000AF93BF93EF93FF93E0911401F09115014E
:102DC0000995FF91EF91BF91AF919F918F917F9165
:102DD0006F915F914F913F912F910F900FBE0F9088
:102DE0001F9018951F920F920FB60F9211242F93D8
:102DF0003F934F935F936F937F938F939F93AF9383
:102E0000BF93EF93FF93E0911201F09113010995A5
:102E1000FF91EF91BF91AF919F918F917F916F91B2
:102E20005F914F913F912F910F900FBE0F901F9088
:102E300018951F920F920FB60F9211242F933F9364
:102E40004F935F936F937F938F939F93AF93BF93B2
:102E5000EF93FF93E0911001F09111010995FF911B
:102E6000EF91BF91AF919F918F917F916F915F9102
:102E70004F913F912F910F900FBE0F901F9018957B
:102E80001F920F920FB60F9211242F933F934F93DF
:102E90005F936F937F938F939F93AF93BF93EF93C2
:102EA000FF93E0910E01F0910F010995FF91EF91D1
:102EB000BF91AF919F918F917F916F915F914F9152
:102EC0003F912F910F900FBE0F901F9018951F925A
:102ED0000F920FB60F9211242F933F934F935F934E
:102EE0006F937F938F939F93AF93BF93EF93FF93D2
:102EF000E0910C01F0910D010995FF91EF91BF91C7
:102F0000AF919F918F917F916F915F914F913F9181
:102F10002F910F900FBE0F901F9018951F920F9238
:102F20000FB60F9211248F939F938091E10090919F
:102F3000E100937F9093E10083FF0FC01092E900BE
:102F400091E09093EB001092EC0092E39093ED00EF
:102F50001092370398E09093F00082FF22C093E034
:102F60009093E9009091F200992319F09AE39093DD
:102F7000E8009091CE02992341F09091CE029150B9
:102F80009093CE02911101C05D9A909136039923DE
:102F900041F090913603915090933603911101C006
:102FA000289A84FF18C08091E2008E7E8160809311
:102FB000E2008091E1008F7E8093E1008091CF025A
:102FC0008E7E80618093CF029F918F910F900FBE74
:102FD0000F901F90189580FFF7CF8091E2008E7EB2
:102FE00080618093E2008091E1008E7E8093E10019
:102FF0008091CF028E7E8160E5CF1F920F920FB637
:103000000F921124CF92DF92EF92FF920F931F93B2
:103010002F933F934F935F936F937F938F939F93E0
:10302000AF93BF93EF93FF93CF93DF93CDB7DEB70B
:103030006C97DEBFCDBF1092E9008091E80083FF5E
:1030400025C068E0CE0145960E94D40B82EF8093A4
:10305000E8008D8987FF39C09091E80090FFFCCF90
:10306000982F907609F034C19E894F89588D2F8909
:10307000F88C911131C0803861F58091D002809335
:10308000F1001092F1008EEF8093E8006C960FB67D
:10309000F894DEBF0FBECDBFDF91CF91FF91EF91CE
:1030A000BF91AF919F918F917F916F915F914F9160
:1030B0003F912F911F910F91FF90EF90DF90CF9054
:1030C0000F900FBE0F901F9018959EEF9093E80001
:1030D000C7CF1092F100D5CF913059F48111D3CFE1
:1030E0004130510581F68091D0028D7F8093D002CE
:1030F000CACF933049F48111C6CF4130510519F63A
:103100008091D0028260F2CF953041F48091E80046
:1031100080FFFCCF20682093E300B5CF963009F004
:10312000A9C00B8D1C8D22E01092E9001092CC02F8
:103130001092CB02F2122EC01092CA021092C90253
:103140000E94A30B1F8299E09983FA8291E09E83EB
:1031500090EA98879AEF99872091CB023091CC0220
:10316000275F3F4F3C832B838D831092E9001092A1
:10317000CC021092CB021093CA020093C90249E01C
:1031800050E0BE016F5F7F4F80E00E947D0B0E9488
:10319000A30B79CF1093CA020093C9020E941B08A7
:1031A000DC0112960D911C910115110509F451C114
:1031B000D801ED91FC910480F581E02DBE016B5E9C
:1031C0007F4FC8010995009709F03EC1F8010085BD
:1031D0001185EACFF3E0FF120EC08F89882309F42E
:1031E00040C0823061F440E860E18EE391E00E94EB
:1031F0004A0B811148CF81E28093EB0047CF8130A9
:1032000029F440E86BE082E391E0F1CF833099F755
:103210000E941B08DC011296ED90FC908E010F5F5E
:103220001F4F6801E114F10479F0D701ED91FC9191
:103230000680F781E02DB801C7010995080F111D1F
:10324000F701E084F184EECFD8011C92F6010190E1
:103250000020E9F73197BF016C197D0940E0C601F4
:10326000C6CF6CE171E0FB01449150E080E80E9420
:103270007D0B09CF973009F4BECF983021F481E05F
:103280008093F10000CF993009F0FDCE837009F0F2
:10329000B2CFEBE3F1E081E031E096E3219122232C
:1032A00071F08093E9003093EB00DF0111972C91CE
:1032B0002093EC009093ED008F5F873079F78EE7D5
:1032C0008093EA001092EA008F8980933703DBCE67
:1032D0008B8D9C8D1092E9001092CC021092CB0243
:1032E0009093CA028093C902898D811192C08E8900
:1032F0009D89913A49F4813209F07DCF47E050E051
:1033000064E071E080E0B3CF913209F074CF833292
:1033100069F48F89988DB0E0A0E0809300019093CC
:103320000101A0930201B0930301ADCE803269F494
:103330008091E80082FFFCCF67E084E091E00E948A
:10334000D40B8BEF8093E8009ECE823209F09BCEA7
:103350008F8980930B01EEEFFFE7859194918B3F6E
:103360009C4D51F1E0E0F8E080910401909105015D
:10337000A0910601B0910701803B9440A105B105E1
:10338000F1F480910B0180FD1AC0EE3F8AE0F8074E
:1033900089F587E797E79183808380916000809328
:1033A000CD0288E19BE00FB6F894A8958093600069
:1033B0000FBE9093600067CEEEEFFAE0D5CF80812C
:1033C00091818737974709F05ECEA895809160007C
:1033D0008861809360008091CD0280936000EE3F11
:1033E0002AE0F20789F08091FE0A9091FF0A91830A
:1033F000808349CE808191818737980751F29093DD
:10340000FF0A8093FE0AC5CF1092FF0A1092FE0AAF
:103410003ACE0E941B08DC0112960D911C910115F9
:10342000110509F4E8CED801ED91FC910190F081ED
:10343000E02DBE016B5E7F4FC8010995811123CE3F
:10344000F80100851185EBCF181619060CF41BCE78
:10345000D2CEF1E0FF12BECE60E271E004CF6F92F7
:103460007F928F929F92AF92BF92CF92DF92EF9214
:10347000FF920F931F93CF93DF93CDB7DEB7AE9735
:103480000FB6F894DEBF0FBECDBFEBE0F4E01192B3
:10349000B4E0EF31FB07D9F7109222041092230415
:1034A0008091220490912304EDE0F4E082E1DF01B9
:1034B0001D928A95E9F781E080931F048091200492
:1034C000882309F428C186E192E00E943A0D809198
:1034D0007C0290917D02A0917E028CA79DA7AEA751
:1034E00080917F0290918002A091810289A79AA782
:1034F000ABA785E00E9460078E01045D1F4F81111C
:1035000003C0C8010E94530789E00E9460079E0122
:10351000275D3F4F7901811103C0C9010E94530704
:10352000FF92EF92809114048F93809113048F93F4
:10353000809112048F93809111048F931F930F93A6
:1035400080910F041F928F9385E292E09F938F9357
:103550008E010F5F1F4F1F930F930E94F829C80120
:103560000E943A0D8DE00E9460070FB6F894DEBF0E
:103570000FBECDBF7CE3F72E811102C06FE5F62EA2
:103580008BE00E9460075EE5E52E811102C04FE5E9
:10359000E42E8CE00E94600736E7D32E811102C032
:1035A0002FE5D22E8EE00E9460079EE3C92E811186
:1035B00002C08FE5C82E81E00E946007B1E49B2E17
:1035C000811102C0AFE59A2E82E00E946007F2E40A
:1035D0008F2E811102C0EFE58E2E83E00E946007DE
:1035E00078E5772E811102C06FE5762E84E00E9487
:1035F000600759E5652E811102C04FE5642E88E011
:103600000E9460073EE3A32E811102C02FE5A22E87
:1036100087E00E9460079CE3B92E811102C08FE50C
:10362000B82E80E00E946007882309F4C6C188E5AF
:103630001F926F921F927F921F928F921F929F9262
:103640001F92AF921F928F931F92BF921F92CF92A1
:103650001F92DF921F92EF921F92FF9281E492E0FD
:103660009F938F931F930F930E94F829C8010E9484
:103670003A0D8091820290918302A09184028EA3E0
:103680009FA3A8A78091850290918602A0918702AE
:103690008BA39CA3ADA386E00E9460070FB6F894AD
:1036A000DEBF0FBECDBFDE0196966D01811103C056
:1036B000CD010E9453078AE00E9460079E012D5DA4
:1036C0003F4F7901811103C0C9010E9453078091C6
:1036D00010041F928F93DF92CF92FF92EF9280910E
:1036E00018048F93809117048F93809116048F9301
:1036F000809115048F9380E692E09F938F931F93A0
:103700000F930E94F829C8010E94470D0FB6F89444
:10371000DEBF0FBECDBF10920B0484E180930C047A
:103720001092210410922304109222041092250476
:1037300010922404109228041092290410922A0452
:1037400010922B048FEF90E0A0E0B0E080932C0467
:1037500090932D04A0932E04B0932F041092300464
:103760001092310410923204109233048093340486
:1037700090933504A0933604B093370440E050E8AA
:103780006FEF7FEF409338045093390460933A040D
:1037900070933B048FEF9FE7A0E0B0E080933C0480
:1037A00090933D04A0933E04B0933F0440934004A3
:1037B0005093410460934204709343048093440403
:1037C00090934504A0934604B093470410922704B5
:1037D0001092260481E0809320041092B20310928C
:1037E000B10388EE93E0A0E0B0E08093B303909340
:1037F000B403A093B503B093B6032BE631E0309346
:10380000B0032093AF031092BE031092BD038093C8
:10381000BF039093C003A093C103B093C2038DE78D
:1038200091E09093BC038093BB038FEF9FEF909345
:10383000C8038093C7031092FC061092FD061092F5
:1038400004071092050710920C0710920D071092B2
:10385000F6061092F70688E68093630610927606C5
:103860001092BC061092BD061092BE061092BF06C2
:103870001092C0061092C1061092C2061092C306A2
:103880001092C4061092C5061092C6061092C70682
:1038900080E090E0A0E8BFE38093C8069093C9065B
:1038A000A093CA06B093CB061092CC061092CD0618
:1038B0001092CE061092CF061092D0061092D1062A
:1038C0001092D2061092D3061092D4061092D5060A
:1038D0001092D6061092D7061092E5061092E406D2
:1038E0001092E7061092E6061092E9061092E8069A
:1038F0001092EB061092EA061092ED061092EC067A
:103900001092EF061092EE061092F1061092F00659
:103910001092F3061092F2061092F5061092F40639
:103920008EE780934A0610924B0610924C06109236
:103930004D0610924E0681E880934F061092500675
:10394000109251061092530610925206109255068C
:1039500010925406109256061092590610925A066A
:1039600010925B0610925C0610925D0610925E0645
:1039700010925F061092600610924904109248045B
:1039800010924B0410924A0410924D0410924C0471
:10399000AE960FB6F894DEBF0FBECDBFDF91CF91CC
:1039A0001F910F91FF90EF90DF90CF90BF90AF905D
:1039B0009F908F907F906F9008958FE539CECF9331
:1039C000DF93CDB7DEB7C956D1090FB6F894DEBF85
:1039D0000FBECDBF789484B5826084BD84B581600C
:1039E00084BD85B5826085BD85B5816085BD8091CA
:1039F0006E00816080936E00109281008091810042
:103A00008260809381008091810081608093810039
:103A1000809180008160809380008091910082601D
:103A200080939100809191008160809391008091BA
:103A300090008160809390008091C10084608093A9
:103A4000C1008091C10082608093C1008091C1005B
:103A500081608093C1008091C30081608093C30026
:103A60008091C00082608093C0008091C20081601C
:103A70008093C20080917A00846080937A00809164
:103A80007A00826080937A0080917A0081608093CE
:103A90007A0080917A00806880937A0010923703D0
:103AA0001092D0021092CF028091D7008160809353
:103AB000D70080EA8093D80089B5806189BD89B537
:103AC000826089BD09B400FEFDCF61E070E080E056
:103AD00090E00E94DD0A8091D8008F7C8061809305
:103AE000D8008091E000807F8093E0008091E10029
:103AF0008E7E8093E1008DE08093E200559A209ABB
:103B0000F0900B016AE070E080E090E00E94DD0A36
:103B1000FF20B1F38FEF9FEF9093C8038093C7030B
:103B200088E892E00E94470D64E670E080E090E053
:103B30000E94DD0A1092DD028DE892E00E94470D9E
:103B40004DEFE42EFF24FA940FEC1FEF26E330E054
:103B50004DE956E065EC7EEF83EE9EEF0E94D911B1
:103B600087E992E00E94470D8CE291E09093D802A1
:103B70008093D7029093D2028093D102E5EAFDE0D0
:103B80002491E6E8FDE08491882399F090E0880F85
:103B9000991FFC01EE58F24FA591B491FC01EC592C
:103BA000F24F859194918FB7F894EC91E22BEC93BE
:103BB0008FBFCE0101961C0180917606882369F1A2
:103BC00080907406909075060E94DF082B013C01DE
:103BD0006401DD240E94B70E5C01C816D9060CF002
:103BE0000EC1893C91050CF4E8C021E042E06AE690
:103BF000809163060E941B0F0E94B70E5C01892B07
:103C000009F001C10E94DF08641975098609970946
:103C1000693F7A428105910578F386E0E0EFF6E0AE
:103C2000DE01929601900D928A95E1F786E0FE0101
:103C3000B296DE01989601900D928A95E1F786E0A2
:103C4000FE01B896A8E4B4E001900D928A95E1F7E0
:103C50001DAA1CAA1FAA1EAA19AE18AE62E070E027
:103C6000CE01C4960E9494142CA93DA98111B4C51B
:103C70002115310519F0C9010E9495281DAA1CAA19
:103C800019AE18AE1FAA1EAA60914804709149048B
:103C9000C1010E940D15B101CE01C4960E94BC1451
:103CA000C1010E945414CE01C4960E94ED1460918B
:103CB0004A0470914B04C1010E940D15B101CE015F
:103CC000C4960E94BC14C1010E945414CE01C49633
:103CD0000E94ED1460914C0470914D04C1010E944A
:103CE0000D15B101CE01C4960E94BC14C1010E9401
:103CF0005414CE01C4960E94ED140E940F0B1FA60F
:103D00001EA619AA18AA1BAA1AAA2AE0A1010E9493
:103D10003224F10101900020E9F731977F01E21888
:103D2000F308B701CE018E960E9494142EA53FA5EC
:103D300081115CC52115310519F0C9010E94952832
:103D40001FA61EA61BAA1AAA19AA18AABE01625D5E
:103D50007F4FCE01C4960E94BC14CE018E960E9465
:103D6000541448AD59AD6CA97DA98BEB93E00E942A
:103D7000E40B8BE891E00E943A0DCE01C4960E94BC
:103D800054148BEB93E00E948E0C823709F057C5D8
:103D90001092DD0287EA92E00E94470D8091DD02D9
:103DA00081112BC58BEB93E00E948E0C91E0833642
:103DB00009F090E09093DD02F1CF0E94B70E5C0114
:103DC000C816D906E4F47C01EC18FD085701B1E2ED
:103DD000EB16F1041CF090E2A92EB12CAA2069F098
:103DE00008EE13E091014A2D64E7809163060E947A
:103DF000E50DEA18FB0851F7E0CF1982FACFA114BC
:103E0000B10409F40ACF0E94DF0864197509860914
:103E10009709693F7A428105910508F0FECECA14E0
:103E2000DB0409F0D7CE882009F4CEC408EE13E0F5
:103E30002CE736E0482D64E7809163060E94E50D8B
:103E4000A0908006B0908106BA24AB24BA24C0901A
:103E50008406D0908506DC24CD24DC24E0908806FE
:103E6000F0908906FE24EF24FE2460917C06709178
:103E70007D06762767277627072E000C880B990B7F
:103E80000E94852420E030E040E858E30E94E424CA
:103E90006AAF7BAF8CAF9DAF6093C8067093C906C5
:103EA0008093CA069093CB06B501BB0C880B990B87
:103EB0000E94852420E030E040E858E30E94E4249A
:103EC00022966CAF7DAF8EAF9FAF22976093CC06EA
:103ED0007093CD068093CE069093CF06B601DD0C8D
:103EE000880B990B0E94852420E030E040E858E3DD
:103EF0000E94E42426966CAF7DAF8EAF9FAF2697CD
:103F00006093D0067093D1068093D2069093D30627
:103F1000B701FF0C880B990B0E94852420E030E04C
:103F200040E858E30E94E4242A966CAF7DAF8EAF40
:103F30009FAF2A976093D4067093D5068093D606D8
:103F40009093D706A0908C06B0908D06BA24AB242F
:103F5000BA24B092E506A092E40660908E067090B6
:103F60008F067624672476247092E7066092E60630
:103F70004090900650909106542445245424509229
:103F8000E9064092E8069B01AC0122966CAD7DAD3E
:103F90008EAD9FAD22970E94E4246B017C01269692
:103FA0002CAD3DAD4EAD5FAD26976AAD7BAD8CAD12
:103FB0009DAD0E94E4249B01AC01C701B6010E94A3
:103FC000DF259B01AC010E94E0256E966CAF7DAFB2
:103FD0008EAF9FAF6E976093BC067093BD068093C3
:103FE000BE069093BF0622962CAD3DAD4EAD5FADA3
:103FF00022976AAD7BAD8CAD9DAD0E94E4246B0130
:104000007C012A962CAD3DAD4EAD5FAD2A9726962C
:104010006CAD7DAD8EAD9FAD26970E94E4249B01D3
:10402000AC01C701B6010E94E0259B01AC010E94D2
:10403000E02566966CAF7DAF8EAF9FAF66976093BD
:10404000C0067093C1068093C2069093C3062AAD42
:104050003BAD4CAD5DADCA01B9010E94E4246B01DA
:104060007C0122962CAD3DAD4EAD5FAD2297CA01CD
:10407000B9010E94E4249B01AC01C701B6010E9472
:10408000DF256B017C0126962CAD3DAD4EAD5FADBD
:104090002697CA01B9010E94E4249B01AC01C70123
:1040A000B6010E94DF256B017C012A962CAD3DAD47
:1040B0004EAD5FAD2A97CA01B9010E94E4249B016D
:1040C000AC01C701B6010E94E02562966CAF7DAFDE
:1040D0008EAF9FAF62976093C4067093C5068093BE
:1040E000C6069093C706B501BB0C880B990B0E94BE
:1040F00085246B017C0120E030E040E056E46E96C0
:104100006CAD7DAD8EAD9FAD6E970E94E4249B019A
:10411000AC01C701B6010E94DF250E942C274B018C
:104120007093EB066093EA06B301770C880B990B4A
:104130000E9485246B017C0120E030E040E056E4E1
:1041400066966CAD7DAD8EAD9FAD66970E94E42402
:104150009B01AC01C701B6010E94DF250E942C27FC
:104160006B017093ED066093EC06B201550C880B61
:10417000990B0E9485242B013C0120E030E040E0B7
:1041800056E462966CAD7DAD8EAD9FAD62970E9498
:10419000E4249B01AC01C301B2010E94DF250E940F
:1041A0002C277093EF066093EE06072E000C880B09
:1041B000990B0E9485242E966CAF7DAF8EAF9FAF7A
:1041C0002E97B601DD0C880B990B0E9485246B019C
:1041D0007C01B401990C880B990B0E9485244B013A
:1041E0005C012E962CAD3DAD4EAD5FAD2E976AAD08
:1041F0007BAD8CAD9DAD0E94E4242B013C01A70159
:10420000960122966CAD7DAD8EAD9FAD22970E943A
:10421000E4249B01AC01C301B2010E94E0252B0103
:104220003C01A501940126966CAD7DAD8EAD9FAD90
:1042300026970E94E4249B01AC01C301B2010E94B5
:10424000DF252B013C0120E030E0A9012A966CAD6E
:104250007DAD8EAD9FAD2A970E94E4249B01AC01F9
:10426000C301B2010E94E025A2966CAF7DAF8EAF74
:104270009FAFA297A70196016AAD7BAD8CAD9DADB6
:104280000E94E4242B013C012E962CAD3DAD4EAD99
:104290005FAD2E9722966CAD7DAD8EAD9FAD229712
:1042A0000E94E4249B01AC01C301B2010E94DF25FE
:1042B0002B013C0120E030E0A90126966CAD7DADDC
:1042C0008EAD9FAD26970E94E4249B01AC01C301F3
:1042D000B2010E94E0252B013C01A50194012A9620
:1042E0006CAD7DAD8EAD9FAD2A970E94E4249B01FD
:1042F000AC01C301B2010E94E025A6966CAF7DAF70
:104300008EAF9FAFA697A50194016AAD7BAD8CAD32
:104310009DAD0E94E4242B013C0120E030E0A90186
:1043200022966CAD7DAD8EAD9FAD22970E94E424A8
:104330009B01AC01C301B2010E94E0252B013C01AD
:104340002E962CAD3DAD4EAD5FAD2E9726966CAD45
:104350007DAD8EAD9FAD26970E94E4249B01AC01FC
:10436000C301B2010E94E0252B013C01A701960187
:104370002A966CAD7DAD8EAD9FAD2A970E94E42448
:104380009B01AC01C301B2010E94DF25AA966CAF6C
:104390007DAF8EAF9FAFAA9720E030E0A9016AAD54
:1043A0007BAD8CAD9DAD0E94E4242B013C01A501A9
:1043B000940122966CAD7DAD8EAD9FAD22970E948B
:1043C000E4249B01AC01C301B2010E94DF254B0133
:1043D0005C01A701960126966CAD7DAD8EAD9FADBB
:1043E00026970E94E4249B01AC01C501B4010E9400
:1043F000DF256B017C012E962CAD3DAD4EAD5FAD42
:104400002E972A966CAD7DAD8EAD9FAD2A970E94FA
:10441000E4249B01AC01C701B6010E94DF254B01DA
:104420005C012A96CCACDDACEEACFFAC2A97F7FA77
:10443000F094F7F8F09426968CAD9DADAEADBFAD7F
:104440002697B0582E968CAF9DAFAEAFBFAF2E97CC
:1044500022968CAD9DADAEADBFAD2297B0586A9699
:104460008CAF9DAFAEAFBFAF6A97A5019401BC0101
:10447000CD010E94E4242B013C01AA962CAD3DAD58
:104480004EAD5FADAA976AAD7BAD8CAD9DAD0E9480
:10449000E4249B01AC01C301B2010E94E0252B0181
:1044A0003C01A6962CAD3DAD4EAD5FADA697C701C4
:1044B000B6010E94E4249B01AC01C301B2010E9439
:1044C000E0252B013C01A2962CAD3DAD4EAD5FAD7C
:1044D000A2972E966CAD7DAD8EAD9FAD2E970E94AE
:1044E000E4249B01AC01C301B2010E94DF250E94BC
:1044F0002C277093F1066093F006A50194012E9687
:104500006CAD7DAD8EAD9FAD2E970E94E4242B0146
:104510003C01AA962CAD3DAD4EAD5FADAA97C7014B
:10452000B6010E94E4249B01AC01C301B2010E94C8
:10453000DF252B013C01A6962CAD3DAD4EAD5FAD08
:10454000A6976AAD7BAD8CAD9DAD0E94E4249B0126
:10455000AC01C301B2010E94E0252B013C01A296EF
:104560002CAD3DAD4EAD5FADA2976A966CAD7DAD05
:104570008EAD9FAD6A970E94E4249B01AC01C301FC
:10458000B2010E94E0250E942C277093F3066093ED
:10459000F206A5019401C701B6010E94E4246B0153
:1045A0007C01AA962CAD3DAD4EAD5FADAA972E967F
:1045B0006CAD7DAD8EAD9FAD2E970E94E4249B0126
:1045C000AC01C701B6010E94E0256B017C01A696F3
:1045D0002CAD3DAD4EAD5FADA6976A966CAD7DAD91
:1045E0008EAD9FAD6A970E94E4249B01AC01C70188
:1045F000B6010E94DF256B017C01A2962CAD3DAD7A
:104600004EAD5FADA2976AAD7BAD8CAD9DAD0E9406
:10461000E4249B01AC01C701B6010E94E0250E9481
:104620002C277093F5066093F4062AAD3BAD4CAD94
:104630005DADCA01B9010E94E0256B017C012296A3
:104640002CAD3DAD4EAD5FAD2297CA01B9010E94C0
:10465000E0254B015C012AAD3BAD4CAD5DADC70122
:10466000B6010E94E4242B013C0122962CAD3DAD05
:104670004EAD5FAD2297C501B4010E94E4249B01B9
:10468000AC01C301B2010E94E02520E030E040E827
:104690005FE30E94DF252B013C0126962CAD3DAD4A
:1046A0004EAD5FAD2697C501B4010E94E4244B01D5
:1046B0005C012A962CAD3DAD4EAD5FAD2A97C7018A
:1046C000B6010E94E4249B01AC01C501B4010E9423
:1046D000DF25A30192010E945F266093D8067093A4
:1046E000D9068093DA069093DB0666962CAD3DAD35
:1046F0004EAD5FAD6697CA01B9010E94E4246B011B
:104700007C0162962CAD3DAD4EAD5FAD6297CA01A6
:10471000B9010E94E4249B01AC01C701B6010E94CB
:10472000E0250E949C279B01AC016E966CAD7DAD8F
:104730008EAD9FAD6E970E945F266B017C01C0928B
:10474000DC06D092DD06E092DE06F092DF0662968D
:104750002CAD3DAD4EAD5FAD629766966CAD7DAD57
:104760008EAD9FAD66970E945F266093E0067093C2
:10477000E1068093E2069093E30620E030E0A90191
:1047800062966CAD7DAD8EAD9FAD62970E947E242A
:1047900087FF43CA20E030E0A901C701B6010E94AB
:1047A0008927A7019601181694F46BED7FE089E440
:1047B00090E40E94DF256093DC067093DD06809311
:1047C000DE069093DF0629CA10927C0639CB6BED8A
:1047D0007FE089E490ECEDCF82E090E099AF88AF84
:1047E00064EA72E0C9010E94F1294ECAFBAAEAAA52
:1047F000B101C9010E94F129A9CA8DE892E00E9485
:10480000470D85EEE82EFF24FA940EEC1FEF25E30A
:1048100030E042E856E06AED7EEF80E49FEF0E94D0
:10482000D91187E992E00E94470DACE2B1E0B09364
:10483000D802A093D702B093D202A093D10280E015
:1048400090E0892B09F4B8C90E940000B5C9BB27C4
:104850004A3031F4992322F4BDE2909581959F4F1F
:104860000C945524BB27FA01A62F62177105810508
:104870009105330B30FB66F0AA27660F771F881F60
:10488000991FAA1FA21710F0A21B63953850A9F711
:10489000A05DAA3308F0A95DA19336F7B111B193D9
:1048A0001082CA010C946E24BB27FB015527AA274E
:1048B000880F991FAA1FA41710F0A41B83955051AD
:1048C000B9F7A05DAA3308F0A95DA193009779F725
:1048D000B111B1931192CB010C946E24DC01FC0157
:1048E000672F71917723E1F7329704C07C916D9324
:1048F00070836291AE17BF07C8F308950E94C02469
:1049000008F481E00895E89409C097FB3EF490957F
:104910008095709561957F4F8F4F9F4F9923A9F098
:10492000F92F96E9BB279395F69587957795679527
:10493000B795F111F8CFFAF4BB0F11F460FF1BC06B
:104940006F5F7F4F8F4F9F4F16C0882311F096E9FE
:1049500011C0772321F09EE8872F762F05C06623AC
:1049600071F096E8862F70E060E02AF09A95660F65
:10497000771F881FDAF7880F9695879597F908951E
:10498000990F0008550FAA0BE0E8FEEF1616170660
:10499000E807F907C0F012161306E407F50798F0C8
:1049A000621B730B840B950B39F40A2661F0232BE1
:1049B000242B252B21F408950A2609F4A140A6955D
:1049C0008FEF811D811D08950E94F7240C946825A6
:1049D0000E945A2538F00E94612520F0952311F09D
:1049E0000C9451250C94572511240C949C250E945D
:1049F000792570F3959FC1F3950F50E0551F629F85
:104A0000F001729FBB27F00DB11D639FAA27F00D27
:104A1000B11DAA1F649F6627B00DA11D661F829F4E
:104A20002227B00DA11D621F739FB00DA11D621F33
:104A3000839FA00D611D221F749F3327A00D611D50
:104A4000231F849F600D211D822F762F6A2F112432
:104A50009F5750409AF0F1F088234AF0EE0FFF1F65
:104A6000BB1F661F771F881F91505040A9F79E3FBC
:104A7000510580F00C9451250C949C255F3FE4F384
:104A8000983ED4F3869577956795B795F795E79512
:104A90009F5FC1F7FE2B880F911D9695879597F91B
:104AA000089597F99F6780E870E060E008959FEFB0
:104AB00080EC089500240A941616170618060906B5
:104AC000089500240A941216130614060506089584
:104AD000092E0394000C11F4882352F0BB0F40F40C
:104AE000BF2B11F460FF04C06F5F7F4F8F4F9F4F4C
:104AF000089557FD9058440F551F59F05F3F71F0CE
:104B00004795880F97FB991F61F09F3F79F0879534
:104B10000895121613061406551FF2CF4695F1DFBD
:104B200008C0161617061806991FF1CF869571054D
:104B3000610508940895E894BB2766277727CB0181
:104B400097F908952F923F924F925F926F927F92C2
:104B50008F929F92AF92BF92CF92DF92EF92FF928D
:104B60000F931F93CF93DF93CDB7DEB7CA1BDB0B39
:104B70000FB6F894DEBF0FBECDBF09942A883988DE
:104B800048885F846E847D848C849B84AA84B984E5
:104B9000C884DF80EE80FD800C811B81AA81B981F1
:104BA000CE0FD11D0FB6F894DEBF0FBECDBFED0105
:104BB0000895EE0FFF1F0590F491E02D09945058D1
:104BC000BB27AA270E94F7250C9468250E945A2526
:104BD00038F00E94612520F039F49F3F19F426F443
:104BE0000C9457250EF4E095E7FB0C945125E92F22
:104BF0000E94792558F3BA1762077307840795074F
:104C000020F079F4A6F50C949B250EF4E0950B2E7C
:104C1000BA2FA02D0B01B90190010C01CA01A0010E
:104C20001124FF27591B99F0593F50F4503E68F169
:104C30001A16F040A22F232F342F4427585FF3CFAA
:104C4000469537952795A795F0405395C9F77EF47B
:104C50001F16BA0B620B730B840BBAF09150A1F0C4
:104C6000FF0FBB1F661F771F881FC2F70EC0BA0F4A
:104C7000621F731F841F48F4879577956795B795D2
:104C8000F7959E3F08F0B0CF9395880F08F09927CD
:104C9000EE0F9795879508950E945A2560F080E859
:104CA00091E009F49EEF0E94612528F040E851E070
:104CB00071F45EEF0CC00C9457250C949B25E92FE2
:104CC000E0780E94792540F3092E052AB1F32617D2
:104CD00037074807590738F00E2E07F8E02569F026
:104CE000E025E0640AC0EF6307F8009407FADB01EF
:104CF000B9019D01DC01CA01AD01EF930E94D126EB
:104D00000E9468250E948F265F91552339F02BED74
:104D10003FE049E450FD49EC0C94E0250895DF9311
:104D2000DD27B92FBF7740E85FE31616170648075F
:104D30005B0718F4D92F0E948E279F938F937F9340
:104D40006F930E94DC27ECEAF0E00E9462270E9449
:104D500068252F913F914F915F910E94F724DD23A9
:104D600051F09058A2EA2AED3FE049EC5FE3D07899
:104D70005D270E94F725DF910C9468250E9461252C
:104D800058F00E945A2540F029F45F3F29F00C9416
:104D9000512551110C949C250C9457250E9479257E
:104DA00068F39923B1F3552391F3951B550BBB275A
:104DB000AA2762177307840738F09F5F5F4F220F9F
:104DC000331F441FAA1FA9F335D00E2E3AF0E0E896
:104DD00032D091505040E695001CCAF72BD0FE2FE0
:104DE00029D0660F771F881FBB1F26173707480774
:104DF000AB07B0E809F0BB0B802DBF01FF2793582C
:104E00005F4F3AF09E3F510578F00C9451250C9479
:104E10009C255F3FE4F3983ED4F38695779567959C
:104E2000B795F7959F5FC9F7880F911D9695879560
:104E300097F90895E1E0660F771F881FBB1F62177F
:104E400073078407BA0720F0621B730B840BBA0B3D
:104E5000EE1F88F7E09508950E9433276894B111FA
:104E60000C949C2508950E94812588F09F5798F006
:104E7000B92F9927B751B0F0E1F0660F771F881F5F
:104E8000991F1AF0BA95C9F714C0B13091F00E9479
:104E90009B25B1E008950C949B25672F782F8827D8
:104EA000B85F39F0B93FCCF3869577956795B395A0
:104EB000D9F73EF490958095709561957F4F8F4F0F
:104EC0009F4F0895DF93CF931F930F93FF92EF921D
:104ED000DF927B018C01689406C0DA2EEF010E94FC
:104EE000F724FE01E894A5912591359145915591BE
:104EF000A6F3EF010E94F725FE019701A801DA94BD
:104F000069F7DF90EF90FF900F911F91CF91DF91A4
:104F100008950E94C02408F48FEF08959B01AC010E
:104F200060E070E080E89FE30C94E02719F416F449
:104F30000C9457250C94E4270E948125B8F39923FB
:104F4000C9F3B6F39F57550B87FF0E94F227002441
:104F5000A0E640EA900180585695979528F4805C29
:104F6000660F771F881F20F026173707480730F491
:104F7000621B730B840B202931294A2BA6951794A9
:104F80000794202531254A2758F7660F771F881F79
:104F900020F026173707480730F4620B730B840B99
:104FA000200D311D411DA09581F7B901842F915825
:104FB000880F9695879508959B01AC010C94E42485
:104FC0000E94CE260C9468259F3F31F0915020F42A
:104FD000879577956795B795880F911D96958795D5
:104FE00097F9089591505040660F771F881FD2F7A8
:104FF00008950F931F93CF93DF938230910510F4A0
:1050000082E090E0E0911A07F0911B0730E020E089
:10501000B0E0A0E0309799F42115310509F44AC0B9
:10502000281B390B24303105D8F58A819B81611505
:10503000710589F1FB0193838283FE0111C04081D8
:1050400051810281138148175907E0F04817590729
:1050500099F4109761F012960C93129713961C9383
:105060003296CF01DF91CF911F910F910895009358
:105070001A0710931B07F4CF2115310551F0421781
:10508000530738F0A901DB019A01BD01DF01F801E6
:10509000C1CFEF01F9CF90931B0780931A07CDCFB3
:1050A000FE01E20FF31F819391932250310939835E
:1050B0002883D7CF2091180730911907232B41F46B
:1050C0002091180130911901309319072093180786
:1050D00020911601309117012115310541F42DB7AA
:1050E0003EB740911A0150911B01241B350BE091F2
:1050F0001807F0911907E217F307A0F42E1B3F0BD6
:105100002817390778F0AC014E5F5F4F2417350739
:1051100048F04E0F5F1F5093190740931807819373
:1051200091939FCFF0E0E0E09CCFCF93DF93009787
:10513000E9F0FC01329713821282A0911A07B09114
:105140001B07ED0130E020E01097A1F420813181B0
:10515000820F931F209118073091190728173907DC
:1051600009F061C0F0931907E0931807DF91CF9120
:105170000895EA01CE17DF07E8F54A815B819E01B9
:1051800041155105B1F7E901FB83EA834991599132
:10519000C40FD51FEC17FD0761F480819181029641
:1051A000840F951FE90199838883828193819B8372
:1051B0008A83F0E0E0E012968D919C91139700971E
:1051C000B9F52D913C911197CD010296820F931F55
:1051D00020911807309119072817390739F63097A9
:1051E00051F510921B0710921A07B0931907A0935C
:1051F0001807BCCFD383C28340815181840F951F90
:10520000C817D90761F44E5F5F4F88819981480FB5
:10521000591F518340838A819B8193838283211507
:10522000310509F0B0CFF0931B07E0931A079ECF2A
:10523000FD01DC01C0CF13821282D7CFB0E0A0E025
:10524000E4E2F9E20C94A4258C01009751F4CB011F
:105250000E94F9278C01C801CDB7DEB7E0E10C94BC
:10526000C025FC01E60FF71F9C0122503109E2170F
:10527000F30708F49DC0D901CD91DC911197C617B1
:10528000D70798F0C530D10530F3CE0104978617C3
:10529000970708F3C61BD70B2297C193D1936D9341
:1052A0007C93CF010E949528D6CF5B01AC1ABD0A32
:1052B0004C018C0E9D1EA0911A07B0911B07512C1A
:1052C000412CF12CE12C109731F580911807909129
:1052D00019078815990509F05CC04616570608F0AD
:1052E00058C08091160190911701009741F48DB735
:1052F0009EB740911A0150911B01841B950BE81732
:10530000F90708F055C0F0931907E0931807F90161
:1053100071836083A0CF8D919C91119712966C90B0
:10532000129713967C901397A815B90559F56C013F
:1053300042E0C40ED11CCA14DB0420F1AC014A19AE
:105340005B09DA011296159780F0628273825183AD
:105350004083D9016D937C93E114F10471F0D7017E
:105360001396FC93EE93129776CF22968C0F9D1F87
:10537000F90191838083F301EFCFF0931B07E09352
:105380001A0769CF4816590608F42C017D01D3018C
:105390009ACFCB010E94F9277C01009749F0AE011A
:1053A000B8010E94E829C8010E949528870153CFBF
:1053B00010E000E050CFFB01DC0104C08D910190B2
:1053C000801921F441505040C8F7881B990B08956B
:1053D000FB01DC0102C001900D9241505040D8F712
:1053E0000895FB01DC0101900D920020E1F7089582
:1053F000AEE0B0E0EEEFF9E20C94B0250D891E8925
:1054000086E08C831A8309838FEF9FE79E838D83C9
:10541000AE01475E5F4F6F89788DCE0101960E9485
:105420001B2A2F813885020F131FF80110822E9638
:10543000E4E00C94CC25ABE0B0E0E1E2FAE20C94BD
:10544000A2257C013B018A01FC011782168283811F
:1054500081FFC8C1CE0101965C01F7019381F30180
:1054600093FD859193FF81913F01882309F453C1F6
:10547000853239F493FD859193FF81913F01853207
:1054800029F4B70190E00E940B2CE7CF912C212C3E
:10549000312CFFE1F31538F08B3211F190F48032AA
:1054A00009F1833229F137FC3CC020ED280F2A3066
:1054B00050F536FE20C08AE0989E200D1124922ED1
:1054C00006C08D3291F0803371F7689430F8F301A3
:1054D00093FD859193FF81913F018111DACF21C026
:1054E000689431F8689432F8F2CF689433F8EFCFCB
:1054F000689434F8ECCFEAE02E9E200D1124222E81
:10550000689435F8E4CF8E3229F436FC04C16894EF
:1055100036F8DDCF8C3619F4689437F8D8CF883652
:10552000B1F2982F9F7D95549330E0F08336A1F12E
:105530008337C1F1833509F063C02801F2E04F0ED3
:10554000511CF801C080D180692D70E036FC02C08A
:105550006FEF7FEFC6010E94F52B4C01689437F87E
:1055600082010AC00C5F1F4FFFE3F98388248394F4
:10557000912C6501E89437F833FE2DC0522C81142C
:10558000910471F5552009F468CFB70180E290E0ED
:105590000E940B2C5A94F6CFF801808189830E5F0C
:1055A0001F4FE4CF2801F2E04F0E511CF801C080DC
:1055B000D180692D70E036FC02C06FEF7FEFC6012D
:1055C0000E94002C4C018201D5CFB70180E290E00F
:1055D0000E940B2C2A942814190409F0B0F7CECF9E
:1055E000F60137FC859137FE81916F01B70190E09C
:1055F0000E940B2C51105A94F1E08F1A9108BFCFE2
:10560000843619F0893609F077C0F80137FE6BC08F
:1056100060817181828193810C5F1F4FF32DFF7632
:105620003F2E97FF09C090958095709561957F4FAB
:105630008F4F9F4F689437F82AE030E0A5010E9411
:105640003B2CC82ECA188C2C432C36FE0CC0E89478
:1056500040F8C91440F434FE05C032FC03C0F32DF9
:10566000FE7E4F2E892C44FE95C0FE01EC0DF11DEF
:105670008081803309F087C0242D297E422E842D1D
:105680008870582E43FC95C040FE8FC09C2C82141D
:1056900018F42C0C922C981844FE91C0B70180E3AA
:1056A00090E00E940B2C42FE09C088E790E041FE8A
:1056B00002C088E590E0B7010E940B2CC91408F4E1
:1056C0008AC0CA94D12C9FEFC91AD90ACA0CDB1C14
:1056D000F60182916F01B70190E00E940B2CAC148F
:1056E000BD04B1F74FCF60817181072E000C880B8C
:1056F000990B0E5F1F4F92CFD32CE894D4F82AE079
:1057000030E0853739F1232D297FD22E8F3601F1F4
:1057100048F48835A9F0F701868197812B96E2E15C
:105720000C94BE25803749F08837A9F7D4FE02C013
:105730006894D2F820E130E00DC06894D4F8F6CF38
:1057400034FE03C0822F8660D82E20E132E002C0F2
:1057500028E030E0F801D7FE0FC0608171818281BE
:1057600093810C5F1F4FA5010E943B2CC82ECA18C5
:105770003D2CE89437F867CF6081718190E080E03C
:105780000E5F1F4FF0CF42FC02C0839478CF83940A
:10579000839475CF842D867809F471CFF6CFB70145
:1057A00080E290E00E940B2C83948214C0F3512C71
:1057B00073CF522C5818821408F46ECFF8CF842D72
:1057C000867809F47BCF8BE241FE80E247FC8DE2D4
:1057D000B70190E071CFB70180E390E00E940B2CFD
:1057E0009A946CCF8FEF9FEF99CFFC010590615099
:1057F00070400110D8F7809590958E0F9F1F0895E7
:10580000FC016150704001900110D8F7809590958F
:105810008E0F9F1F08950F931F93CF93DF93182F21
:10582000092FEB018B8181FD09C01FEF0FEF812F45
:10583000902FDF91CF911F910F91089582FF14C097
:105840002E813F818C819D81281739073CF4E881A6
:10585000F981CF0101969983888310838E819F817E
:1058600001969F838E83E3CFE885F985812F099583
:10587000892BA1F3DACFFA01AA27283051F1203180
:1058800081F1E8946F936E7F6E5F7F4F8F4F9F4FD4
:10589000AF4FB1E03ED0B4E03CD0670F781F891F16
:1058A0009A1FA11D680F791F8A1F911DA11D6A0FE4
:1058B000711D811D911DA11D20D009F468943F9197
:1058C0002AE0269F11243019305D3193DEF6CF0196
:1058D0000895462F4770405D4193B3E00FD0C9F75C
:1058E000F6CF462F4F70405D4A3318F0495D31FDC9
:1058F0004052419302D0A9F7EACFB4E0A69597951C
:10590000879577956795BA95C9F7009761057105F1
:1059100008959B01AC010A2E06945795479537953B
:105920002795BA95C9F7620F731F841F951FA01D95
:065930000895F894FFCF7A
:10593600FFFFFFFF00E10000000000001B0B1B0B38
:105946001B0B1B0B1B0B00001C078000020802042C
:105956000202020102800240021002200302030139
:105966000380034003200310030400C1808100006C
:1059760000380136013401320130012E012C012A92
:1059860001280126012401220120011E011C01001B
:105996000000002601240100000000EC07BF07E11B
:1059A6000B0A070B07AC079D0700000000690CE413
:1059B6000B8A0C7F0CD00C8E0CAC0C0D0A004D50D3
:1059C600553630353020636F6E6E656374696F6E61
:1059D600207375636365737366756C004D50553639
:1059E60030353020636F6E6E656374696F6E206646
:1059F60061696C656400496E697469616C697A698C
:105A06006E672049324320646576696365732E2E7E
:105A16002E0054657374696E6720646576696365E4
:105A260020636F6E6E656374696F6E732E2E2E0023
:105A36004572726F7220696E697469616C697A6900
:105A46006E672121210058496E7075742044656285
:105A560075673A20004C543A20253375202573206B
:105A66004C3A282536642C202536642C20257329AB
:105A760000202563256325632563207C2025632577
:105A8600632563207C202563256325632563200029
:105A9600523A282536642C202536642C2025732975
:105AA6002025732052543A20253375004C42004C71
:105AB60033005242005233004C454654005365743D
:105AC600757020494D550053657475702074696D65
:105AD600657273006C2C0057616974696E67206388
