:100000000C94BF040C9491080C946A080C94430857
:100010000C941C080C94E7040C94E7040C94F5076A
:100020000C94E7040C94E7040C94B8080C942A0987
:100030000C94E7040C94E7040C94E7040C94E70494
:100040000C94E7040C94E7040C94E7040C94E70484
:100050000C94E7040C94E7040C94E7040C941A182D
:100060000C94E7040C94B70B0C94910B0C94E704DC
:100070000C94E7040C94E7040C94E7040C94E70454
:100080000C94E7040C94E7040C94E7040C94E70444
:100090000C9438100C94E7040C94E7040C94E704D7
:1000A0000C94E7040C94E7040C94E704031E0B1E65
:1000B000121E191E341E4F1E801E5B0E5E0E4D0E4C
:1000C000510E550E7F0E7F0E7F0E620E660E6A0E6B
:1000D000700E740E7F0E7A0EFB00003E000B003691
:1000E000000100020003000000650054FFEF000063
:1000F000FA80000B128200010002000000000000E4
:10010000000000000000000000280000FFFF458103
:10011000FFFFFA7200000000000003E80000000189
:1001200000017FFFFFFE8001001B000000000000B7
:10013000000000000000000000400000400000003F
:1001400002CB47A2200000002000000000000000B9
:10015000400000006000000041FF000000000B2A8A
:100160000000165500002182FD872650FD8000000A
:10017000001F0000000580000000000000010000DA
:100180000002000000030000400000000000046FB7
:100190000002653200005EC0400000000000000068
:1001A0000000000000000000FB8C6F5DFD5D08D9C1
:1001B000007C733B006C12CC3200139D3200D0D611
:1001C00032000800400001F4FFE6807902000000E0
:1001D0000000D0D600002710FB0000004000000007
:1001E000000000000000000000000001000000000E
:1001F00000000100010000000000FA36FFBC308E54
:100200000005FBF0FFD95BC8FFD09ABE000010A923
:10021000FFF41EB200CEBBF7000000010000000496
:10022000000200020200000CFFC2800000018000FA
:1002300000CF80004000000000000000000000002F
:100240000000060000000014000000000000000094
:10025000000000000000000000000000000000009E
:1002600000000000000000000923A135000000008C
:10027000000000000000000000000000033F68B61E
:10028000793528BCC67ED16C8000FFFF400000009D
:100290000000B26A00000000000000000000000042
:1002A00000003FF0000000300000000000000000EF
:1002B000000000000000000000000000000000003E
:1002C00000000000000040000000254D002F706D70
:1002D000000005AE000C02D00000000000650054D4
:1002E000FFEF0000000000000000010000440001DA
:1002F00000058BC100000100000000000065000047
:1003000000540000FFEF00000000000000000000AB
:1003100000000000000000000000000000000000DD
:1003200000000000000000000000000000000000CD
:1003300000000000000000000000000100000002BA
:1003400000000000000000000000000000000000AD
:10035000000000000000000000000000000000009D
:100360000000000000000000001B00000000000072
:10037000000000000000000000000000000000007D
:10038000000000000000000000000000000000006D
:100390000000000000000000001B00000000000042
:1003A000000000000000000000000000000000004D
:1003B000000000000000000000000000000000003D
:1003C000000000000000000000000000000000002D
:1003D0000000000000000000D8DCBAA2F1DEB2B8D4
:1003E000B4A88191F74A907F916AF3F9DBA8F9B03C
:1003F000BAA080F2CE81F3C2F1C1F2C3F3CCA2B2B3
:1004000080F1C6D880BAA7DFDFDFF2A7C3CBC5B6BD
:10041000F087A2942448703C95406834589B78A299
:10042000F183922D557DD8B1B4B8A1D09180F270EE
:10043000F370F27C80A8F101B09887D943D886C9BF
:1004400088BAA1F20EB89780F1A9DFDFDFAADFDF5B
:10045000DFF2AA4CCD6CA90CC92C97979797F1A9FC
:1004600089264666B0B4BA80ACDEF2CAF1B28C021C
:10047000A9B69800890E161EB8A9B4992C547CB060
:100480008AA896365676F1B9AFB4B083C0B8A897AB
:1004900011B18F98B9AFF0240844106418F1A32962
:1004A000557DAF83B593AFF0002850F1A3869F61CF
:1004B000A6DADEDFD9FAA38696DB31A6D9F8DFBA51
:1004C000A68FC2C5C7B28CC1B8A2DFDFDFA3DFDF52
:1004D000DFD8D8F1B8A8B286B4980D355DB8AA981F
:1004E000B0872D353DB2B6BAAF8C96198F9FA70E47
:1004F000161EB49AB8AA872C547CB9A3DEDFDFA3FA
:10050000B180F2C4CDC9F1B8A9B499830D355D8924
:10051000B9A32D557DB593A30E161EA92C547CB8F6
:10052000B4B0F19783A81184A50998A383F0DA24C5
:100530000844106418D8F1A529557DA58595021A9F
:100540002E3A565A4048F9F3A3D9F8F09883240874
:10055000441064189782A8F111F098A2240844105E
:100560006418DAF3DED883A59401D9A302F1A2C3FB
:10057000C5C7D8F18492A24DDA2AD84869D92AD8B9
:100580006855DA32D85071D932D8705DDA3AD85815
:1005900079D93AD87893A34DDA2AD84869D92AD894
:1005A0006855DA32D85071D932D8705DDA3AD858F5
:1005B00079D93AD878A88A9AF02850789EF3881882
:1005C000F19F1D98A8D908D8C89F129EF315A8DAE4
:1005D0001210D8F1AFC8978734B5B994A421F3D9D4
:1005E00022D8F22DF3D92AD8F235F3D932D881A402
:1005F000606061D961D86C6869D969D8747071D943
:1006000071D8B1A384193D5DA3831A3E5E93103067
:10061000811011B8B0AF8F94F2DA3ED8B49AA8879F
:1006200029DAF8D8879A35DAF8D8879A3DDAF8D8EF
:10063000B1B9A49885022E56A581000C14A397B0D9
:100640008AF12DD928D84DD948D86DD968D8B18428
:100650000DDA0ED8A32983DA2C0ED8A3844983DAC5
:100660002C4C0ED8B8B0A88A9AF520AADADFD8A800
:1006700040AAD0DADED8A860AADAD0DFD8F197860F
:10068000A8319B069907AB9728889BF00C20144053
:10069000B8B0B4A88C9CF0042851791D301438B23D
:1006A00082ABD0982C505078789BF11AB0F08A9C8D
:1006B000A82951798B2951798A2470598B20587136
:1006C0008A4469388B3940688A6448318B30496084
:1006D000A588200971584468113964493019F1AC72
:1006E000002C547CF08CA804285078F1889726A818
:1006F0005998AC8C02264666F0899CA82951792429
:100700007059446938644831A98809205970AB117F
:10071000384069A8193148608CA83C415C207C00B5
:10072000F187981986A86E767EA999882D557D9EA9
:10073000B9A38A228A6E8A568A5E9FB183062646AC
:10074000660E2E4E6E9DB8AD002C547CF2B18CB46A
:1007500099B9A32D557D8191AC38AD3AB58391AC53
:100760002DD928D84DD948D86DD968D88C9DAE29B7
:10077000D904AED851D904AED879D904D881F39D23
:10078000AD008DAE1981ADD901D8F2AEDA26D88E82
:10079000912983A7D9ADADADADF32AD8D8F1B0ACCE
:1007A00089913E5E76F3AC2E2EF1B18C5A9CAC2C26
:1007B0002828289CAC3018A8988128343C9724A776
:1007C00028343C9C24F2B089AC912C4C6C8A9B2D33
:1007D000D9D8D851D9D8D879D9D8D8F19E88A331C9
:1007E000DAD8D8912DD928D84DD948D86DD968D81C
:1007F000B18393353D8025DAD8D88569DAD8D8B465
:100800009381A328343CF3AB8BF8A391B609B4D9F8
:10081000ABDEFAB0879CB9A3DDF1202830389AF11D
:100820002830389DF1A3A3A3A3F2A3B49080F2A330
:10083000A3A3A3A3A3A3A3A3A3B2A3A3A3A3A3A379
:10084000B087B599F128303898F1A3A3A3A397A353
:10085000A3A3A3F39BA330DCB9A7F1262626FED8D9
:10086000FF00000000240027002A002D0030004572
:1008700052524F523A204E6F2063616C6C6261633A
:100880006B20617661696C61626C6520666F7220B5
:100890007061636B65742049442000080B000202FC
:1008A00002010009040000010202000005240010FA
:1008B00001052401010104240206052406000107A4
:1008C00005810310004009040100020A000000072E
:1008D00005020240000007058302400000040309EE
:1008E0000412010002EF02014041233680000101A1
:1008F00002030141726475696E6F204C4C430041E4
:10090000726475696E6F204C656F6E6172646F0002
:1009100000000000250028002B002E0031000404F8
:100920000404040304050202020204030202020298
:10093000060606060606040402020204040408026F
:100940000110408040102040804080080204018057
:1009500040201002011080102040402000000002C2
:1009600000090F0000030401000C0000000000005B
:10097000000000000000000000000000F31F112430
:100980001FBECFEFDAE0DEBFCDBF13E0A0E0B1E0E5
:10099000EEE8F4E502C005900D92A033B107D9F757
:1009A00028E0A0E3B3E001C01D92A732B207E1F74F
:1009B00014E0CFEBD4E004C02197FE010E94DB24B9
:1009C000CE3BD107C9F70E9464180C94452A0C94B9
:1009D0000000089540914203509143032091400349
:1009E0003091410342175307B4F49091E800957099
:1009F000E1F39091E80092FD19C08093F10080919D
:100A000042039091430301968F739927892B19F420
:100A10008EEF8093E800809142039091430301960A
:100A2000909343038093420381E0089580E008950A
:100A3000DF92EF92FF920F931F93CF93DF93D82E05
:100A4000F92EE42E062F10E0C8010196880F0E94AF
:100A5000EA0483E00E94EA04CD2DDF2D0C0F1D1F58
:100A6000C017D10789F0E7FE03C0FE01849101C0E1
:100A700088810E94EA04F82E80E00E94EA048F2117
:100A800021968111EDCF01C081E0DF91CF911F91BF
:100A90000F91FF90EF90DF900895DF92EF92FF9219
:100AA0000F931F93CF93DF93D82E8A017B01E40E1F
:100AB000F51EEB01CE15DF0571F0D7FE03C0FE0178
:100AC000849101C088810E94EA0421968111F2CFAD
:100AD0008FEF9FEF01C0C801DF91CF911F910F9160
:100AE000FF90EF90DF900895615030F02091F10079
:100AF000FC0120830196F8CF289884E68093530365
:100B00000895CF92DF92EF92FF920F931F93CF93AE
:100B1000DF936C017A018B01C0E0D0E0CE15DF05D8
:100B200081F0D8016D918D01D601ED91FC9101907C
:100B3000F081E02DC6010995892B11F02196EECFA9
:100B40007E01C701DF91CF911F910F91FF90EF9030
:100B5000DF90CF900895FC01538D448D252F30E018
:100B6000842F90E0821B930B541710F0CF960895BA
:100B700001970895FC01918D828D981761F0828D07
:100B8000DF01A80FB11D5D968C91928D9F5F9F73C1
:100B9000928F90E008958FEF9FEF0895FC01918D63
:100BA000828D981731F0828DE80FF11D858D90E0D0
:100BB00008958FEF9FEF0895FC01918D228D892F6D
:100BC00090E0805C9F4F821B91098F739927089555
:100BD00080EB93E00E94DC0521E0892B09F420E002
:100BE000822F0895FC01848DDF01A80FB11DA35A47
:100BF000BF4F2C91848D90E001968F739927848F3D
:100C0000A689B7892C93A089B1898C9182748C9321
:100C1000938D848D981306C00288F389E02D80811E
:100C20008F7D80830895EF92FF920F931F93CF9350
:100C3000DF93EC0181E0888F9B8D8C8D981305C02C
:100C4000E889F989808185FD26C0F62E0B8D10E09C
:100C50000F5F1F4F0F731127E02E8C8DE8120CC011
:100C60000FB607FCFACFE889F989808185FFF5CFB7
:100C7000CE010E94F205F1CF8B8DFE01E80FF11D30
:100C8000E35AFF4FF0829FB7F8940B8FEA89FB89F4
:100C90008081806209C09FB7F894EE89FF896083E4
:100CA000E889F9898081827480839FBF81E090E028
:100CB000DF91CF911F910F91FF90EF900895CF9307
:100CC000DF93EC01888D8823C9F0EA89FB89808154
:100CD00085FD05C0A889B9898C9186FD0FC00FB626
:100CE00007FCF5CF808185FFF2CFA889B9898C9167
:100CF00085FFEDCFCE010E94F205E7CFDF91CF91C6
:100D0000089580E090E0892B29F00E94E805811188
:100D10000C9400000895CF93DF931F92CDB7DEB7F8
:100D20006983DC01ED91FC910280F381E02D41E0CB
:100D300050E0BE016F5F7F4F09950F90DF91CF911B
:100D4000089583E08093E9008091F200882319F0F0
:100D50008AE38093E8000895FC018485958597FDDA
:100D60000BC09FB7F89482E08093E9008091F20075
:100D70009FBF90E0019608959FB7F89482E080931A
:100D8000E9008091F2009FBF90E00895089580E00F
:100D900090E0089581E080933F0308950E947027BA
:100DA0000F931F93CF93DF931F92CDB7DEB782E0EF
:100DB000898342E450E06BE978E080E80E944D05C9
:100DC0000E946611DC0112960D911C91139701157A
:100DD000110589F0D801ED91FC910280F381E02D9D
:100DE000BE016F5F7F4FC801099597FD04C0F801F0
:100DF00000851185ECCF89810F90DF91CF911F91F4
:100E00000F9108958F929F92AF92BF92CF92DF92EF
:100E1000EF92FF920F931F93CF93DF936C017B01AF
:100E20008A0180910701882309F45CC080915403F2
:100E3000882309F457C08091300380FF05C080915A
:100E4000E00082608093E000E801B12C8AEFA82ED8
:100E500093E0892E2AE3922E209711F4BB20D9F13A
:100E60000E948B0F81110AC0AA94AA20D9F161E0D7
:100E700070E080E090E00E949F11EECF282F30E0DC
:100E8000C217D3070CF48C2F9FB7F8948092E90017
:100E90002091E80025FF1DC0282F30E0C21BD30B96
:100EA000F701815020F041914093F100FACFE20E1A
:100EB000F31EBB2019F09092E8000AC08091E80070
:100EC00085FD07C09092E800BB24B394209709F0F9
:100ED000B12C9FBFC1CF5D9884E680934503101667
:100EE000110644F081E090E0F6019383828380E074
:100EF00090E001C0C801DF91CF911F910F91FF9049
:100F0000EF90DF90CF90BF90AF909F908F9008951B
:100F10000E948B0F90E008950F931F93CF93DF9360
:100F20001F92CDB7DEB78C01FC018485958597FFB4
:100F30000EC0CE0101960E945D0F019719F48981C0
:100F400090E002C08FEF9FEFF80195878487F8014A
:100F5000848595850F90DF91CF911F910F91089512
:100F6000CF93DF931F92CDB7DEB7FC0184859585C3
:100F700097FD05C02FEF3FEF358724870BC0CE01CB
:100F800001960E945D0F019719F4898190E002C0DB
:100F90008FEF9FEF0F90DF91CF9108950F931F93E5
:100FA000CF93DF93EC0188819981009729F02A8102
:100FB0003B812617370788F48B016F5F7F4F0E94B4
:100FC000AA26009761F0998388831B830A832C816A
:100FD0003D81232B11F4FC01108281E001C080E0EF
:100FE000DF91CF911F910F9108951F920F920FB62D
:100FF0000F9211242F933F934F935F936F937F939F
:101000008F939F93AF93BF93EF93FF93E091100162
:10101000F09111010995FF91EF91BF91AF919F91CF
:101020008F917F916F915F914F913F912F910F9091
:101030000FBE0F901F9018951F920F920FB60F9230
:1010400011242F933F934F935F936F937F938F93CD
:101050009F93AF93BF93EF93FF93E0910E01F091B5
:101060000F010995FF91EF91BF91AF919F918F91E2
:101070007F916F915F914F913F912F910F900FBE94
:101080000F901F9018951F920F920FB60F92112478
:101090002F933F934F935F936F937F938F939F9380
:1010A000AF93BF93EF93FF93E0910C01F0910D018B
:1010B0000995FF91EF91BF91AF919F918F917F9192
:1010C0006F915F914F913F912F910F900FBE0F90B5
:1010D0001F9018951F920F920FB60F9211242F9305
:1010E0003F934F935F936F937F938F939F93AF93B0
:1010F000BF93EF93FF93E0910A01F0910B010995E3
:10110000FF91EF91BF91AF919F918F917F916F91DF
:101110005F914F913F912F910F900FBE0F901F90B5
:1011200018951F920F920FB60F9211242F933F9391
:101130004F935F936F937F938F939F93AF93BF93DF
:10114000EF93FF93E0910801F09109010995FF9158
:10115000EF91BF91AF919F918F917F916F915F912F
:101160004F913F912F910F900FBE0F901F901895A8
:101170001F920F920FB60F9211248F939F9380911D
:10118000E1009091E100937F9093E10083FF0FC015
:101190001092E90091E09093EB001092EC0092E342
:1011A0009093ED001092540398E09093F00082FF2A
:1011B00020C093E09093E9009091F200992319F0F8
:1011C0009AE39093E80090914503992339F0909128
:1011D0004503915090934503992389F190915303CE
:1011E000992339F09091530391509093530399238D
:1011F00041F184FF10C08091E2008E7E8160809377
:10120000E2008091E1008F7E8093E10080913003C5
:101210008E7E806111C080FF16C08091E2008E7EBC
:1012200080618093E2008091E1008E7E8093E100F6
:10123000809130038E7E81608093300304C05D9A7C
:10124000CDCF289AD6CF9F918F910F900FBE0F9040
:101250001F9018951F920F920FB60F921124CF92E4
:10126000DF92EF92FF920F931F932F933F934F9331
:101270005F936F937F938F939F93AF93BF93EF93FE
:10128000FF93CF93DF93CDB7DEB76C97DEBFCDBFB3
:101290001092E9008091E80083FFFBC168E0CE0175
:1012A00045960E94740582EF8093E8008D8987FF40
:1012B00005C09091E80090FFFCCF03C09EEF909393
:1012C000E800982F907609F0C6C09E894F89588D06
:1012D0002F89F88C91110CC0803829F4809131034A
:1012E0008093F10002C01092F1001092F10045C10C
:1012F000913051F4811141C14130510509F03DC196
:10130000809131038D7F0BC0933061F4811135C121
:101310004130510509F031C18091310382608093E1
:1013200031032BC1953049F48091E80080FFFCCF58
:10133000822F80688093E30020C1963009F05EC060
:101340000B8D1C8D22E01092E90010924303109245
:101350004203F21232C010924103109240030E94E5
:10136000D00699E0BE016F5F7F4FDB01E92F1D9230
:10137000EA95E9F79983FA8291E09E8390EA98874B
:101380009AEF99872091420330914303275F3F4FA3
:101390003C832B838D831092E900109243031092BB
:1013A0004203109341030093400349E050E080E082
:1013B0000E944D050E94D006E0C0109341030093A7
:1013C00040030E946611DC0112960D911C91139747
:1013D0000115110509F4BBC0D801ED91FC91048001
:1013E000F581E02DBE016B5E7F4FC8010995009726
:1013F00009F0C7C0F80100851185EACF973009F4DC
:1014000045C1983021F481E08093F100B6C0993055
:1014100009F0B3C0837009F039C1EDE1F1E081E07A
:1014200031E096E32081211109C08EE78093EA0024
:101430001092EA008F89809354039FC08093E90043
:101440003093EB0021912093EC009093ED008F5F9F
:10145000873041F7EACF8B8D9C8D1092E900109276
:101460004303109242039093410380934003898D7C
:10147000811153C08E899D89913A49F4813209F0D6
:1014800005C147E050E060E071E080E0BBC0913210
:1014900009F0FCC0833269F48F89988DA0E0B0E038
:1014A0008093120190931301A0931401B09315013E
:1014B00064C0803269F48091E80082FFFCCF67E06D
:1014C00080E091E00E9474058BEF8093E80055C0A6
:1014D000823209F052C08F8980930701EEEFFFE757
:1014E000859194918B3F9C4D19F0E0E0F8E002C0AB
:1014F000EEEFFAE08091000190910101A0910201CC
:10150000B0910301803B9440A105B10509F09EC054
:101510008091070180FF79C099C00E946611FC018B
:10152000028113810115110509F4B0C0D801ED91B4
:10153000FC910190F081E02DBE016B5E7F4FC801F0
:10154000099581111AC0F80100851185EBCFF1E0F2
:10155000FF1609F44EC0F3E0FF1298C08F8988236C
:1015600009F44AC0823089F440E860E18FEF98E0E6
:101570000E941805882309F489C08EEF8093E80043
:1015800088C018161906CCF381C0813029F440E8D0
:101590006BE083EF98E0ECCF833009F077C00E94D6
:1015A0006611DC011296ED90FC9013978E010F5F8F
:1015B0001F4F6801E114F10479F0D701ED91FC911E
:1015C0000680F781E02DB801C7010995080F111DAC
:1015D000F701E084F184EECFD8011C92F60101906E
:1015E0000020E9F73197BF016C197D0940E0C60181
:1015F000BFCF61EE78E002C06DED78E0FB01449171
:1016000050E080E80E944D05B8CFEE3F2AE0F20797
:1016100051F0808191818737A7E79A0721F0909355
:10162000FF0A8093FE0A87E797E791838083809182
:101630006000809344039BE088E10FB6F894A8957E
:10164000809360000FBE9093600097CF808191815E
:101650008737974709F091CFA895809160008861FE
:10166000809360008091440380936000EE3FBAE075
:10167000FB0739F08091FE0A9091FF0A91838083E5
:101680007CCF1092FF0A1092FE0A77CF81E28093FE
:10169000EB006C960FB6F894DEBF0FBECDBFDF91A6
:1016A000CF91FF91EF91BF91AF919F918F917F91DA
:1016B0006F915F914F913F912F911F910F91FF90EB
:1016C000EF90DF90CF900F900FBE0F901F90189566
:1016D0006115710579F0FB0101900020E9F7319760
:1016E000AF01461B570BDC01ED91FC910280F381A9
:1016F000E02D099480E090E008950F931F93CF931D
:10170000DF93EC010E94680B8C0169E872E0CE0166
:101710000E94680B800F911FDF91CF911F910F9155
:1017200008951F920F920FB60F9211242F933F939B
:101730004F935F936F937F938F939F93AF93BF93D9
:10174000EF93FF9380EB93E00E94F205FF91EF91FE
:10175000BF91AF919F918F917F916F915F914F91C9
:101760003F912F910F900FBE0F901F9018951F92D1
:101770000F920FB60F9211242F938F939F93EF9395
:10178000FF93E091C003F091C1038081E091C60313
:10179000F091C70382FD12C090818091C9038F5FD1
:1017A0008F732091CA03821751F0E091C903F0E0D2
:1017B000E055FC4F958F8093C90301C08081FF9154
:1017C000EF919F918F912F910F900FBE0F901F90CF
:1017D0001895FF920F931F93CF93DF93142FF22E40
:1017E000032F91E09093B2078093D4071092B30730
:1017F0001092D50784EA93E00E94010ECF2DD02FDE
:10180000CE01810F911D8C01C017D10731F0699174
:1018100084EA93E00E94010EF7CF0E94381691E00F
:10182000811190E0892FDF91CF911F910F91FF904F
:101830000895CF93DF9300D0CDB7DEB75A834983A5
:10184000AE014F5F5F4F0E9444170F900F90DF91E2
:10185000CF910895CF93DF931F92CDB7DEB7498321
:101860009E012F5F3F4F41E00E94E90B0F90DF91F7
:10187000CF9108952F923F924F925F926F927F92F5
:101880008F929F92AF92BF92CF92DF92EF92FF9290
:101890000F931F93CF93DF9300D000D000D0CDB72C
:1018A000DEB7982E862E4D8359010E9461146B017C
:1018B0007C01312C1E82222423949D81892F90E06B
:1018C0009C838B832801612C712CED813E1608F0DE
:1018D00042C02092B2079092D4071092B3071092A0
:1018E000D507682D84EA93E00E94010E0E94381605
:1018F0002092B2079092D4071092B3071092D507A6
:101900006B817C81631971096132710514F060E2A9
:1019100070E0613208F060E2892D0E945D1510923E
:10192000B1078093B0079091B0078091B1079817E5
:1019300009F443C00115110569F10E946114DC012D
:10194000CB018C199D09AE09BF0984159505A60523
:10195000B70500F132C001151105A9F10E9461140B
:10196000DC01CB018C199D09AE09BF0920E030E0F4
:1019700080179107A207B30730F1FD812F2F30E0C8
:101980004E81842F440F990B82179307E4F48FEF55
:101990008E8319C0F5012E81E20FF11D27FDFA9506
:1019A000FA83E98384EA93E00E94B80DE981FA8121
:1019B0008083FE81FF5FFE83B6CF8D81813208F088
:1019C00080E2380E82CF8E8126960FB6F894DEBF65
:1019D0000FBECDBFDF91CF911F910F91FF90EF9080
:1019E000DF90CF90BF90AF909F908F907F906F903F
:1019F0005F904F903F902F900895BF92CF92DF92CB
:101A0000EF92FF920F931F93CF93DF931F92CDB767
:101A1000DEB7F82EE62EC42EB22ED02E08EE13E03E
:101A20009E012F5F3F4F41E00E943A0C882339F11D
:101A30002C2D30E02B1931092F5F3F4F81E090E0D2
:101A400002C0880F991FBA94E2F70197022E01C0D5
:101A5000880F0A94EAF74D2D50E0BA0102C0660FD4
:101A6000771F2A95E2F7482F4095998149238623CD
:101A7000482B49836E2D8F2D0E942A0C01C080E0D7
:101A80000F90DF91CF911F910F91FF90EF90DF901A
:101A9000CF90BF900895CF92DF92EF92FF920F9375
:101AA0001F93CF93DF931F92CDB7DEB7F82EE62EAC
:101AB000D42EC22E08EE13E09E012F5F3F4F41E06F
:101AC0000E943A0C898141E050E001C0440FDA9451
:101AD000EAF7CC2011F0482B02C0409548234983F7
:101AE0006E2D8F2D0E942A0C0F90DF91CF911F91A8
:101AF0000F91FF90EF90DF90CF9008954091810378
:101B0000262F30E0240F311D21323105DCF42091E5
:101B10001C082430C9F4FC0180E090E0861758F4DA
:101B2000309181032191DC01AF59BC4FA30FB11D4E
:101B30002C930196F3CF80918103680F609381030A
:101B400080E0089581E0089582E008950895089561
:101B50000895E091B1078091B007E81730F4F0E004
:101B6000E450F84F808190E008958FEF9FEF089543
:101B70009091B1078091B007981750F4E92FF0E0E9
:101B8000E450F84F208130E09F5F9093B10702C08E
:101B90002FEF3FEFC90108958091B00790E02091A9
:101BA000B107821B91090895CF92DF92EF92FF92C5
:101BB0000F931F93CF93DF937C01CB018A01209178
:101BC000B207222389F0EB016B01C40ED51ECC15A0
:101BD000DD0569F06991D701ED91FC910190F081EB
:101BE000E02DC7010995F3CF642F0E947E0DC80137
:101BF000DF91CF911F910F91FF90EF90DF90CF90E9
:101C00000895CF93DF931F92CDB7DEB769832091FC
:101C1000B2072223D1F02091D507203240F021E0F5
:101C200030E0FC013383228380E090E015C0809196
:101C3000B307E82FF0E0EC54F84F998190838F5F61
:101C40008093B3078093D50705C061E0CE0101966C
:101C50000E947E0D81E090E00F90DF91CF9108957A
:101C6000362F90E0FC01E45AF64F4491FC01E35C0E
:101C7000F64F2491FC01E25EF64F8491882309F42B
:101C800052C04423E1F150E0FA013197EF30F10501
:101C9000B0F5E35AFF4F0C94DB24909180009F77BE
:101CA00007C0909180009F7D03C090918000977F36
:101CB0009093800024C094B59F7702C094B59F7D17
:101CC00094BD1DC0909190009F7707C090919000A7
:101CD0009F7D03C090919000977F909390000FC0DC
:101CE0009091C0009F7703C09091C0009F7D90931A
:101CF000C00005C09091C200977F9093C200E82F6A
:101D0000F0E0EE0FFF1FE05FF64FA591B4919FB793
:101D1000F894311104C08C912095282302C0EC91D5
:101D20002E2B2C939FBF08952F923F924F925F923C
:101D30006F927F928F929F92AF92BF92CF92DF92DB
:101D4000EF92FF920F931F93CF93DF933C015B01C0
:101D5000342E522E202E4F716DE6809101070E9485
:101D60002A0C452D6EE6809101070E942A0C80E125
:101D700090E00E9489256C01002331F080E190E021
:101D80000E9489257C0102C0E12CF12CC0E0D0E04A
:101D9000CA15DB0508F072C0CE014096A816B90638
:101DA00018F44A2C4C1A02C080E1482E842D90E091
:101DB00020E031E0251931092817390714F4452CA2
:101DC0004194222071F0D70180E090E0841560F406
:101DD000FE01E80FF91FE60DF71DE491ED93019662
:101DE000F5CF7301EC0EFD1E9701442D6FE6809137
:101DF00001070E94E90B842C912CC114D10431F10C
:101E0000432D4F716DE6809101070E942A0C452DEC
:101E10006EE6809101070E942A0C08EE13E09601FD
:101E2000442D6FE6809101070E943A0CA401B6018F
:101E3000C7010E947527892B49F0C6010E942126FF
:101E4000222029F1C7010E94212621C0C80DD91DD9
:101E5000540CCA15DB0508F09BCF511001C0339418
:101E6000432D4F716DE6809101070E942A0C452D8C
:101E70006EE6809101070E942A0C8ACFC6010E945B
:101E80002126222031F0C7010E94212602C080E0D5
:101E900001C081E0DF91CF911F910F91FF90EF90F2
:101EA000DF90CF90BF90AF909F908F907F906F907A
:101EB0005F904F903F902F900895209154032111EF
:101EC00003C08FEF9FEF08955FB7F89422E020934F
:101ED000E9002091F20030E01216130614F421E01C
:101EE00030E0422FFC0184E6415038F0289880937E
:101EF00053039091F1009193F7CF2115310521F013
:101F00008091F200882319F05FBFC90108958BE624
:101F10008093E800F9CF2FB7F89483E08093E9002D
:101F20009091E800892F807295FF04C09091F20093
:101F300080E4891B2FBF0895AC0190E02FE5FA01E2
:101F4000E90FF11D8081882319F020839F5FF7CF6F
:101F500008958331A0F4E82FF0E0EE0FFF1FEF5B50
:101F6000FE4FA081B181109751F0EC91F0E0ED555A
:101F7000FB4F908111968C91982381E009F480E0C9
:101F8000089510921C0881E08093FB071092F607D9
:101F900061E082E00E94300E61E083E00E94300E3A
:101FA000E9EBF0E080818E7F808380818D7F80836C
:101FB00088E48093B80085E48093BC000895CF93B3
:101FC000DF9391E090934E038823B9F0C091B8005D
:101FD000D091BA008091BC008A7B8093BC0060E005
:101FE00082E00E94300E60E083E00E94300E0E948A
:101FF000C10FD093BA00C093B800DF91CF9108957C
:1020000085ED8093BC0080911E0890911F08A091DF
:102010002008B09121080796A11DB11D23E0B695B7
:10202000A795979587952A95D1F72091BC0024FF15
:102030001CC040911E0850911F08609120087091AB
:102040002108452B462B472B81F30097A105B105AD
:1020500041F02AE22A95F1F700C00197A109B109E0
:10206000E4CF80911D080C94DF0F10921C08089596
:102070001F920F920FB60F9211242F933F934F93FD
:102080005F936F937F938F939F93AF93BF93EF93E0
:10209000FF938091B900887F803609F49CC068F571
:1020A000883209F45BC090F4803109F454C038F4EC
:1020B000882309F4F6C0883009F44DC0F6C0883191
:1020C00009F44CC0803209F45DC0EFC0803409F4DB
:1020D00068C048F4803309F455C0883309F0E5C07E
:1020E0008093FA07D8C0803509F44FC0883509F4C9
:1020F0005DC0883409F0D9C0D6C0883909F4C7C09A
:10210000A8F4883709F467C038F4883609F463C046
:10211000803709F460C0C9C0883809F4B8C0803974
:1021200009F45FC0803809F0C0C05BC0803B09F48F
:1021300086C038F4803A09F466C0883A09F47FC052
:10214000B4C0803C09F4A7C0883C09F4A4C0883B13
:1021500009F48AC0AAC08091F70710C09091F907CE
:102160008091F807981770F5E091F90781E08E0FDC
:102170008093F907F0E0EA52F84F80818093BB002A
:1021800085EC86C08093FA078EC0E091F90781E064
:102190008E0F8093F9078091BB00F0E0EA52F84F70
:1021A00080839091F9078091F8076EC0E091F9075C
:1021B00081E08E0F8093F9078091BB00F0E0EA5236
:1021C000F84F80838091FB0781116DC081E080937F
:1021D000F60784EA61C083E080931C081092A30391
:1021E000CFCF8091A303803208F051C0E091A303C8
:1021F00081E08E0F8093A3038091BB00F0E0ED5748
:10220000FC4F8083BDCF85EC8093BC0010921C08EE
:102210008091A303803230F4E091A303F0E0ED5706
:10222000FC4F10826091A30370E0E0915103F091A4
:10223000520383E893E009951092A30336C084E02B
:1022400080931C081092820310928103E0914F0347
:10225000F0915003099580918103811105C081E0BF
:102260008093810310926103E091820381E08E0FDD
:1022700080938203F0E0EF59FC4F80818093BB0094
:102280009091820380918103981708F479CF85E8B3
:102290008093BC000AC085EC8093BC0010921C089F
:1022A00004C01092FA070E940010FF91EF91BF91B5
:1022B000AF919F918F917F916F915F914F913F91DE
:1022C0002F910F900FBE0F901F901895809159037A
:1022D00081110DC082E08093550384E08093560302
:1022E000109258031092570381E08093590385E5BB
:1022F00093E008953FB7F89480914A0390914B037F
:10230000A0914C03B0914D0326B5A89B05C02F3F6B
:1023100019F00196A11DB11D3FBFBA2FA92F982F0B
:102320008827820F911DA11DB11DBC01CD0142E086
:10233000660F771F881F991F4A95D1F708958F92CE
:102340009F92AF92BF92CF92DF92EF92FF926B017A
:102350007C010E947A114B015C01C114D104E1049B
:10236000F104F1F00E947A11DC01CB01881999097E
:10237000AA09BB09883E9340A105B10570F321E08D
:10238000C21AD108E108F10888EE880E83E0981E91
:10239000A11CB11CC114D104E104F10419F7DDCF73
:1023A000FF90EF90DF90CF90BF90AF909F908F9075
:1023B00008952F923F924F925F926F927F928F92E9
:1023C0009F92AF92BF92CF92DF92EF92FF920F93C4
:1023D0001F93CF93DF93CDB7DEB7AF970FB6F894C7
:1023E000DEBF0FBECDBF898F4CA35DA36EA37FA3BD
:1023F00008A719A72AA73BA78B3309F05DC20E9443
:10240000F717883308F45AC217E703E06EE38DE448
:1024100094E00E948B06CE010D969E8B8D8BDE0183
:1024200011967D015C01912E28EE33E0AE014D5EE8
:102430005F4F692D809101070E946717CB88DC8868
:10244000B6010D2C000C880B990B0E9465231331EB
:1024500091F0F1E0CF22DD24D501CD92DC9220E095
:1024600030E040E051E40E94C423F70160837183AF
:10247000828393830CC020E030E040E850E40E9467
:10248000C423D7016D937D938D939C931397900EE6
:10249000B2E0AB0EB11CE4E0EE0EF11C8D899E891A
:1024A000E816F90609F6998D9B3329F48DEC9CEC1E
:1024B000ACE4BDE304C080E090E0A0E8BFE38CA7FB
:1024C0009DA7AEA7BFA7A6E0B0E0BBA3AAA31D8EA1
:1024D0001C8E212C312CFE013196FB8FEA8FCE0110
:1024E0000D9698A38F8F1E8F998D99A3412C512CF7
:1024F0003201188E1F8A28EE33E0AE014D5E5F4F29
:1025000069A1809101070E9467176B897C89072E5A
:10251000000C880B990B0E9465236B017C01A98D2F
:10252000AB3361F4EF89F88D329741F420E030E06D
:1025300040E856E40E94E1246B017C01460157010A
:10254000B7FAB094B7F8B094C301B2010E94632304
:102550002B013C0120E030E0A901C701B6010E9437
:10256000842518162CF0782D692D9A2D8B2D04C0FA
:102570007C2D6D2D9E2D8F2D272F362F492F582FD7
:10258000C301B2010E94E2240E9455252B013C01A7
:102590002CA13DA14EA15FA1C501B4010E94C4239D
:1025A0006B017C012FE632E143E85AE3C501B40137
:1025B0000E94C42328A539A54AA55BA50E94C4236F
:1025C000AA8DBB8D2D913D914D915C910E94E2248D
:1025D0009B01AC01EA8DFB8D619371938193919383
:1025E000FB8FEA8FC701B601133141F10E94E2244B
:1025F00020E030E040E05EE30E94C4236B017C01F8
:1026000020E030E0A9010E94842520E030E040E095
:102610005FE387FD05C0C701B6010E94E22404C044
:10262000C701B6010E94E1240E944E256E7FAF8D46
:10263000B8A18D919C91682B792B20C00E94E22437
:1026400020E030E040E85EE30E94C4236B017C019F
:1026500020E030E0A9010E94842520E030E040E045
:102660005FE387FD05C0C701B6010E94E22404C0F4
:10267000C701B6010E94E1240E944E257C8B6B8B22
:10268000AE014D5E5F4F6E8D809101070E94441731
:10269000EF89F88D3196F88FEF8BF9A1FE5FF9A3E2
:1026A0002E8D200F2E8F8F8D98A1029698A38F8F3D
:1026B000AF89B88D139709F01ECFB3E62B163104FE
:1026C00071F4E9EE4E16E3E05E066104710438F041
:1026D0006AE28DE494E00E948B06212C312CC30128
:1026E000B2010E9463232CA53DA54EA55FA50E94C3
:1026F000C42320E030E040EA50E40E945E2387FFDC
:1027000005C08C8D9D8D01969D8F8C8F94E649160A
:1027100051046104710488F5ABE02A1631046CF1B0
:10272000EC8DFD8D3A974CF16EE28DE494E00E94C1
:102730008B0620E030E040E45FE36CA17DA18EA138
:102740009FA10E94C4236CA37DA38EA39FA320E01E
:1027500030E040E45FE368A579A58AA59BA50E94C7
:10276000C42368A779A78AA79BA7CE0101967C01FD
:10277000DE011D966D01B12E49C061E070E080E080
:1027800090E00E949F11BFEF2B1A3B0AE4E62E1641
:10279000310409F0A0CEC8CF20E030E040E05EE395
:1027A000D7016D917D918D919C910E94C4232B0145
:1027B0003C0120E030E0A9010E94842520E030E0C7
:1027C00040E05FE387FD25C0C301B2010E94E2241F
:1027D0000E944E256E7FF60180819181682B792BB6
:1027E0007C8B6B8BAE014D5E5F4F6B2D8091010733
:1027F0000E944417B00EB2E0CB0ED11CE4E0EE0E06
:10280000F11C8D899E898E159F0561F1133121F68A
:1028100005C0C301B2010E94E124DACF20E030E01C
:1028200040E85EE3D7016D917D918D919C910E946E
:10283000C4232B013C0120E030E0A9010E94842543
:1028400020E030E040E05FE387FD05C0C301B20156
:102850000E94E22404C0C301B2010E94E1240E944C
:102860004E25BECFAAA1BBA11197BBA3AAA3AB2B98
:1028700009F02DCE0E943D1721E043E06AE68091E9
:1028800001070E944B0DAF960FB6F894DEBF0FBE46
:10289000CDBFDF91CF911F910F91FF90EF90DF900F
:1028A000CF90BF90AF909F908F907F906F905F90F0
:1028B0004F903F902F90089513E101C016E002E081
:1028C000A5CD2FB7F894609146037091470380918E
:1028D0004803909149032FBF08950F931F93CF93FF
:1028E000DF93EC010C811D810F5F1F4FB8010E9427
:1028F000CE07882369F0288139818C819D816DE222
:1029000073E0820F931F0E948B271D830C8381E04D
:10291000DF91CF911F910F910895EF92FF920F9346
:102920001F93CF93DF93FB0104811581E080F18039
:10293000E114F10411F480E01AC001151105B1F0A1
:10294000EC018C819D81080F191FB801CE010E94F6
:10295000CE07882381F3288139818C819D81B7013D
:10296000820F931F0E948B271D830C8381E0DF91D0
:10297000CF911F910F91FF90EF900895CF92DF922A
:10298000EF92FF920F931F93CF93DF93CDB7DEB7F4
:1029900062970FB6F894DEBF0FBECDBF8C01CB019E
:1029A000F8011182108213821282158214824AE089
:1029B0009E012F5F3F4F6901B9010E942923F60153
:1029C00001900020E9F731977F01EC18FD08B7016D
:1029D000C8010E94CE07F8012081318181110EC00B
:1029E0002115310519F0C9010E942126F801118233
:1029F0001082158214821382128207C0F801F582B8
:102A0000E482B601C9010E948B2762960FB6F89442
:102A1000DEBF0FBECDBFDF91CF911F910F91FF9011
:102A2000EF90DF90CF9008958F929F92AF92BF92D8
:102A3000EF92FF920F931F93CF93DF93CDB7DEB743
:102A4000A1970FB6F894DEBF0FBECDBF7C01FA018F
:102A5000CB0119A2223008F42AE08E010F5D1F4F2E
:102A6000822E912CA12CB12CBF01A50194010E94B2
:102A7000B924F901CA01015011096A3014F4605DEA
:102A800001C0695CD8016C93232B242B252B61F7A3
:102A9000B801C7010E94680BA1960FB6F894DEBF7B
:102AA0000FBECDBFDF91CF911F910F91FF90EF909F
:102AB000BF90AF909F908F9008958F929F92AF920A
:102AC000BF92CF92DF92EF92FF920F931F93CF931B
:102AD000DF93F82ED62F613208F0BBC00E947A1126
:102AE0004B015C01C0911C08CC2331F180911E0880
:102AF00090911F08A0912008B0912108892B8A2B62
:102B00008B2B81F30E947A1100911E0810911F08EF
:102B10002091200830912108DC01CB018819990906
:102B2000AA09BB09081719072A073B07D8F680919D
:102B30001D080E94DF0F8DC081E080931C088093E8
:102B4000FB079FEF9093FA071092F9079D0F909360
:102B5000F8078093F7079091F7078F2D880F892B3F
:102B60008093F7078091F607813089F51092F60778
:102B70000E947A116B017C018091F7078093BB0062
:102B800080911E0890911F08A0912008B091210803
:102B9000892B8A2B8B2BA9F00E947A1180901E081A
:102BA00090901F08A0902008B0902108DC01CB0174
:102BB0008C199D09AE09BF0988169906AA06BB069D
:102BC00090F18091BC0083FDD7CF85EC01C085EEEC
:102BD0008093BC000E947A116B017C0180911C08DB
:102BE000813031F580911E0890911F08A091200836
:102BF000B0912108892B8A2B8B2B81F30E947A11AB
:102C000080901E0890901F08A0902008B090210886
:102C1000DC01CB018C199D09AE09BF098816990604
:102C2000AA06BB06D8F680911D080E94DF0F12C0CD
:102C30008091F9078D1710F4D091F907E6EDF7E0D0
:102C4000ACEFB7E0C0E0CD1729F081918D93CF5F55
:102C5000FACFC0E08C2FDF91CF911F910F91FF90A1
:102C6000EF90DF90CF90BF90AF909F908F9008959E
:102C70008F929F92AF92BF92CF92DF92EF92FF928C
:102C80000F931F93CF93DF931091D507113208F064
:102C9000C2C0D091D4070E947A116B017C01C0910F
:102CA0001C08CC2311F180911E0890911F08A0915F
:102CB0002008B0912108892B8A2B8B2B81F30E944D
:102CC0007A1180901E0890901F08A0902008B09064
:102CD0002108DC01CB018C199D09AE09BF098816BA
:102CE0009906AA06BB06D8F682C082E080931C082B
:102CF00081E08093FB078FEF8093FA071092F9072A
:102D00001093F807A4EBB7E0E6EDF7E080E01817C2
:102D100021F09D9191938F5FFACF1092F7079091D8
:102D2000F7078D2F880F892B8093F7078091F6077F
:102D3000813089F51092F6070E947A116B017C01AF
:102D40008091F7078093BB0080911E0890911F0827
:102D5000A0912008B0912108892B8A2B8B2BA9F0F8
:102D60000E947A1100911E0810911F0820912008DE
:102D700030912108DC01CB018C199D09AE09BF09F6
:102D8000081719072A073B0790F18091BC0083FDC3
:102D9000D7CF85EC01C085EE8093BC000E947A11EC
:102DA0006B017C0180911C08823039F580911E08EE
:102DB00090911F08A0912008B0912108892B8A2B9F
:102DC0008B2B81F30E947A1100911E0810911F082D
:102DD0002091200830912108DC01CB018C199D093C
:102DE000AE09BF09081719072A073B07D8F68091D3
:102DF0001D080E94DF0FC5E013C08091FA078F3FC6
:102E000079F08091FA07803241F08091FA0780339F
:102E100031F0C4E005C0C1E003C0C2E001C0C3E0BE
:102E20001092B3071092D5071092B2078C2FDF9142
:102E3000CF911F910F91FF90EF90DF90CF90BF90B7
:102E4000AF909F908F9008950F931F93CF93DF9330
:102E5000C1E0D7E008EE13E022E037E042E062E7AD
:102E600088810E943A0C89819A819827892798271E
:102E7000DF91CF911F910F91089521E042E06AE622
:102E8000809101070C944B0DCF93DF93EA0191E001
:102E90009093B2078093D4071092B3071092D5078E
:102EA00084EA93E00E94010E698184EA93E00E9423
:102EB000010E688184EA93E00E94010E0E94381698
:102EC00091E0811190E0892FDF91CF9108954F9289
:102ED0005F926F927F928F929F92AF92BF92DF929A
:102EE000EF92FF920F931F93CF93DF93182FD62E5D
:102EF0007A01E9010E9461144B015C0101E0009339
:102F0000B2071093D4071092B3071092D5076D2D16
:102F100084EA93E00E94010E0E9438160093B207E3
:102F20001092B3071092D50762E0812F0E945D15C1
:102F30001092B1078093B00710E02E01612C712C24
:102F4000DD24D3949091B0078091B107981739F19F
:102F5000111125C02097B1F484EA93E0002331F0E9
:102F60000E94B80DF701108281830AC00E94B80D3B
:102F7000F70120813181822B932B9183808311E093
:102F80000D25E0CF0E946114DC01CB01881999095D
:102F9000AA09BB0984159505A605B705E8F20E94A4
:102FA0003816209799F00E946114AB01BC014819B2
:102FB00059096A097B09CE01A0E0B0E0481759071A
:102FC0006A077B0718F0111101C01FEF812FDF91F5
:102FD000CF911F910F91FF90EF90DF90BF90AF9036
:102FE0009F908F907F906F905F904F9008950F9378
:102FF0001F93CF93DF931F92CDB7DEB708EE13E098
:103000009E012F5F3F4F41E065E7809101070E94DD
:103010003A0C882339F089818E7790E095958795D1
:1030200080930207809102070F90DF91CF911F914B
:103030000F9108951F920F920FB60F9211242F93A4
:103040003F938F939F93AF93BF938091460390914B
:103050004703A0914803B09149033091220823E02F
:10306000230F2D3720F40196A11DB11D05C026E8C0
:10307000230F0296A11DB11D2093220880934603C1
:1030800090934703A0934803B093490380914A0368
:1030900090914B03A0914C03B0914D030196A11D5B
:1030A000B11D80934A0390934B03A0934C03B093BC
:1030B0004D03BF91AF919F918F913F912F910F90B1
:1030C0000FBE0F901F901895CF93DF93CDB7DEB74B
:1030D000C654D1090FB6F894DEBF0FBECDBF7894A9
:1030E00084B5826084BD84B5816084BD85B582600D
:1030F00085BD85B5816085BD80916E0081608093BE
:103100006E00109281008091810082608093810026
:103110008091810081608093810080918000816036
:1031200080938000809191008260809391008091D3
:1031300091008160809391008091900081608093E4
:1031400090008091C10084608093C1008091C10093
:1031500082608093C1008091C10081608093C10032
:103160008091C30081608093C3008091C000826021
:103170008093C0008091C20081608093C2008091E2
:103180007A00846080937A0080917A0082608093D4
:103190007A0080917A00816080937A0080917A0031
:1031A000806880937A001092540310923103109239
:1031B00030038091D70081608093D70080EA8093AC
:1031C000D80089B5806189BD89B5826089BD09B49F
:1031D00000FEFDCF61E070E080E090E00E949F1172
:1031E0008091D8008F7C80618093D8008091E0002E
:1031F000807F8093E0008091E1008E7E8093E100EB
:103200008DE08093E200559A209A109107016AE0C0
:1032100070E080E090E00E949F111123B1F38FEFE6
:103220009FEF90935A048093590465ED71E08DE40B
:1032300094E00E947D0B64E670E080E090E00E94E4
:103240009F1110923E036CED71E08DE494E00E94BA
:103250007D0B80913E0381110BC08DE494E00E94B0
:10326000B00791E0833609F090E090933E03F1CFF0
:103270006CEF71E08DE494E00E947D0B1092B10739
:103280001092B0071092B3071092D5070E94C10F99
:1032900086EA9DE09093500380934F0387EA9DE078
:1032A000909352038093510310924E0388EB9BE05E
:1032B000A0E0B0E080931E0890931F08A093200820
:1032C000B093210881E080931D0880914E031092F5
:1032D0004E038CE08093B80066E072E08DE494E0E9
:1032E0000E947D0B01E023E042E06BE68091010744
:1032F0000E94FD0C00E022E044E06BE180910107B8
:103300000E94FD0C22E044E06CE1809101070E94E4
:10331000FD0C20E046E06BE6809101070E944B0D1A
:10332000E4E4F9E02491E5E2F9E084918823C9F02E
:1033300090E0880F991FFC01EF59F74F4591549188
:10334000FC01E05FF64FA591B4919FB7F894FA01A4
:1033500080812095822380838C91E22FE823EC9357
:103360009FBF62E272E08DE494E00E947D0B0E94B8
:10337000F717843319F06BEB71E002C06DE971E06F
:103380008DE494E00E947D0B21E047E06BE68091A4
:1033900001070E944B0D6EE170E080E090E00E941A
:1033A0009F1120E046E06BE6809101070E944B0DE3
:1033B00040E76DE6809101070E942A0C46E06EE628
:1033C000809101070E942A0C40E06DE68091010780
:1033D0000E942A0C4FE765E2809101070E942A0CA7
:1033E00020E045E06AE6809101070E944B0D48E627
:1033F00065E2809101070E942A0C21E041E06AE623
:10340000809101070E944B0D64E170E080E090E044
:103410000E949F1103E023E042E06BE680910107E8
:103420000E94FD0C42E168E3809101070E942A0C92
:1034300044E069E1809101070E942A0C01E023E049
:1034400045E06AE1809101070E94FD0C03E023E062
:1034500042E06AE1809101070E94FD0C22E044E015
:103460006BE1809101070E94FD0C01E020E040E04B
:1034700069E877E088ED90E00E94940E882309F4D3
:10348000DDC0198281E08A8300E026E142E062E04B
:1034900070E0CE0101960E94940E43E060E78091B7
:1034A00001070E942A0C40E061E7809101070E9419
:1034B0002A0C20E040E060E0809101070E944B0D63
:1034C00042E06FE1809101070E942A0C4CE961E221
:1034D000809101070E942A0C40E560E2809101077B
:1034E0000E942A0C40E062E2809101070E942A0CAF
:1034F00021E046E06AE6809101070E944B0D21E041
:1035000043E06AE6809101070E944B0D20E047E00E
:103510006AE6809101070E944B0D8AE290E0909349
:103520001307809312070E943D1708EE13E022E074
:1035300037E041E06AE3809101070E943A0C0E9463
:10354000F717883310F067E701C066E043EE5EEFDF
:10355000809101070E94190C0E94F717883310F020
:103560006AE701C068E045EC5EEF809101070E94C8
:10357000190C0E94F717883310F06DE701C06AE05C
:103580004DE956E0809101070E94190C46E350E096
:1035900063E1809101070E94190C4FEC5FEF65E138
:1035A000809101070E94190C4DEF5FEF67E1809158
:1035B00001070E94190C00E010E028EA31E44EEA0D
:1035C00057E461EA7EE38BE30E94D9110FEF1FEF0E
:1035D0002CEB32E44EEA57E461EA7EE383E40E9496
:1035E000D91121E047E06AE6809101070E944B0D66
:1035F0008AEC96E0909311018093100180916A000B
:10360000806380936A00EE9A08EE13E022E037E0D0
:1036100041E06AE3809101070E943A0C8091020721
:103620008093150781E08093140780911207909191
:103630001307909317078093160706C060E472E0A3
:103640008DE494E00E94680B66E572E08DE494E0FE
:103650000E947D0B8CE291E09093390380933803B4
:103660009093330380933203E091C003F091C10340
:1036700082E08083E091BC03F091BD031082E09171
:10368000BE03F091BF0380E180831092C803E091F4
:10369000C403F091C50386E08083E091C203F091FA
:1036A000C303808180618083E091C203F091C303F2
:1036B000808188608083E091C203F091C3038081A0
:1036C00080688083E091C203F091C30380818F7D85
:1036D000808380EB93E0909300078093FF068DE456
:1036E00094E09093F6068093F50681E08093F706C8
:1036F000E3E4F9E02491E4E2F9E08491882399F08D
:1037000090E0880F991FFC01EF59F74FA591B491F4
:10371000FC01E05FF64F859194918FB7F894EC919E
:10372000E22BEC938FBF80911407882309F41EC20B
:1037300080901207909013070E947A112B013C0190
:103740006401DD240E9424178C01C816D906E4F513
:10375000893C91056CF10E943D170E9424178C0151
:10376000892BB1F50E947A11DC01CB0184199509EE
:10377000A609B709893F9A42A105B10570F3EDC1C9
:10378000570121E2E216F1041CF070E2A72EB12CE1
:10379000AA20C1F008EE13E09E012F5F3F4F4A2D93
:1037A00064E7809101070E943A0CEA18FB0841F790
:1037B0000E9424178C01C816D90634F47C01EC1839
:1037C000FD08DECF1982F1CF0115110509F4C5C13D
:1037D0000E947A11DC01CB0184199509A609B70969
:1037E000893F9A42A105B10508F0B7C10C151D0526
:1037F00009F0A8CF882059F008EE13E02AE137E05D
:10380000482D64E7809101070E943A0C02C0109293
:103810001A078AE197E0009709F0E3C3E0911007E7
:10382000F0911107E480F580FE24EF24FE24A084AB
:10383000B184BA24AB24BA24048515851027012746
:10384000102760817181762767277627072E000C65
:10385000880B990B0E94652320E030E040E858E394
:103860000E94C4232B013C01609366077093670795
:103870008093680790936907B701FF0C880B990B39
:103880000E94652320E030E040E858E30E94C42312
:103890006B017C0160936A0770936B0780936C07E0
:1038A00090936D07B501BB0C880B990B0E946523A3
:1038B00020E030E040E858E30E94C42369AF7AAFCB
:1038C0008BAF9CAF60936E0770936F078093700708
:1038D00090937107B801110F880B990B0E94652313
:1038E00020E030E040E858E30E94C42321966CAF0A
:1038F0007DAF8EAF9FAF2197609372077093730770
:1039000080937407909375078AE197E0892B09F0FB
:1039100065C3E0911007F0911107048D158D1027F4
:1039200001271027109383070093820720A031A05E
:10393000322423243224309285072092840764A104
:1039400075A1962F872F23969FAF8EAF23979093C5
:1039500087078093860721962CAD3DAD4EAD5FADB8
:103960002197C701B6010E94C4234B015C0129AD18
:103970003AAD4BAD5CADC301B2010E94C4239B01C3
:10398000AC01C501B4010E94E1249B01AC010E947D
:10399000E22427966CAF7DAF8EAF9FAF27976093E1
:1039A0005A0770935B0780935C0790935D07A701AC
:1039B0009601C301B2010E94C4234B015C01219610
:1039C0002CAD3DAD4EAD5FAD219769AD7AAD8BAD00
:1039D0009CAD0E94C4239B01AC01C501B4010E94AF
:1039E000E2249B01AC010E94E2244B015C01609344
:1039F0005E0770935F078093600790936107A30150
:103A00009201C301B2010E94C4232B013C01A70112
:103A10009601C701B6010E94C4239B01AC01C301FA
:103A2000B2010E94E1246B017C0129AD3AAD4BAD9E
:103A30005CADCA01B9010E94C4239B01AC01C7015E
:103A4000B6010E94E1246B017C0121962CAD3DADB5
:103A50004EAD5FAD2197CA01B9010E94C4239B01FD
:103A6000AC01C701B6010E94E2246B017C016093A6
:103A70006207709363078093640790936507B801AA
:103A8000110F880B990B0E9465232B013C0120E04C
:103A900030E040E056E427966CAD7DAD8EAD9FAD35
:103AA00027970E94C4239B01AC01C301B2010E946D
:103AB000E1240E944E257093890760938807B10125
:103AC000330C880B990B0E9465232B013C0120E0ED
:103AD00030E040E056E4C501B4010E94C4239B01DC
:103AE000AC01C301B2010E94E1240E944E257093F3
:103AF0008B0760938A072396AEADBFAD2397BD01B8
:103B0000BB0F880B990B0E9465234B015C0120E0E1
:103B100030E040E056E4C701B6010E94C4239B0197
:103B2000AC01C501B4010E94E1240E944E257093AE
:103B30008D0760938C0786E0E8E8F7E0DE01979652
:103B400001900D928A95E1F786E0FE01B796DE01BD
:103B50009D9601900D928A95E1F786E0FE01BD9653
:103B6000DE01D39601900D928A95E1F786E0FE0181
:103B7000F396A6EEB4E001900D928A95E1F780915C
:103B8000FF0690910007DC01ED91FC910084F18526
:103B9000E02D0995892B09F472C183E0482E9EEF30
:103BA000592E22E0622E3EE7732E43E0E42EF12CE4
:103BB00052E0C52ED12C22242394312C8091FF0673
:103BC00090910007DC01ED91FC910084F185E02DDE
:103BD0000995892B09F45CC18091FF06909100073B
:103BE000DC01ED91FC910284F385E02D0995E091D3
:103BF000F006F091F106E730F10508F0F6C0EA5A58
:103C0000FF4F0C94DB248E3709F02AC13092F10665
:103C10002092F00625C18093FA06D092F106C09258
:103C2000F0061EC18093FC06F092F106E092F006C9
:103C300017C18F3F49F08093F806E4E0F0E0F0937D
:103C4000F106E093F0060CC11092EE061092F10618
:103C50001092F0068093EF068091F706882309F40E
:103C6000C1C063E672E0B8C09091F9062091F806F1
:103C7000921708F0F5C0E92FF0E0E651FA4F808383
:103C80009F5F291719F09093F906EAC01092F90680
:103C900025E030E03093F1062093F006E1C040913A
:103CA000F8066091A1047091A204EAEEF5E020E02C
:103CB00030E090E050E02417350748F4A1919A27AE
:103CC000DB01A90FB11D9C912F5F3F4FF4CF8913EA
:103CD00007C086E090E09093F1068093F006C0C0A4
:103CE0001092EE061092F1061092F0061092EF0676
:103CF0008091F706882309F475C068E772E06CC00C
:103D00001092F1061092F006813809F05BC08091A4
:103D1000FC068F3F51F0E82FF0E0E651FA4F90811A
:103D20007082992311F0890FF6CF8091F806809365
:103D3000EE066092EF06E091F206F091F3063097FE
:103D400009F43DC08091FA069091F406891748F471
:103D5000E80FF11DE80FF11D0190F081E02D0995AC
:103D60002EC08091F706882351F18090F50690903F
:103D7000F6060FE618E0F8016491611113C0009196
:103D8000F5061091F6064091FA0650E060E070E00A
:103D90002AE0C8010E94141569E872E0C8010E9477
:103DA000680B0DC0D401ED91FC910190F081E02DE4
:103DB000C40109950F5F1F4F892BE9F6E0CF809171
:103DC000F80653C01092EE065092EF068091F70667
:103DD000882341F06CE872E08091F5069091F60638
:103DE0000E947D0B8091EE0640C08091F7068823EB
:103DF00099F163EA72E08091F5069091F6060E94CF
:103E0000680B4091F0065091F1060091F506109173
:103E1000F6064A01550FAA08BB08B7FE12C0D80122
:103E2000ED91FC910190F081E02D6DE2C8010995C2
:103E300044275527BA01481959096A097B092AE01C
:103E400003C02AE0B501A401C8010E94141569E865
:103E500072E0C8010E94680B1092F1061092F00601
:103E60001092EE064092EF0680E08093FD0680916E
:103E7000EF068093FE06833009F4A0CE09C01092AD
:103E8000EE0681E08093EF061092FD068093FE0619
:103E90008091FD06811197C0C090E004D090E104AC
:103EA000E090E204F090E3040091E4041091E50452
:103EB0006091E6047091E704CE0181960E94BE14E1
:103EC000CE0181960E946D146091E8047091E9041E
:103ED000CE0101960E94BE14BE016F5F7F4FCE01DE
:103EE00081960E948D1489819A810E942126CE019B
:103EF00081960E946D146091EA047091EB04CE01EA
:103F000001960E94BE14BE016F5F7F4FCE01819665
:103F10000E948D1489819A810E942126CE0181966A
:103F20000E946D14B601CE0101960E94BE14BE011E
:103F30006F5F7F4FCE0181960E948D1489819A8197
:103F40000E942126CE0181960E946D14B701CE01F8
:103F500001960E94BE14BE016F5F7F4FCE01819615
:103F60000E948D1489819A810E942126CE0181961A
:103F70000E946D14B801CE0101960E94BE14BE01CC
:103F80006F5F7F4FCE0181960E948D1489819A8147
:103F90000E942126CE0181960E946D144DA15EA142
:103FA00069A17AA18DE494E00E94020769E872E0B9
:103FB0008DE494E00E94680B89A19AA10E942126B9
:103FC0000E948106B0CBAAEEB5E0E0EEF4E08D9160
:103FD000819324E0E63EF207D1F75ECFEAE1F7E015
:103FE0009CCCFC011FCC6F927F928F929F92AF92DC
:103FF000BF92CF92DF92EF92FF920F931F93CF93D6
:10400000DF93CDB7DEB7AE970FB6F894DEBF0FBE25
:10401000CDBFE3EAF4E01192B4E0E73BFB07D9F748
:104020001092BA041092BB048091BA049091BB0420
:1040300082E1E5EAF4E0DF011D928A95E9F781E08B
:104040008093B7048091B804882309F43BC16BEBDB
:1040500072E08DE494E00E94680B809121039091BE
:104060002203A09123038CA79DA7AEA780912403D0
:1040700090912503A091260389A79AA7ABA785E075
:104080000E94A90F8E01045D1F4F811103C0C8015A
:104090000E949C0F89E00E94A90F9E01275D3F4F5F
:1040A0007901811103C0C9010E949C0FFF92EF9218
:1040B0008091AC048F938091AB048F938091AA047C
:1040C0008F938091A9048F931F930F938091A704DE
:1040D0001F928F938AEC92E09F938F938E010F5FD4
:1040E0001F4F1F930F930E949227B8018DE494E015
:1040F0000E94680B8DE00E94A90F0FB6F894DEBFF6
:104100000FBECDBF882319F0BCE3FB2E02C0AFE584
:10411000FA2E8BE00E94A90F882319F0FEE5EF2EFE
:1041200002C0EFE5EE2E8CE00E94A90F882319F063
:1041300076E7D72E02C06FE5D62E8EE00E94A90F3B
:10414000882319F05EE3C52E02C04FE5C42E81E03E
:104150000E94A90F882319F031E4932E02C02FE5A5
:10416000922E82E00E94A90F882319F092E4892EF2
:1041700002C08FE5882E83E00E94A90F882319F0E2
:10418000B8E57B2E02C0AFE57A2E84E00E94A90F2D
:10419000882319F0F9E56F2E02C0EFE56E2E88E056
:1041A0000E94A90F882319F07EE3A72E02C06FE5B5
:1041B000A62E87E00E94A90F882319F05CE3B52E94
:1041C00002C04FE5B42E80E00E94A90F882311F0B1
:1041D00088E501C08FE51F926F921F927F921F9218
:1041E0008F921F929F921F92AF921F928F931F9256
:1041F000BF921F92CF921F92DF921F92EF921F9257
:10420000FF9286EE92E09F938F931F930F930E94ED
:104210009227B8018DE494E00E94680B80912703F7
:1042200090912803A09129038EA39FA3A8A7809112
:104230002A0390912B03A0912C038BA39CA3ADA3E5
:1042400086E00E94A90F0FB6F894DEBF0FBECDBF67
:10425000DE0196966D01811103C0CD010E949C0F75
:104260008AE00E94A90F9E012D5D3F4F79018111C7
:1042700003C0C9010E949C0F8091A8041F928F93D4
:10428000DF92CF92FF92EF928091B0048F93809152
:10429000AF048F938091AE048F938091AD048F9380
:1042A00085E093E09F938F931F930F930E94922733
:1042B000B8018DE494E00E947D0B0FB6F894DEBF48
:1042C0000FBECDBF1092A30484E18093A40410928A
:1042D000B9041092BB041092BA041092BD0410925B
:1042E000BC041092C0041092C1041092C204109237
:1042F000C3048FEF90E0A0E0B0E08093C4049093FB
:10430000C504A093C604B093C7041092C8041092C9
:10431000C9041092CA041092CB048093CC049093E9
:10432000CD04A093CE04B093CF0440E050E86FEFEB
:104330007FEF4093D0045093D1046093D2047093E4
:10434000D3048FEF9FE7A0E0B0E08093D404909374
:10435000D504A093D604B093D7044093D8045093C7
:10436000D9046093DA047093DB048093DC049093A7
:10437000DD04A093DE04B093DF041092BF0410921A
:10438000BE0481E08093B8041092A7031092A603A4
:1043900088EE93E0A0E0B0E08093A8039093A90397
:1043A000A093AA03B093AB032BE631E03093A503AF
:1043B0002093A4031092B3031092B2038093B4032A
:1043C0009093B503A093B603B093B7032DE731E004
:1043D0003093B1032093B0032DEC30E03093BD0354
:1043E0002093BC032CEC30E03093BF032093BE033A
:1043F00028EC30E03093C1032093C00329EC30E077
:104400003093C3032093C2032AEC30E03093C503FA
:104410002093C4032EEC30E03093C7032093C603EF
:104420001092C9031092CA031092CB031092CC03CE
:104430001092500410924F048093510490935204B0
:10444000A0935304B09354048FE891E090934E04EA
:1044500080934D048FEF9FEF90935A0480935904FB
:104460008BE980939D0488E08093A00480E091E034
:1044700090939F0480939E040E9489259093A204A8
:104480008093A10480E090E020919E0430919F04ED
:1044900082179307E0F460919D0470E09C0148E06E
:1044A00050E0F901EE0FFF1F27FF04C09F012627F0
:1044B000372701C09F014150510999F7E091A104AC
:1044C000F091A204E80FF91F20830196DDCF10922E
:1044D00094071092950710929C0710929D071092D6
:1044E000A4071092A50710928E0710928F0788E6F6
:1044F000809301071092140710925A0710925B07DD
:1045000010925C0710925D0710925E0710925F0791
:104510001092600710926107109262071092630771
:10452000109264071092650780E090E0A0E8BFE376
:104530008093660790936707A0936807B093690715
:1045400010926A0710926B0710926C0710926D0719
:1045500010926E0710926F071092700710927107F9
:1045600010927207109273071092740710927507D9
:104570001092830710928207109285071092840789
:104580001092870710928607109289071092880769
:1045900010928B0710928A0710928D0710928C0749
:1045A0008EE78093E8061092E9061092EA061092D0
:1045B000EB061092EC0681E88093ED061092EE0671
:1045C0001092EF061092F1061092F0061092F30688
:1045D0001092F2061092F4061092F7061092F80666
:1045E0001092F9061092FA061092FB061092FC0641
:1045F0001092FD061092FE061092E7041092E60457
:104600001092E9041092E8041092EB041092EA046C
:104610001092E1041092E0041092E3041092E2047C
:104620001092E5041092E404AE960FB6F894DEBF43
:104630000FBECDBFDF91CF911F910F91FF90EF90F3
:10464000DF90CF90BF90AF909F908F907F906F90B2
:104650000895BB274A3031F4992322F4BDE29095A6
:1046600081959F4F0C943523BB27FB015527AA2723
:10467000880F991FAA1FA41710F0A41B83955051EF
:10468000B9F7A05DAA3308F0A95DA193009779F767
:10469000B111B1931192CB010C944E23DC01FC01BA
:1046A000672F71917723E1F7329704C07C916D9366
:1046B00070836291AE17BF07C8F308950E94A023CC
:1046C00008F481E00895E89409C097FB3EF49095C2
:1046D0008095709561957F4F8F4F9F4F9923A9F0DB
:1046E000F92F96E9BB279395F6958795779567956A
:1046F000B795F111F8CFFAF4BB0F11F460FF1BC0AE
:104700006F5F7F4F8F4F9F4F16C0882311F096E940
:1047100011C0772321F09EE8872F762F05C06623EE
:1047200071F096E8862F70E060E02AF09A95660FA7
:10473000771F881FDAF7880F9695879597F9089560
:10474000990F0008550FAA0BE0E8FEEF16161706A2
:10475000E807F907C0F012161306E407F50798F00A
:10476000621B730B840B950B39F40A2661F0232B23
:10477000242B252B21F408950A2609F4A140A6959F
:104780008FEF811D811D08950E94D7230C9448242A
:104790000E943A2438F00E94412420F0952311F021
:1047A0000C9431240C94372411240C947C240E9402
:1047B000592470F3959FC1F3950F50E0551F629FE8
:1047C000F001729FBB27F00DB11D639FAA27F00D6A
:1047D000B11DAA1F649F6627B00DA11D661F829F91
:1047E0002227B00DA11D621F739FB00DA11D621F76
:1047F000839FA00D611D221F749F3327A00D611D93
:10480000231F849F600D211D822F762F6A2F112474
:104810009F5750409AF0F1F088234AF0EE0FFF1FA7
:10482000BB1F661F771F881F91505040A9F79E3FFE
:10483000510580F00C9431240C947C245F3FE4F308
:10484000983ED4F3869577956795B795F795E79554
:104850009F5FC1F7FE2B880F911D9695879597F95D
:10486000089597F99F6780E870E060E008959FEFF2
:1048700080EC089500240A941616170618060906F7
:10488000089500240A9412161306140605060895C6
:10489000092E0394000C11F4882352F0BB0F40F44E
:1048A000BF2B11F460FF04C06F5F7F4F8F4F9F4F8E
:1048B000089557FD9058440F551F59F05F3F71F010
:1048C0004795880F97FB991F61F09F3F79F0879577
:1048D0000895121613061406551FF2CF4695F1DF00
:1048E00008C0161617061806991FF1CF8695710590
:1048F000610508940895E894BB2766277727CB01C4
:1049000097F908952F923F924F925F926F927F9204
:104910008F929F92AF92BF92CF92DF92EF92FF92CF
:104920000F931F93CF93DF93CDB7DEB7CA1BDB0B7B
:104930000FB6F894DEBF0FBECDBF09942A88398820
:1049400048885F846E847D848C849B84AA84B98427
:10495000C884DF80EE80FD800C811B81AA81B98133
:10496000CE0FD11D0FB6F894DEBF0FBECDBFED0147
:104970000895A1E21A2EAA1BBB1BFD010DC0AA1FA0
:10498000BB1FEE1FFF1FA217B307E407F50720F0B8
:10499000A21BB30BE40BF50B661F771F881F991F33
:1049A0001A9469F760957095809590959B01AC017C
:1049B000BD01CF010895EE0FFF1F0590F491E02D8A
:1049C00009945058BB27AA270E94F9240C94482424
:1049D0000E943A2438F00E94412420F039F49F3F8D
:1049E00019F426F40C9437240EF4E095E7FB0C94AC
:1049F0003124E92F0E94592458F3BA17620773072C
:104A00008407950720F079F4A6F50C947B240EF426
:104A1000E0950B2EBA2FA02D0B01B90190010C01CE
:104A2000CA01A0011124FF27591B99F0593F50F4E6
:104A3000503E68F11A16F040A22F232F342F44273E
:104A4000585FF3CF469537952795A795F040539536
:104A5000C9F77EF41F16BA0B620B730B840BBAF006
:104A60009150A1F0FF0FBB1F661F771F881FC2F771
:104A70000EC0BA0F621F731F841F48F48795779585
:104A80006795B795F7959E3F08F0B0CF9395880F3F
:104A900008F09927EE0F9795879508950E94552560
:104AA0006894B1110C947C2408950E94612488F0CC
:104AB0009F5798F0B92F9927B751B0F0E1F0660FE2
:104AC000771F881F991F1AF0BA95C9F714C0B13023
:104AD00091F00E947B24B1E008950C947B24672F11
:104AE000782F8827B85F39F0B93FCCF38695779552
:104AF0006795B395D9F73EF490958095709561953B
:104B00007F4F8F4F9F4F08950E94A02308F48FEF8F
:104B100008950F931F93CF93DF938230910510F484
:104B200082E090E0E0912508F091260820E030E056
:104B3000A0E0B0E0309719F14081518102811381EA
:104B400048175907C8F08417950769F4109731F092
:104B500012960C93129713961C9327C00093250866
:104B60001093260822C02115310519F0421753076A
:104B700018F49A01BD01EF01DF01F801DBCF211527
:104B80003105F9F0281B390B2430310580F48A8176
:104B90009B816115710521F0FB019383828304C021
:104BA0009093260880932508FE01329644C0FE01AA
:104BB000E20FF31F819391932250310939832883A7
:104BC0003AC02091230830912408232B41F42091EE
:104BD0001801309119013093240820932308209163
:104BE0001601309117012115310541F42DB73EB75B
:104BF00040911A0150911B01241B350BE0912308B1
:104C0000F0912408E217F307A0F42E1B3F0B28179E
:104C1000390778F0AC014E5F5F4F2417350748F035
:104C20004E0F5F1F50932408409323088193919364
:104C300002C0E0E0F0E0CF01DF91CF911F910F9132
:104C40000895CF93DF93009709F481C0FC01329758
:104C500013821282A0912508B0912608109781F442
:104C600020813181820F931F2091230830912408E5
:104C70002817390751F5F0932408E093230867C0FB
:104C8000ED0120E030E0CE17DF0740F44A815B8180
:104C90009E0141155105F1F0EA01F5CFD383C2839E
:104CA00040815181840F951FC817D90759F4888115
:104CB0009981840F951F0296918380838A819B81BD
:104CC000938382832115310529F4F0932608E0931C
:104CD00025083DC0E901FB83EA8349915991C40F3E
:104CE000D51FEC17FD0761F480819181840F951F1A
:104CF0000296E90199838883828193819B838A83C9
:104D0000E0E0F0E012968D919C911397009719F0D6
:104D1000FD01DC01F7CF8D919C9111979D012E5FD4
:104D20003F4F820F931F20912308309124082817AA
:104D3000390769F4309729F4109226081092250853
:104D400002C013821282B0932408A0932308DF913B
:104D5000CF910895A0E0B0E0E0EBF6E20C94862459
:104D6000EC01009721F4CB010E948925B4C0FC011D
:104D7000E60FF71F9C0122503109E217F30708F4F0
:104D8000A8C0D9010D911C91119706171707B0F013
:104D90000530110508F49BC0C801049786179707D2
:104DA00008F495C002501109061B170B01931193CB
:104DB0006D937C93CF010E94212689C05B01A01ACC
:104DC000B10A4C01800E911EA0912508B0912608D1
:104DD000612C712CE12CF12C109709F446C08D91B7
:104DE0009C911197A815B905B1F56C0142E0C40E6C
:104DF000D11CCA14DB0478F14C018A189B086401A9
:104E000042E0C40ED11C1296BC9012971396AC913E
:104E1000B5E0CB16D10440F0B282A38391828082A8
:104E2000D9016D937C9309C00E5F1F4F800F911FB6
:104E3000F90191838083EB2DFA2FE114F10431F015
:104E4000D7011396FC93EE93129741C0F093260876
:104E5000E09325083CC06816790608F43C017D0102
:104E600012960D90BC91A02DB7CF80912308909100
:104E7000240888169906E1F466167706C8F480912E
:104E8000160190911701009741F48DB79EB740919C
:104E90001A0150911B01841B950BE817F907C8F400
:104EA000F0932408E0932308F901718360830FC015
:104EB000CB010E9489257C01009759F0A801BE0111
:104EC0000E948227CE010E942126C70104C0CE0184
:104ED00002C080E090E0CDB7DEB7EEE00C94A224F3
:104EE00081E090E0F8940C94452AFB01DC0104C0B9
:104EF0008D910190801921F441505040C8F7881BD2
:104F0000990B0895FB01DC0102C001900D92415004
:104F10005040D8F70895FB01DC0101900D9200206C
:104F2000E1F70895AEE0B0E0E8E9F7E20C949024F0
:104F30000D891E8986E08C831A8309838FEF9FE792
:104F40009E838D83AE01475E5F4F6F89788DCE0162
:104F500001960E94B427EF81F885E00FF11F1082BF
:104F60002E96E4E00C94AC24ABE0B0E0EAEBF7E280
:104F70000C9482246C017B018A01FC011782168249
:104F8000838181FFCCC1CE0101963C01F601938162
:104F9000F70193FD859193FF81917F01882309F4A7
:104FA000BAC1853239F493FD859193FF81917F01D8
:104FB000853229F4B60190E00E94AB29E7CF912C0D
:104FC000212C312CFFE1F315D8F08B3279F038F435
:104FD000803279F08332A1F4232D20611DC08D32FF
:104FE00061F0803369F4232D216016C0832D826027
:104FF000382EE32DE4603E2E2AC0F32DF8601DC04C
:1050000037FC2DC020ED280F2A3040F08E32B9F445
:1050100036FC81C1232D2064322E19C036FE06C015
:105020008AE0989E200D1124922E11C0EAE02E9E57
:10503000200D1124222EF32DF0623F2E08C08C3655
:1050400021F4832D8068382E02C0883641F4F701A0
:1050500093FD859193FF81917F018111B3CF982FAB
:105060009F7D9554933028F40C5F1F4F9FE39983E5
:105070000DC0833631F0833771F0833509F059C0A4
:1050800021C0F801808189830E5F1F4F882483949B
:10509000912C530113C02801F2E04F0E511CF8016E
:1050A000A080B18036FE03C0692D70E002C06FEFB2
:1050B0007FEFC5010E94A0294C018201F32DFF77EB
:1050C0003F2E16C0280122E0420E511CF801A0809C
:1050D000B18036FE03C0692D70E002C06FEF7FEF34
:1050E000C5010E9495294C01F32DF0683F2E8201E5
:1050F00033FC1BC0822D90E088169906B0F4B601EF
:1051000080E290E00E94AB292A94F4CFF50137FCAD
:10511000859137FE81915F01B60190E00E94AB2935
:1051200021102A9421E0821A91088114910471F7C8
:10513000E8C0843611F0893641F5F80137FE07C022
:1051400060817181828193810C5F1F4F08C06081F3
:105150007181072E000C880B990B0E5F1F4FF32DEA
:10516000FF763F2E97FF09C09095809570956195C9
:105170007F4F8F4F9F4FF0683F2E2AE030E0A30112
:105180000E94E729882E861845C0853731F4232DE3
:105190002F7EB22E2AE030E025C0932D997FB92EC4
:1051A0008F36C1F018F4883579F0B5C0803719F022
:1051B000883721F0B0C0E92FE061BE2EB4FE0DC0EB
:1051C000FB2DF460BF2E09C034FE0AC0292F2660D3
:1051D000B22E06C028E030E005C020E130E002C079
:1051E00020E132E0F801B7FE07C060817181828161
:1051F00093810C5F1F4F06C06081718180E090E059
:105200000E5F1F4FA3010E94E729882E8618FB2DF1
:10521000FF773F2E36FE0DC0232D2E7FA22E891440
:1052200058F434FE0BC032FC09C0832D8E7EA82EAC
:1052300005C0B82CA32C03C0B82C01C0B92CA4FE07
:105240000FC0FE01E80DF11D8081803321F49A2DFD
:10525000997EA92E09C0A2FE06C0B394B39404C0DF
:105260008A2D867809F0B394A3FC11C0A0FE06C075
:10527000B21488F4280C922C9B180EC0B21460F45F
:10528000B60180E290E00E94AB29B394F7CFB2144C
:1052900018F42B1802C0982C212CA4FE10C0B601C3
:1052A00080E390E00E94AB29A2FE17C0A1FC03C0DE
:1052B00088E790E002C088E590E0B6010CC08A2D36
:1052C000867859F0A1FE02C08BE201C080E2A7FC03
:1052D0008DE2B60190E00E94AB29891438F4B60142
:1052E00080E390E00E94AB299A94F7CF8A94F3016F
:1052F000E80DF11D8081B60190E00E94AB2981107C
:10530000F5CF222009F442CEB60180E290E00E945F
:10531000AB292A94F6CFF6018681978102C08FEFE0
:105320009FEF2B96E2E10C949E24FC0105906150C6
:1053300070400110D8F7809590958E0F9F1F0895AB
:10534000FC016150704001900110D8F78095909554
:105350008E0F9F1F08950F931F93CF93DF93FB0131
:10536000238121FD03C08FEF9FEF2CC022FF16C0C9
:1053700046815781248135814217530744F4A08127
:10538000B1819D012F5F3F4F318320838C93268114
:1053900037812F5F3F4F3783268314C08B01EC0189
:1053A000FB010084F185E02D0995892BE1F6D801F8
:1053B00016968D919C911797019617969C938E93B4
:1053C0001697CE01DF91CF911F910F910895FA01A9
:1053D000AA27283051F1203181F1E8946F936E7F34
:1053E0006E5F7F4F8F4F9F4FAF4FB1E03ED0B4E025
:1053F0003CD0670F781F891F9A1FA11D680F791F66
:105400008A1F911DA11D6A0F711D811D911DA11D76
:1054100020D009F468943F912AE0269F1124301986
:10542000305D3193DEF6CF010895462F4770405D21
:105430004193B3E00FD0C9F7F6CF462F4F70405DD0
:105440004A3318F0495D31FD4052419302D0A9F72B
:10545000EACFB4E0A6959795879577956795BA9525
:10546000C9F700976105710508959B01AC010A2EEB
:1054700006945795479537952795BA95C9F7620FC2
:0E548000731F841F951FA01D0895F894FFCF81
:10548E0000E1000000000000E904E904E904E90479
:10549E00E904FFFFFFFF00002708200000C1808104
:1054AE000000000208020402020201028002400211
:1054BE0010022003020301038003400320031003A4
:1054CE00043F013D013B0139013701350133013103
:1054DE00012F012D012B0129012701250123010097
:1054EE000000002D012B0100000000010ED40DC79D
:1054FE0006A80DCC0DB80DA90D00000000130681F5
:10550E0005AB055F06DC05BA05CE05000000008B75
:10551E000602078807A106AC06B0078C074D50554A
:10552E003630353020636F6E6E656374696F6E2032
:10553E007375636365737366756C004D50553630C5
:10554E00353020636F6E6E656374696F6E206661B1
:10555E00696C6564004D415354455200576169743E
:10556E00696E6720636F6E6E656374696F6E207708
:10557E00697468206D616E6167657200536574753C
:10558E007020494D5500496E697469616C697A697C
:10559E006E672049324320646576696365732E2EEB
:1055AE002E0054657374696E672064657669636551
:1055BE0020636F6E6E656374696F6E732E2E2E0090
:1055CE004572726F7220696E697469616C697A696D
:1055DE006E672121210053657475702074696D65A5
:1055EE007273004552524F523A205041594C4F411E
:1055FE00445F4552524F52004552524F523A204349
:10560E0052435F4552524F52000D0A004552524FBF
:10561E00523A2053544F505F425954455F455252AF
:10562E004F52004552524F523A20556E646566698C
:10563E006E6564207374617465200058496E7075D0
:10564E00742044656275673A20004C543A20253325
:10565E0075202573204C3A282536642C2025366477
:10566E002C202573290020256325632563256320BF
:10567E007C20256325632563207C202563256325F7
:10568E006325632000523A282536642C2025366483
:10569E002C202573292025732052543A202533754A
:1056AE00004C42004C33005242005233002C00009A
:00000001FF
