:100000000C9493040C94D7160C94B0160C94891687
:100010000C9462160C94BB040C94BB040C943B1619
:100020000C94BB040C94BB040C94FE160C946D173A
:100030000C94BB040C94BB040C94BB040C94BB0444
:100040000C94BB040C94BB040C94BB040C94BB0434
:100050000C94BB040C94BB040C94BB040C94F115DD
:100060000C94BB040C94BB040C94BB040C94BB0414
:100070000C94BB040C94BB040C94BB040C94BB0404
:100080000C94BB040C94BB040C94BB040C94BB04F4
:100090000C94D2140C94BB040C94BB040C94BB04BD
:1000A0000C94BB040C94BB040C94BB04080B00021E
:1000B0000202000009040000010202000005240001
:1000C0001001052401010104240206052406000193
:1000D0000705810310004009040100020A00000026
:1000E00007050202400000070583024000000403E8
:1000F000090412010002EF02014041233680000191
:100100000102030141726475696E6F204C4C43001B
:1001100041726475696E6F204C656F6E6172646FB9
:100120000000000000240027002A002D00300000FD
:10013000000000250028002B002E003100040404DC
:10014000040403040502020202040302020202067E
:10015000060606060604040202020404040802015C
:100160001040804010204080408008020401804000
:1001700020100201108010204040200000000200EA
:10018000090F0000030401000C0000000000000043
:1001900000000000000000000000FB00003E000B1B
:1001A0000036000100020003000000650054FFEF6C
:1001B0000000FA80000B1282000100020000000023
:1001C0000000000000000000000000280000FFFF09
:1001D0004581FFFFFA7200000000000003E8000004
:1001E000000100017FFFFFFE8001001B00000000F6
:1001F000000000000000000000000040000040007F
:10020000000002CB47A220000000200000000000F8
:100210000000400000006000000041FF00000000FE
:100220000B2A0000165500002182FD872650FD8014
:100230000000001F00000005800000000000000119
:100240000000000200000003000040000000000069
:10025000046F0002653200005EC040000000000034
:1002600000000000000000000000FB8C6F5DFD5DE1
:1002700008D9007C733B006C12CC3200139D320015
:10028000D0D632000800400001F4FFE68079020079
:1002900000000000D0D600002710FB000000400046
:1002A000000000000000000000000000000100004D
:1002B000000000000100010000000000FA36FFBC51
:1002C000308E0005FBF0FFD95BC8FFD09ABE00005E
:1002D00010A9FFF41EB200CEBBF700000001000021
:1002E0000004000200020200000CFFC280000001B6
:1002F000800000CF800040000000000000000000EF
:1003000000000000060000000014000000000000D3
:1003100000000000000000000000000000000000DD
:10032000000000000000000000000923A1350000CB
:100330000000000000000000000000000000033F7B
:1003400068B6793528BCC67ED16C8000FFFF4000BE
:1003500000000000B26A0000000000000000000081
:10036000000000003FF0000000300000000000002E
:10037000000000000000000000000000000000007D
:10038000000000000000000040000000254D002F8C
:10039000706D000005AE000C02D00000000000658A
:1003A0000054FFEF000000000000000001000044C6
:1003B000000100058BC10000010000000000006585
:1003C000000000540000FFEF0000000000000000EB
:1003D000000000000000000000000000000000001D
:1003E000000000000000000000000000000000000D
:1003F00000000000000000000000000000010000FC
:1004000000020000000000000000000000000000EA
:1004100000000000000000000000000000000000DC
:1004200000000000000000000000001B00000000B1
:1004300000000000000000000000000000000000BC
:1004400000000000000000000000000000000000AC
:1004500000000000000000000000001B0000000081
:10046000000000000000000000000000000000008C
:10047000000000000000000000000000000000007C
:10048000000000000000000000000000000000006C
:1004900000000000000000000000D8DCBAA2F1DE7D
:1004A000B2B8B4A88191F74A907F916AF3F9DBA8BA
:1004B000F9B0BAA080F2CE81F3C2F1C1F2C3F3CC9D
:1004C000A2B280F1C6D880BAA7DFDFDFF2A7C3CB24
:1004D000C5B6F087A2942448703C95406834589B78
:1004E00078A2F183922D557DD8B1B4B8A1D0918076
:1004F000F270F370F27C80A8F101B09887D943D8EC
:1005000086C988BAA1F20EB89780F1A9DFDFDFAA09
:10051000DFDFDFF2AA4CCD6CA90CC92C9797979717
:10052000F1A989264666B0B4BA80ACDEF2CAF1B24F
:100530008C02A9B69800890E161EB8A9B4992C543D
:100540007CB08AA896365676F1B9AFB4B083C0B8FD
:10055000A89711B18F98B9AFF0240844106418F12E
:10056000A329557DAF83B593AFF0002850F1A38642
:100570009F61A6DADEDFD9FAA38696DB31A6D9F829
:10058000DFBAA68FC2C5C7B28CC1B8A2DFDFDFA3B6
:10059000DFDFDFD8D8F1B8A8B286B4980D355DB8E2
:1005A000AA98B0872D353DB2B6BAAF8C96198F9FF9
:1005B000A70E161EB49AB8AA872C547CB9A3DEDF06
:1005C000DFA3B180F2C4CDC9F1B8A9B499830D35C8
:1005D0005D89B9A32D557DB593A30E161EA92C5484
:1005E0007CB8B4B0F19783A81184A50998A383F0CF
:1005F000DA240844106418D8F1A529557DA58595FD
:10060000021A2E3A565A4048F9F3A3D9F8F09883C3
:100610002408441064189782A8F111F098A22408C5
:1006200044106418DAF3DED883A59401D9A302F14B
:10063000A2C3C5C7D8F18492A24DDA2AD84869D995
:100640002AD86855DA32D85071D932D8705DDA3A82
:10065000D85879D93AD87893A34DDA2AD84869D9A5
:100660002AD86855DA32D85071D932D8705DDA3A62
:10067000D85879D93AD878A88A9AF02850789EF331
:100680008818F19F1D98A8D908D8C89F129EF31505
:10069000A8DA1210D8F1AFC8978734B5B994A4215D
:1006A000F3D922D8F22DF3D92AD8F235F3D932D89A
:1006B00081A4606061D961D86C6869D969D87470A7
:1006C00071D971D8B1A384193D5DA3831A3E5E939D
:1006D0001030811011B8B0AF8F94F2DA3ED8B49ACE
:1006E000A88729DAF8D8879A35DAF8D8879A3DDAD0
:1006F000F8D8B1B9A49885022E56A581000C14A390
:1007000097B08AF12DD928D84DD948D86DD968D855
:10071000B1840DDA0ED8A32983DA2C0ED8A384492C
:1007200083DA2C4C0ED8B8B0A88A9AF520AADADF62
:10073000D8A840AAD0DADED8A860AADAD0DFD8F1EB
:100740009786A8319B069907AB9728889BF00C20C9
:100750001440B8B0B4A88C9CF0042851791D301412
:1007600038B282ABD0982C505078789BF11AB0F008
:100770008A9CA82951798B2951798A2470598B2018
:1007800058718A4469388B3940688A6448318B30A3
:100790004960A588200971584468113964493019A5
:1007A000F1AC002C547CF08CA804285078F1889788
:1007B00026A85998AC8C02264666F0899CA8295137
:1007C00079247059446938644831A98809205970DE
:1007D000AB11384069A8193148608CA83C415C20B5
:1007E0007C00F187981986A86E767EA999882D5588
:1007F0007D9EB9A38A228A6E8A568A5E9FB183063D
:100800002646660E2E4E6E9DB8AD002C547CF2B17D
:100810008CB499B9A32D557D8191AC38AD3AB5838F
:1008200091AC2DD928D84DD948D86DD968D88C9D90
:10083000AE29D904AED851D904AED879D904D8811B
:10084000F39DAD008DAE1981ADD901D8F2AEDA2697
:10085000D88E912983A7D9ADADADADF32AD8D8F103
:10086000B0AC89913E5E76F3AC2E2EF1B18C5A9CE1
:10087000AC2C2828289CAC3018A8988128343C97A8
:1008800024A728343C9C24F2B089AC912C4C6C8A6F
:100890009B2DD9D8D851D9D8D879D9D8D8F19E8814
:1008A000A331DAD8D8912DD928D84DD948D86DD9C7
:1008B00068D8B18393353D8025DAD8D88569DAD8F0
:1008C000D8B49381A328343CF3AB8BF8A391B60939
:1008D000B4D9ABDEFAB0879CB9A3DDF1202830385B
:1008E0009AF12830389DF1A3A3A3A3F2A3B490807A
:1008F000F2A3A3A3A3A3A3A3A3A3A3B2A3A3A3A36A
:10090000A3A3B087B599F128303898F1A3A3A3A386
:1009100097A3A3A3A3F39BA330DCB9A7F1262626B4
:10092000FED8FF009F1911241FBECFEFDAE0DEBF13
:10093000CDBF11E0A0E0B1E0E0EAF1E402C0059033
:100940000D92A23CB107D9F723E0A2ECB1E001C0BF
:100950001D92A83AB207E1F714E0C3E9D4E004C05D
:100960002197FE010E94211EC239D107C9F70E94BA
:10097000371A0C94CE200C94000081E08093C201C1
:10098000089508950895FC0180915202882311F181
:100990003FB7F89482E08093E9002091F200822F23
:1009A00090E01816190614F481E090E0882339F0DD
:1009B000289844E6409351024091F100408322235D
:1009C00039F02091F200211103C02BE62093E800BA
:1009D0003FBF08958FEF9FEF08952FB7F89483E0FE
:1009E0008093E9009091E800892F807295FF04C000
:1009F0009091F20080E4891B2FBF089520912E0270
:100A0000260F3327331F21323105ECF42091A30246
:100A1000FC0190E080E0243069F082E00895A0912C
:100A20002E022191AC01425F5D4FA40FB52FB11D85
:100A30002C930196861798F380912E02680F60938D
:100A40002E0280E0089581E008950895E091580213
:100A500080915702E81730F4F0E0ED57FD4F8081A8
:100A600090E008958FEF9FEF089590915802809144
:100A700057022FEF3FEF981748F4E92FF0E0ED57BA
:100A8000FD4F208130E09F5F90935802C901089587
:100A90008091570290915802891B990B0895CF922B
:100AA000DF92EF92FF920F931F93CF93DF937C011E
:100AB000CB018A0120915C02222389F0EB016B01BA
:100AC000C40ED51ECC15DD0569F06991D701ED91F5
:100AD000FC910190F081E02DC7010995F3CF642FBF
:100AE0000E94FE04C801DF91CF911F910F91FF90EA
:100AF000EF90DF90CF900895CF93DF931F92CDB703
:100B0000DEB7698320915C022223F9F0209159021B
:100B1000203258F021E030E0FC013383228390E062
:100B200080E00F90DF91CF91089580915A02E82FD5
:100B3000F0E0E351FE4F998190838F5F80935A02DA
:100B40008093590281E090E0ECCF61E0CE01019604
:100B50000E94FE04F7CF8091E50181110DC082E073
:100B60008093E10184E08093E2011092E40110920D
:100B7000E30181E08093E50181EE91E00895282F63
:100B800030E0F901E558FE4F9491F901E45AFE4F27
:100B90008491235C3E4FF9012491222309F430C053
:100BA0009923E9F091509F30D0F4E92FF0E0E5521D
:100BB000FA4F0C94211E09060D06EA0501060506EA
:100BC000EF05EF05EF05100616061A061E062406A9
:100BD000EF052806909180009F7790938000E22F88
:100BE000F0E0EE0FFF1FE15DFE4FA591B4919FB7BE
:100BF000F894EC91611132C080958E238C939FBF45
:100C00000895909180009F7DE8CF90918000977F1C
:100C1000E4CF94B59F7794BDE2CF94B59F7DFBCF91
:100C2000909190009F7790939000D9CF90919000F1
:100C30009F7DF9CF90919000977FF5CF9091C00064
:100C40009F779093C000CBCF9091C0009F7DF9CF4C
:100C50009091C200977F9093C200C1CF8E2BCECFD0
:100C60001092A30281E08093820210927D0261E0E3
:100C700082E00E94BF0561E083E00E94BF05E9EBCE
:100C8000F0E080818E7F808380818D7F808388E407
:100C90008093B80085E48093BC000895CF93DF93E0
:100CA00091E090930D028823B9F0C091B800D091E3
:100CB000BA008091BC008A7B8093BC0060E082E037
:100CC0000E94BF0560E083E00E94BF050E943006DD
:100CD000D093BA00C093B800DF91CF9108953FB789
:100CE000F8948091DD019091DE01A091DF01B09137
:100CF000E00126B5A89B05C02F3F19F00196A11D64
:100D0000B11D3FBFBA2FA92F982F8827BC01CD0155
:100D1000620F711D811D911D42E0660F771F881FB4
:100D2000991F4A95D1F70895CF92DF92EF92FF92E3
:100D30000F931F93CF93DF93D82FC62F613208F004
:100D400098C00E946F066B017C018091A302811103
:100D50006BC081E08093A302809382029FEF909307
:100D60008102109280029C0F90937F0280937E02FA
:100D700080917E02DD0FD82BD0937E0280917D0280
:100D8000813009F078C010927D020E946F066B01DD
:100D90007C0180917E028093BB008091A50290919E
:100DA000A602A091A702B091A802892B8A2B8B2BB7
:100DB000A1F00E946F060091A5021091A602209159
:100DC000A7023091A8026C197D098E099F090617A8
:100DD00017072807390708F448C08091BC0083FD35
:100DE000D8CF85EC8093BC000E946F066B017C011C
:100DF0008091A302813009F440C0809180028C1759
:100E000010F4C0918002EDE5F2E0A3E8B2E080E0EA
:100E10008C1355C08C2FDF91CF911F910F91FF90B4
:100E2000EF90DF90CF9008958091A5029091A60257
:100E3000A091A702B091A802892B8A2B8B2B09F4D1
:100E400084CF0E946F060091A5021091A602209106
:100E5000A7023091A8026C197D098E099F09061717
:100E600017072807390708F070CF8091A4020E9465
:100E70004E06C0E0CFCF85EEB5CF8091A502909110
:100E8000A602A091A702B091A802892B8A2B8B2BD6
:100E900009F4AECF0E946F060091A5021091A60240
:100EA0002091A7023091A8026C197D098E099F0933
:100EB000061717072807390708F09ACFD6CF919160
:100EC0009D938F5FA5CFCF92DF92EF92FF920F930A
:100ED0001F93CF93DF93D091590281E0D13208F074
:100EE0009CC0C0915B020E946F066B017C018091E7
:100EF000A30281116CC082E08093A30281E0809301
:100F000082028FEF8093810210928002D0937F0241
:100F1000ADEEB1E0EDE5F2E080E0D8138DC01092C7
:100F20007E0280917E02CC0FC82BC0937E028091FE
:100F30007D02813009F084C010927D020E946F060C
:100F40006B017C0180917E028093BB008091A502A1
:100F50009091A602A091A702B091A802892B8A2B9A
:100F60008B2BA1F00E946F060091A5021091A602A2
:100F70002091A7023091A8026C197D098E099F0962
:100F8000061717072807390708F442C08091BC00EC
:100F900083FDD8CF85EC8093BC000E946F066B0167
:100FA0007C018091A302823009F44CC080918102BF
:100FB0008F3F09F469C080918102803209F466C0D4
:100FC00080918102803309F463C084E026C080915F
:100FD000A5029091A602A091A702B091A802892B28
:100FE0008A2B8B2B09F483CF0E946F060091A502F8
:100FF0001091A6022091A7023091A8026C197D09D8
:101000008E099F09061717072807390708F06FCFC1
:101010008091A4020E944E0685E010925A0210921E
:10102000590210925C02DF91CF911F910F91FF90B6
:10103000EF90DF90CF9008959D9191938F5F6DCF4A
:1010400085EEA9CF8091A5029091A602A091A7025A
:10105000B091A802892B8A2B8B2B09F4A2CF0E9476
:101060006F060091A5021091A6022091A70230916F
:10107000A8026C197D098E099F0906171707280712
:10108000390708F08ECFC4CF80E0C7CF82E0C5CF4C
:1010900083E0C3CF0F931F93CF93DF938A01E901BE
:1010A000209711F4C9EAD2E091E090935C0280931A
:1010B0005B0210925A0210925902E881F981019064
:1010C000F081E02DCE010995D80111966C91E8814F
:1010D000F9810190F081E02DCE010995E881F98137
:1010E0000190F081E02DD8016C91CE010995CE01DF
:1010F0000E94630791E0811190E0892FDF91CF91E9
:101100001F910F910895CF93DF9300D0CDB7DEB735
:101110005A834983AE014F5F5F4F0E944A080F9088
:101120000F90DF91CF910895DF92EF92FF920F938E
:101130001F93CF93DF93E42ED22EF32EE801209756
:1011400011F4C9EAD2E091E090935C0280935B02D3
:1011500010925A0210925902E881F9810190F081AF
:10116000E02DCE0109950D2D1F2DE00EF12EF11C65
:101170000E151F0559F0F80161918F01E881F98181
:101180000190F081E02DCE010995F2CFCE010E94B1
:10119000630791E0811190E0892FDF91CF911F913A
:1011A0000F91FF90EF90DF9008950F931F93CF93CF
:1011B000DF931F92CDB7DEB7498389019E012F5F70
:1011C0003F4F41E00E9494080F90DF91CF911F9113
:1011D0000F910895EBE0F3E021813281482F6EE614
:1011E00080810C94D5088F929F92AF92BF92CF923C
:1011F000DF92EF92FF924B015C010E946F066B0140
:101200007C010E946F066C197D098E099F09683E5A
:10121000734081059105A8F321E0821A9108A10885
:10122000B10888EEC80E83E0D81EE11CF11C8114C1
:101230009104A104B10429F7FF90EF90DF90CF90C3
:10124000BF90AF909F908F9008952FB7F8946091C2
:10125000D9017091DA018091DB019091DC012FBFFF
:10126000089508954091C5015091C6012091C30190
:101270003091C40142175307B4F49091E80095707F
:10128000E1F39091E80092FD19C08093F100809104
:10129000C5019091C60101968F739927892B19F486
:1012A0008EEF8093E8008091C5019091C601019670
:1012B0009093C6018093C50181E0089580E0089570
:1012C000EF92FF920F931F93CF93DF93F82E192F76
:1012D000E62E042F81E0860F880F0E94320983E0FA
:1012E0000E943209CF2DD12FEC0EFD2EF11CCE1510
:1012F000DF05B9F007FF13C0FE0184910E94320997
:10130000182F80E00E943209812321968111EFCFAE
:10131000DF91CF911F910F91FF90EF9008958881F9
:10132000EDCF81E0F5CFDF92EF92FF920F931F9305
:10133000CF93DF93D82E8A01EB017B01E40EF51EDB
:10134000CE15DF0559F0D7FE12C0FE0184910E9430
:10135000320921968111F4CF0FEF1FEFC801DF9101
:10136000CF911F910F91FF90EF90DF9008958881AA
:10137000EECF0F931F93CF93DF931F92CDB7DEB7BE
:1013800082E0898342E450E06CEA70E080E80E94E9
:1013900093090E94AB05DC0112960D911C91011579
:1013A000110589F0D801ED91FC910280F381E02DC7
:1013B000BE016F5F7F4FC801099597FD04C0F8011A
:1013C00000851185ECCF89810F90DF91CF911F911E
:1013D0000F910895615030F02091F100FC012083BD
:1013E0000196F8CF289884E680935102089590E002
:1013F00080E008958F929F92AF92BF92CF92DF923A
:10140000EF92FF920F931F93CF93DF936C017B01B9
:101410008A0180910B01882309F45CC080915202FB
:10142000882309F457C08091C90180FF05C08091CD
:10143000E00082608093E000E801B12C8AEFA82EE2
:1014400093E0892E2AE3922E209711F4BB20D9F144
:101450000E94ED0481110AC0AA94AA20D9F161E08A
:1014600070E080E090E00E94F308EECF8C171D063C
:1014700011F00CF08C2F9FB7F8948092E900209126
:10148000E80025FD02C09FBFDFCF282F30E0C21B40
:10149000D30BF701815020F041914093F100FACF36
:1014A000E20EF31EBB2021F09092E800B12CEBCFAE
:1014B0008091E80085FDE7CF9092E800BB24B394CB
:1014C000209709F3F3CF5D9884E68093C801101646
:1014D00011063CF081E090E0F6019383828310E0F6
:1014E00000E0C801DF91CF911F910F91FF90EF9025
:1014F000DF90CF90BF90AF909F908F900895CF9343
:10150000DF931F92CDB7DEB76983DC01ED91FC91CB
:101510000280F381E02D41E050E0BE016F5F7F4F1C
:1015200009950F90DF91CF91089583E08093E900B2
:101530008091F200882319F08AE38093E8000895EF
:101540000E94ED0490E00895CF93DF931F92CDB7F2
:10155000DEB7FC018485958597FD08C02FEF3FEF2E
:10156000358724870F90DF91CF910895CE010196A2
:101570000E94C304019719F4898190E0F3CF8FEFA3
:101580009FEFF0CF0F931F93CF93DF931F92CDB7B1
:10159000DEB78C01FC018485958597FF0BC0CE01D9
:1015A00001960E94C304019771F4898190E0F801CB
:1015B00095878487F801848595850F90DF91CF9179
:1015C0001F910F9108958FEF9FEFF1CFFC0184855C
:1015D000958597FD0BC09FB7F89482E08093E90052
:1015E0008091F2009FBF90E0019608959FB7F89414
:1015F00082E08093E9008091F2009FBF90E008951F
:1016000042E050E067E471E085EB92E00C94FA0967
:10161000CF93DF93FC0101900020E9F73197AF01F0
:10162000481B590BBC0185EB92E00E94FA09EC01C2
:101630000E94000B8C0F9D1FDF91CF9108952F9278
:101640003F924F925F926F927F928F929F92AF9252
:10165000BF92CF92DF92EF92FF920F931F93CF939F
:10166000DF9300D000D000D0CDB7DEB7C82E6A839C
:1016700049833C832B83FE82ED820E9425094B0126
:101680005C01ED80FE80EF2821F489EA92E09E83E0
:101690008D83F12CE12CD12C9981292E312C28011C
:1016A000712C612CE214F3040CF067C0A1E0A0934C
:1016B0005C02C0925B0210925A0210925902AD81F4
:1016C000BE81ED91FC9111970190F081E02D6A812E
:1016D000CD0109958D819E810E946307B1E0B09391
:1016E0005C02C0925B0210925A0210925902B10140
:1016F0006E197F096132710514F060E270E06132A9
:1017000008F060E28C2D0E9494061092580280939B
:101710005702AD81BE81ED91FC9111970084F18556
:10172000E02DCD010995892B09F10115110599F4D9
:10173000AD81BE81ED91FC9111970284F385E02D7E
:10174000CD010995EB81FC81ED0DF11DD7FCFA95DA
:101750008083D394DECF0E942509681979098A090C
:101760009B09641575058605970510F389818132FB
:1017700008F080E2E80EF11C95CF01151105B1F0DB
:101780000E942509681979098A099B0930E020E03F
:10179000601771078207930748F08D2D0D2C000C00
:1017A000990B8215930514F4DD24DA948D2D269679
:1017B0000FB6F894DEBF0FBECDBFDF91CF911F9162
:1017C0000F91FF90EF90DF90CF90BF90AF909F90E0
:1017D0008F907F906F905F904F903F902F900895E3
:1017E000EF92FF920F931F93CF93DF93CBE0D3E061
:1017F000E980FA8008EE13E02EE033E041E06AE38E
:1018000088810E941F0B8B81DF91CF911F910F91D7
:10181000FF90EF900895EF92FF920F931F93CF9355
:10182000DF931F92CDB7DEB7E0900C03F0900D036D
:1018300008EE13E09E012F5F3F4F41E065E7809186
:101840000B030E941F0B882339F089818E7790E06B
:101850009595879580930E0380910E030F90DF91ED
:10186000CF911F910F91FF90EF9008957F928F92EB
:101870009F92AF92BF92CF92DF92EF92FF920F931F
:101880001F93CF93DF931F92CDB7DEB7A82E962E6E
:10189000742E822EB02E08EE13E09E012F5F3F4F74
:1018A00041E00E941F0B882399F1872D8819990B1D
:1018B000AC014F5F5F4F81E090E002C0880F991F3D
:1018C0008A94E2F70197042E01C0880F0A94EAF780
:1018D0002B2D01C0220F4A95EAF7482F4095B98079
:1018E0004B218223482B49839701692D8A2D0E9421
:1018F000D5080F90DF91CF911F910F91FF90EF903E
:10190000DF90CF90BF90AF909F908F907F90089581
:1019100080E0EFCF8F929F92AF92BF92CF92DF92F3
:10192000EF92FF920F931F93CF93DF931F92CDB748
:10193000DEB7B82EA62E842E922E6801780108EE0E
:1019400013E09E012F5F3F4F41E00E941F0B81E09B
:1019500090E001C0880F8A94EAF749819920A9F0A4
:10196000482B498396016A2D8B2D0E94D5080F9034
:10197000DF91CF911F910F91FF90EF90DF90CF906B
:10198000BF90AF909F908F90089580954823E9CFA6
:101990003F924F925F926F927F928F929F92AF92FF
:1019A000BF92CF92DF92EF92FF920F931F93CF934C
:1019B000DF93782E662E6A017901E8010E942509DD
:1019C0004B015C01209711F4C9EAD2E011E01093B9
:1019D0005C0270925B0210925A0210925902E881E6
:1019E000F9810190F081E02D662DCE010995CE019F
:1019F0000E94630710935C0270925B0210925A027D
:101A00001092590262E0872D0E94940610925802AB
:101A10008093570201E010E02701712C612C3324E0
:101A20003394E881F9810084F185E02DCE01099598
:101A3000892B49F1111127C0E114F104C9F4E8819F
:101A4000F9810284F385E02D01110CC0CE010995C6
:101A5000F60120813181822B932B9183808311E0C9
:101A60000325DFCFCE010995F60110828183F8CFDF
:101A70000E942509681979098A099B096415750569
:101A800086059705E0F2CE010E946307E114F10498
:101A900099F00E942509AB01BC01481959096A094E
:101AA0007B09C701B0E0A0E0481759076A077B0728
:101AB00018F0111101C01FEF812FDF91CF911F91FD
:101AC0000F91FF90EF90DF90CF90BF90AF909F90DD
:101AD0008F907F906F905F904F903F9008952F92DE
:101AE0003F924F925F926F927F928F929F92AF92AE
:101AF000BF92CF92DF92EF92FF920F931F93CF93FB
:101B0000DF93CDB7DEB7E7970FB6F894DEBF0FBE11
:101B1000CDBF8F8F48A759A76AA77BA70CA71DA782
:101B20002EA73FA78B3309F047C20E940B0C8833C6
:101B300008F4B4C297E79F8BA3E0AA8FE0900C0350
:101B4000F0900D0308EE13E09E012F5F3F4F41E040
:101B50006CE180910B030E941F0B882351F0898157
:101B6000887190E023E0959587952A95E1F7809319
:101B70000E0380910E0320E030E4790102C0F59459
:101B8000E7948A95E2F76EE385EB92E00E947F0A84
:101B9000CE010D969E8B8D8BDE011196B98FA88F8D
:101BA0006C01BF8800910C0310910D0328EE33E007
:101BB000AE014D5E5F4F6B2D80910B030E94C80CF0
:101BC0008B889C88B401092C000C880B990B0E940F
:101BD000CD1CFF89F33109F4F7C121E08222992459
:101BE000D6018D929C9220E030E040E051E40E94CA
:101BF0002C1DE88DF98D6083718382839383BA8D68
:101C0000BB0EE2E0CE0ED11C288D398D2C5F3F4FEC
:101C1000398F288F8D899E892817390719F69F8D4E
:101C20009B3309F0DFC18DEC9CECACE4BDE388ABE9
:101C300099ABAAABBBABACE0B0E0BFA3AEA3C7010E
:101C4000B0E0A0E08CAB9DABAEABBFAB19A218A2CD
:101C5000312C212CDE011196BC8FAB8FFE013D96FD
:101C6000FBA3EAA3FF89FCA32F8D2DA3812C912C2C
:101C700054011E8E1D8E00910C0310910D0328EE51
:101C800033E0AE014D5E5F4F6DA180910B030E946A
:101C9000C80C6B897C89072E000C880B990B0E945D
:101CA000CD1C6B017C013F8D3B3391F48D8D9E8D5E
:101CB000029771F46CA97DA98EA99FA90E94CB1CE3
:101CC0009B01AC01C701B6010E94271E6B017C017C
:101CD0002601370177FA709477F87094C501B40142
:101CE0000E94CB1C4B015C0120E030E0A901C70140
:101CF000B6010E94CA1E181614F073016201A701F2
:101D00009601C501B4010E94281E0E949B1E4B0132
:101D10005C012FE632E143E85AE3C301B2010E94BD
:101D20002C1D2CA53DA54EA55FA50E942C1DAB8D9D
:101D3000BC8D2D913D914D915C910E94281E6B01AF
:101D40007C01EB8DFC8DC082D182E282F38228A5DA
:101D500039A54AA55BA5C301B2010E942C1DA701AC
:101D600096010E94281EFF89F33109F445C120E045
:101D700030E040E05EE30E942C1D6B017C0120E01E
:101D800030E0A9010E94CA1E20E030E040E05FE39D
:101D900087FD2DC1C701B6010E94281E0E94941E16
:101DA0006E7FAAA1BBA18D919C91682B792B7C8B16
:101DB0006B8B20910C0330910D03AE014D5E5F4F94
:101DC0006CA180910B030E944A08ED8DFE8D319627
:101DD000FE8FED8FFDA1FE5FFDA32CA13A8D230F99
:101DE0002CA38AA19BA102969BA38AA3AB8DBC8D39
:101DF0001496BC8FAB8FED8DFE8D339709F03BCFE2
:101E0000F3E62F16310471F429EE821623E09206D0
:101E1000A104B10438F06AE285EB92E00E947F0AE7
:101E2000312C212CC501B4010E94CB1C28A939A951
:101E30004AA95BA90E942C1D20E030E040EA50E452
:101E40000E94C61C87FF05C088A199A1019699A38D
:101E500088A394E689169104A104B10408F0EBC0AC
:101E6000ABE02A1631040CF4E6C0E8A1F9A13A97D8
:101E70000CF4E1C06EE285EB92E00E947F0A20E064
:101E800030E040E45FE368A579A58AA59BA50E94A0
:101E90002C1D68A779A78AA79BA720E030E040E423
:101EA0005FE36CA57DA58EA59FA50E942C1D6CA748
:101EB0007DA78EA79FA79E01235F3F4F6901FF88E3
:101EC000CE0101963C01F301619171918191919153
:101ED0003F01FF89F33109F4C2C020E030E040E067
:101EE0005EE30E942C1D4B015C0120E030E0A90163
:101EF0000E94CA1E20E030E040E05FE387FDAAC0F8
:101F0000C501B4010E94281E0E94941E6E7FD60156
:101F10008D919C91682B792B7C8B6B8B20910C0382
:101F200030910D03AE014D5E5F4F6F2D80910B031D
:101F30000E944A08BA8DFB0EE2E0CE0ED11C288D1D
:101F4000398D2615370509F0BECF8EA19FA10197C7
:101F50009FA38EA3892B09F079CE00910C031091D9
:101F60000D0321E042E06AE680910B030E948A0C97
:101F700000910C0310910D0321E043E06AE680918B
:101F80000B030E948A0CE7960FB6F894DEBF0FBED3
:101F9000CDBFDF91CF911F910F91FF90EF90DF9018
:101FA000CF90BF90AF909F908F907F906F905F90F9
:101FB0004F903F902F90089523E12F8B32E03A8F7E
:101FC000E12C80E2F82EDFCD20E030E040E850E464
:101FD0000E942C1DA88DB98D6D937D938D939C933C
:101FE00013970DCE80E090E0A0E8BFE320CEC701BC
:101FF000B6010E94271ED2CE20E030E040E85EE32A
:102000000E942C1D6B017C0120E030E0A9010E94A0
:10201000CA1E20E030E040E05FE387FD07C0C70153
:10202000B6010E94281E0E94941EC1CEC701B601AF
:102030000E94271EF8CF61E070E080E090E00E94EF
:10204000F3089FEF291A390AA4E62A16310409F089
:1020500001CE10CFC501B4010E94271E55CF20E04C
:1020600030E040E85EE30E942C1D4B015C0120E063
:1020700030E0A9010E94CA1E20E030E040E05FE3AA
:1020800087FD07C0C501B4010E94281E0E94941E4E
:1020900043CFC501B4010E94271EF8CFB6E0BF8B25
:1020A000E2E0EA8F4BCD2F923F924F925F926F9278
:1020B0007F928F929F92AF92BF92CF92DF92EF92D8
:1020C000FF920F931F93CF93DF9300D000D0CDB733
:1020D000DEB73C014B01242E522E302E20910C03F2
:1020E00030910D036DE680910B030E94D508852D7C
:1020F0000E94EA0880E190E00E94CF1E5C0100236C
:1021000069F180E190E00E94CF1E9C838B83D12CEB
:10211000C12CC6014096482C4C188816990610F020
:1021200080E1482E80E091E0851991094816190652
:1021300019F014F0452C4194332099F0AB81BC8107
:1021400090E080E093012C0D3D1D841578F4F90199
:10215000E80FF91FE491ED930196F7CF1C821B82E3
:10216000D6CFC3018C0D9D1D9C838B8300910C03E6
:1021700010910D032B813C81442D6FE680910B0360
:102180000E949408842D90E09A838983A114B1045D
:1021900009F446C020910C0330910D03422D4F717C
:1021A0006DE680910B030E94D508852D0E94EA08F8
:1021B000E0900C03F0900D0308EE13E09501442D20
:1021C0006FE680910B030E941F0B49815A81B50174
:1021D0008B819C810E94B120892B11F1C5010E9445
:1021E0006B1F332029F08B819C810E946B1F312C47
:1021F000832D0F900F900F900F90DF91CF911F9133
:102200000F91FF90EF90DF90CF90BF90AF909F9095
:102210008F907F906F905F904F903F902F90089598
:1022200089819A81C80ED91EC814D904B8F4540CF7
:1022300009F4239420910C0330910D03422D4F712A
:102240006DE680910B030E94D508852D0E94EA0857
:1022500060CF8B819C810E946B1FCACFC5010E94F9
:102260006B1F3110F6CF33243394C2CF2F923F929D
:102270004F925F926F927F928F929F92AF92BF9296
:10228000CF92DF92EF92FF920F931F93CF93DF9342
:1022900000D0CDB7DEB73C014B015A0169012801DE
:1022A0001701109258021092570210925A0210927F
:1022B00059020E94300681EC94E09093560280937C
:1022C000550282EC94E090935402809353028FEF76
:1022D0009FEF9093C2028093C102E0900C03F090B4
:1022E0000D0301E023E042E06BE680910B030E94C6
:1022F000360CE0900C03F0900D0300E022E044E087
:102300006BE180910B030E94360CE0900C03F0907F
:102310000D0322E044E06CE180910B030E94360C37
:1023200000910C0310910D0320E046E06BE68091D4
:102330000B030E948A0CE0900C03F0900D0303E065
:1023400022E045E069E680910B030E94360C009183
:102350000C0310910D0320E045E068E380910B032E
:102360000E948A0CE0900C03F0900D0301E023E042
:1023700042E06CE180910B030E94360C20910C032B
:1023800030910D0342E06FE180910B030E94D5086C
:1023900020910C0330910D0341E061E280910B0329
:1023A0000E94D50820910C0330910D0345E060E2B6
:1023B00080910B030E94D50820910C0330910D03EE
:1023C00041E062E280910B030E94D5080E940B0C51
:1023D000843309F4D6C188E691E00E94080B00918D
:1023E0000C0310910D0321E047E06BE680910B0395
:1023F0000E948A0C6EE170E080E090E00E94F30899
:1024000000910C0310910D0320E046E06BE68091F3
:102410000B030E948A0C20910C0330910D0340E7BE
:102420006DE680910B030E94D50886E00E94EA08C1
:1024300020910C0330910D0340E06DE680910B0379
:102440000E94D50820910C0330910D034FE765E2FF
:1024500080910B030E94D50800910C0310910D038D
:1024600020E045E06AE680910B030E948A0C2091EF
:102470000C0330910D0348E665E280910B030E9446
:10248000D50800910C0310910D0321E041E06AE6AC
:1024900080910B030E948A0C64E170E080E090E080
:1024A0000E94F308E0900C03F0900D0303E023E09A
:1024B00042E06BE680910B030E94360C20910C03E6
:1024C00030910D0342E168E380910B030E94D5082F
:1024D00020910C0330910D0344E069E180910B03DE
:1024E0000E94D508E0900C03F0900D0301E023E07A
:1024F00045E06AE180910B030E94360CE0900C03EA
:10250000F0900D0303E023E042E06AE180910B03C9
:102510000E94360CE0900C03F0900D0322E044E0A2
:102520006BE180910B030E94360C01E020E040E05B
:1025300069E877E08AE991E00E945310882309F462
:102540000BC1198281E08A8300E026E142E062E06B
:1025500070E0CE0101960E94531020910C0330913F
:102560000D0343E060E780910B030E94D5082091A2
:102570000C0330910D0340E061E780910B030E9452
:10258000D50800910C0310910D0320E040E060E0BD
:1025900080910B030E948A0C20910C0330910D0353
:1025A00042E06FE180910B030E94D50820910C035B
:1025B00030910D034CE961E280910B030E94D50834
:1025C00020910C0330910D0340E560E280910B03F4
:1025D0000E94D50820910C0330910D0340E062E287
:1025E00080910B030E94D50800910C0310910D03FC
:1025F00021E046E06AE680910B030E948A0C00917C
:102600000C0310910D0321E043E06AE680910B0377
:102610000E948A0C00910C0310910D0320E047E00A
:102620006AE680910B030E948A0C8AE290E0909304
:1026300023038093220300910C0310910D0321E0EA
:1026400042E06AE680910B030E948A0C0E94F00B24
:102650000E940B0C67E7883308F466E020910C03B6
:1026600030910D03A30180910B030E9483080E9407
:102670000B0C6AE7883308F468E020910C03309172
:102680000D03A40180910B030E9483080E940B0C90
:102690006DE7883308F46AE020910C0330910D0354
:1026A000A50180910B030E94830820910C033091B7
:1026B0000D03A60163E180910B030E948308209122
:1026C0000C0330910D03A20165E180910B030E9480
:1026D000830820910C0330910D03A10167E18091E3
:1026E0000B030E94830800E010E028ED31E44AE289
:1026F0005CE56FEC7EE38BE30E946F0D00E010E081
:1027000023EF32E44AE25CE56FEC7EE383E40E946F
:102710006F0D00910C0310910D0321E047E06AE674
:1027200080910B030E948A0C8DEB94E0909315012D
:102730008093140180916A00806380936A00EE9A0E
:102740000E94F00B80932503809122039091230334
:1027500090932703809326030F900F90DF91CF91E2
:102760001F910F91FF90EF90DF90CF90BF90AF90AF
:102770009F908F907F906F905F904F903F902F90A1
:1027800008958AE491E029CEFC018081918100972F
:1027900011F00C946B1F089585ED8093BC0080911F
:1027A000A5029091A602A091A702B091A802079657
:1027B000A11DB11D23E0B695A795979587952A95FC
:1027C000D1F72091BC0024FD03C01092A30208950C
:1027D0004091A5025091A6026091A7027091A802B3
:1027E000452B462B472B69F30097A105B10541F016
:1027F00025E32A95F1F700000197A109B109E1CF7E
:102800008091A4020C944E060F931F93CF93DF93F5
:10281000EC0188819981009759F02A813B81261724
:10282000370730F081E0DF91CF911F910F9108952C
:102830008B016F5F7F4F0E94F41F009759F09983BF
:1028400088831B830A832C813D81232B59F7FC014C
:102850001082E8CF80E0E7CFEF92FF920F931F93B3
:10286000CF93DF93FB01E080F180E114F10441F4A8
:1028700080E0DF91CF911F910F91FF90EF9008952D
:102880000481158101151105B1F0EC018C819D8148
:10289000080F191FB801CE010E940414882341F3C8
:1028A000288139818C819D81B701820F931F0E94FD
:1028B000C7201D830C8381E0DCCF0F931F93CF9340
:1028C000DF93EC010C811D810F5F1F4FB8010E9447
:1028D0000414882369F0288139818C819D8160EA04
:1028E00071E0820F931F0E94C7201D830C8381E03B
:1028F000DF91CF911F910F910895CF92DF92EF92C8
:10290000FF920F931F93CF93DF93CDB7DEB76297FC
:102910000FB6F894DEBF0FBECDBF8C01CB01F8011E
:102920001182108213821282158214824AE09E0163
:102930002F5F3F4F6901B9010E946F1CF6010190A2
:102940000020E9F731977F01EC18FD08B701C801B5
:102950000E940414F8012081318181111CC02115CD
:10296000310519F0C9010E946B1FF8011182108214
:10297000158214821382128262960FB6F894DEBF1B
:102980000FBECDBFDF91CF911F910F91FF90EF90C0
:10299000DF90CF900895F582E482B601C9010E94CC
:1029A000C720EACF1F920F920FB60F9211242F93D8
:1029B0003F934F935F936F937F938F939F93AF93C7
:1029C000BF93EF93FF938091B900887F803609F41D
:1029D0004AC0F0F5883209F4A7C018F5803109F42F
:1029E0009BC0B8F4882309F4F9C0883009F494C076
:1029F000FF91EF91BF91AF919F918F917F916F91D7
:102A00005F914F913F912F910F900FBE0F901F90AC
:102A10001895883109F488C0803251F7809381027B
:102A200014C0803409F49DC040F48033B9F3883376
:102A3000F9F68093810285ECB0C0803509F485C039
:102A4000883509F496C0883499F60E94CC13D0CF0B
:102A5000883909F48CC038F5883729F050F4883665
:102A600011F0803729F683E08093A3021092500280
:102A700057C0883809F47BC0803919F0803809F0D4
:102A8000B7CF80915002803208F071C0E0915002BF
:102A900081E08E0F809350028091BB00F0E0E05DFA
:102AA000FD4F80833DC0803B39F0E0F4803A09F46B
:102AB00079C0883A09F09CCF84E08093A3021092F9
:102AC0002F0210922E02E0915502F09156020995C4
:102AD00080912E0281110FC081E080932E0210920E
:102AE0000E0209C0803C09F4A6CF883C09F4A3CFAC
:102AF000883B09F07DCFE0912F0281E08E0F80931B
:102B00002F02F0E0E25FFD4F80818093BB00909147
:102B10002F0280912E0229C080917E028093BB00FB
:102B200085EC8093BC0064CF9091800280917F02FD
:102B3000981758F5E091800281E08E0F8093800213
:102B4000F0E0E35AFD4F8081E9CFE091800281E01F
:102B50008E0F809380028091BB00F0E0E35AFD4F1E
:102B600080839091800280917F029817C8F285E857
:102B7000D8CFE091800281E08E0F80938002809117
:102B8000BB00F0E0E35AFD4F808380918202811107
:102B90005CCF81E080937D0284EA8093BC00109238
:102BA000A30226CF85EC8093BC001092A3028091F3
:102BB0005002803230F4E0915002F0E0E05DFD4FD1
:102BC00010826091500270E0E0915302F091540243
:102BD00080E392E00995109250020ACF1092810290
:102BE00034CF1F920F920FB60F9211242F933F9361
:102BF0008F939F93AF93BF938091D9019091DA0106
:102C0000A091DB01B091DC013091D80123E0230FCA
:102C10002D3758F50196A11DB11D2093D801809341
:102C2000D9019093DA01A093DB01B093DC0180918C
:102C3000DD019091DE01A091DF01B091E0010196EC
:102C4000A11DB11D8093DD019093DE01A093DF01F2
:102C5000B093E001BF91AF919F918F913F912F91E0
:102C60000F900FBE0F901F90189526E8230F029625
:102C7000A11DB11DD2CF1F920F920FB60F9211243A
:102C80002F933F934F935F936F937F938F939F9374
:102C9000AF93BF93EF93FF93E0911401F09115016F
:102CA0000995FF91EF91BF91AF919F918F917F9186
:102CB0006F915F914F913F912F910F900FBE0F90A9
:102CC0001F9018951F920F920FB60F9211242F93F9
:102CD0003F934F935F936F937F938F939F93AF93A4
:102CE000BF93EF93FF93E0911201F09113010995C7
:102CF000FF91EF91BF91AF919F918F917F916F91D4
:102D00005F914F913F912F910F900FBE0F901F90A9
:102D100018951F920F920FB60F9211242F933F9385
:102D20004F935F936F937F938F939F93AF93BF93D3
:102D3000EF93FF93E0911001F09111010995FF913C
:102D4000EF91BF91AF919F918F917F916F915F9123
:102D50004F913F912F910F900FBE0F901F9018959C
:102D60001F920F920FB60F9211242F933F934F9300
:102D70005F936F937F938F939F93AF93BF93EF93E3
:102D8000FF93E0910E01F0910F010995FF91EF91F2
:102D9000BF91AF919F918F917F916F915F914F9173
:102DA0003F912F910F900FBE0F901F9018951F927B
:102DB0000F920FB60F9211242F933F934F935F936F
:102DC0006F937F938F939F93AF93BF93EF93FF93F3
:102DD000E0910C01F0910D010995FF91EF91BF91E8
:102DE000AF919F918F917F916F915F914F913F91A3
:102DF0002F910F900FBE0F901F9018951F920F925A
:102E00000FB60F9211248F939F938091E1009091C0
:102E1000E100937F9093E10083FF0FC01092E900DF
:102E200091E09093EB001092EC0092E39093ED0010
:102E30001092520298E09093F00082FF22C093E03B
:102E40009093E9009091F200992319F09AE39093FE
:102E5000E8009091C801992341F09091C8019150E8
:102E60009093C801911101C05D9A909151029923EC
:102E700041F090915102915090935102911101C0F3
:102E8000289A84FF18C08091E2008E7E8160809332
:102E9000E2008091E1008F7E8093E1008091C90182
:102EA0008E7E80618093C9019F918F910F900FBE9C
:102EB0000F901F90189580FFF7CF8091E2008E7ED3
:102EC00080618093E2008091E1008E7E8093E1003A
:102ED0008091C9018E7E8160E5CF1F920F920FB65F
:102EE0000F921124CF92DF92EF92FF920F931F93D4
:102EF0002F933F934F935F936F937F938F939F9302
:102F0000AF93BF93EF93FF93CF93DF93CDB7DEB72C
:102F10006C97DEBFCDBF1092E9008091E80083FF7F
:102F200025C068E0CE0145960E94EA0982EF8093B1
:102F3000E8008D8987FF39C09091E80090FFFCCFB1
:102F4000982F907609F034C19E894F89588D2F892A
:102F5000F88C911131C0803861F58091CA0180935D
:102F6000F1001092F1008EEF8093E8006C960FB69E
:102F7000F894DEBF0FBECDBFDF91CF91FF91EF91EF
:102F8000BF91AF919F918F917F916F915F914F9181
:102F90003F912F911F910F91FF90EF90DF90CF9075
:102FA0000F900FBE0F901F9018959EEF9093E80022
:102FB000C7CF1092F100D5CF913059F48111D3CF02
:102FC0004130510581F68091CA018D7F8093CA01FD
:102FD000CACF933049F48111C6CF4130510519F65B
:102FE0008091CA018260F2CF953041F48091E8006F
:102FF00080FFFCCF20682093E300B5CF963009F026
:10300000A9C00B8D1C8D22E01092E9001092C60120
:103010001092C501F2122EC01092C4011092C30189
:103020000E94B9091F8299E09983FA8291E09E83F8
:1030300090EA98879AEF99872091C5013091C6014F
:10304000275F3F4F3C832B838D831092E9001092C2
:10305000C6011092C5011093C4010093C30149E059
:1030600050E0BE016F5F7F4F80E00E9493090E9495
:10307000B90979CF1093C4010093C3010E94AB0535
:10308000DC0112960D911C910115110509F451C135
:10309000D801ED91FC910480F581E02DBE016B5EBD
:1030A0007F4FC8010995009709F03EC1F8010085DE
:1030B0001185EACFF3E0FF120EC08F89882309F44F
:1030C00040C0823061F440E860E180E191E00E941C
:1030D0006009811148CF81E28093EB0047CF8130B6
:1030E00029F440E86BE084E091E0F1CF833099F778
:1030F0000E94AB05DC011296ED90FC908E010F5FF3
:103100001F4F6801E114F10479F0D701ED91FC91B2
:103110000680F781E02DB801C7010995080F111D40
:10312000F701E084F184EECFD8011C92F601019002
:103130000020E9F73197BF016C197D0940E0C60115
:10314000C6CF6EEE70E0FB01449150E080E80E9433
:10315000930909CF973009F4BECF983021F481E06C
:103160008093F10000CF993009F0FDCE837009F013
:10317000B2CFEDE1F1E081E031E096E3219122234D
:1031800071F08093E9003093EB00DF0111972C91EF
:103190002093EC009093ED008F5F873079F78EE7F6
:1031A0008093EA001092EA008F8980935202DBCE6E
:1031B0008B8D9C8D1092E9001092C6011092C50172
:1031C0009093C4018093C301898D811192C08E892F
:1031D0009D89913A49F4813209F07DCF47E050E072
:1031E00064E071E080E0B3CF913209F074CF8332B4
:1031F00069F48F89988DB0E0A0E0809300019093EE
:103200000101A0930201B0930301ADCE803269F4B5
:103210008091E80082FFFCCF67E084E091E00E94AB
:10322000EA098BEF8093E8009ECE823209F09BCEB4
:103230008F8980930B01EEEFFFE7859194918B3F8F
:103240009C4D51F1E0E0F8E080910401909105017E
:10325000A0910601B0910701803B9440A105B10502
:10326000F1F480910B0180FD1AC0EE3F8AE0F8076F
:1032700089F587E797E79183808380916000809349
:10328000C70188E19BE00FB6F894A8958093600091
:103290000FBE9093600067CEEEEFFAE0D5CF80814D
:1032A00091818737974709F05ECEA895809160009D
:1032B0008861809360008091C70180936000EE3F39
:1032C0002AE0F20789F08091FE0A9091FF0A91832B
:1032D000808349CE808191818737980751F29093FE
:1032E000FF0A8093FE0AC5CF1092FF0A1092FE0AD1
:1032F0003ACE0E94AB05DC0112960D911C9101158E
:10330000110509F4E8CED801ED91FC910190F0810E
:10331000E02DBE016B5E7F4FC8010995811123CE60
:10332000F80100851185EBCF181619060CF41BCE99
:10333000D2CEF1E0FF12BECE62EF70E004CFE9EA38
:10334000F2E01382128288EE93E0A0E0B0E0848382
:103350009583A683B78327E231E031832083E5EBB1
:10336000F2E01382128284839583A683B78389E374
:1033700091E0918380838FEF9FEF95878487EBE0C7
:10338000F3E088E680831282118288EF9AE2A0E05F
:10339000B0E0818B928BA38BB48B118E10926A0359
:1033A00010926B0310926C0310926D0310926E03D7
:1033B00010926F03109270031092710310927203B7
:1033C00010927303109274031092750380E090E0E2
:1033D000A0E8BFE38093760390937703A0937803EC
:1033E000B093790310927A0310927B0310927C03BE
:1033F00010927D0310927E0310927F03109280033F
:10340000109281031092820310928303109284031E
:1034100010928503109293031092920310929503D9
:1034200010929403109297031092960310929903AE
:103430001092980310929B0310929A0310929D038E
:1034400010929C0310929F0310929E031092A1036E
:103450001092A0031092A3031092A203E5E0F3E000
:103460001182108213821282158214820895CF93E2
:10347000DF93CDB7DEB7AD970FB6F894DEBF0FBEC2
:10348000CDBF789484B5826084BD84B5816084BDED
:1034900085B5826085BD85B5816085BD80916E00F2
:1034A000816080936E001092810080918100826023
:1034B0008093810080918100816080938100809160
:1034C0008000816080938000809191008260809371
:1034D0009100809191008160809391008091900093
:1034E0008160809390008091C10084608093C100CE
:1034F0008091C10082608093C1008091C100816091
:103500008093C1008091C30081608093C30080914B
:10351000C00082608093C0008091C200816080936F
:10352000C20080917A00846080937A0080917A0052
:10353000826080937A0080917A00816080937A0023
:1035400080917A00806880937A00109252021092E3
:10355000CA011092C9018091D70081608093D70081
:1035600080EA8093D80089B5806189BD89B5826081
:1035700089BD09B400FEFDCF61E070E080E090E01D
:103580000E94F3088091D8008F7C80618093D800DE
:103590008091E000807F8093E0008091E1008E7E4A
:1035A0008093E1008DE08093E200559A209A10917B
:1035B0000B016AE070E080E090E00E94F3081123C4
:1035C000B1F38FEF9FEF9093C2028093C10282E824
:1035D00091E00E94080B64E670E080E090E00E94B9
:1035E000F3081092D70188E891E00E94080B4DEF94
:1035F000E42EFF24FA940FEC1FEF26E330E04DE9B0
:1036000056E065EC7EEF83EE9EEF0E94361182E974
:1036100091E00E94080B8CE291E09093D20180939C
:10362000D1019093CC018093CB01E2E6F1E02491AB
:10363000E3E4F1E08491882399F090E0880F991FEA
:10364000FC01EF5DFE4FA591B491FC01E15DFE4FE1
:10365000859194918FB7F894EC91E22BEC938FBF06
:10366000CE0101966C0190E0292E90E0392E2CE2DB
:10367000422E55245394809124038823A9F1E0908D
:103680000C03F0900D0308EE13E02EE033E04EE063
:103690006BE380910B030E941F0BA0901603B09068
:1036A0001703809018039090190360901A0370908C
:1036B0001B03E0900C03F0900D03960141E06AE3D8
:1036C00080910B030E941F0B8981807480930E03ED
:1036D000882309F4C5C0BA24AB24BA2498248924C9
:1036E0009824762467247624B0920603A0920503DA
:1036F000909208038092070370920A036092090374
:1037000019A618A61BA61AA61DA61CA662E070E0A4
:10371000CE0188960E94041428A539A58111A7C05E
:103720002115310519F0C9010E946B1F19A618A6B1
:103730001DA61CA61BA61AA6B501C6010E947D14D3
:10374000B601CE0188960E942C14C6010E94C413B3
:10375000CE0188960E945D14609107037091080362
:10376000C6010E947D14B601CE0188960E942C14D9
:10377000C6010E94C413CE0188960E945D14609118
:10378000090370910A03C6010E947D14B601CE019F
:1037900088960E942C14C6010E94C413CE018896FC
:1037A0000E945D140E9425091BA21AA21DA21CA240
:1037B0001FA21EA22AE0A6010E947A1CF601019017
:1037C0000020E9F731978F010C191D09B801CE01CE
:1037D00082960E9404142AA13BA1811152C0211596
:1037E000310519F0C9010E946B1F1BA21AA21FA26A
:1037F0001EA21DA21CA2BE016E5D7F4FCE01889647
:103800000E942C14CE0182960E94C4134CA55DA583
:1038100068A579A585EB92E00E94FA090E94000B49
:10382000CE0188960E94C41385EB92E00E94A40A00
:10383000823709F04DC01092D70182EA91E00E94D0
:10384000080B8091D701811123C085EB92E00E9483
:10385000A40A91E0833609F090E09093D701F1CF6C
:10386000712C612C912C812CB12CA12C3DCF82E0AC
:1038700090E09DA78CA76FE971E0C9010E94C72065
:103880005BCF1FA30EA3B601C9010E94C720B3CF0F
:1038900088E891E00E94080B85EEE82EFF24FA9458
:1038A0000EEC1FEF25E330E042E856E06AED7EEFD4
:1038B00080E49FEF0E94361182E991E00E94080B9C
:1038C0005092D2014092D1015092CC014092CB0152
:1038D0002114310409F4CFCE0E940000CCCEBB27C6
:1038E0004A3031F4992322F4BDE2909581959F4F9F
:1038F0000C949D1CBB27FA01A62F62177105810548
:103900009105330B30FB66F0AA27660F771F881FDF
:10391000991FAA1FA21710F0A21B63953850A9F790
:10392000A05DAA3308F0A95DA19336F7B111B19358
:103930001082CA010C94B61CBB27FB015527AA278D
:10394000880F991FAA1FA41710F0A41B839550512C
:10395000B9F7A05DAA3308F0A95DA193009779F7A4
:10396000B111B1931192CB010C94B61CDC01FC0196
:10397000672F71917723E1F7329704C07C916D93A3
:1039800070836291AE17BF07C8F308950E94081DA7
:1039900008F481E00895E89409C097FB3EF49095FF
:1039A0008095709561957F4F8F4F9F4F9923A9F018
:1039B000F92F96E9BB279395F695879577956795A7
:1039C000B795F111F8CFFAF4BB0F11F460FF1BC0EB
:1039D0006F5F7F4F8F4F9F4F16C0882311F096E97E
:1039E00011C0772321F09EE8872F762F05C066232C
:1039F00071F096E8862F70E060E02AF09A95660FE5
:103A0000771F881FDAF7880F9695879597F908959D
:103A1000990F0008550FAA0BE0E8FEEF16161706DF
:103A2000E807F907C0F012161306E407F50798F047
:103A3000621B730B840B950B39F40A2661F0232B60
:103A4000242B252B21F408950A2609F4A140A695DC
:103A50008FEF811D811D08950E943F1D0C94B01DA4
:103A60000E94A21D38F00E94A91D20F0952311F09C
:103A70000C94991D0C949F1D11240C94E41D0E941C
:103A8000C11D70F3959FC1F3950F50E0551F629FC4
:103A9000F001729FBB27F00DB11D639FAA27F00DA7
:103AA000B11DAA1F649F6627B00DA11D661F829FCE
:103AB0002227B00DA11D621F739FB00DA11D621FB3
:103AC000839FA00D611D221F749F3327A00D611DD0
:103AD000231F849F600D211D822F762F6A2F1124B2
:103AE0009F5750409AF0F1F088234AF0EE0FFF1FE5
:103AF000BB1F661F771F881F91505040A9F79E3F3C
:103B0000510580F00C94991D0C94E41D5F3FE4F383
:103B1000983ED4F3869577956795B795F795E79591
:103B20009F5FC1F7FE2B880F911D9695879597F99A
:103B3000089597F99F6780E870E060E008959FEF2F
:103B400080EC089500240A94161617061806090634
:103B5000089500240A941216130614060506089503
:103B6000092E0394000C11F4882352F0BB0F40F48B
:103B7000BF2B11F460FF04C06F5F7F4F8F4F9F4FCB
:103B8000089557FD9058440F551F59F05F3F71F04D
:103B90004795880F97FB991F61F09F3F79F08795B4
:103BA0000895121613061406551FF2CF4695F1DF3D
:103BB00008C0161617061806991FF1CF86957105CD
:103BC000610508940895E894BB2766277727CB0101
:103BD00097F908952F923F924F925F926F927F9242
:103BE0008F929F92AF92BF92CF92DF92EF92FF920D
:103BF0000F931F93CF93DF93CDB7DEB7CA1BDB0BB9
:103C00000FB6F894DEBF0FBECDBF09942A8839885D
:103C100048885F846E847D848C849B84AA84B98464
:103C2000C884DF80EE80FD800C811B81AA81B98170
:103C3000CE0FD11D0FB6F894DEBF0FBECDBFED0184
:103C40000895EE0FFF1F0590F491E02D0994505850
:103C5000BB27AA270E943F1E0C94B01D0E94A21DE4
:103C600038F00E94A91D20F039F49F3F19F426F482
:103C70000C949F1D0EF4E095E7FB0C94991DE92F21
:103C80000E94C11D58F3BA1762077307840795078E
:103C900020F079F4A6F50C94E31D0EF4E0950B2EBC
:103CA000BA2FA02D0B01B90190010C01CA01A0018E
:103CB0001124FF27591B99F0593F50F4503E68F1E9
:103CC0001A16F040A22F232F342F4427585FF3CF2A
:103CD000469537952795A795F0405395C9F77EF4FB
:103CE0001F16BA0B620B730B840BBAF09150A1F044
:103CF000FF0FBB1F661F771F881FC2F70EC0BA0FCA
:103D0000621F731F841F48F4879577956795B79551
:103D1000F7959E3F08F0B0CF9395880F08F099274C
:103D2000EE0F9795879508950E949B1E6894B11198
:103D30000C94E41D08950E94C91D88F09F5798F0C7
:103D4000B92F9927B751B0F0E1F0660F771F881FA0
:103D5000991F1AF0BA95C9F714C0B13091F00E94BA
:103D6000E31DB1E008950C94E31D672F782F882799
:103D7000B85F39F0B93FCCF3869577956795B395E1
:103D8000D9F73EF490958095709561957F4F8F4F50
:103D90009F4F08950E94081D08F48FEF08950F9318
:103DA0001F93CF93DF938230910510F482E090E06F
:103DB000E091A603F091A70330E020E0B0E0A0E09E
:103DC000309799F42115310509F44AC0281B390BA5
:103DD00024303105D8F58A819B816115710589F1FF
:103DE000FB0193838283FE0111C0408151810281D6
:103DF000138148175907E0F04817590799F41097AD
:103E000061F012960C93129713961C933296CF0181
:103E1000DF91CF911F910F9108950093A603109306
:103E2000A703F4CF2115310551F04217530738F09D
:103E3000A901DB019A01BD01DF01F801C1CFEF014A
:103E4000F9CF9093A7038093A603CDCFFE01E20F95
:103E5000F31F819391932250310939832883D7CF5F
:103E60002091A4033091A503232B41F42091180144
:103E7000309119013093A5032093A40320911601DA
:103E8000309117012115310541F42DB73EB740910E
:103E90001A0150911B01241B350BE091A403F091F2
:103EA000A503E217F307A0F42E1B3F0B28173907D1
:103EB00078F0AC014E5F5F4F2417350748F04E0F86
:103EC0005F1F5093A5034093A403819391939FCFC9
:103ED000F0E0E0E09CCFCF93DF930097E9F0FC01A6
:103EE000329713821282A091A603B091A703ED012D
:103EF00030E020E01097A1F420813181820F931FE0
:103F00002091A4033091A5032817390709F061C057
:103F1000F093A503E093A403DF91CF910895EA0104
:103F2000CE17DF07E8F54A815B819E0141155105F7
:103F3000B1F7E901FB83EA8349915991C40FD51F79
:103F4000EC17FD0761F4808191810296840F951F23
:103F5000E90199838883828193819B838A83F0E03E
:103F6000E0E012968D919C9113970097B9F52D91F1
:103F70003C911197CD010296820F931F2091A403CB
:103F80003091A5032817390739F6309751F510926B
:103F9000A7031092A603B093A503A093A403BCCFDC
:103FA000D383C28340815181840F951FC817D907DD
:103FB00061F44E5F5F4F88819981480F591F51838B
:103FC00040838A819B81938382832115310509F087
:103FD000B0CFF093A703E093A6039ECFFD01DC01D1
:103FE000C0CF13821282D7CFB0E0A0E0EAEFFFE1AA
:103FF0000C94EC1D8C01009751F4CB010E94CF1E54
:104000008C01C801CDB7DEB7E0E10C94081EFC01BD
:10401000E60FF71F9C0122503109E217F30708F45D
:104020009DC0D901CD91DC911197C617D70798F0A3
:10403000C530D10530F3CE0104978617970708F3F2
:10404000C61BD70B2297C193D1936D937C93CF015D
:104050000E946B1FD6CF5B01AC1ABD0A4C018C0EBF
:104060009D1EA091A603B091A703512C412CF12CC9
:10407000E12C109731F58091A4039091A503881548
:10408000990509F05CC04616570608F058C08091A3
:10409000160190911701009741F48DB79EB740919A
:1040A0001A0150911B01841B950BE817F90708F0C2
:1040B00055C0F093A503E093A403F90171836083D5
:1040C000A0CF8D919C91119712966C901297139698
:1040D0007C901397A815B90559F56C0142E0C40E00
:1040E000D11CCA14DB0420F1AC014A195B09DA01C6
:1040F0001296159780F06282738251834083D901B2
:104100006D937C93E114F10471F0D7011396FC9345
:10411000EE93129776CF22968C0F9D1FF901918313
:104120008083F301EFCFF093A703E093A60369CF59
:104130004816590608F42C017D01D3019ACFCB0112
:104140000E94CF1E7C01009749F0AE01B8010E9489
:10415000BE20C8010E946B1F870153CF10E000E012
:1041600050CFFB01DC0104C08D910190801921F436
:1041700041505040C8F7881B990B0895FB01DC01A2
:1041800002C001900D9241505040D8F70895FB01B4
:10419000DC0101900D920020E1F70895F894FFCF23
:1041A000FFFFFFFF00E100000000000031093109BE
:1041B0003109310931090000A803800000C1808164
:1041C000000000000000007C054F05F709250548A8
:1041D0000535052605000000007F0AFA09A00A95AA
:1041E0000AE60AA40AC20A0D0A004D5055363035B7
:1041F0003020636F6E6E656374696F6E20737563D4
:104200006365737366756C004D50553630353020DC
:10421000636F6E6E656374696F6E206661696C654D
:104220006400524947485400536574757020494DE5
:10423000550053657475702074696D6572730072F2
:104240002C0057616974696E6720636F6E6E6563D9
:1042500074696F6E2077697468206D616E6167653F
:024260007200EA
:00000001FF
