:100000000C94EF060C94F1090C94CA090C94A30902
:100010000C947C090C9417070C9417070C94550941
:100020000C9417070C9417070C94180A0C948A0A5E
:100030000C9417070C9417070C9417070C941707C8
:100040000C9417070C9417070C9417070C941707B8
:100050000C9417070C9417070C9417070C94751A37
:100060000C9417070C9417070C9417070C94170798
:100070000C9417070C9417070C9417070C94170788
:100080000C9417070C9417070C9417070C94170778
:100090000C94F1110C9417070C9417070C94170784
:1000A0000C9417070C9417070C941707B319B6197B
:1000B000A519A919AD19D719D719D719BA19BE1980
:1000C000C219C819CC19D719D219084AD73B3BCE47
:1000D000016E84BCBFFDC12F3D6C74319ABD568347
:1000E0003DDA3D00C77F11BED9E4BB4C3E916BAAFF
:1000F000AABE000000803F00080B000202020100BF
:10010000090400000102020000052400100105247A
:1001100001010104240206052406000107058103EC
:1001200010004009040100020A0000000705020255
:100130004000000705830240000004030904120187
:100140000002EF0201404123368000010102030159
:1001500041726475696E6F204C4C43004172647546
:10016000696E6F204C656F6E6172646F0000F8F607
:100170002A3F68F57A0006FFFE00030000006500D4
:1001800054FFEF0000FA80000B12820001030C30D4
:10019000C30A74562D0D62DBC716F4BA023883F811
:1001A000833000F883258EF8833000F883FFFFFF4B
:1001B000FF0CBDD811240004001A8279A10036007A
:1001C0003C000000000010000038836FA2003E03D6
:1001D000304000000002CAE3093E80000020000019
:1001E000000000000040000000600000001FA4E8C4
:1001F000E4FFF5DCB9005B79CF1F3F787600867CA1
:100200005A00862347FAB986310074878A000000B5
:100210000000004305FFFFE9A800002182FAB84D65
:1002200046FFFADF3DFFFFB2B3000000003FFFBA18
:1002300098005DAC08000A637800014621FFFF00CA
:1002400000000042B50006006400640006140602C7
:100250009F0F479132D90E9FC91DCF4C343BB67AC0
:10026000E80064000600C800000000FFFE10000067
:100270000000000000000000000000000000070077
:1002800000FFF10000FA460000A2B80000100000D4
:100290000004D6000004CC000004CC0000000000E4
:1002A0000000000000000000000000000000060048
:1002B00002000500070000000000640000000000CC
:1002C000000000000C000500640020000000000099
:1002D00000000000000000400000000300000000DB
:1002E00032F8980000FF650000830F000000060050
:1002F00000FFF10000FA460000A2B8000000000074
:1003000000000000000000000000000000000000ED
:10031000320000000000000000000010000000009B
:10032000010000000D0000B26A000200000001FBA5
:1003300083007C0000FB15FC001FB4FF830000005D
:100340000100650007006403E8006400280000FF66
:10035000FD0000000016A0000000000000000010DA
:1003600000002F0000000001F40000100000280031
:1003700000FFFF4581FFFFFA72000000000000004F
:1003800000004400010005BAC6004778A200000042
:100390000000000000000006000000001400002320
:1003A000BB002EA25B00000568000BCF490004FFD4
:1003B000FD000200000000000200000000001B0021
:1003C00000000000000000000000000000006400C9
:1003D00007000800060006FFFE0000000000000005
:1003E000000000000000000000000000000000000D
:1003F00000000000000000000000000000000000FD
:1004000000000000000000000000000000002EA21C
:100410005B00000568000BCF490000000000F8F603
:100420002A3F68F57A0004FFFD00020000001B006F
:10043000000000000000000000000E000EFFFFFFA3
:10044000CF0004000000000032FFFFFF9C000043CB
:1004500005000000000000000100000064FFE5004E
:10046000000000000000000000000000000000008C
:1004700001000000000001000000000000000180F9
:10048000000001800000018000002426D30001004C
:100490000100000000000600100096003C00000073
:1004A0000000000000000000001F9E655D0C0A4E69
:1004B00068CDCF770950166759C619CE8200000063
:1004C0000000000000000000000047711C00000058
:1004D000000000000017D78400030000000011DCBA
:1004E0004703000000C7938F9D1E1B1C19FFFFFFD1
:1004F000FF000000000EDFA4381F9E655D000000B5
:10050000000047711C020318850000400000000035
:10051000000000000300000000000000003FFFFF9B
:10052000FDFFFFF4C9FFFFBCF000010C0F0000004D
:1005300000000000000000000000000000000000BB
:1005400000000000000000000000000000F5B7BA45
:10055000B3677DDF7E72902E554CF6E68800000072
:1005600000000000000000000000000000D8DCB423
:10057000B8B0D8B9ABF3F8FAB3B7BB8E9EAEF132D0
:10058000F51BF1B4B8B08097F1A9DFDFDFAADFDF98
:10059000DFF2AA4CCD6CA90CC92C97F1A98926468B
:1005A00066B28999A92D557DB0B08AA8963656763F
:1005B000F1BAA3B4B280C0B8A89711B28398BAA315
:1005C000F0240844106418B2B9B49883F1A32955F3
:1005D0007DBAB5B1A38393F0002850F5B2B6AA83D3
:1005E0009328547CF1B9A3829361BAA2DADEDFDBEF
:1005F000819AB9AEF5606870F1DABAA2DFD9BAA211
:10060000FAB9A38292DB31BAA2D9BAA2F8DF85A4E3
:10061000D0C1BBAD83C2C5C7B8A2DFDFDFBAA0DFE0
:10062000DFDFD8D8F1B8AAB38DB4980D355DB2B676
:10063000BAAF8C96198F9FA70E161EB49AB8AA87C8
:100640002C547CBAA4B08AB691325676B28494A463
:10065000C808CDD8B8B4B0F19982A82D557D98A816
:100660000E161EA22C547C92A4F02C5078F184A873
:1006700098C4CDFCD80DDBA8FC2DF3D9BAA6F8DAC6
:10068000BAA6DED8BAB2B68696A6D0F3C841DAA624
:10069000C8F8D8B0B4B882A892F52C548898F1352F
:1006A000D9F418D8F1A2D0F8F9A884D9C7DFF8F89E
:1006B00083C5DADF69DF83C1D8F40114F1A8824E63
:1006C000A884F311D182F5D992289788F109F41CF6
:1006D0001CD884A8F3C0F9D1D99782F129F40DD898
:1006E000F3F9F9D1D982F4C203D8DEDF1AD8F1A226
:1006F000FAF9A88498D9C7DFF8F8F883C7DADF6970
:10070000DFF883C3D8F40114F198A8822EA884F3EB
:1007100011D182F5D992509788F109F41CD884A898
:10072000F3C0F8F9D1D99782F149F40DD8F3F9F96A
:10073000D1D982F4C403D8DEDFD8F1AD8898CCA833
:1007400009F9D98292A8F57CF1883ACF944A6E983B
:10075000DB6931DAADF2DEF9D88795A8F221D1DA7A
:10076000A5F9F417D9F1AE8ED0C0C3AE82C684C34A
:10077000A88595C8A588F2C0F1F4010EF18E9EA857
:10078000C63E56F554F18872F40115F19845856E10
:10079000F58E9E0488F142985A8E9E068869F4016F
:1007A0001CF1981E1108D0F504F11E97020298362C
:1007B00025DBF9D985A5F3C1DA85A5F3DFD88595C1
:1007C000A8F309DAA5FAD88292A8F578F1881A84F4
:1007D0009F26889821DAF41DF3D8879F39D1AFD9A5
:1007E000DFDFFBF9F40CF3D8FAD0F8DAF9F9D0DF4F
:1007F000D9F9D8F40BD8F3879F39D1AFD9DFDFF41B
:100800001DF3D8FAFCA869F9F9AFD0DADEFAD9F805
:100810008F9FA8F1CCF398DB45D9AFDFD0F8D8F1A2
:100820008F9FA8CAF38809DAAF8FCBF8D8F2AD97BB
:100830008D0CD9A5DFF9BAA6F3FAF412F2D8950D0A
:10084000D1D9BAA6F3FADAA5F2C1BAA6F3DFD8F184
:10085000BAB2B68696A6D0CAF349DAA6CBF8D8B013
:10086000B4B8D8AD84F2C0DFF18FCBC3A8B2B686DE
:1008700096C8C1CBC3F3B0B48898A821DB718D9D15
:1008800071859521D9ADF2FAD88597A828D9F408B1
:10089000D8F28D29DAF405D9F285A4C2F2D8A88D50
:1008A0009401D1D9F411F2D88721D8F40AD8F2846E
:1008B00098A8C801D1D9F411D8F3A4C8BBAFD0F21D
:1008C000DEF8F8F8F8F8F8F8F8D8F1B8F6B5B9B0F5
:1008D0008A95A3DE3CA3D9F8D85CA3D9F8D87CA329
:1008E000D9F8D8F8F9D1A5D9DFDAFAD8B18530F737
:1008F000D9DED8F830ADDADED8F2B48C99A32D5514
:100900007DA083DFDFDFB591A0F629D9FBD8A0FC5D
:1009100029D9FAD8A0D051D9F8D8FC51D9F9D87929
:10092000D9FBD8A0D0FC79D9FAD8A1F9F9F9F9F90D
:10093000A0DADFDFDFD8A1F8F8F8F8F8ACDEF8AD20
:10094000DE8393AC2C547CF1A8DFDFDFF69D2CDA3C
:10095000A0DFD9FADB2DF8D8A850DAA0D0DED9D0A4
:10096000F8F8F8DB55F8D8A878DAA0D0DFD9D0FAB3
:10097000F8F8F8F8DB7DF8D89CA88CF530DB38D98E
:10098000D0DEDFA0D0DEDFD8A848DB58D9DFD0DE4C
:10099000A0DFD0DED8A868DB70D9DFDFA0DFDFD82A
:1009A000F1A888902C547C98A8D05C38D1DAF2AEAB
:1009B0008CDFF9D8B087A8C1C1B188A8C6F9F9DA27
:1009C00036D8A8F9DA36D8A8F9DA36D8A8F9DA3656
:1009D000D8A8F9DA36D8F78D9DADF818DAF2AEDF7F
:1009E000D8F7ADFA30D9A4DEF9D8F2AEDEFAF98341
:1009F000A7D9C3C5C7F1889BA77AADF7DEDFA4F8F6
:100A0000849408A797F300AEF29819A488C6A3941B
:100A100088F632DFF28393DB09D9F2AADFD8D8AEA9
:100A2000F8F9D1DAF3A4DEA7F1889B7AD8F384949D
:100A3000AE19F9DAAAF1DFD8A881C0C3C5C7A3925D
:100A400083F628ADDED9F8D8A350ADD9F8D8A3786D
:100A5000ADD9F8D8F8F9D1A1DADEC3C5C7D8A181DC
:100A600094F818F2B089ACC3C5C7F1D8B8B4B09740
:100A700086A8319B069907AB9728889BF00C201419
:100A800040B0B4B8F0A88A9A285078B79BA82951EA
:100A900079247059446938644831F1BBAB88002C23
:100AA000547CF0B38BB8A804285078F1B088B49780
:100AB00026A85998BBABB38B02264666B0B8F08A1D
:100AC0009CA82951798B2951798A2470598B2058F7
:100AD000718A4469388B3940688A6448318B30495F
:100AE0006088F1AC002C547CF08CA804285078F17C
:100AF000889726A85998AC8C02264666F0899CA84F
:100B0000295179247059446938644831A9880920E9
:100B10005970AB11384069A8193148608CA83C4124
:100B20005C207C00F187981986A86E767EA999884A
:100B30002D557DD8B1B5B9A3DFDFDFAED0DFAAD0A8
:100B4000DEF2ABF8F9D9B087C4AAF1DFDFBBAFDFC3
:100B5000DFB9D8B1F1A3978E60DFB084F2C8F8F99D
:100B6000D9DED89385F14AB183A308B5839A0810DA
:100B7000B79F10D8F1B0BAAEB08AC2B2B68E9EF1AD
:100B8000FBD9F41DD8F9D90CF1D8F8F8AD61D9AE7C
:100B9000FBD8F40CF1D8F8F8AD19D9AEFBDFD8F4D6
:100BA00016F1D8F8AD8D61D9F4F4ACF59C9C8DDFCD
:100BB0002BBAB6AEFAF8F40BD8F1AED0F8AD51DAE4
:100BC000AEFAF8F1D8B9B1B6A3839C08B9B1839A4B
:100BD000B5AAC0FD3083B79F10B58B93F20202D146
:100BE000ABDADED8F1B080BAABC0C3B284C1C3D82F
:100BF000B1B9F38BA391B609B4D9ABDEB0879CB978
:100C0000A3DDF1B38B8B8B8B8BB08720283038B270
:100C10008BB69BF2A3C0C8C2C4CCC6A3A3A3F1B039
:100C200087B59AD8F39BA3A3DCBAACDFB9A3FEF2D5
:100C3000ABC4AAF1DFDFBBAFDFDFA3A3A3D8D8D853
:100C4000BBB3B7F1AAF9DAFFD9809AAA28B4809881
:100C5000A720B79787A86688F07951F1902C870C68
:100C6000A781976293F07171608594012951799001
:100C7000A5F1284C6C870C95188578A38390284C97
:100C80006C886CD8F3A28200F210A8921980A2F2AC
:100C9000D926D8F188A84DD948D896A83980D93C0A
:100CA000D89580A839A68698D92CDA87A72CD8A8F9
:100CB000899519A980D938D8A88939A980DA3CD86A
:100CC000A82EA83990D90CD8A8953198D90CD8A8B5
:100CD00009D9FFD801DAFFD89539A9DA26FFD890CB
:100CE000A80D8999A810809821DA2ED88999A83161
:100CF00080DA2ED8A886963180DA2ED8A88731805F
:100D0000DA2ED8A88292F34180F1D92ED8A882F3A6
:100D10001980F1D92ED882ACF3C0A28022F1A62E80
:100D2000A72EA92298A829DAACDEFFD8A2F22AF1D0
:100D3000A92E8292A8F23180A696F1D900AC8C9CA3
:100D40000C30ACDED0DEFFD88C9CACD010ACDE809A
:100D500092A2F24C82A8F1CAF235F19688A6D90087
:100D6000D8F1FF00000000250028002B002E0031E4
:100D70000000000000240027002A002D003000049D
:100D80000404040403040502020202040302020232
:100D9000020606060606060404020202040404080B
:100DA0000201104080401020408040800802040171
:100DB00080402010020110801020404020000000E0
:100DC0000200090F0000030401000C0000000000F5
:100DD00000000000000000000000000012221124AA
:100DE0001FBECFEFDAE0DEBFCDBF12E0A0E0B1E082
:100DF000ECEAFAE502C005900D92A83CB107D9F7DC
:100E000027E0A8ECB2E001C01D92AC31B207E1F7D7
:100E100016E0CFEED6E004C02197FE010E947D26A9
:100E2000CE3ED107C9F70E94BF1A0C94542D0C94E2
:100E3000000008954091CB025091CC022091C9024C
:100E40003091CA0242175307B4F49091E8009570AC
:100E5000E1F39091E80092FD19C08093F100809138
:100E6000CB029091CC0201968F739927892B19F4AC
:100E70008EEF8093E8008091CB029091CC02019696
:100E80009093CC028093CB0281E0089580E0089596
:100E9000DF92EF92FF920F931F93CF93DF93D82EA1
:100EA000F92EE42E062F10E0C8010196880F0E944B
:100EB0001A0783E00E941A07CD2DDF2D0C0F1D1F8E
:100EC000C017D10789F0E7FE03C0FE01849101C07D
:100ED00088810E941A07F82E80E00E941A078F214D
:100EE00021968111EDCF01C081E0DF91CF911F915B
:100EF0000F91FF90EF90DF900895DF92EF92FF92B5
:100F00000F931F93CF93DF93D82E8A017B01E40EBA
:100F1000F51EEB01CE15DF0571F0D7FE03C0FE0113
:100F2000849101C088810E941A0721968111F2CF15
:100F30008FEF9FEF01C0C801DF91CF911F910F91FB
:100F4000FF90EF90DF900895615030F02091F10014
:100F5000FC0120830196F8CF289884E68093F00264
:100F60000895CF92DF92EF92FF920F931F93CF934A
:100F7000DF936C017A018B01C0E0D0E0CE15DF0574
:100F800081F0D8016D918D01D601ED91FC91019018
:100F9000F081E02DC6010995892B11F02196EECF45
:100FA0007E01C701DF91CF911F910F91FF90EF90CC
:100FB000DF90CF900895CF93DF931F92CDB7DEB728
:100FC0006983DC01ED91FC910280F381E02D41E029
:100FD00050E0BE016F5F7F4F09950F90DF91CF9179
:100FE000089583E08093E9008091F200882319F04E
:100FF0008AE38093E8000895FC018485958597FD38
:101000000BC09FB7F89482E08093E9008091F200D2
:101010009FBF90E0019608959FB7F89482E0809377
:10102000E9008091F2009FBF90E00895089580E06C
:1010300090E0089581E08093C80208950F931F9374
:10104000CF93DF931F92CDB7DEB782E0898342E46E
:1010500050E068EF70E080E80E947D070E947419FC
:10106000DC0112960D911C9113970115110589F061
:10107000D801ED91FC910280F381E02DBE016F5FFC
:101080007F4FC801099597FD04C0F80100851185BF
:10109000ECCF89810F90DF91CF911F910F9108952F
:1010A0008F929F92AF92BF92CF92DF92EF92FF9278
:1010B0000F931F93CF93DF936C017B018A01809183
:1010C0001501882309F45CC08091F102882309F49A
:1010D00057C08091190380FF05C08091E0008260B5
:1010E0008093E000E801B12C8AEFA82E93E0892ECE
:1010F0002AE3922E209711F4BB20D9F10E94BB1154
:1011000081110AC0AA94AA20D9F161E070E080E0C0
:1011100090E00E942F1AEECF282F30E0C217D3079D
:101120000CF48C2F9FB7F8948092E9002091E8008E
:1011300025FF1DC0282F30E0C21BD30BF7018150C3
:1011400020F041914093F100FACFE20EF31EBB2054
:1011500019F09092E8000AC08091E80085FD07C070
:101160009092E800BB24B394209709F0B12C9FBF64
:10117000C1CF5D9884E68093CE021016110644F02C
:1011800081E090E0F6019383828380E090E001C0EB
:10119000C801DF91CF911F910F91FF90EF90DF90E9
:1011A000CF90BF90AF909F908F9008950E94BB11F9
:1011B00090E008950F931F93CF93DF931F92CDB7C5
:1011C000DEB78C01FC018485958597FF0EC0CE01AA
:1011D00001960E947411019719F4898190E002C070
:1011E0008FEF9FEFF80195878487F80184859585B7
:1011F0000F90DF91CF911F910F910895CF93DF93BF
:101200001F92CDB7DEB7FC018485958597FD05C09B
:101210002FEF3FEF358724870BC0CE0101960E9448
:101220007411019719F4898190E002C08FEF9FEF4C
:101230000F90DF91CF9108950F931F93CF93DF937A
:10124000EC0188819981009729F02A813B8126173A
:10125000370788F48B016F5F7F4F0E94BE2900978C
:1012600061F0998388831B830A832C813D81232B22
:1012700011F4FC01108281E001C080E0DF91CF9188
:101280001F910F910895CF93DF93EC01888199818D
:10129000009711F00E943529198218821D821C8244
:1012A0001B821A82DF91CF9108951F920F920FB681
:1012B0000F9211242F933F934F935F936F937F93DC
:1012C0008F939F93AF93BF93EF93FF93E0910C01A4
:1012D000F0910D010995FF91EF91BF91AF919F9111
:1012E0008F917F916F915F914F913F912F910F90CF
:1012F0000FBE0F901F9018951F920F920FB60F926E
:1013000011242F933F934F935F936F937F938F930A
:101310009F93AF93BF93EF93FF93E0910A01F091F6
:101320000B010995FF91EF91BF91AF919F918F9123
:101330007F916F915F914F913F912F910F900FBED1
:101340000F901F9018951F920F920FB60F921124B5
:101350002F933F934F935F936F937F938F939F93BD
:10136000AF93BF93EF93FF93E0910801F0910901D0
:101370000995FF91EF91BF91AF919F918F917F91CF
:101380006F915F914F913F912F910F900FBE0F90F2
:101390001F9018951F920F920FB60F9211242F9342
:1013A0003F934F935F936F937F938F939F93AF93ED
:1013B000BF93EF93FF93E0910601F0910701099528
:1013C000FF91EF91BF91AF919F918F917F916F911D
:1013D0005F914F913F912F910F900FBE0F901F90F3
:1013E00018951F920F920FB60F9211242F933F93CF
:1013F0004F935F936F937F938F939F93AF93BF931D
:10140000EF93FF93E0910401F09105010995FF919D
:10141000EF91BF91AF919F918F917F916F915F916C
:101420004F913F912F910F900FBE0F901F901895E5
:101430001F920F920FB60F9211248F939F9380915A
:10144000E1009091E100937F9093E10083FF0FC052
:101450001092E90091E09093EB001092EC0092E37F
:101460009093ED001092F10298E09093F00082FFCB
:1014700020C093E09093E9009091F200992319F035
:101480009AE39093E8009091CE02992339F09091DD
:10149000CE0291509093CE02992389F19091F0025F
:1014A000992339F09091F00291509093F002992392
:1014B00041F184FF10C08091E2008E7E81608093B4
:1014C000E2008091E1008F7E8093E100809119031A
:1014D0008E7E806111C080FF16C08091E2008E7EFA
:1014E00080618093E2008091E1008E7E8093E10034
:1014F000809119038E7E81608093190304C05D9AE8
:10150000CDCF289AD6CF9F918F910F900FBE0F907D
:101510001F9018951F920F920FB60F921124CF9221
:10152000DF92EF92FF920F931F932F933F934F936E
:101530005F936F937F938F939F93AF93BF93EF933B
:10154000FF93CF93DF93CDB7DEB76C97DEBFCDBFF0
:101550001092E9008091E80083FFFBC168E0CE01B2
:1015600045960E94A40782EF8093E8008D8987FF4B
:1015700005C09091E80090FFFCCF03C09EEF9093D0
:10158000E800982F907609F0C6C09E894F89588D43
:101590002F89F88C91110CC0803829F480911A039E
:1015A0008093F10002C01092F1001092F10045C149
:1015B000913051F4811141C14130510509F03DC1D3
:1015C00080911A038D7F0BC0933061F4811135C176
:1015D0004130510509F031C180911A038260809336
:1015E0001A032BC1953049F48091E80080FFFCCFAD
:1015F000822F80688093E30020C1963009F05EC09E
:101600000B8D1C8D22E01092E9001092CC021092FA
:10161000CB02F21232C01092CA021092C9020E948A
:101620001E0899E0BE016F5F7F4FDB01E92F1D921D
:10163000EA95E9F79983FA8291E09E8390EA988788
:101640009AEF99872091CB023091CC02275F3F4FD0
:101650003C832B838D831092E9001092CC02109270
:10166000CB021093CA020093C90249E050E080E027
:101670000E947D070E941E08E0C01093CA020093DA
:10168000C9020E947419DC0112960D911C911397E6
:101690000115110509F4BBC0D801ED91FC9104803E
:1016A000F581E02DBE016B5E7F4FC8010995009763
:1016B00009F0C7C0F80100851185EACF973009F419
:1016C00045C1983021F481E08093F100B6C0993093
:1016D00009F0B3C0837009F039C1EDE1F1E081E0B8
:1016E00031E096E32081211109C08EE78093EA0062
:1016F0001092EA008F898093F1029FC08093E900E5
:101700003093EB0021912093EC009093ED008F5FDC
:10171000873041F7EACF8B8D9C8D1092E9001092B3
:10172000CC021092CB029093CA028093C902898D99
:10173000811153C08E899D89913A49F4813209F013
:1017400005C147E050E06EE071E080E0BBC091323F
:1017500009F0FCC0833269F48F89988DA0E0B0E075
:101760008093000190930101A0930201B0930301C3
:1017700064C0803269F48091E80082FFFCCF67E0AA
:101780008EE091E00E94A4078BEF8093E80055C0A3
:10179000823209F052C08F8980931501EEEFFFE786
:1017A000859194918B3F9C4D19F0E0E0F8E002C0E8
:1017B000EEEFFAE080910E0190910F01A0911001DF
:1017C000B0911101803B9440A105B10509F09EC084
:1017D0008091150180FF79C099C00E947419FC01A5
:1017E000028113810115110509F4B0C0D801ED91F2
:1017F000FC910190F081E02DBE016B5E7F4FC8012E
:10180000099581111AC0F80100851185EBCFF1E02F
:10181000FF1609F44EC0F3E0FF1298C08F898823A9
:1018200009F44AC0823089F440E860E18CE591E037
:101830000E944807882309F489C08EEF8093E8004E
:1018400088C018161906CCF381C0813029F440E80D
:101850006BE080E591E0ECCF833009F077C00E9427
:101860007419DC011296ED90FC9013978E010F5FB6
:101870001F4F6801E114F10479F0D701ED91FC915B
:101880000680F781E02DB801C7010995080F111DE9
:10189000F701E084F184EECFD8011C92F6010190AB
:1018A0000020E9F73197BF016C197D0940E0C601BE
:1018B000BFCF6EE371E002C06AE371E0FB014491C7
:1018C00050E080E80E947D07B8CFEE3F2AE0F207A3
:1018D00051F0808191818737A7E79A0721F0909393
:1018E000FF0A8093FE0A87E797E7918380838091C0
:1018F00060008093CD029BE088E10FB6F894A89534
:10190000809360000FBE9093600097CF808191819B
:101910008737974709F091CFA8958091600088613B
:10192000809360008091CD0280936000EE3FBAE02A
:10193000FB0739F08091FE0A9091FF0A9183808322
:101940007CCF1092FF0A1092FE0A77CF81E280933B
:10195000EB006C960FB6F894DEBF0FBECDBFDF91E3
:10196000CF91FF91EF91BF91AF919F918F917F9117
:101970006F915F914F913F912F911F910F91FF9028
:10198000EF90DF90CF900F900FBE0F901F901895A3
:10199000FF920F931F93CF93DF93142FF22E032FF9
:1019A00091E0909393068093B5061092940610925E
:1019B000B60688E293E00E940D19CF2DD02FCE01FC
:1019C000810F911D8C01C017D10731F0699188E218
:1019D00093E00E940D19F7CF0E943B1491E0811112
:1019E00090E0892FDF91CF911F910F91FF90089583
:1019F000CF93DF9300D0CDB7DEB75A834983AE01D2
:101A00004F5F5F4F0E94B7150F900F90DF91CF91FE
:101A10000895CF93DF931F92CDB7DEB749839E0120
:101A20002F5F3F4F41E00E94C80C0F90DF91CF9194
:101A300008952F923F924F925F926F927F928F9272
:101A40009F92AF92BF92CF92DF92EF92FF920F934D
:101A50001F93CF93DF9300D000D000D0CDB7DEB777
:101A6000982E862E4D8359010E94691A6B017C01C4
:101A7000312C1E82222423949D81892F90E09C8307
:101A80008B832801612C712CED813E1608F042C039
:101A9000209293069092B506109294061092B60684
:101AA000682D88E293E00E940D190E943B14209259
:101AB00093069092B506109294061092B6066B812A
:101AC0007C81631971096132710514F060E270E084
:101AD000613208F060E2892D0E9460131092920634
:101AE000809391069091910680919206981709F43F
:101AF00043C00115110569F10E94691ADC01CB018F
:101B00008C199D09AE09BF0984159505A605B70571
:101B100000F132C001151105A9F10E94691ADC011A
:101B2000CB018C199D09AE09BF0920E030E0801778
:101B30009107A207B30730F1FD812F2F30E04E81CE
:101B4000842F440F990B82179307E4F48FEF8E8351
:101B500019C0F5012E81E20FF11D27FDFA95FA83D8
:101B6000E98388E293E00E94C418E981FA818083C6
:101B7000FE81FF5FFE83B6CF8D81813208F080E267
:101B8000380E82CF8E8126960FB6F894DEBF0FBE38
:101B9000CDBFDF91CF911F910F91FF90EF90DF901C
:101BA000CF90BF90AF909F908F907F906F905F90FD
:101BB0004F903F902F900895CF92DF92EF92FF9237
:101BC0000F931F93CF93DF931F92CDB7DEB7F82EFD
:101BD000E62ED42EC22E08EE13E09E012F5F3F4F5B
:101BE00041E00E94190D898141E050E001C0440F9D
:101BF000DA94EAF7CC2011F0482B02C04095482334
:101C000049836E2D8F2D0E94090D0F90DF91CF918A
:101C10001F910F91FF90EF90DF90CF900895BF92AA
:101C2000CF92DF92EF92FF920F931F93CF93DF93A8
:101C30001F92CDB7DEB7F82EE62EC42EB22ED02ED0
:101C400008EE13E09E012F5F3F4F41E00E94190D07
:101C5000882339F12C2D30E02B1931092F5F3F4FAC
:101C600081E090E002C0880F991FBA94E2F70197D3
:101C7000022E01C0880F0A94EAF74D2D50E0BA01F8
:101C800002C0660F771F2A95E2F7482F4095998189
:101C900049238623482B49836E2D8F2D0E94090DE1
:101CA00001C080E00F90DF91CF911F910F91FF90C5
:101CB000EF90DF90CF90BF9008952F923F924F9278
:101CC0005F926F927F928F929F92AF92BF92CF92CC
:101CD000DF92EF92FF920F931F93CF93DF93CDB7D5
:101CE000DEB72B970FB6F894DEBF0FBECDBF9D8336
:101CF0008C837F836E834A01398728871B870A87F5
:101D0000370110929206109291061092940610924A
:101D1000B6060E94EC1982EB98E190931803809329
:101D2000170383EB98E190931603809315031092A9
:101D3000140388EB9BE0A0E0B0E08093FF06909353
:101D40000007A0930107B093020781E08093FE068D
:101D500080911403109214038CE08093B80083ECFC
:101D600091E00E94521301E023E042E06BE6809193
:101D7000C7030E940F0E00E022E044E06BE1809177
:101D8000C7030E940F0E22E044E06CE18091C7037C
:101D90000E940F0E20E046E06BE68091C7030E9490
:101DA000DC0DE5EAFDE02491E6E8FDE0849188237E
:101DB000D1F090E0880F991FFC01EF58F24FA591E8
:101DC000B491FC01ED59F24F859194914FB7F8947D
:101DD0003C91E22FE095232F2E232C93DC012C91B4
:101DE000E223EC934FBF8FED91E00E9452130E94CB
:101DF000DA15843319F089EA91E002C08BE891E0AA
:101E00000E94521311E01B8321E047E06BE68091B2
:101E1000C7030E94DC0D64E670E080E090E00E9461
:101E20002F1A87E08B8307E023E042E06AE6809187
:101E3000C7030E940F0E64E670E080E090E00E940D
:101E40002F1A1B839E012D5F3F4F41E06BE680916F
:101E5000C7030E94C80C1B829E012D5F3F4F41E0CB
:101E600068E38091C7030E94C80C1B829E012D5F0E
:101E70003F4F41E063E28091C7030E94C80C1B8280
:101E80009E012D5F3F4F41E06CE18091C7030E94AE
:101E9000C80C80E88B839E012D5F3F4F41E067E3D4
:101EA0008091C7030E94C80C1B839E012D5F3F4F8A
:101EB00041E06BE68091C7030E94C80C84E08B83ED
:101EC0009E012D5F3F4F41E069E18091C7030E9471
:101ED000C80C1B839E012D5F3F4F41E06AE180915A
:101EE000C7030E94C80C40E06DE68091C7030E94C2
:101EF000090D40E06EE68091C7030E94090D80E164
:101F000090E00E949D285C0180E190E00E949D2865
:101F10002C01312CE12CC12CD12C96EF292EC6019D
:101F20004096873F9B4018F0F22CFC1802C080E1DD
:101F3000F82E8F2D90E020E031E02E19310928177E
:101F4000390714F4FE2CF194D20180E090E08F1553
:101F500048F4FC01EC0DFD1DE359FE4FE491ED93B7
:101F60000196F5CF92014F2D6FE68091C7030E9435
:101F7000C80CA114B10449F1432D4F716DE6809155
:101F8000C7030E94090D4E2D6EE68091C7030E9483
:101F9000090D08EE13E095014F2D6FE68091C70300
:101FA0000E94190D4F2D50E0B501C2010E94842AF4
:101FB000892B59F0C5010E943529C2010E9435299B
:101FC0008DEF91E00E944013DBC0CF0CD11C26EFB7
:101FD000C2162BE0D20688F4EF0C09F43394432D9B
:101FE0004F716DE68091C7030E94090D4E2D6EE67C
:101FF0008091C7030E94090D92CFC5010E94352927
:10200000C2010E94352980E094E09A838983AE0161
:102010004F5F5F4F60E78091C7030E94B71588E16B
:102020008B839E012D5F3F4F41E06BE18091C703A1
:102030000E94C80C80EC8B839E012D5F3F4F41E0D6
:102040006AE68091C7030E94C80C82E08B839E01E0
:102050002D5F3F4F41E068E38091C7030E94C80CA9
:1020600021E042E06AE68091C7030E94DC0D20E097
:1020700047E06AE68091C7030E94DC0D8CE190E0A6
:102080009093D9038093D8030E94DA15883310F017
:1020900067E701C066E04C815D818091C7030E94C3
:1020A000F80C0E94DA15883310F06AE701C068E086
:1020B0004E815F818091C7030E94F80C0E94DA155F
:1020C000883310F06DE701C06AE0A4018091C70376
:1020D0000E94F80C4885598563E18091C7030E94EE
:1020E000F80C4A855B8565E18091C7030E94F80C76
:1020F000A30167E18091C7030E94F80C00E010E0A3
:1021000028ED31E44AE25CE56FEC7EE38BE30E946C
:10211000FD1500E010E023EF32E44AE25CE56FECED
:102120007EE383E40E94FD1521E047E06AE68091AA
:10213000C7030E94DC0D8AE198E090930D01809323
:102140000C0180916A00806380936A00EE9A08EE29
:1021500013E028EC33E041E06AE38091C7030E947A
:10216000190D8091C8038093DB0381E08093DA032B
:102170008091D8039091D9039093DD038093DC0381
:102180002B960FB6F894DEBF0FBECDBFDF91CF9177
:102190001F910F91FF90EF90DF90CF90BF90AF9085
:1021A0009F908F907F906F905F904F903F902F9077
:1021B0000895EF92FF920F931F93CF93DF93FB014C
:1021C00004811581E080F180E114F10411F480E0D4
:1021D0001AC001151105B1F0EC018C819D81080F29
:1021E000191FB801CE010E941C09882381F32881A0
:1021F00039818C819D81B701820F931F0E949A2A99
:102200001D830C8381E0DF91CF911F910F91FF908F
:10221000EF9008950F931F93CF93DF93EC010C8100
:102220001D810F5F1F4FB8010E941C09882369F0B0
:10223000288139818C819D8161E372E0820F931F37
:102240000E949A2A1D830C8381E0DF91CF911F9118
:102250000F910895CF92DF92EF92FF920F931F9309
:10226000CF93DF93CDB7DEB762970FB6F894DEBF9A
:102270000FBECDBF8C01CB01F801118210821382F9
:102280001282158214824AE09E012F5F3F4F69013E
:10229000B9010E94CB24F60101900020E9F73197A3
:1022A0007F01EC18FD08B701C8010E941C098111CB
:1022B00004C0C8010E94430908C0F801F582E48205
:1022C000B601808191810E949A2A62960FB6F89495
:1022D000DEBF0FBECDBFDF91CF911F910F91FF9059
:1022E000EF90DF90CF9008952091F102211103C06B
:1022F0008FEF9FEF08955FB7F89422E02093E900F5
:102300002091F20030E01216130614F421E030E0C0
:10231000422FFC0184E6415038F028988093F00267
:102320009091F1009193F7CF2115310521F0809123
:10233000F200882319F05FBFC90108958BE68093EE
:10234000E800F9CF0F931F93CF93DF93C7ECD3E04F
:1023500008EE13E028EC33E042E062E788810E9457
:10236000190D89819A81982789279827DF91CF9124
:102370001F910F9108952FB7F89483E08093E9009F
:102380009091E800892F807295FF04C09091F2002F
:1023900080E4891B2FBF0895AC0190E02FE5FA017E
:1023A000E90FF11D8081882319F020839F5FF7CF0B
:1023B00008958331A0F4E82FF0E0EE0FFF1FEF5BEC
:1023C000FE4FA081B181109751F0EC91F0E0EC57F5
:1023D000FC4F908111968C91982381E009F480E064
:1023E00008951F920F920FB60F9211242F933F93CF
:1023F0004F935F936F937F938F939F93AF93BF930D
:10240000EF93FF938091B900887F803609F49CC0D8
:1024100068F5883209F45BC090F4803109F454C047
:1024200038F4882309F4F6C0883009F44DC0F6C0AA
:10243000883109F44CC0803209F45DC0EFC08034AB
:1024400009F468C048F4803309F455C0883309F0B2
:10245000E5C08093DB06D8C0803509F44FC08835CD
:1024600009F45DC0883409F0D9C0D6C0883909F4B0
:10247000C7C0A8F4883709F467C038F4883609F46F
:1024800063C0803709F460C0C9C0883809F4B8C097
:10249000803909F45FC0803809F0C0C05BC0803B60
:1024A00009F486C038F4803A09F466C0883A09F421
:1024B0007FC0B4C0803C09F4A7C0883C09F4A4C024
:1024C000883B09F48AC0AAC08091D80610C09091B8
:1024D000DA068091D906981770F5E091DA0681E066
:1024E0008E0F8093DA06F0E0E954F94F80818093F3
:1024F000BB0085EC86C08093DB068EC0E091DA06D7
:1025000081E08E0F8093DA068091BB00F0E0E95401
:10251000F94F80839091DA068091D9066EC0E091E0
:10252000DA0681E08E0F8093DA068091BB00F0E03E
:10253000E954F94F80838091DC0681116DC081E000
:102540008093D70684EA61C083E08093FD061092F1
:102550001303CFCF80911303803208F051C0E09174
:10256000130381E08E0F809313038091BB00F0E092
:10257000ED50FD4F8083BDCF85EC8093BC00109261
:10258000FD0680911303803230F4E0911303F0E0F4
:10259000ED50FD4F10826091130370E0E091150340
:1025A000F091160383EF92E009951092130336C061
:1025B00084E08093FD061092F2021092EF02E09107
:1025C0001703F091180309958091EF02811105C05E
:1025D00081E08093EF021092CF02E091F20281E05D
:1025E0008E0F8093F202F0E0E153FD4F80818093E3
:1025F000BB009091F2028091EF02981708F479CF16
:1026000085E88093BC000AC085EC8093BC001092E2
:10261000FD0604C01092DB060E943C19FF91EF9169
:10262000BF91AF919F918F917F916F915F914F91EA
:102630003F912F910F900FBE0F901F901895CF9341
:10264000DF9391E0909314038823B9F0C091B80010
:10265000D091BA008091BC008A7B8093BC0060E07E
:1026600082E00E94881960E083E00E9488190E943D
:10267000EC19D093BA00C093B800DF91CF910895C0
:10268000009769F0FC0101900020E9F73197AF0154
:10269000481B590BBC0184E393E00C94500880E084
:1026A00090E00895CF93DF930E944013EC0183E301
:1026B00092E00E9440138C0F9D1FDF91CF910895EF
:1026C0008F929F92AF92BF92CF92DF92EF92FF9242
:1026D0000F931F93CF93DF93F82ED62F613208F01C
:1026E000BBC00E940A1A4B015C01C091FD06CC23BD
:1026F00031F18091FF0690910007A0910107B09100
:102700000207892B8A2B8B2B81F30E940A1A0091D6
:10271000FF06109100072091010730910207DC01AC
:10272000CB0188199909AA09BB09081719072A07B3
:102730003B07D8F68091FE060E941F138DC081E0F2
:102740008093FD068093DC069FEF9093DB0610924A
:10275000DA069D0F9093D9068093D8069091D806FB
:102760008F2D880F892B8093D8068091D7068130D2
:1027700089F51092D7060E940A1A6B017C0180919C
:10278000D8068093BB008091FF0690910007A0912E
:102790000107B0910207892B8A2B8B2BA9F00E948D
:1027A0000A1A8090FF0690900007A0900107B09051
:1027B0000207DC01CB018C199D09AE09BF098816FF
:1027C0009906AA06BB0690F18091BC0083FDD7CF85
:1027D00085EC01C085EE8093BC000E940A1A6B0153
:1027E0007C018091FD06813031F58091FF0690914A
:1027F0000007A0910107B0910207892B8A2B8B2B30
:1028000081F30E940A1A8090FF0690900007A09022
:102810000107B0900207DC01CB018C199D09AE09BC
:10282000BF0988169906AA06BB06D8F68091FE064F
:102830000E941F1312C08091DA068D1710F4D091F8
:10284000DA06E7EBF6E0ADEDB6E0C0E0CD1729F033
:1028500081918D93CF5FFACFC0E08C2FDF91CF9124
:102860001F910F91FF90EF90DF90CF90BF90AF90AE
:102870009F908F9008958F929F92AF92BF92CF9228
:10288000DF92EF92FF920F931F93CF93DF931091FC
:10289000B606113208F0C2C0D091B5060E940A1ADD
:1028A0006B017C01C091FD06CC2311F18091FF06E4
:1028B00090910007A0910107B0910207892B8A2B04
:1028C0008B2B81F30E940A1A8090FF0690900007DC
:1028D000A0900107B0900207DC01CB018C199D0983
:1028E000AE09BF0988169906AA06BB06D8F682C0AB
:1028F00082E08093FD0681E08093DC068FEF809379
:10290000DB061092DA061093D906A5E9B6E0E7EBEC
:10291000F6E080E0181721F09D9191938F5FFACF38
:102920001092D8069091D8068D2F880F892B80930E
:10293000D8068091D706813089F51092D7060E947B
:102940000A1A6B017C018091D8068093BB008091AC
:10295000FF0690910007A0910107B0910207892B13
:102960008A2B8B2BA9F00E940A1A0091FF06109166
:1029700000072091010730910207DC01CB018C197F
:102980009D09AE09BF09081719072A073B0790F1EF
:102990008091BC0083FDD7CF85EC01C085EE80938C
:1029A000BC000E940A1A6B017C018091FD068230F6
:1029B00039F58091FF0690910007A0910107B09131
:1029C0000207892B8A2B8B2B81F30E940A1A009114
:1029D000FF06109100072091010730910207DC01EA
:1029E000CB018C199D09AE09BF09081719072A07E1
:1029F0003B07D8F68091FE060E941F13C5E013C066
:102A00008091DB068F3F79F08091DB06803241F0C8
:102A10008091DB06803331F0C4E005C0C1E003C023
:102A2000C2E001C0C3E0109294061092B606109264
:102A300093068C2FDF91CF911F910F91FF90EF9014
:102A4000DF90CF90BF90AF909F908F9008954F925E
:102A50005F926F927F928F929F92AF92BF92DF921E
:102A6000EF92FF920F931F93CF93DF93182FD62EE1
:102A70007A01E9010E94691A4B015C0101E00093AF
:102A800093061093B506109294061092B6066D2D1B
:102A900088E293E00E940D190E943B140093930674
:102AA000109294061092B60662E0812F0E94601385
:102AB000109292068093910610E02E01612C712CE9
:102AC000DD24D3949091910680919206981739F164
:102AD000111125C02097B1F488E293E0002331F072
:102AE0000E94C418F701108281830AC00E94C41892
:102AF000F70120813181822B932B9183808311E018
:102B00000D25E0CF0E94691ADC01CB0188199909D3
:102B1000AA09BB0984159505A605B705E8F20E9428
:102B20003B14209799F00E94691AAB01BC01481927
:102B300059096A097B09CE01A0E0B0E0481759079E
:102B40006A077B0718F0111101C01FEF812FDF9179
:102B5000CF911F910F91FF90EF90DF90BF90AF90BA
:102B60009F908F907F906F905F904F900895CF933C
:102B7000DF93EA0191E0909393068093B50610925B
:102B800094061092B60688E293E00E940D196981BE
:102B900088E293E00E940D19688188E293E00E9428
:102BA0000D190E943B1491E0811190E0892FDF9173
:102BB000CF9108950F931F93CF93DF931F92CDB7BB
:102BC000DEB708EE13E09E012F5F3F4F41E065E75F
:102BD0008091C7030E94190D882339F089818E776F
:102BE00090E0959587958093C8038091C8030F90D6
:102BF000DF91CF911F910F9108952F923F924F92A5
:102C00005F926F927F928F929F92AF92BF92CF927C
:102C1000DF92EF92FF920F931F93CF93DF93CDB785
:102C2000DEB7AF970FB6F894DEBF0FBECDBF898F6A
:102C30004CA35DA36EA37FA308A719A72AA73BA750
:102C40008B3309F062C20E94DA15883308F45FC240
:102C500017E703E06EE384E393E00E94DB07CE0115
:102C60000D969E8B8D8BDE0111967D015C01912E60
:102C700028EE33E0AE014D5E5F4F692D8091C703B2
:102C80000E942715CB88DC88B6010D2C000C880B20
:102C9000990B0E942925133191F0F1E0CF22DD2418
:102CA000D501CD92DC9220E030E040E051E40E947A
:102CB0008825F70160837183828393830CC020E0B1
:102CC00030E040E850E40E948825D7016D937D9361
:102CD0008D939C931397900EB2E0AB0EB11CE4E081
:102CE000EE0EF11C8D899E89E816F90609F6998D7C
:102CF0009B3329F48DEC9CECACE4BDE304C080E094
:102D000090E0A0E8BFE38CA79DA7AEA7BFA7ACE06B
:102D1000B0E0BBA3AAA31D8E1C8E212C312CFE017A
:102D20003196FB8FEA8FCE010D9698A38F8F1E8F61
:102D3000998D99A3412C512C3201188E1F8A28EEAF
:102D400033E0AE014D5E5F4F69A18091C7030E94E1
:102D500027156B897C89072E000C880B990B0E9424
:102D600029256B017C01A98DAB3361F4EF89F88DC6
:102D7000329741F420E030E040E856E40E94832698
:102D80006B017C0146015701B7FAB094B7F8B094D3
:102D9000C301B2010E9427252B013C0120E030E055
:102DA000A901C701B6010E942D2818162CF0782D14
:102DB000692D9A2D8B2D04C07C2D6D2D9E2D8F2D70
:102DC000272F362F492F582FC301B2010E94842686
:102DD0000E94D7272B013C012CA13DA14EA15FA150
:102DE000C501B4010E9488256B017C012FE632E108
:102DF00043E85AE3C501B4010E94882528A539A5F6
:102E00004AA55BA50E948825AA8DBB8D2D913D9179
:102E10004D915C910E9484269B01AC01EA8DFB8D53
:102E20006193719381939193FB8FEA8FC701B601F0
:102E3000133141F10E94842620E030E040E05EE35F
:102E40000E9488256B017C0120E030E0A9010E94EE
:102E50002D2820E030E040E05FE387FD05C0C7019A
:102E6000B6010E94842604C0C701B6010E948326D1
:102E70000E94D0276E7FAF8DB8A18D919C91682B59
:102E8000792B20C00E94842620E030E040E85EE3F9
:102E90000E9488256B017C0120E030E0A9010E949E
:102EA0002D2820E030E040E05FE387FD05C0C7014A
:102EB000B6010E94842604C0C701B6010E94832681
:102EC0000E94D0277C8B6B8BAE014D5E5F4F6E8D69
:102ED0008091C7030E94B715EF89F88D3196F88F5E
:102EE000EF8BF9A1FE5FF9A32E8D200F2E8F8F8D12
:102EF00098A1029698A38F8FAF89B88D139709F088
:102F00001ECFB3E62B16310471F4E9EE4E16E3E062
:102F10005E066104710438F06AE284E393E00E9483
:102F2000DB07212C312CC301B2010E9427252CA5DF
:102F30003DA54EA55FA50E94882520E030E040EA2F
:102F400050E40E94222587FF05C08C8D9D8D01963F
:102F50009D8F8C8F94E6491651046104710488F5A5
:102F6000ABE02A1631046CF1EC8DFD8D3A974CF1F3
:102F70006EE284E393E00E94DB0720E030E040E46F
:102F80005FE36CA17DA18EA19FA10E9488256CA307
:102F90007DA38EA39FA320E030E040E45FE368A51B
:102FA00079A58AA59BA50E94882568A779A78AA7E5
:102FB0009BA7CE0101967C01DE011D966D01B12E0D
:102FC00049C061E070E080E090E00E942F1ABFEFFE
:102FD0002B1A3B0AE4E62E16310409F0A0CEC8CF26
:102FE00020E030E040E05EE3D7016D917D918D916E
:102FF0009C910E9488252B013C0120E030E0A90132
:103000000E942D2820E030E040E05FE387FD25C0EE
:10301000C301B2010E9484260E94D0276E7FF60170
:1030200080819181682B792B7C8B6B8BAE014D5EFF
:103030005F4F6B2D8091C7030E94B715B00EB2E0B1
:10304000CB0ED11CE4E0EE0EF11C8D899E898E150D
:103050009F0561F1133121F605C0C301B2010E9441
:103060008326DACF20E030E040E85EE3D7016D91BF
:103070007D918D919C910E9488252B013C0120E03F
:1030800030E0A9010E942D2820E030E040E05FE31D
:1030900087FD05C0C301B2010E94842604C0C3019C
:1030A000B2010E9483260E94D027BECFAAA1BBA155
:1030B0001197BBA3AAA3AB2B09F02DCE21E042E0D0
:1030C0006AE68091C7030E94DC0D21E043E06AE6D6
:1030D0008091C7030E94DC0DAF960FB6F894DEBF57
:1030E0000FBECDBFDF91CF911F910F91FF90EF9059
:1030F000DF90CF90BF90AF909F908F907F906F9018
:103100005F904F903F902F90089513E101C016E01B
:1031100002E0A0CD4091EF02262F30E0240F311DB8
:1031200021323105DCF42091FD062430C9F4FC0184
:1031300080E090E0861758F43091EF022191DC0195
:10314000A153BD4FA30FB11D2C930196F3CF8091D6
:10315000EF02680F6093EF0280E0089581E0089528
:1031600082E00895089508950895E091920680916F
:103170009106E81730F4F0E0E352F94F808190E0D7
:1031800008958FEF9FEF0895909192068091910698
:10319000981750F4E92FF0E0E352F94F208130E026
:1031A0009F5F9093920602C02FEF3FEFC9010895F1
:1031B0008091910690E020919206821B91090895DA
:1031C000CF92DF92EF92FF920F931F93CF93DF93F3
:1031D0007C01CB018A0120919306222389F0EB0127
:1031E0006B01C40ED51ECC15DD0569F06991D701C0
:1031F000ED91FC910190F081E02DC7010995F3CF8D
:10320000642F0E948A18C801DF91CF911F910F91FE
:10321000FF90EF90DF90CF900895CF93DF931F92B0
:10322000CDB7DEB76983209193062223D1F0209198
:10323000B606203240F021E030E0FC0133832283E7
:1032400080E090E015C080919406E82FF0E0EB5606
:10325000F94F998190838F5F809394068093B6068F
:1032600005C061E0CE0101960E948A1881E090E0DD
:103270000F90DF91CF91089585ED8093BC008091F0
:10328000FF0690910007A0910107B09102070796F1
:10329000A11DB11D23E0B695A795979587952A9511
:1032A000D1F72091BC0024FF1CC04091FF06509133
:1032B00000076091010770910207452B462B472BB1
:1032C00081F30097A105B10541F02AE22A95F1F7B3
:1032D00000C00197A109B109E4CF8091FE060C94CA
:1032E0001F131092FD0608958091100781110DC0E3
:1032F00082E080930C0784E080930D0710920F0703
:1033000010920E0781E0809310078CE097E00895FB
:10331000362F90E0FC01E354F24F4491FC01E25659
:10332000F24F2491FC01E158F24F8491882309F473
:1033300052C04423E1F150E0FA013197EF30F1053A
:10334000B0F5EA5AFF4F0C947D26909180009F774C
:1033500007C0909180009F7D03C090918000977F6F
:103360009093800024C094B59F7702C094B59F7D50
:1033700094BD1DC0909190009F7707C090919000E0
:103380009F7D03C090919000977F909390000FC015
:103390009091C0009F7703C09091C0009F7D909353
:1033A000C00005C09091C200977F9093C200E82FA3
:1033B000F0E0EE0FFF1FED59F24FA591B4919FB7CA
:1033C000F894311104C08C912095282302C0EC910F
:1033D0002E2B2C939FBF08951092FD0681E08093C1
:1033E000DC061092D70661E082E00E94881961E055
:1033F00083E00E948819E9EBF0E080818E7F808372
:1034000080818D7F808388E48093B80085E48093F9
:10341000BC0008953FB7F894809108079091090780
:10342000A0910A07B0910B0726B5A89B05C02F3FB6
:1034300019F00196A11DB11D3FBFBA2FA92F982FDA
:103440008827820F911DA11DB11DBC01CD0142E055
:10345000660F771F881F991F4A95D1F708958F929D
:103460009F92AF92BF92CF92DF92EF92FF926B0149
:103470007C010E940A1A4B015C01C114D104E104D1
:10348000F104F1F00E940A1ADC01CB0188199909B4
:10349000AA09BB09883E9340A105B10570F321E05C
:1034A000C21AD108E108F10888EE880E83E0981E60
:1034B000A11CB11CC114D104E104F10419F7DDCF42
:1034C000FF90EF90DF90CF90BF90AF909F908F9044
:1034D00008952FB7F89460910407709105078091C3
:1034E0000607909107072FBF08951F920F920FB6FE
:1034F0000F9211242F933F938F939F93AF93BF937A
:103500008091040790910507A0910607B0910707E5
:103510003091030723E0230F2D3720F40196A11DDE
:10352000B11D05C026E8230F0296A11DB11D2093F1
:1035300003078093040790930507A0930607B093B1
:1035400007078091080790910907A0910A07B09199
:103550000B070196A11DB11D8093080790930907E1
:10356000A0930A07B0930B07BF91AF919F918F91E2
:103570003F912F910F900FBE0F901F901895CF93F2
:10358000DF93CDB7DEB7C956D1090FB6F894DEBFC9
:103590000FBECDBF789484B5826084BD84B5816050
:1035A00084BD85B5826085BD85B5816085BD80910E
:1035B0006E00816080936E00109281008091810086
:1035C000826080938100809181008160809381007E
:1035D0008091800081608093800080919100826062
:1035E00080939100809191008160809391008091FF
:1035F00090008160809390008091C10084608093EE
:10360000C1008091C10082608093C1008091C1009F
:1036100081608093C1008091C30081608093C3006A
:103620008091C00082608093C0008091C200816060
:103630008093C20080917A00846080937A008091A8
:103640007A00826080937A0080917A008160809312
:103650007A0080917A00806880937A001092F1025B
:1036600010921A03109219038091D7008160809301
:10367000D70080EA8093D80089B5806189BD89B57B
:10368000826089BD09B400FEFDCF61E070E080E09A
:1036900090E00E942F1A8091D8008F7C80618093E7
:1036A000D8008091E000807F8093E0008091E1006D
:1036B0008E7E8093E1008DE08093E200559A209AFF
:1036C000F09015016AE070E080E090E00E942F1A0F
:1036D000FF20B1F38FEF9FEF90934103809340035E
:1036E00083E192E00E94521364E670E080E090E093
:1036F0000E942F1A1092270389E192E00E94521330
:103700004DEFE42EFF24FA940FEC1FEF26E330E098
:103710004DE956E065EC7EEF83EE9EEF0E945D0E74
:1037200083E292E00E9452138CE291E09093220394
:103730008093210390931C0380931B03E4EAFDE034
:103740002491E5E8FDE08491882399F090E0880FCA
:10375000991FFC01EF58F24FA591B491FC01ED596E
:10376000F24F859194918FB7F894EC91E22BEC9302
:103770008FBFCE0101961C018091DA03882309F4E2
:1037800032C58090D8039090D9030E940A1A2B0169
:103790003C016401DD240E94A2115C01C816D90617
:1037A0000CF03FC0893C910584F121E042E06AE6DB
:1037B0008091C7030E94DC0D0E94A2115C01892B3D
:1037C000A1F50E940A1ADC01CB0184199509A6090A
:1037D000B709893F9A42A105B10570F304C55701A5
:1037E00081E2E816F1041CF090E2A92EB12CAA2087
:1037F000B1F008EE13E091014A2D64E78091C70310
:103800000E94190DEA18FB0851F70E94A2115C01F1
:10381000C816D90634F47C01EC18FD08E0CF1982F3
:10382000F1CFA114B10409F4DEC40E940A1ADC012C
:10383000CB0184199509A609B709893F9A42A105C8
:10384000B10508F0D0C4CA14DB0409F0A4CF882065
:1038500059F008EE13E020EE33E0482D64E7809144
:10386000C7030E94190D02C01092E003A0EEB3E05E
:10387000109709F0D5C5E091D603F091D703A48045
:10388000B580BA24AB24BA24C084D184DC24CD24EE
:10389000DC24E484F584FE24EF24FE24608171811D
:1038A000762767277627072E000C880B990B0E9436
:1038B000292520E030E040E858E30E9488256AAFDF
:1038C0007BAF8CAF9DAF60932C0470932D048093DD
:1038D0002E0490932F04B501BB0C880B990B0E940A
:1038E000292520E030E040E858E30E948825229610
:1038F0006CAF7DAF8EAF9FAF229760933004709313
:1039000031048093320490933304B601DD0C880BAC
:10391000990B0E94292520E030E040E858E30E94FE
:10392000882526966CAF7DAF8EAF9FAF26976093AC
:103930003404709335048093360490933704B701B0
:10394000FF0C880B990B0E94292520E030E040E80D
:1039500058E30E9488252A966CAF7DAF8EAF9FAF4B
:103960002A97609338047093390480933A049093B3
:103970003B0480EE93E0892B09F030C5E091D6033B
:10398000F091D703A088B188BA24AB24BA24B092AE
:103990004904A092480462887388762467247624B8
:1039A00070924B0460924A044488558854244524FC
:1039B000542450924D0440924C042A962CAD3DADB7
:1039C0004EAD5FAD2A9722966CAD7DAD8EAD9FADAD
:1039D00022970E9488256B017C0126962CAD3DAD77
:1039E0004EAD5FAD26976AAD7BAD8CAD9DAD0E94AF
:1039F00088259B01AC01C701B6010E9483269B016B
:103A0000AC010E9484266E966CAF7DAF8EAF9FAFE7
:103A10006E97609320047093210480932204909306
:103A2000230422962CAD3DAD4EAD5FAD22976AAD1D
:103A30007BAD8CAD9DAD0E9488256B017C012A96E3
:103A40002CAD3DAD4EAD5FAD2A9726966CAD7DADEC
:103A50008EAD9FAD26970E9488259B01AC01C701C2
:103A6000B6010E9484269B01AC010E9484266696C2
:103A70006CAF7DAF8EAF9FAF669760932404709359
:103A8000250480932604909327042AAD3BAD4CADCA
:103A90005DADCA01B9010E9488256B017C012296A7
:103AA0002CAD3DAD4EAD5FAD2297CA01B9010E946C
:103AB00088259B01AC01C701B6010E9483266B01DA
:103AC0007C0126962CAD3DAD4EAD5FAD2697CA016B
:103AD000B9010E9488259B01AC01C701B6010E9473
:103AE00083266B017C012A962CAD3DAD4EAD5FADBA
:103AF0002A97CA01B9010E9488259B01AC01C70120
:103B0000B6010E94842662966CAF7DAF8EAF9FAFE8
:103B10006297609328047093290480932A049093F9
:103B20002B04B501BB0C880B990B0E9429256B0156
:103B30007C0120E030E040E056E46E966CAD7DAD57
:103B40008EAD9FAD6E970E9488259B01AC01C70189
:103B5000B6010E9483260E94D0274B015C0170931E
:103B60004F0460934E04B301770C880B990B0E94AD
:103B700029256B017C0120E030E040E056E46696A8
:103B80006CAD7DAD8EAD9FAD66970E9488259B0183
:103B9000AC01C701B6010E9483260E94D0276B01A9
:103BA0007C017093510460935004B201550C880B52
:103BB000990B0E9429252B013C0120E030E040E0D8
:103BC00056E462966CAD7DAD8EAD9FAD62970E945E
:103BD00088259B01AC01C301B2010E9483260E948B
:103BE000D027709353046093520426E0EEE4F4E08F
:103BF000A4E5B4E001900D922A95E1F7072E000CA0
:103C0000880B990B0E9429252E966CAF7DAF8EAF45
:103C10009FAF2E97B601DD0C880B990B0E942925CA
:103C20006B017C01B401990C880B990B0E9429252A
:103C30004B015C012E962CAD3DAD4EAD5FAD2E9788
:103C40006AAD7BAD8CAD9DAD0E9488252B013C01FA
:103C5000A701960122966CAD7DAD8EAD9FAD2297EA
:103C60000E9488259B01AC01C301B2010E948426F9
:103C70002B013C01A501940126966CAD7DAD8EAD66
:103C80009FAD26970E9488259B01AC01C301B2011C
:103C90000E9483262B013C0120E030E0A9012A96F6
:103CA0006CAD7DAD8EAD9FAD2A970E9488259B019E
:103CB000AC01C301B2010E948426A2966CAF7DAF15
:103CC0008EAF9FAFA297A70196016AAD7BAD8CAD79
:103CD0009DAD0E9488252B013C012E962CAD3DAD5B
:103CE0004EAD5FAD2E9722966CAD7DAD8EAD9FAD86
:103CF00022970E9488259B01AC01C301B2010E945A
:103D000083262B013C0120E030E0A90126966CAD12
:103D10007DAD8EAD9FAD26970E9488259B01AC019D
:103D2000C301B2010E9484262B013C01A50194012C
:103D30002A966CAD7DAD8EAD9FAD2A970E948825E9
:103D40009B01AC01C301B2010E948426A6966CAF10
:103D50007DAF8EAF9FAFA697A50194016AAD7BADF5
:103D60008CAD9DAD0E9488252B013C0120E030E008
:103D7000A90122966CAD7DAD8EAD9FAD22970E94BC
:103D800088259B01AC01C301B2010E9484262B014E
:103D90003C012E962CAD3DAD4EAD5FAD2E972696D7
:103DA0006CAD7DAD8EAD9FAD26970E9488259B01A1
:103DB000AC01C301B2010E9484262B013C01A70182
:103DC00096012A966CAD7DAD8EAD9FAD2A970E946F
:103DD00088259B01AC01C301B2010E948326AA96EB
:103DE0006CAF7DAF8EAF9FAFAA9720E030E0A90106
:103DF0006AAD7BAD8CAD9DAD0E9488252B013C0149
:103E0000A501940122966CAD7DAD8EAD9FAD22973C
:103E10000E9488259B01AC01C301B2010E94832648
:103E20004B015C01A701960126966CAD7DAD8EAD70
:103E30009FAD26970E9488259B01AC01C501B40166
:103E40000E9483266B017C012E962CAD3DAD4EADBC
:103E50005FAD2E972A966CAD7DAD8EAD9FAD2A9746
:103E60000E9488259B01AC01C701B6010E948326F0
:103E70004B015C012A96CCACDDACEEACFFAC2A97D2
:103E8000F7FAF094F7F8F09426968CAD9DADAEADB0
:103E9000BFAD2697B0582E968CAF9DAFAEAFBFAFDB
:103EA0002E9722968CAD9DADAEADBFAD2297B0588A
:103EB0006A968CAF9DAFAEAFBFAF6A97A501940174
:103EC000BC01CD010E9488252B013C01AA962CAD96
:103ED0003DAD4EAD5FADAA976AAD7BAD8CAD9DADEE
:103EE0000E9488259B01AC01C301B2010E94842677
:103EF0002B013C01A6962CAD3DAD4EAD5FADA69716
:103F0000C701B6010E9488259B01AC01C301B20123
:103F10000E9484262B013C01A2962CAD3DAD4EADF6
:103F20005FADA2972E966CAD7DAD8EAD9FAD2E97F9
:103F30000E9488259B01AC01C301B2010E94832627
:103F40000E94D0277093550460935404A5019401F6
:103F50002E966CAD7DAD8EAD9FAD2E970E948825BF
:103F60002B013C01AA962CAD3DAD4EAD5FADAA979D
:103F7000C701B6010E9488259B01AC01C301B201B3
:103F80000E9483262B013C01A6962CAD3DAD4EAD83
:103F90005FADA6976AAD7BAD8CAD9DAD0E948825C7
:103FA0009B01AC01C301B2010E9484262B013C019C
:103FB000A2962CAD3DAD4EAD5FADA2976A966CADAD
:103FC0007DAD8EAD9FAD6A970E9488259B01AC01A7
:103FD000C301B2010E9484260E94D0277093570427
:103FE00060935604A5019401C701B6010E9488257B
:103FF0006B017C01AA962CAD3DAD4EAD5FADAA978D
:104000002E966CAD7DAD8EAD9FAD2E970E9488250E
:104010009B01AC01C701B6010E9484266B017C01A3
:10402000A6962CAD3DAD4EAD5FADA6976A966CAD34
:104030007DAD8EAD9FAD6A970E9488259B01AC0136
:10404000C701B6010E9483266B017C01A2962CADAC
:104050003DAD4EAD5FADA2976AAD7BAD8CAD9DAD74
:104060000E9488259B01AC01C701B6010E948426ED
:104070000E94D02770935904609358042AAD3BAD39
:104080004CAD5DADCA01B9010E9484266B017C0173
:1040900022962CAD3DAD4EAD5FAD2297CA01B90160
:1040A0000E9484264B015C012AAD3BAD4CAD5DAD59
:1040B000C701B6010E9488252B013C0122962CAD38
:1040C0003DAD4EAD5FAD2297C501B4010E9488257C
:1040D0009B01AC01C301B2010E94842620E030E0C4
:1040E00040E85FE30E9483262B013C0126962CAD1D
:1040F0003DAD4EAD5FAD2697C501B4010E94882548
:104100004B015C012A962CAD3DAD4EAD5FAD2A97BB
:10411000C701B6010E9488259B01AC01C501B4010D
:104120000E948326A30192010E94032760933C040E
:1041300070933D0480933E0490933F0466962CADAB
:104140003DAD4EAD5FAD6697CA01B9010E948825AD
:104150006B017C0162962CAD3DAD4EAD5FAD6297BB
:10416000CA01B9010E9488259B01AC01C701B601B3
:104170000E9484260E9440289B01AC016E966CAD83
:104180007DAD8EAD9FAD6E970E9403276B017C01C4
:1041900060934004709341048093420490934304DD
:1041A00062962CAD3DAD4EAD5FAD629766966CAD3F
:1041B0007DAD8EAD9FAD66970E940327609344044A
:1041C00070934504809346049093470420E030E0C8
:1041D000A90162966CAD7DAD8EAD9FAD62970E94D8
:1041E000222587FDFEC086E0E4E5F4E0DE0192963C
:1041F00001900D928A95E1F786E0FE01B296DE010C
:10420000989601900D928A95E1F786E0FE01B896A6
:10421000A1ECB3E001900D928A95E1F71DAA1CAACA
:104220001FAA1EAA19AE18AE62E070E0CE01C496B5
:104230000E941C09811105C0CE01C4960E94430949
:104240000AC082E090E099AF88AF60E372E08CA989
:104250009DA90E949A2A6091C1037091C203C10175
:104260000E942A11B101CE01C4960E94D910898101
:104270009A810E943529CE01C4960E940A1160914C
:10428000C3037091C403C1010E942A11B101CE0180
:10429000C4960E94D91089819A810E943529CE0145
:1042A000C4960E940A116091C5037091C603C101B2
:1042B0000E942A11B101CE01C4960E94D9108981B1
:1042C0009A810E943529CE01C4960E940A110E944B
:1042D000691A1FA61EA619AA18AA1BAA1AAA2AE0BA
:1042E000A1010E94D624F10101900020E9F7319745
:1042F0007F01E218F308B701CE018E960E941C09D7
:10430000811105C0CE018E960E94430907C0FBAA09
:10431000EAAAB1018EA59FA50E949A2ABE01625DFC
:104320007F4FCE01C4960E94D9108EA59FA50E94F2
:10433000352948AD59AD6CA97DA984E393E00E946D
:10434000500883E392E00E9440138CA99DA90E942B
:10435000352984E393E00E94FE088237B9F5109274
:10436000270386E392E00E94521380912703811174
:104370000BC084E393E00E94FE0891E0833609F0CD
:1043800090E090932703F1CF89E192E00E945213CD
:1043900085EEE82EFF24FA940EEC1FEF25E330E0C3
:1043A00042E856E06AED7EEF80E49FEF0E945D0EEA
:1043B00083E292E00E945213ACE2B1E0B093220398
:1043C000A0932103B0931C03A0931B0380E090E013
:1043D000892B09F4D1C90E940000CEC9E0EEF3E0B8
:1043E000D1CA20E030E0A901C701B6010E942D2802
:1043F000A701960118162CF46BED7FE089E490E498
:1044000004C06BED7FE089E490EC0E94832660930A
:104410004004709341048093420490934304E3CE9C
:10442000FD012DCA6F927F928F929F92AF92BF92A1
:10443000CF92DF92EF92FF920F931F93CF93DF9370
:10444000CDB7DEB7AE970FB6F894DEBF0FBECDBFC7
:10445000E4E8F3E01192B3E0E839FB07D9F71092F2
:104460009B0310929C0380919B0390919C0382E19B
:10447000E6E8F3E0DF011D928A95E9F781E0809399
:10448000980380919903882309F433C186E592E06B
:104490000E9440138091BC029091BD02A091BE0287
:1044A0008CA79DA7AEA78091BF029091C002A0915A
:1044B000C10289A79AA7ABA785E00E94D9118E01F6
:1044C000045D1F4F811103C0C8010E94CC1189E017
:1044D0000E94D9119E01275D3F4F7901811103C0D0
:1044E000C9010E94CC11FF92EF9280918D038F93AE
:1044F00080918C038F9380918B038F9380918A039B
:104500008F931F930F93809188031F928F9385E65B
:1045100092E09F938F938E010F5F1F4F1F930F9316
:104520000E94A12AC8010E9440138DE00E94D91167
:104530000FB6F894DEBF0FBECDBF882319F07CE321
:10454000F72E02C06FE5F62E8BE00E94D91188236A
:1045500019F05EE5E52E02C04FE5E42E8CE00E94E6
:10456000D911882319F036E7D32E02C02FE5D22EB9
:104570008EE00E94D911882319F09EE3C92E02C053
:104580008FE5C82E81E00E94D911882319F0B1E48B
:104590009B2E02C0AFE59A2E82E00E94D91188239B
:1045A00019F0F2E48F2E02C0EFE58E2E83E00E9418
:1045B000D911882319F078E5772E02C06FE5762EA1
:1045C00084E00E94D911882319F059E5652E02C0B4
:1045D0004FE5642E88E00E94D911882319F03EE34C
:1045E000A32E02C02FE5A22E87E00E94D9118823B6
:1045F00019F09CE3B92E02C08FE5B82E80E00E942E
:10460000D911882311F088E501C08FE51F926F92C0
:104610001F927F921F928F921F929F921F92AF9232
:104620001F928F931F92BF921F92CF921F92DF9281
:104630001F92EF921F92FF9281E892E09F938F93D7
:104640001F930F930E94A12AC8010E9440138091DA
:10465000C2029091C302A091C4028EA39FA3A8A7F7
:104660008091C5029091C602A091C7028BA39CA322
:10467000ADA386E00E94D9110FB6F894DEBF0FBE3D
:10468000CDBFDE0196966D01811103C0CD010E9460
:10469000CC118AE00E94D9119E012D5D3F4F790116
:1046A000811103C0C9010E94CC11809189031F921E
:1046B0008F93DF92CF92FF92EF92809191038F932D
:1046C000809190038F9380918F038F9380918E03BD
:1046D0008F9380EA92E09F938F931F930F930E9492
:1046E000A12AC8010E9452130FB6F894DEBF0FBE74
:1046F000CDBF1092840384E18093850310929A03C6
:1047000010929C0310929B0310929E0310929D03A3
:104710001092A1031092A2031092A3031092A4037B
:104720008FEF90E0A0E0B0E08093A5039093A60304
:10473000A093A703B093A8031092A9031092AA0311
:104740001092AB031092AC038093AD039093AE0331
:10475000A093AF03B093B00340E050E86FEF7FEF5A
:104760004093B1035093B2036093B3037093B403C7
:104770008FEF9FE7A0E0B0E08093B5039093B6037E
:10478000A093B703B093B8034093B9035093BA030F
:104790006093BB037093BC038093BD039093BE03EF
:1047A000A093BF03B093C0031092A00310929F0385
:1047B00081E08093990310922B0310922A0388EED4
:1047C00093E0A0E0B0E080932C0390932D03A0939E
:1047D0002E03B0932F032BE631E03093290320936F
:1047E0002803109237031092360380933803909376
:1047F0003903A0933A03B0933B038DE791E0909384
:104800003503809334038FEF9FEF909341038093A0
:104810004003109275061092760610927D06109253
:104820007E06109285061092860610926F061092F0
:10483000700688E68093C7031092DA031092200472
:104840001092210410922204109223041092240446
:104850001092250410922604109227041092280426
:104860001092290410922A0410922B0480E090E008
:10487000A0E8BFE380932C0490932D04A0932E0412
:10488000B0932F041092300410923104109232042D
:1048900010923304109234041092350410923604AE
:1048A00010923704109238041092390410923A048E
:1048B00010923B04109249041092480410924B0449
:1048C00010924A0410924D0410924C0410924F041E
:1048D00010924E04109251041092500410925304FE
:1048E00010925204109255041092540410925704DE
:1048F0001092560410925904109258048EE7809337
:1049000056061092570610925806109259061092A9
:104910005A0681E880935B0610925C0610925D0651
:1049200010925F0610925E06109261061092600669
:104930001092620610926506109266061092670643
:10494000109268061092690610926A0610926B0621
:1049500010926C061092C2031092C1031092C4030D
:104960001092C3031092C6031092C503AE960FB601
:10497000F894DEBF0FBECDBFDF91CF911F910F9195
:10498000FF90EF90DF90CF90BF90AF909F908F906F
:104990007F906F900895BB274A3031F4992322F419
:1049A000BDE2909581959F4F0C94F924BB27FA01A5
:1049B000A62F6217710581059105330B30FB66F058
:1049C000AA27660F771F881F991FAA1FA21710F02A
:1049D000A21B63953850A9F7A05DAA3308F0A95D22
:1049E000A19336F7B111B1931082CA010C9412252C
:1049F000BB27FB015527AA27880F991FAA1FA417B9
:104A000010F0A41B83955051B9F7A05DAA3308F0AC
:104A1000A95DA193009779F7B111B1931192CB01E0
:104A20000C941225DC01FC01672F71917723E1F7CB
:104A3000329704C07C916D9370836291AE17BF076B
:104A4000C8F308950E94642508F481E00895E8946D
:104A500009C097FB3EF490958095709561957F4FC6
:104A60008F4F9F4F9923A9F0F92F96E9BB27939574
:104A7000F695879577956795B795F111F8CFFAF484
:104A8000BB0F11F460FF1BC06F5F7F4F8F4F9F4FB5
:104A900016C0882311F096E911C0772321F09EE813
:104AA000872F762F05C0662371F096E8862F70E079
:104AB00060E02AF09A95660F771F881FDAF7880F53
:104AC0009695879597F90895990F0008550FAA0BA9
:104AD000E0E8FEEF16161706E807F907C0F0121611
:104AE0001306E407F50798F0621B730B840B950B14
:104AF00039F40A2661F0232B242B252B21F4089569
:104B00000A2609F4A140A6958FEF811D811D089505
:104B10000E949B250C940C260E94FE2538F00E94D2
:104B2000052620F0952311F00C94F5250C94FB2517
:104B300011240C9440260E941D2670F3959FC1F30A
:104B4000950F50E0551F629FF001729FBB27F00D3B
:104B5000B11D639FAA27F00DB11DAA1F649F662790
:104B6000B00DA11D661F829F2227B00DA11D621FDF
:104B7000739FB00DA11D621F839FA00D611D221F99
:104B8000749F3327A00D611D231F849F600D211D7D
:104B9000822F762F6A2F11249F5750409AF0F1F000
:104BA00088234AF0EE0FFF1FBB1F661F771F881F69
:104BB00091505040A9F79E3F510580F00C94F52587
:104BC0000C9440265F3FE4F3983ED4F386957795A6
:104BD0006795B795F795E7959F5FC1F7FE2B880F0F
:104BE000911D9695879597F9089597F99F6780E8A5
:104BF00070E060E008959FEF80EC089500240A942F
:104C00001616170618060906089500240A941216A7
:104C10001306140605060895092E0394000C11F4DA
:104C2000882352F0BB0F40F4BF2B11F460FF04C087
:104C30006F5F7F4F8F4F9F4F089557FD9058440FE0
:104C4000551F59F05F3F71F04795880F97FB991FEB
:104C500061F09F3F79F087950895121613061406A8
:104C6000551FF2CF4695F1DF08C016161706180635
:104C7000991FF1CF86957105610508940895E89410
:104C8000BB2766277727CB0197F908952F923F928C
:104C90004F925F926F927F928F929F92AF92BF924C
:104CA000CF92DF92EF92FF920F931F93CF93DF93F8
:104CB000CDB7DEB7CA1BDB0B0FB6F894DEBF0FBE55
:104CC000CDBF09942A88398848885F846E847D84A2
:104CD0008C849B84AA84B984C884DF80EE80FD80A4
:104CE0000C811B81AA81B981CE0FD11D0FB6F8941A
:104CF000DEBF0FBECDBFED010895EE0FFF1F059083
:104D0000F491E02D09945058BB27AA270E949B26B6
:104D10000C940C260E94FE2538F00E94052620F0F7
:104D200039F49F3F19F426F40C94FB250EF4E0951A
:104D3000E7FB0C94F525E92F0E941D2658F3BA17BE
:104D4000620773078407950720F079F4A6F50C94A1
:104D50003F260EF4E0950B2EBA2FA02D0B01B901C2
:104D600090010C01CA01A0011124FF27591B99F0E1
:104D7000593F50F4503E68F11A16F040A22F232FED
:104D8000342F4427585FF3CF469537952795A7953D
:104D9000F0405395C9F77EF41F16BA0B620B730BE4
:104DA000840BBAF09150A1F0FF0FBB1F661F771F55
:104DB000881FC2F70EC0BA0F621F731F841F48F40A
:104DC000879577956795B795F7959E3F08F0B0CF93
:104DD0009395880F08F09927EE0F9795879508957A
:104DE0000E94FE2560F080E891E009F49EEF0E94A9
:104DF000052628F040E851E071F45EEF0CC00C94F9
:104E0000FB250C943F26E92FE0780E941D2640F3F5
:104E1000092E052AB1F3261737074807590738F036
:104E20000E2E07F8E02569F0E025E0640AC0EF6384
:104E300007F8009407FADB01B9019D01DC01CA0102
:104E4000AD01EF930E9475270E940C260E94332724
:104E50005F91552339F02BED3FE049E450FD49ECDB
:104E60000C9484260895DF93DD27B92FBF7740E89F
:104E70005FE31616170648075B0718F4D92F0E9440
:104E800032289F938F937F936F930E948028EAEC40
:104E9000F0E00E9406280E940C262F913F914F912E
:104EA0005F910E949B25DD2351F09058A2EA2AEDE4
:104EB0003FE049EC5FE3D0785D270E949B26DF91BD
:104EC0000C940C260E94052658F00E94FE2540F006
:104ED00029F45F3F29F00C94F52551110C944026DC
:104EE0000C94FB250E941D2668F39923B1F35523EA
:104EF00091F3951B550BBB27AA27621773078407ED
:104F000038F09F5F5F4F220F331F441FAA1FA9F382
:104F100035D00E2E3AF0E0E832D091505040E69570
:104F2000001CCAF72BD0FE2F29D0660F771F881FD1
:104F3000BB1F261737074807AB07B0E809F0BB0BC4
:104F4000802DBF01FF2793585F4F3AF09E3F5105D8
:104F500078F00C94F5250C9440265F3FE4F3983EDE
:104F6000D4F3869577956795B795F7959F5FC9F7C1
:104F7000880F911D9695879597F90895E1E0660F42
:104F8000771F881FBB1F621773078407BA0720F0BB
:104F9000621B730B840BBA0BEE1F88F7E095089524
:104FA0000E94D7276894B1110C94402608950E945E
:104FB000252688F09F5798F0B92F9927B751B0F060
:104FC000E1F0660F771F881F991F1AF0BA95C9F78D
:104FD00014C0B13091F00E943F26B1E008950C94C6
:104FE0003F26672F782F8827B85F39F0B93FCCF379
:104FF000869577956795B395D9F73EF4909580950A
:10500000709561957F4F8F4F9F4F0895DF93CF939A
:105010001F930F93FF92EF92DF927B018C016894B4
:1050200006C0DA2EEF010E949B25FE01E894A591AF
:105030002591359145915591A6F3EF010E949B264C
:10504000FE019701A801DA9469F7DF90EF90FF90D5
:105050000F911F91CF91DF9108950E94642508F46C
:105060008FEF08959B01AC0160E070E080E89FE362
:105070000C94842819F416F40C94FB250C948828BD
:105080000E942526B8F39923C9F3B6F39F57550B11
:1050900087FF0E9496280024A0E640EA90018058ED
:1050A0005695979528F4805C660F771F881F20F02F
:1050B00026173707480730F4621B730B840B20292F
:1050C00031294A2BA69517940794202531254A2784
:1050D00058F7660F771F881F20F0261737074807F5
:1050E00030F4620B730B840B200D311D411DA09514
:1050F00081F7B901842F9158880F96958795089567
:105100009B01AC010C9488250E9472270C940C26FC
:105110009F3F31F0915020F4879577956795B7952B
:10512000880F911D9695879597F908959150504055
:10513000660F771F881FD2F708950F931F93CF93A1
:10514000DF938230910510F482E090E0E0911A073D
:10515000F0911B0720E030E0A0E0B0E0309719F1BB
:10516000408151810281138148175907C8F0841783
:10517000950769F4109731F012960C9312971396D5
:105180001C9327C000931A0710931B0722C02115F8
:10519000310519F04217530718F49A01BD01EF01C8
:1051A000DF01F801DBCF21153105F9F0281B390BA0
:1051B0002430310580F48A819B816115710521F0CD
:1051C000FB019383828304C090931B0780931A078B
:1051D000FE01329644C0FE01E20FF31F81939193CA
:1051E00022503109398328833AC020911807309121
:1051F0001907232B41F420911801309119013093A4
:1052000019072093180720911601309117012115D5
:10521000310541F42DB73EB740911A0150911B0161
:10522000241B350BE0911807F0911907E217F307DB
:10523000A0F42E1B3F0B2817390778F0AC014E5F06
:105240005F4F2417350748F04E0F5F1F5093190723
:10525000409318078193919302C0E0E0F0E0CF0102
:10526000DF91CF911F910F910895CF93DF93009716
:1052700009F481C0FC01329713821282A0911A07AF
:10528000B0911B07109781F420813181820F931F09
:1052900020911807309119072817390751F5F09315
:1052A0001907E093180767C0ED0120E030E0CE1742
:1052B000DF0740F44A815B819E0141155105F1F001
:1052C000EA01F5CFD383C28340815181840F951FBA
:1052D000C817D90759F488819981840F951F0296C0
:1052E000918380838A819B819383828321153105F9
:1052F00029F4F0931B07E0931A073DC0E901FB83F3
:10530000EA8349915991C40FD51FEC17FD0761F449
:1053100080819181840F951F0296E901998388838A
:10532000828193819B838A83E0E0F0E012968D91E5
:105330009C911397009719F0FD01DC01F7CF8D9137
:105340009C9111979D012E5F3F4F820F931F2091DB
:105350001807309119072817390769F4309729F48D
:1053600010921B0710921A0702C013821282B09388
:105370001907A0931807DF91CF910895A0E0B0E03E
:10538000E4ECF9E20C944A26EC01009721F4CB01FD
:105390000E949D28B4C0FC01E60FF71F9C0122501B
:1053A0003109E217F30708F4A8C0D9010D911C9147
:1053B000119706171707B0F00530110508F49BC0C8
:1053C000C80104978617970708F495C00250110981
:1053D000061B170B019311936D937C93CF010E94D1
:1053E000352989C05B01A01AB10A4C01800E911EBB
:1053F000A0911A07B0911B07612C712CE12CF12CA4
:10540000109709F446C08D919C911197A815B90584
:10541000B1F56C0142E0C40ED11CCA14DB0478F172
:105420004C018A189B08640142E0C40ED11C1296FC
:10543000BC9012971396AC91B5E0CB16D10440F016
:10544000B282A38391828082D9016D937C9309C03B
:105450000E5F1F4F800F911FF90191838083EB2D09
:10546000FA2FE114F10431F0D7011396FC93EE9377
:10547000129741C0F0931B07E0931A073CC06816CF
:10548000790608F43C017D0112960D90BC91A02D87
:10549000B7CF809118079091190788169906E1F403
:1054A00066167706C8F4809116019091170100974F
:1054B00041F48DB79EB740911A0150911B01841B96
:1054C000950BE817F907C8F4F0931907E09318074C
:1054D000F901718360830FC0CB010E949D287C017C
:1054E000009759F0A801BE010E94912ACE010E94A6
:1054F0003529C70104C0CE0102C080E090E0CDB7DD
:10550000DEB7EEE00C946626FB01DC0104C08D9151
:105510000190801921F441505040C8F7881B990B25
:105520000895FB01DC0102C001900D9241505040F2
:10553000D8F70895FB01DC0101900D920020E1F7FE
:105540000895AEE0B0E0E7EAFAE20C9454260D8943
:105550001E8986E08C831A8309838FEF9FE79E83E1
:105560008D83AE01475E5F4F6F89788DCE010196C6
:105570000E94C32AEF81F885E00FF11F10822E965A
:10558000E4E00C947026ABE0B0E0E9ECFAE20C94B5
:1055900046266C017B018A01FC01178216828381F9
:1055A00081FFCCC1CE0101963C01F6019381F70148
:1055B00093FD859193FF81917F01882309F4BAC1FE
:1055C000853239F493FD859193FF81917F01853276
:1055D00029F4B60190E00E94BA2CE7CF912C212C3F
:1055E000312CFFE1F315D8F08B3279F038F48032AA
:1055F00079F08332A1F4232D20611DC08D3261F03A
:10560000803369F4232D216016C0832D8260382EEB
:10561000E32DE4603E2E2AC0F32DF8601DC037FC58
:105620002DC020ED280F2A3040F08E32B9F436FC20
:1056300081C1232D2064322E19C036FE06C08AE0B7
:10564000989E200D1124922E11C0EAE02E9E200D6E
:105650001124222EF32DF0623F2E08C08C3621F447
:10566000832D8068382E02C0883641F4F70193FDFF
:10567000859193FF81917F018111B3CF982F9F7DF9
:105680009554933028F40C5F1F4F9FE399830DC00E
:10569000833631F0833771F0833509F059C021C06A
:1056A000F801808189830E5F1F4F88248394912C99
:1056B000530113C02801F2E04F0E511CF801A080E5
:1056C000B18036FE03C0692D70E002C06FEF7FEF3E
:1056D000C5010E94AF2C4C018201F32DFF773F2EB4
:1056E00016C0280122E0420E511CF801A080B180B2
:1056F00036FE03C0692D70E002C06FEF7FEFC50179
:105700000E94A42C4C01F32DF0683F2E820133FC43
:105710001BC0822D90E088169906B0F4B60180E295
:1057200090E00E94BA2C2A94F4CFF50137FC8591C1
:1057300037FE81915F01B60190E00E94BA2C2110E2
:105740002A9421E0821A91088114910471F7E8C02B
:10575000843611F0893641F5F80137FE07C06081C3
:105760007181828193810C5F1F4F08C060817181BC
:10577000072E000C880B990B0E5F1F4FF32DFF7641
:105780003F2E97FF09C090958095709561957F4F4A
:105790008F4F9F4FF0683F2E2AE030E0A3010E9418
:1057A000F62C882E861845C0853731F4232D2F7EA0
:1057B000B22E2AE030E025C0932D997FB92E8F3686
:1057C000C1F018F4883579F0B5C0803719F0883702
:1057D00021F0B0C0E92FE061BE2EB4FE0DC0FB2D5C
:1057E000F460BF2E09C034FE0AC0292F2660B22EF5
:1057F00006C028E030E005C020E130E002C020E132
:1058000032E0F801B7FE07C0608171818281938127
:105810000C5F1F4F06C06081718180E090E00E5FD9
:105820001F4FA3010E94F62C882E8618FB2DFF77B0
:105830003F2E36FE0DC0232D2E7FA22E891458F444
:1058400034FE0BC032FC09C0832D8E7EA82E05C00D
:10585000B82CA32C03C0B82C01C0B92CA4FE0FC0D7
:10586000FE01E80DF11D8081803321F49A2D997E8F
:10587000A92E09C0A2FE06C0B394B39404C08A2D19
:10588000867809F0B394A3FC11C0A0FE06C0B21440
:1058900088F4280C922C9B180EC0B21460F4B60148
:1058A00080E290E00E94BA2CB394F7CFB21418F4BF
:1058B0002B1802C0982C212CA4FE10C0B60180E346
:1058C00090E00E94BA2CA2FE17C0A1FC03C088E79A
:1058D00090E002C088E590E0B6010CC08A2D867881
:1058E00059F0A1FE02C08BE201C080E2A7FC8DE26C
:1058F000B60190E00E94BA2C891438F4B60180E316
:1059000090E00E94BA2C9A94F7CF8A94F301E80DA4
:10591000F11D8081B60190E00E94BA2C8110F5CF74
:10592000222009F442CEB60180E290E00E94BA2C17
:105930002A94F6CFF6018681978102C08FEF9FEF00
:105940002B96E2E10C946226FC01059061507040B8
:105950000110D8F7809590958E0F9F1F0895FC0138
:105960006150704001900110D8F7809590958E0F8E
:105970009F1F08950F931F93CF93DF93FB01238104
:1059800021FD03C08FEF9FEF2CC022FF16C0468180
:105990005781248135814217530744F4A081B18196
:1059A0009D012F5F3F4F318320838C932681378168
:1059B0002F5F3F4F3783268314C08B01EC01FB011F
:1059C0000084F185E02D0995892BE1F6D801169622
:1059D0008D919C911797019617969C938E9316978D
:1059E000CE01DF91CF911F910F910895FA01AA275F
:1059F000283051F1203181F1E8946F936E7F6E5F12
:105A00007F4F8F4F9F4FAF4FB1E03ED0B4E03CD0BF
:105A1000670F781F891F9A1FA11D680F791F8A1FA2
:105A2000911DA11D6A0F711D811D911DA11D20D009
:105A300009F468943F912AE0269F11243019305DC3
:105A40003193DEF6CF010895462F4770405D4193B4
:105A5000B3E00FD0C9F7F6CF462F4F70405D4A3301
:105A600018F0495D31FD4052419302D0A9F7EACFC9
:105A7000B4E0A6959795879577956795BA95C9F7F8
:105A800000976105710508959B01AC010A2E0694EB
:105A90005795479537952795BA95C9F7620F731FA4
:0C5AA000841F951FA01D0895F894FFCFEF
:105AAC00FFFFFFFF1907190719071907190700E16D
:105ABC0000000000000000001C07200000C18081D5
:105ACC0000000002080204020202010280024002ED
