:100000000C94F9000C9421010C9421010C94210111
:100010000C9421010C9421010C9421010C942101D8
:100020000C9421010C9421010C94A6040C94180545
:100030000C9421010C9421010C9421010C942101B8
:100040000C9421010C9421010C9421010C942101A8
:100050000C9421010C9421010C9421010C94251283
:100060000C9421010C94CB070C94A5070C9421014E
:100070000C9421010C9421010C9421010C94210178
:100080000C9421010C9421010C9421010C94210168
:100090000C949D100C9421010C9421010C942101CD
:1000A0000C9421010C9421010C94210185098809EB
:1000B00077097B097F09A909A909A9098C09900970
:1000C00094099A099E09A909A40933143B144214FE
:1000D000491462147D14AE14080B000202020100E0
:1000E000090400000102020000052400100105249B
:1000F000010101042402060524060001070581030D
:1001000010004009040100020A0000000705020275
:1001100040000007058302400000040309041201A7
:100120000002EF0201404123368000010102030179
:1001300041726475696E6F204C4C43004172647566
:10014000696E6F204C656F6E6172646F0000000015
:1001500000250028002B002E0031000404040404B4
:10016000030405020202020403020202020606065A
:1001700006060604040202020404040802011040F8
:100180008040102040804080080204018040201000
:100190000201108010204040200000000200090FE2
:1001A0000000030401000C0000000000000000003B
:1001B00000000000000000004552524F523A204E0D
:1001C0006F2063616C6C6261636B20617661696C46
:1001D00061626C6520666F72207061636B6574206C
:1001E00049442000736C617665006D61696E0000A2
:1001F000811711241FBECFEFDAE0DEBFCDBF13E0C1
:10020000A0E0B1E0EAE7F3E402C005900D92AA365F
:10021000B107D9F728E0AAE6B3E001C01D92A034E7
:10022000B207E1F710E0C9EFD0E004C02197FE016A
:100230000E94631CC83FD107C9F70E946F120C943B
:10024000BB210C94000040916D0350916E032091EE
:100250006B0330916C0342175307B4F49091E8009C
:100260009570E1F39091E80092FD19C08093F10040
:1002700080916D0390916E0301968F739927892B5E
:1002800019F48EEF8093E80080916D0390916E03D6
:10029000019690936E0380936D0381E0089580E052
:1002A0000895DF92EF92FF920F931F93CF93DF9306
:1002B000D82EF92EE42E062F10E0C8010196880FE3
:1002C0000E94230183E00E942301CD2DDF2D0C0F1E
:1002D0001D1FC017D10789F0E7FE03C0FE018491FE
:1002E00001C088810E942301F82E80E00E94230132
:1002F0008F2121968111EDCF01C081E0DF91CF9157
:100300001F910F91FF90EF90DF900895DF92EF9291
:10031000FF920F931F93CF93DF93D82E8A017B0117
:10032000E40EF51EEB01CE15DF0571F0D7FE03C01C
:10033000FE01849101C088810E94230121968111D0
:10034000F2CF8FEF9FEF01C0C801DF91CF911F91D6
:100350000F91FF90EF90DF900895615030F0209161
:10036000F100FC0120830196F8CF289884E6809361
:1003700071030895CF92DF92EF92FF920F931F9334
:10038000CF93DF936C017A018B01C0E0D0E0CE15F2
:10039000DF0581F0D8016D918D01D601ED91FC91C1
:1003A0000190F081E02DC6010995892B11F021966D
:1003B000EECF7E01C701DF91CF911F910F91FF908A
:1003C000EF90DF90CF900895FC01538D448D252F41
:1003D00030E0842F90E0821B930B541710F0CF96DF
:1003E000089501970895FC01918D828D981761F011
:1003F000828DDF01A80FB11D5D968C91928D9F5F5C
:100400009F73928F90E008958FEF9FEF0895FC0106
:10041000918D828D981731F0828DE80FF11D858DB9
:1004200090E008958FEF9FEF0895FC01918D228D4C
:10043000892F90E0805C9F4F821B91098F739927D1
:10044000089586E594E00E94150221E0892B09F4C5
:1004500020E0822F0895FC01848DDF01A80FB11DDB
:10046000A35ABF4F2C91848D90E001968F739927EA
:10047000848FA689B7892C93A089B1898C918274C5
:100480008C93938D848D981306C00288F389E02D98
:1004900080818F7D80830895EF92FF920F931F9349
:1004A000CF93DF93EC0181E0888F9B8D8C8D981327
:1004B00005C0E889F989808185FD26C0F62E0B8D5F
:1004C00010E00F5F1F4F0F731127E02E8C8DE81285
:1004D0000CC00FB607FCFACFE889F989808185FF47
:1004E000F5CFCE010E942B02F1CF8B8DFE01E80FDC
:1004F000F11DE35AFF4FF0829FB7F8940B8FEA8902
:10050000FB898081806209C09FB7F894EE89FF89DA
:100510006083E889F9898081827480839FBF81E04C
:1005200090E0DF91CF911F910F91FF90EF90089590
:10053000CF93DF93EC01888D8823C9F0EA89FB898A
:10054000808185FD05C0A889B9898C9186FD0FC081
:100550000FB607FCF5CF808185FFF2CFA889B98956
:100560008C9185FFEDCFCE010E942B02E7CFDF916A
:10057000CF91089580E090E0892B29F00E9421021C
:1005800081110C9400000895CF93DF931F92CDB793
:10059000DEB76983DC01ED91FC910280F381E02DEF
:1005A00041E050E0BE016F5F7F4F09950F90DF91F2
:1005B000CF91089583E08093E9008091F200882331
:1005C00019F08AE38093E8000895FC0184859585FD
:1005D00097FD0BC09FB7F89482E08093E90080916B
:1005E000F2009FBF90E0019608959FB7F89482E0D3
:1005F0008093E9008091F2009FBF90E008950895F4
:1006000080E090E008950F931F93CF93DF931F92A4
:10061000CDB7DEB782E0898342E450E068ED70E058
:1006200080E80E9486010E94CB11DC0112960D9198
:100630001C9113970115110589F0D801ED91FC91DA
:100640000280F381E02DBE016F5F7F4FC8010995E5
:1006500097FD04C0F80100851185ECCF89810F90CA
:10066000DF91CF911F910F9108958F929F92AF923A
:10067000BF92CF92DF92EF92FF920F931F93CF938F
:10068000DF936C017B018A0180910B01882309F4BF
:100690005CC080917203882309F457C08091E40301
:1006A00080FF05C08091E00082608093E000E80157
:1006B000B12C8AEFA82E93E0892E2AE3922E209760
:1006C00011F4BB20D9F10E94860F81110AC0AA94AF
:1006D000AA20D9F161E070E080E090E00E94DF1193
:1006E000EECF282F30E0C217D3070CF48C2F9FB722
:1006F000F8948092E9002091E80025FF1DC0282F82
:1007000030E0C21BD30BF701815020F041914093A0
:10071000F100FACFE20EF31EBB2019F09092E80030
:100720000AC08091E80085FD07C09092E800BB24D4
:10073000B394209709F0B12C9FBFC1CF5D9884E698
:10074000809370031016110644F081E090E0F601EA
:100750009383828380E090E001C0C801DF91CF9154
:100760001F910F91FF90EF90DF90CF90BF90AF90CF
:100770009F908F9008950E94860F90E008950F93A8
:100780001F93CF93DF931F92CDB7DEB78C01FC018F
:100790008485958597FF0EC0CE0101960E940F0FAC
:1007A000019719F4898190E002C08FEF9FEFF80163
:1007B00095878487F801848595850F90DF91CF9187
:1007C0001F910F910895CF93DF931F92CDB7DEB79E
:1007D000FC018485958597FD05C02FEF3FEF358798
:1007E00024870BC0CE0101960E940F0F019719F4C8
:1007F000898190E002C08FEF9FEF0F90DF91CF9142
:1008000008950F931F93CF93DF93EC018881998113
:10081000009729F02A813B812617370788F48B013E
:100820006F5F7F4F0E94321E009761F0998388832B
:100830001B830A832C813D81232B11F4FC01108240
:1008400081E001C080E0DF91CF911F910F91089569
:10085000EF92FF920F931F93CF93DF936115710572
:1008600011F480E01CC041155105C1F07B01EC0181
:100870008C819D818A01080F191FB801CE010E9449
:100880000104882371F3288139818C819D81B7010E
:10089000820F931F0E94011F1D830C8381E0DF9153
:1008A000CF911F910F91FF90EF900895CF93DF9319
:1008B000EC0188819981009711F00E94A91D19828D
:1008C00018821D821C821B821A82DF91CF910895AB
:1008D000EF92FF920F931F93CF93DF93FC0111824E
:1008E000108213821282158214828617970739F1BB
:1008F000DB010D911C9111970115110501F1EC011E
:100900001496ED90FC901597B7010E940104811197
:1009100009C0CE01DF91CF911F910F91FF90EF9011
:100920000C945604FD82EC82B80188819981DF9194
:10093000CF911F910F91FF90EF900C94011FDF91C9
:10094000CF911F910F91FF90EF9008951F920F92FA
:100950000FB60F9211248F939F938091E100909195
:10096000E100937F9093E10083FF0FC01092E900B4
:1009700091E09093EB001092EC0092E39093ED00E5
:100980001092720398E09093F00082FF20C093E0F1
:100990009093E9009091F200992319F09AE39093D3
:1009A000E80090917003992339F090917003915071
:1009B00090937003992389F190917103992339F0F1
:1009C00090917103915090937103992341F184FFA9
:1009D00010C08091E2008E7E81608093E200809161
:1009E000E1008F7E8093E1008091E4038E7E806140
:1009F00011C080FF16C08091E2008E7E80618093DE
:100A0000E2008091E1008E7E8093E1008091E4031A
:100A10008E7E81608093E40304C05D9ACDCF289AD6
:100A2000D6CF9F918F910F900FBE0F901F9018956A
:100A30001F920F920FB60F921124CF92DF92EF9276
:100A4000FF920F931F932F933F934F935F936F9357
:100A50007F938F939F93AF93BF93EF93FF93CF9326
:100A6000DF93CDB7DEB76C97DEBFCDBF1092E90044
:100A70008091E80083FFFBC168E0CE0145960E94AB
:100A8000AD0182EF8093E8008D8987FF05C09091CA
:100A9000E80090FFFCCF03C09EEF9093E800982FF2
:100AA000907609F0C6C09E894F89588D2F89F88CA1
:100AB00091110CC0803829F48091E5038093F100F6
:100AC00002C01092F1001092F10045C1913051F432
:100AD000811141C14130510509F03DC18091E503CB
:100AE0008D7F0BC0933061F4811135C141305105C8
:100AF00009F031C18091E50382608093E5032BC149
:100B0000953049F48091E80080FFFCCF822F806807
:100B10008093E30020C1963009F05EC00B8D1C8DE0
:100B200022E01092E90010926E0310926D03F2120F
:100B300032C010926C0310926B030E94030399E081
:100B4000BE016F5F7F4FDB01E92F1D92EA95E9F748
:100B50009983FA8291E09E8390EA98879AEF998729
:100B600020916D0330916E03275F3F4F3C832B83B1
:100B70008D831092E90010926E0310926D03109312
:100B80006C0300936B0349E050E080E00E94860113
:100B90000E940303E0C010936C0300936B030E9458
:100BA000CB11DC0112960D911C91139701151105C3
:100BB00009F4BBC0D801ED91FC910480F581E02DD2
:100BC000BE016B5E7F4FC8010995009709F0C7C051
:100BD000F80100851185EACF973009F445C19830B6
:100BE00021F481E08093F100B6C0993009F0B3C0E0
:100BF000837009F039C1E3E1F1E081E031E096E38F
:100C00002081211109C08EE78093EA001092EA004A
:100C10008F89809372039FC08093E9003093EB002B
:100C200021912093EC009093ED008F5F873041F786
:100C3000EACF8B8D9C8D1092E90010926E0310927A
:100C40006D0390936C0380936B03898D811153C066
:100C50008E899D89913A49F4813209F005C147E0B6
:100C600050E064E071E080E0BBC0913209F0FCC06C
:100C7000833269F48F89988DA0E0B0E08093000101
:100C800090930101A0930201B093030164C08032EC
:100C900069F48091E80082FFFCCF67E084E091E096
:100CA0000E94AD018BEF8093E80055C0823209F0BD
:100CB00052C08F8980930B01EEEFFFE785919491ED
:100CC0008B3F9C4D19F0E0E0F8E002C0EEEFFAE057
:100CD0008091040190910501A0910601B091070156
:100CE000803B9440A105B10509F09EC080910B01A5
:100CF00080FF79C099C00E94CB11FC010281138151
:100D00000115110509F4B0C0D801ED91FC910190D5
:100D1000F081E02DBE016B5E7F4FC8010995811106
:100D20001AC0F80100851185EBCFF1E0FF1609F438
:100D30004EC0F3E0FF1298C08F89882309F44AC09F
:100D4000823089F440E860E18CE391E00E94510137
:100D5000882309F489C08EEF8093E80088C01816B4
:100D60001906CCF381C0813029F440E86BE080E3C0
:100D700091E0ECCF833009F077C00E94CB11DC0109
:100D80001296ED90FC9013978E010F5F1F4F680134
:100D9000E114F10479F0D701ED91FC910680F7811F
:100DA000E02DB801C7010995080F111DF701E08476
:100DB000F184EECFD8011C92F60101900020E9F7F2
:100DC0003197BF016C197D0940E0C601BFCF6EE1CC
:100DD00071E002C06AE171E0FB01449150E080E8FB
:100DE0000E948601B8CFEE3F2AE0F20751F08081E1
:100DF00091818737A7E79A0721F09093FF0A8093A4
:100E0000FE0A87E797E79183808380916000809353
:100E10006F039BE088E10FB6F894A895809360007B
:100E20000FBE9093600097CF80819181873797475D
:100E300009F091CFA895809160008861809360004F
:100E400080916F0380936000EE3FBAE0FB0739F0BA
:100E50008091FE0A9091FF0A918380837CCF10924B
:100E6000FF0A1092FE0A77CF81E28093EB006C9626
:100E70000FB6F894DEBF0FBECDBFDF91CF91FF91CB
:100E8000EF91BF91AF919F918F917F916F915F9102
:100E90004F913F912F911F910F91FF90EF90DF9015
:100EA000CF900F900FBE0F901F901895EF92FF926A
:100EB0000F931F93CF93DF938C017B01C0E0D0E0B1
:100EC000F701EC0FFD1F6491662361F0D801ED91ED
:100ED000FC910190F081E02DC8010995892B11F05A
:100EE0002196EECFCE01DF91CF911F910F91FF9010
:100EF000EF9008956115710579F0FB0101900020D4
:100F0000E9F73197AF01461B570BDC01ED91FC91DE
:100F10000280F381E02D099480E090E0089565E976
:100F200071E00C947A070F931F93CF93DF93EC013A
:100F30000E947A078C01CE010E948F07800F911FBB
:100F4000DF91CF911F910F9108951F920F920FB6CD
:100F50000F9211242F933F934F935F936F937F933F
:100F60008F939F93AF93BF93EF93FF9386E594E0A6
:100F70000E942B02FF91EF91BF91AF919F918F91B2
:100F80007F916F915F914F913F912F910F900FBE85
:100F90000F901F9018951F920F920FB60F92112469
:100FA0002F938F939F93EF93FF93E0916604F091BB
:100FB00067048081E0916C04F0916D0482FD12C0A1
:100FC000908180916F048F5F8F73209170048217DE
:100FD00051F0E0916F04F0E0EA5AFB4F958F809357
:100FE0006F0401C08081FF91EF919F918F912F91AC
:100FF0000F900FBE0F901F901895CF93DF9300D0E6
:10100000CDB7DEB75A834983AE014F5F5F4F0E9471
:10101000830B0F900F90DF91CF9108952F923F9205
:101020004F925F926F927F928F929F92AF92BF92F8
:10103000CF92DF92EF92FF920F931F93CF93DF93A4
:1010400000D000D000D0CDB7DEB7982E862E4D83CD
:1010500059010E9419126B017C01312C1E8222243D
:1010600023949D81892F90E09C838B832801612CA0
:10107000712CED813E1608F042C02092C003909280
:10108000E2031092C1031092E303682D8AEF93E00C
:101090000E9449100E94370A2092C0039092E203F6
:1010A0001092C1031092E3036B817C816319710973
:1010B0006132710514F060E270E0613208F060E2C4
:1010C000892D0E94B10A1092780380937703909142
:1010D000770380917803981709F443C0011511052F
:1010E00069F10E941912DC01CB018C199D09AE092E
:1010F000BF0984159505A605B70500F132C0011595
:101100001105A9F10E941912DC01CB018C199D096E
:10111000AE09BF0920E030E080179107A207B307AE
:1011200030F1FD812F2F30E04E81842F440F990B39
:1011300082179307E4F48FEF8E8319C0F5012E8197
:10114000E20FF11D27FDFA95FA83E9838AEF93E018
:101150000E940010E981FA818083FE81FF5FFE8397
:10116000B6CF8D81813208F080E2380E82CF8E8139
:1011700026960FB6F894DEBF0FBECDBFDF91CF919C
:101180001F910F91FF90EF90DF90CF90BF90AF90A5
:101190009F908F907F906F905F904F903F902F9097
:1011A0000895CF92DF92EF92FF920F931F93CF9308
:1011B000DF9300D0CDB7DEB7F82EE62ED42EC22EA8
:1011C00008EE13E09E012E5F3F4F41E00E940E08A3
:1011D0009A8121E030E001C0220FDA94EAF7CC20B6
:1011E00019F0892F822B03C0822F809589238A834F
:1011F0008983AE014F5F5F4F6E2D8F2D0E94930A42
:101200000F900F90DF91CF911F910F91FF90EF9072
:10121000DF90CF900895BF92CF92DF92EF92FF922E
:101220000F931F93CF93DF9300D0CDB7DEB7F82E87
:10123000E62EC42EB22ED02E08EE13E09E012E5FB5
:101240003F4F41E00E940E08882341F14C2D50E0B1
:101250004B1951094F5F5F4F81E090E002C0880F4A
:10126000991FBA94E2F70197042E01C0880F0A94DF
:10127000EAF72D2D01C0220F4A95EAF7382F309555
:101280009A8193238223892B8A838983AE014F5FBE
:101290005F4F6E2D8F2D0E94930A01C080E00F904A
:1012A0000F90DF91CF911F910F91FF90EF90DF9002
:1012B000CF90BF90089590E0FC01E756FE4F449117
:1012C000FC01E658FE4F2491FC01E55AFE4F849143
:1012D000882309F44CC04423E1F150E0FA0131972E
:1012E000EF30F105B0F5EA5AFF4F0C94631C909172
:1012F00080009F7707C0909180009F7D03C09091F0
:101300008000977F9093800024C094B59F7702C09F
:1013100094B59F7D94BD1DC0909190009F7707C0AC
:10132000909190009F7D03C090919000977F909343
:1013300090000FC09091C0009F7703C09091C000B3
:101340009F7D9093C00005C09091C200977F9093BD
:10135000C200E82FF0E0EE0FFF1FE35BFE4FA59108
:10136000B4918FB7F894EC91E22BEC938FBF089572
:101370000F931F93CF93DF931F92CDB7DEB708EE85
:1013800013E09E012F5F3F4F41E065E780914805E4
:101390000E940E08882339F089818E7790E0959518
:1013A000879580934905809149050F90DF91CF91F2
:1013B0001F910F910895FC01808191810C94A91DCA
:1013C000FB0144815581608171810C942804CF9286
:1013D000DF92EF92FF920F931F93CF93DF93CDB7DE
:1013E000DEB762970FB6F894DEBF0FBECDBF8C019B
:1013F000CB01F801118210821382128215821482AD
:101400004AE09E012F5F3F4F6901B9010E94B11A66
:10141000F60101900020E9F731977F01EC18FD08F3
:10142000B701C8010E940104811104C0C8010E94D3
:10143000560408C0F801F582E482B60180819181EA
:101440000E94011F62960FB6F894DEBF0FBECDBF9B
:10145000DF91CF911F910F91FF90EF90DF90CF9090
:10146000089541E050E068E971E00C94280430915F
:10147000E303313208F04BC08091BF038111FCCFF0
:101480009091E20322E02093BF0321E02093BE036A
:101490002FEF2093BD031092BC033093BB03E2EC0B
:1014A000F3E0ABE9B3E020E0321721F041914D9336
:1014B0002F5FFACF10929A0320919A03990F922BE3
:1014C00090939A0390919903913061F4109299034B
:1014D00090919A039093BB009091BC0093FDF8CF3C
:1014E00095EC01C095EE9093BC009091BF039230B3
:1014F000E1F39091BD039F3F79F08091BD0380326D
:1015000041F08091BD03803331F084E005C081E07B
:1015100003C082E001C083E01092C1031092E30394
:101520001092C0030895CF93DF93EA0191E0909366
:10153000C0038093E2031092C1031092E3038AEF89
:1015400093E00E94491068818AEF93E00E9449105D
:101550000E94370A91E0811190E0892FDF91CF91AD
:1015600008959091BF039111FCCF91E09093BF0338
:101570009093BE032FEF2093BD031092BC03260F60
:101580002093BB0390939A0390919A03880F892B21
:1015900080939A0380919903813061F410929903AA
:1015A00080919A038093BB008091BC0083FDF8CFAB
:1015B00085EC01C085EE8093BC008091BF03813033
:1015C000E1F38091BC03861710F46091BC03ABE992
:1015D000B3E0E9E7F3E080E0861721F09D91919375
:1015E0008F5FFACF08954F925F926F927F928F92A2
:1015F0009F92AF92BF92DF92EF92FF920F931F9351
:10160000CF93DF93182FD62E7A01E9010E94191289
:101610004B015C0101E00093C0031093E2031092C0
:10162000C1031092E3036D2D8AEF93E00E944910ED
:101630000E94370A0093C0031092C1031092E30383
:1016400062E0812F0E94B10A1092780380937703A1
:1016500010E02E01612C712CDD24D394909177033E
:1016600080917803981739F1111125C02097B1F4B2
:101670008AEF93E0002331F00E940010F7011082FE
:1016800081830AC00E940010F70120813181822BE2
:10169000932B9183808311E00D25E0CF0E941912D6
:1016A000DC01CB0188199909AA09BB0984159505A4
:1016B000A605B705E8F20E94370A209799F00E9424
:1016C0001912AB01BC01481959096A097B09CE01FD
:1016D000A0E0B0E0481759076A077B0718F011111E
:1016E00001C01FEF812FDF91CF911F910F91FF90CC
:1016F000EF90DF90BF90AF909F908F907F906F9012
:101700005F904F900895CF93DF93EA0191E090931B
:10171000C0038093E2031092C1031092E3038AEFA7
:1017200093E00E94491069818AEF93E00E9449107A
:1017300068818AEF93E00E9449100E94370A91E085
:10174000811190E0892FDF91CF9108952F923F92E0
:101750004F925F926F927F928F929F92AF92BF92C1
:10176000CF92DF92EF92FF920F931F93CF93DF936D
:10177000CDB7DEB7AF970FB6F894DEBF0FBECDBFC3
:10178000898F4CA35DA36EA37FA308A719A72AA7DF
:101790003BA78B3309F062C20E94B809883308F472
:1017A0005FC217E703E06EE386E094E00E94C402A4
:1017B000CE010D969E8B8D8BDE0111967D015C0115
:1017C000912E28EE33E0AE014D5E5F4F692D809182
:1017D00048050E94F30ACB88DC88B6010D2C000C6A
:1017E000880B990B0E94ED1A133191F0F1E0CF2292
:1017F000DD24D501CD92DC9220E030E040E051E4E0
:101800000E944C1BF70160837183828393830CC019
:1018100020E030E040E850E40E944C1BD7016D937B
:101820007D938D939C931397900EB2E0AB0EB11CF9
:10183000E4E0EE0EF11C8D899E89E816F90609F6A2
:10184000998D9B3329F48DEC9CECACE4BDE304C092
:1018500080E090E0A0E8BFE38CA79DA7AEA7BFA75C
:10186000A6E0B0E0BBA3AAA31D8E1C8E212C312CB8
:10187000FE013196FB8FEA8FCE010D9698A38F8FD4
:101880001E8F998D99A3412C512C3201188E1F8ADD
:1018900028EE33E0AE014D5E5F4F69A180914805AF
:1018A0000E94F30A6B897C89072E000C880B990B28
:1018B0000E94ED1A6B017C01A98DAB3361F4EF89B5
:1018C000F88D329741F420E030E040E856E40E9481
:1018D000691C6B017C0146015701B7FAB094B7F857
:1018E000B094C301B2010E94EB1A2B013C0120E02D
:1018F00030E0A901C701B6010E940C1D18162CF09A
:10190000782D692D9A2D8B2D04C07C2D6D2D9E2D4B
:101910008F2D272F362F492F582FC301B2010E9438
:101920006A1C0E94DD1C2B013C012CA13DA14EA193
:101930005FA1C501B4010E944C1B6B017C012FE625
:1019400032E143E85AE3C501B4010E944C1B28A5CB
:1019500039A54AA55BA50E944C1BAA8DBB8D2D9174
:101960003D914D915C910E946A1C9B01AC01EA8DF6
:10197000FB8D6193719381939193FB8FEA8FC701E4
:10198000B601133141F10E946A1C20E030E040E0D2
:101990005EE30E944C1B6B017C0120E030E0A9015A
:1019A0000E940C1D20E030E040E05FE387FD05C0B1
:1019B000C701B6010E946A1C04C0C701B6010E949B
:1019C000691C0E94D61C6E7FAF8DB8A18D919C9131
:1019D000682B792B20C00E946A1C20E030E040E890
:1019E0005EE30E944C1B6B017C0120E030E0A9010A
:1019F0000E940C1D20E030E040E05FE387FD05C061
:101A0000C701B6010E946A1C04C0C701B6010E944A
:101A1000691C0E94D61C7C8B6B8BAE014D5E5F4FA8
:101A20006E8D809148050E94830BEF89F88D319669
:101A3000F88FEF8BF9A1FE5FF9A32E8D200F2E8F6B
:101A40008F8D98A1029698A38F8FAF89B88D139729
:101A500009F01ECFB3E62B16310471F4E9EE4E16F1
:101A6000E3E05E066104710438F06AE286E094E027
:101A70000E94C402212C312CC301B2010E94EB1A36
:101A80002CA53DA54EA55FA50E944C1B20E030E093
:101A900040EA50E40E94E61A87FF05C08C8D9D8DB8
:101AA00001969D8F8C8F94E6491651046104710450
:101AB00088F5ABE02A1631046CF1EC8DFD8D3A9778
:101AC0004CF16EE286E094E00E94C40220E030E037
:101AD00040E45FE36CA17DA18EA19FA10E944C1BFD
:101AE0006CA37DA38EA39FA320E030E040E45FE3DE
:101AF00068A579A58AA59BA50E944C1B68A779A714
:101B00008AA79BA7CE0101967C01DE011D966D017F
:101B1000B12E49C061E070E080E090E00E94DF11EA
:101B2000BFEF2B1A3B0AE4E62E16310409F0A0CED3
:101B3000C8CF20E030E040E05EE3D7016D917D91B9
:101B40008D919C910E944C1B2B013C0120E030E0C8
:101B5000A9010E940C1D20E030E040E05FE387FD1A
:101B600025C0C301B2010E946A1C0E94D61C6E7F70
:101B7000F60180819181682B792B7C8B6B8BAE0178
:101B80004D5E5F4F6B2D809148050E94830BB00E18
:101B9000B2E0CB0ED11CE4E0EE0EF11C8D899E89E3
:101BA0008E159F0561F1133121F605C0C301B20105
:101BB0000E94691CDACF20E030E040E85EE3D70104
:101BC0006D917D918D919C910E944C1B2B013C014C
:101BD00020E030E0A9010E940C1D20E030E040E050
:101BE0005FE387FD05C0C301B2010E946A1C04C007
:101BF000C301B2010E94691C0E94D61CBECFAAA1DB
:101C0000BBA11197BBA3AAA3AB2B09F02DCE21E05A
:101C100042E06AE6809148050E94D10821E043E055
:101C20006AE6809148050E94D108AF960FB6F894F5
:101C3000DEBF0FBECDBFDF91CF911F910F91FF90FF
:101C4000EF90DF90CF90BF90AF909F908F907F905C
:101C50006F905F904F903F902F90089513E101C0D7
:101C600016E002E0A0CD6F927F928F929F92AF928A
:101C7000BF92CF92DF92EF92FF920F931F93CF9379
:101C8000DF934C015B016A01E9013801109278038E
:101C9000109277031092C1031092E3031092BF03D6
:101CA00081E08093BE031092990382E00E945B0959
:101CB00083E00E945B098091B9008E7F8093B90018
:101CC0008091B9008D7F8093B90088E48093B8003B
:101CD00085E48093BC008EEE9FE090937603809322
:101CE00075038FEE9FE090937403809373038FEFDF
:101CF0009FEF909313048093120462ED71E086E0ED
:101D000094E00E94930701E023E042E06BE68091BB
:101D100048050E940B0900E022E044E06BE180915D
:101D200048050E940B0922E044E06CE180914805DF
:101D30000E940B0920E046E06BE6809148050E9476
:101D4000D1086EEE71E086E094E00E9493070E9455
:101D5000B809843319F068EB71E002C06AE971E0F8
:101D600086E094E00E9493070E94B809883310F03F
:101D700067E701C066E0A401809148050E94FD0765
:101D80000E94B809883310F06AE701C068E0A50135
:101D9000809148050E94FD070E94B809883310F021
:101DA0006DE701C06AE0A601809148050E94FD0729
:101DB000AE0163E1809148050E94FD07A30165E142
:101DC000809148050E94FD07A70167E180914805C1
:101DD0000E94FD0700E010E028EA31E44EEA57E4F3
:101DE00061EA7EE38BE30E94A60B0FEF1FEF2CEB63
:101DF00032E44EEA57E461EA7EE383E40E94A60BF4
:101E0000DF91CF911F910F91FF90EF90DF90CF90D6
:101E1000BF90AF909F908F907F906F90089520918A
:101E20007203211103C08FEF9FEF08955FB7F894FD
:101E300022E02093E9002091F20030E01216130610
:101E400014F421E030E0422FFC0184E6415038F0E8
:101E50002898809371039091F1009193F7CF211509
:101E6000310521F08091F200882319F05FBFC9018C
:101E700008958BE68093E800F9CF8F929F92AF92FE
:101E8000BF92EF92FF920F931F93CF93DF93CDB743
:101E9000DEB7A1970FB6F894DEBF0FBECDBF7C01B1
:101EA000FA01CB0119A2223008F42AE08E010F5D5D
:101EB0001F4F822E912CA12CB12CBF01A5019401A2
:101EC0000E94411CF901CA01015011096A3014F441
:101ED000605D01C0695CD8016C93232B242B252BFA
:101EE00061F7B801C7010E947A07A1960FB6F8946E
:101EF000DEBF0FBECDBFDF91CF911F910F91FF903D
:101F0000EF90BF90AF909F908F9008952FB7F89467
:101F100083E08093E9009091E800892F807295FF1B
:101F200004C09091F20080E4891B2FBF0895AC019A
:101F300090E02FE5FA01E90FF11D8081882319F067
:101F400020839F5FF7CF08958331A0F4E82FF0E05E
:101F5000EE0FFF1FE95CFE4FA081B181109751F099
:101F6000EC91F0E0ED50FB4F908111968C9198230D
:101F700081E009F480E0089585ED8093BC008091B4
:101F8000BC0084FDFCCF1092BF0308954091190856
:101F9000262F30E0240F311D21323105DCF4209151
:101FA000BF032430C9F4FC0180E090E0861758F4A8
:101FB000309119082191DC01A750B84FA30FB11D32
:101FC0002C930196F3CF80911908680F609319083C
:101FD00080E0089581E0089582E0089508950895CD
:101FE0000895E091780380917703E81730F4F0E0EA
:101FF000E758FC4F808190E008958FEF9FEF0895A0
:102000009091780380917703981750F4E92FF0E0CE
:10201000E758FC4F208130E09F5F9093780302C027
:102020002FEF3FEFC90108958091770390E0209151
:102030007803821B91090895CF92DF92EF92FF926D
:102040000F931F93CF93DF937C01CB018A012091E3
:10205000C003222389F0EB016B01C40ED51ECC1501
:10206000DD0569F06991D701ED91FC910190F08156
:10207000E02DC7010995F3CF642F0E94C60FC80158
:10208000DF91CF911F910F91FF90EF90DF90CF9054
:102090000895CF93DF931F92CDB7DEB76983209168
:1020A000C0032223D1F02091E303203240F021E04D
:1020B00030E0FC013383228380E090E015C0809102
:1020C000C103E82FF0E0EE53FC4F998190838F5FBE
:1020D0008093C1038093E30305C061E0CE010196C4
:1020E0000E94C60F81E090E00F90DF91CF9108959C
:1020F0003FB7F8948091E9079091EA07A091EB0728
:10210000B091EC0726B5A89B05C02F3F19F00196AA
:10211000A11DB11D3FBFBA2FA92F982F8827820F6D
:10212000911DA11DB11DBC01CD0142E0660F771FBD
:10213000881F991F4A95D1F708951F920F920FB6E5
:102140000F9211242F933F934F935F936F937F933D
:102150008F939F93AF93BF93EF93FF938091B900B9
:10216000887F803609F49CC068F5883209F45BC02A
:1021700090F4803109F454C038F4882309F4F6C08F
:10218000883009F44DC0F6C0883109F44CC0803263
:1021900009F45DC0EFC0803409F468C048F48033AE
:1021A00009F455C0883309F0E5C08093BD03D8C059
:1021B000803509F44FC0883509F45DC0883409F0D2
:1021C000D9C0D6C0883909F4C7C0A8F4883709F443
:1021D00067C038F4883609F463C0803709F460C0FA
:1021E000C9C0883809F4B8C0803909F45FC08038A4
:1021F00009F0C0C05BC0803B09F486C038F4803A67
:1022000009F466C0883A09F47FC0B4C0803C09F480
:10221000A7C0883C09F4A4C0883B09F48AC0AAC0BE
:1022200080919A0310C09091BC038091BB039817D2
:1022300070F5E091BC0381E08E0F8093BC03F0E069
:10224000E556FC4F80818093BB0085EC86C080936F
:10225000BD038EC0E091BC0381E08E0F8093BC0370
:102260008091BB00F0E0E556FC4F80839091BC0369
:102270008091BB036EC0E091BC0381E08E0F809320
:10228000BC038091BB00F0E0E556FC4F8083809159
:10229000BE0381116DC081E08093990384EA61C01F
:1022A00083E08093BF0310923B08CFCF80913B081F
:1022B000803208F051C0E0913B0881E08E0F80939E
:1022C0003B088091BB00F0E0E55EF74F8083BDCF17
:1022D00085EC8093BC001092BF0380913B08803254
:1022E00030F4E0913B08F0E0E55EF74F108260913A
:1022F0003B0870E0E0917303F09174038BE198E088
:10230000099510923B0836C084E08093BF03109279
:102310001A0810921908E0917503F0917603099557
:1023200080911908811105C081E0809319081092ED
:10233000F907E0911A0881E08E0F80931A08F0E007
:10234000E750F84F80818093BB0090911A088091EC
:102350001908981708F479CF85E88093BC000AC063
:1023600085EC8093BC001092BF0304C01092BD03A3
:102370000E94BC0FFF91EF91BF91AF919F918F9100
:102380007F916F915F914F913F912F910F900FBE71
:102390000F901F9018958091F10781110DC082E078
:1023A0008093ED0784E08093EE071092F00710927F
:1023B000EF0781E08093F1078DEE97E008958F920B
:1023C0009F92AF92BF92CF92DF92EF92FF926B01FA
:1023D0007C010E9478104B015C01C114D104E1041E
:1023E000F104F1F00E947810DC01CB018819990901
:1023F000AA09BB09883E9340A105B10570F321E00D
:10240000C21AD108E108F10888EE880E83E0981E10
:10241000A11CB11CC114D104E104F10419F7DDCFF2
:10242000FF90EF90DF90CF90BF90AF909F908F90F4
:1024300008952FB7F8946091E5077091E6078091B1
:10244000E7079091E8072FBF08951F920F920FB6EC
:102450000F9211242F933F938F939F93AF93BF932A
:102460008091E5079091E607A091E707B091E80712
:102470003091E40723E0230F2D3720F40196A11DAE
:10248000B11D05C026E8230F0296A11DB11D2093A2
:10249000E4078093E5079093E607A093E707B093DE
:1024A000E8078091E9079091EA07A091EB07B091C6
:1024B000EC070196A11DB11D8093E9079093EA07EF
:1024C000A093EB07B093EC07BF91AF919F918F91D1
:1024D0003F912F910F900FBE0F901F901895CF93A3
:1024E000DF93CDB7DEB7AA970FB6F894DEBF0FBE65
:1024F000CDBF789484B5826084BD84B5816084BD8D
:1025000085B5826085BD85B5816085BD80916E0091
:10251000816080936E0010928100809181008260C2
:1025200080938100809181008160809381008091FF
:102530008000816080938000809191008260809310
:102540009100809191008160809391008091900032
:102550008160809390008091C10084608093C1006D
:102560008091C10082608093C1008091C100816030
:102570008093C1008091C30081608093C3008091EB
:10258000C00082608093C0008091C200816080930F
:10259000C20080917A00846080937A0080917A00F2
:1025A000826080937A0080917A00816080937A00C3
:1025B00080917A00806880937A0010927203109262
:1025C000E5031092E4038091D70081608093D700E7
:1025D00080EA8093D80089B5806189BD89B5826021
:1025E00089BD09B400FEFDCF61E070E080E090E0BD
:1025F0000E94DF118091D8008F7C80618093D80089
:102600008091E000807F8093E0008091E1008E7EE9
:102610008093E1008DE08093E200559A209A10911A
:102620000B016AE070E080E090E00E94DF1111236E
:10263000B1F38FEF9FEF90931304809312046CE03B
:1026400072E086E094E00E94930764E670E080E028
:1026500090E00E94DF111092ED031092EC0363E111
:1026600072E086E094E00E9493070091ED0301116F
:102670000BC086E094E00E94E30391E0833609F00A
:1026800090E09093ED03F1CF81E08093EC0363E35E
:1026900072E086E094E00E9493071091EC03111120
:1026A00025C086E594E00E941502892BD1F386E5CA
:1026B00094E00E941502892BB1F067E572E086E094
:1026C00094E00E94930786E594E00E94980261E0FE
:1026D00086E594E00E944C0264E670E080E090E0C1
:1026E0000E94DF11102F1093EC03D7CF6CE672E03D
:1026F00086E094E00E9493073DEFE32EFF24FA94D6
:102700000FEC1FEF26E330E04DE956E065EC7EEF7D
:1027100083EE9EEF0E94330E66E772E086E094E05F
:102720000E94930786E490E09093EF038093EE037A
:102730008CE291E09093E7038093E60344E0C42E9B
:10274000D12C53E0A52EB12C62E0862E912C66246C
:102750006394712C08EE13E029E435E04EE06BE35E
:10276000809148050E940E088091490590914A0584
:102770009827892798279093430580934205809155
:102780004B0590914C0598278927982790934505EC
:102790008093440580914D0590914E059827892797
:1027A0009827909347058093460580915105909115
:1027B00052059827892798279093370580933605E7
:1027C00080915305909154059827892798279093D5
:1027D00039058093380580915505909156059827C5
:1027E0008927982790933B0580933A051A8219828E
:1027F0001C821B821E821D828091C0079091C1079E
:10280000DC01ED91FC910084F185E02D0995892B87
:1028100009F450C192E0E92E2EE7F22E8091C00714
:102820009091C107DC01ED91FC910084F185E02DD0
:102830000995892B09F447C18091C0079091C10780
:10284000DC01ED91FC910284F385E02D0995E09186
:10285000B107F091B207E730F10508F0E2C0EB599B
:10286000FF4F0C94631C8E3709F014C17092B207AD
:102870006092B1070FC18093BB079092B20780921C
:10288000B10708C18093BD07B092B207A092B1070B
:1028900001C18F3F39F08093B907D092B207C0923F
:1028A000B107F8C01092AF071092B2071092B107AB
:1028B0008093B0078091B807882309F4AFC063E81C
:1028C00072E0A6C09091BA072091B907921708F05C
:1028D000E1C0E92FF0E0E555F94F80839F5F2917AC
:1028E00019F09093BA07D6C01092BA0785E090E02D
:1028F0009093B2078093B107CDC04091B907609122
:10290000F8037091F903EBEAF6E020E030E090E0A4
:1029100050E02417350748F4A1919A27DB01A90F4D
:10292000B11D9C912F5F3F4FF4CF891307C0A6E0E4
:10293000B0E0B093B207A093B107ACC01092AF075C
:102940001092B2071092B1071092B0078091B807A9
:10295000882309F463C068E972E05AC01092B20794
:102960001092B107813809F048C08091BD078F3FB0
:1029700051F0E82FF0E0E555F94F9081F08299236E
:1029800011F0890FF6CF8091B9078093AF07E092DD
:10299000B007E091B307F091B407309759F18091F7
:1029A000BB079091B507891748F4E80FF11DE80FB0
:1029B000F11D0190F081E02D09951CC08091B807B0
:1029C0008823C1F068EB71E08091B6079091B7075A
:1029D0000E9456070091B6071091B7074091BB07B8
:1029E00050E060E070E02AE0C8010E943D0FC8019D
:1029F0000E948F078091B90753C01092AF07BEEFB6
:102A0000B093B0078091B807882341F069EA72E07B
:102A10008091B6079091B7070E9493078091AF0706
:102A20003FC08091B807882389F160EC72E0809103
:102A3000B6079091B7070E947A072090B1073090AF
:102A4000B2070091B6071091B707032C000C440899
:102A5000550857FE12C0D801ED91FC910190F0810C
:102A6000E02D6DE2C801099544275527BA014219A6
:102A70005309640975092AE003C02AE0B201A101E3
:102A8000C8010E943D0FC8010E948F071092B20733
:102A90001092B1071092AF07B3E0B093B00780E097
:102AA0008093BE078091B0078093BF07833009F4FD
:102AB000B5CE09C01092AF0781E08093B0071092A5
:102AC000BE078093BF078091BE07882309F44FC0DB
:102AD0000EEF10E003551A4F9801FE0131965E2F5C
:102AE0004F2F882799278E1B9F0BBF01680F791FD7
:102AF0006E3F710528F4D9016D919D016193F5CF69
:102B000029813A8130933D0520933C052B813C81FE
:102B100030933F0520933E052D813E813093410542
:102B2000209340051A8219821C821B821E821D82FC
:102B3000E52FF42F9F01280F391F2E3F310528F470
:102B4000D8012D918D012193F5CF89819A819093A0
:102B50003105809330058B819C8190933305809360
:102B600032058D819E8190933505809334050E94B6
:102B700019127093F1036093F0032091F2033091E6
:102B8000F303AB01421B530B2091EE033091EF0393
:102B90002417350708F06AC17093F3036093F203BA
:102BA0006091420570914305CE0185960E94E70928
:102BB000CE0185960E94310A6091440570914505C9
:102BC000CE0101960E94E709BE016F5F7F4FCE01E3
:102BD00085960E94E009CE0101960E94DB09CE0194
:102BE00085960E94310A60914605709147057054A0
:102BF000CE0101960E94E709BE016F5F7F4FCE01B3
:102C000085960E94E009CE0101960E94DB09CE0163
:102C100085960E94310A6091360570913705CE0184
:102C20004F960E94E709CE014F960E94310A6091AB
:102C3000380570913905CE0101960E94E709BE0161
:102C40006F5F7F4FCE014F960E94E009CE01019643
:102C50000E94DB09CE014F960E94310A60913A052D
:102C600070913B05CE0101960E94E709BE016F5F9E
:102C70007F4FCE014F960E94E009CE0101960E943F
:102C8000DB0960913C0570913D05CE0149960E949B
:102C9000E709CE0149960E94310A60913E05709184
:102CA0003F05CE0101960E94E709BE016F5F7F4F8D
:102CB000CE0149960E94E009CE0101960E94DB09EF
:102CC000CE0149960E94310A6091400570914105FC
:102CD0007054CE0101960E94E709BE016F5F7F4FDD
:102CE000CE0149960E94E009CE0101960E94DB09BF
:102CF000CE0149960E94310A6091300570913105EC
:102D0000CE0143960E94E709CE0143960E94310A04
:102D10006091320570913305CE0101960E94E7095A
:102D2000BE016F5F7F4FCE0143960E94E009CE0146
:102D300001960E94DB09CE0143960E94310A609100
:102D4000340570913505CE0101960E94E709BE0158
:102D50006F5F7F4FCE0143960E94E009CE0101963E
:102D60000E94DB09BE016B5D7F4FCE0101960E9480
:102D700068044BA15CA16F8D78A1CE0101960E94E1
:102D80002804811104C0CE0101960E945604BE01A0
:102D90006F5F7F4FCE010D960E946804CE010196B1
:102DA0000E94DB09BE01675E7F4FCE0101960E9443
:102DB00068044F89588D6B897C89CE0101960E94E9
:102DC0002804811104C0CE0101960E945604BE0160
:102DD0006F5F7F4FCE0107960E946804CE01019677
:102DE0000E94DB096AEE71E086E094E00E945607DB
:102DF00086E094E00E948F0749895A896D857E8517
:102E000086E094E00E94350386E094E00E948F07FC
:102E100064EE71E086E094E00E94560786E094E05C
:102E20000E948F074B855C856F81788586E094E0F2
:102E30000E94350386E094E00E948F07CE0107963A
:102E40000E94DB09CE010D960E94DB09CE0143965C
:102E50000E94DB09CE0149960E94DB09CE014F9604
:102E60000E94DB09CE0185960E94DB0986E094E092
:102E70000E94E303823709F041C01092ED031092E3
:102E8000EC0363E172E086E094E00E949307809196
:102E9000ED0381110BC086E094E00E94E30391E012
:102EA000833609F090E09093ED03F1CF6CE672E089
:102EB00086E094E00E94930785EEE82EFF24FA94C2
:102EC0000EEC1FEF25E330E042E856E06AED7EEFBE
:102ED00080E49FEF0E94330E66E772E086E094E0A4
:102EE0000E94930786E490E09093EF038093EE03B3
:102EF0008CE291E09093E7038093E6030E94BA028C
:102F000029CC6F927F928F929F92AF92BF92CF9275
:102F1000DF92EF92FF920F931F93CF93DF93CDB782
:102F2000DEB7AE970FB6F894DEBF0FBECDBFE3EFAE
:102F3000F4E01192B5E0E730FB07D9F710920A05EB
:102F400010920B0580910A0590910B0582E1E5EF47
:102F5000F4E0DF011D928A95E9F781E0809307058F
:102F600080910805882309F43BC168ED72E086E092
:102F700094E00E947A0780915E0390915F03A09194
:102F800060038CA79DA7AEA7809161039091620317
:102F9000A091630389A79AA7ABA785E00E94A40F1D
:102FA0008E01045D1F4F811103C0C8010E94970F5D
:102FB00089E00E94A40F9E01275D3F4F7901811196
:102FC00003C0C9010E94970FFF92EF928091FC0409
:102FD0008F938091FB048F938091FA048F9380915B
:102FE000F9048F931F930F938091F7041F928F938F
:102FF00087EE92E09F938F938E010F5F1F4F1F9379
:103000000F930E94081FB80186E094E00E947A079F
:103010008DE00E94A40F0FB6F894DEBF0FBECDBFA7
:10302000882319F0BCE3FB2E02C0AFE5FA2E8BE03B
:103030000E94A40F882319F0FEE5EF2E02C0EFE5F1
:10304000EE2E8CE00E94A40F882319F076E7D72E8D
:1030500002C06FE5D62E8EE00E94A40F882319F0DF
:103060005EE3C52E02C04FE5C42E81E00E94A40F8E
:10307000882319F031E4932E02C02FE5922E82E0CE
:103080000E94A40F882319F092E4892E02C08FE5D4
:10309000882E83E00E94A40F882319F0B8E57B2EC8
:1030A00002C0AFE57A2E84E00E94A40F882319F0B5
:1030B000F9E56F2E02C0EFE56E2E88E00E94A40FA6
:1030C000882319F07EE3A72E02C06FE5A62E87E0C5
:1030D0000E94A40F882319F05CE3B52E02C04FE5CF
:1030E000B42E80E00E94A40F882311F088E501C06F
:1030F0008FE51F926F921F927F921F928F921F9265
:103100009F921F92AF921F928F931F92BF921F9216
:10311000CF921F92DF921F92EF921F92FF9283E055
:1031200093E09F938F931F930F930E94081FB80102
:1031300086E094E00E947A07809164039091650391
:10314000A09166038EA39FA3A8A780916703909187
:103150006803A09169038BA39CA3ADA386E00E94A2
:10316000A40F0FB6F894DEBF0FBECDBFDE0196965A
:103170006D01811103C0CD010E94970F8AE00E946A
:10318000A40F9E012D5D3F4F7901811103C0C9013C
:103190000E94970F8091F8041F928F93DF92CF9235
:1031A000FF92EF92809100058F938091FF048F939F
:1031B0008091FE048F938091FD048F9382E293E0CF
:1031C0009F938F931F930F930E94081FB80186E06F
:1031D00094E00E9493070FB6F894DEBF0FBECDBFF8
:1031E0001092F30484E18093F40410920905109284
:1031F0000B0510920A0510920D0510920C05109205
:1032000010051092110510921205109213058FEF00
:1032100090E0A0E0B0E08093140590931505A09392
:103220001605B09317051092180510921905109203
:103230001A0510921B0580931C0590931D05A09301
:103240001E05B0931F0540E050E86FEF7FEF4093FD
:1032500020055093210560932205709323058FEF7D
:103260009FE7A0E0B0E08093240590932505A0930C
:103270002605B093270540932805509329056093B0
:103280002A0570932B0580932C0590932D05A09310
:103290002E05B0932F0510920F0510920E0581E0B8
:1032A000809308058BE98093F40388E08093F7030B
:1032B00080E091E09093F6038093F5030E94111D46
:1032C0009093F9038093F80380E090E02091F50358
:1032D0003091F60382179307E0F46091F40370E0F5
:1032E0009C0148E050E0F901EE0FFF1F27FF04C0EA
:1032F0009F012627372701C09F014150510999F7A7
:10330000E091F803F091F903E80FF91F208301968B
:10331000DDCF1092FD031092FC0388EE93E0A0E055
:10332000B0E08093FE039093FF03A0930004B0935A
:10333000010423E631E03093FB032093FA0310925B
:1033400059041092580480935A0490935B04A093FC
:103350005C04B0935D0425E731E03093570420937B
:1033600056042DEC30E030936304209362042CEC7F
:1033700030E0309365042093640428EC30E030930F
:1033800067042093660429EC30E0309369042093AD
:1033900068042AEC30E030936B0420936A042EEC2E
:1033A00030E030936D0420936C0410926F041092FF
:1033B0007004109271041092720410920904109219
:1033C000080480930A0490930B04A0930C04B09318
:1033D0000D0487E891E090930704809306048FEF33
:1033E0009FEF90931304809312041092C8071092D9
:1033F000C9071092D0071092D1071092D8071092E7
:10340000D9071092C2071092C3078EE78093A907CD
:103410001092AA071092AB071092AC071092AD075A
:1034200081E88093AE071092AF071092B007109218
:10343000B2071092B1071092B4071092B30710921E
:10344000B5071092B8071092B9071092BA071092F8
:10345000BB071092BC071092BD071092BE071092D6
:10346000BF0782E08093C8001092CD0083E3809371
:10347000CC0010926E0486E08093CA008091C9004F
:1034800080618093C9008091C90088608093C900E1
:103490008091C90080688093C9008091C9008F7DA8
:1034A0008093C90086E594E09093C1078093C0079C
:1034B00086E094E09093B7078093B60781E080930D
:1034C000B8076EE373E086E094E00E94930788E615
:1034D0008093480510925B051092430510924205B7
:1034E000109245051092440510924705109246052A
:1034F00010923D0510923C0510923F0510923E053A
:103500001092410510924005109237051092360531
:10351000109239051092380510923B0510923A0529
:103520001092310510923005109233051092320539
:103530001092350510923405AE960FB6F894DEBFA2
:103540000FBECDBFDF91CF911F910F91FF90EF90F4
:10355000DF90CF90BF90AF909F908F907F906F90B3
:103560000895BB274A3031F4992322F4BDE29095A7
:1035700081959F4F0C94BD1ABB27FB015527AA27A5
:10358000880F991FAA1FA41710F0A41B83955051F0
:10359000B9F7A05DAA3308F0A95DA193009779F768
:1035A000B111B1931192CB010C94D61ADC01FC013C
:1035B000672F71917723E1F7329704C07C916D9367
:1035C00070836291AE17BF07C8F308950E94281B4D
:1035D00008F481E00895E89409C097FB3EF49095C3
:1035E0008095709561957F4F8F4F9F4F9923A9F0DC
:1035F000F92F96E9BB279395F6958795779567956B
:10360000B795F111F8CFFAF4BB0F11F460FF1BC0AE
:103610006F5F7F4F8F4F9F4F16C0882311F096E941
:1036200011C0772321F09EE8872F762F05C06623EF
:1036300071F096E8862F70E060E02AF09A95660FA8
:10364000771F881FDAF7880F9695879597F9089561
:10365000990F0008550FAA0BE0E8FEEF16161706A3
:10366000E807F907C0F012161306E407F50798F00B
:10367000621B730B840B950B39F40A2661F0232B24
:10368000242B252B21F408950A2609F4A140A695A0
:103690008FEF811D811D08950E945F1B0C94D01B2C
:1036A0000E94C21B38F00E94C91B20F0952311F024
:1036B0000C94B91B0C94BF1B11240C94041C0E9485
:1036C000E11B70F3959FC1F3950F50E0551F629F6A
:1036D000F001729FBB27F00DB11D639FAA27F00D6B
:1036E000B11DAA1F649F6627B00DA11D661F829F92
:1036F0002227B00DA11D621F739FB00DA11D621F77
:10370000839FA00D611D221F749F3327A00D611D93
:10371000231F849F600D211D822F762F6A2F112475
:103720009F5750409AF0F1F088234AF0EE0FFF1FA8
:10373000BB1F661F771F881F91505040A9F79E3FFF
:10374000510580F00C94B91B0C94041C5F3FE4F30A
:10375000983ED4F3869577956795B795F795E79555
:103760009F5FC1F7FE2B880F911D9695879597F95E
:10377000089597F99F6780E870E060E008959FEFF3
:1037800080EC089500240A941616170618060906F8
:10379000089500240A9412161306140605060895C7
:1037A000092E0394000C11F4882352F0BB0F40F44F
:1037B000BF2B11F460FF04C06F5F7F4F8F4F9F4F8F
:1037C000089557FD9058440F551F59F05F3F71F011
:1037D0004795880F97FB991F61F09F3F79F0879578
:1037E0000895121613061406551FF2CF4695F1DF01
:1037F00008C0161617061806991FF1CF8695710591
:10380000610508940895E894BB2766277727CB01C4
:1038100097F908952F923F924F925F926F927F9205
:103820008F929F92AF92BF92CF92DF92EF92FF92D0
:103830000F931F93CF93DF93CDB7DEB7CA1BDB0B7C
:103840000FB6F894DEBF0FBECDBF09942A88398821
:1038500048885F846E847D848C849B84AA84B98428
:10386000C884DF80EE80FD800C811B81AA81B98134
:10387000CE0FD11D0FB6F894DEBF0FBECDBFED0148
:103880000895A1E21A2EAA1BBB1BFD010DC0AA1FA1
:10389000BB1FEE1FFF1FA217B307E407F50720F0B9
:1038A000A21BB30BE40BF50B661F771F881F991F34
:1038B0001A9469F760957095809590959B01AC017D
:1038C000BD01CF010895EE0FFF1F0590F491E02D8B
:1038D00009945058BB27AA270E94811C0C94D01B26
:1038E0000E94C21B38F00E94C91B20F039F49F3F90
:1038F00019F426F40C94BF1B0EF4E095E7FB0C942E
:10390000B91BE92F0E94E11B58F3BA17620773072E
:103910008407950720F079F4A6F50C94031C0EF4A7
:10392000E0950B2EBA2FA02D0B01B90190010C01CF
:10393000CA01A0011124FF27591B99F0593F50F4E7
:10394000503E68F11A16F040A22F232F342F44273F
:10395000585FF3CF469537952795A795F040539537
:10396000C9F77EF41F16BA0B620B730B840BBAF007
:103970009150A1F0FF0FBB1F661F771F881FC2F772
:103980000EC0BA0F621F731F841F48F48795779586
:103990006795B795F7959E3F08F0B0CF9395880F40
:1039A00008F09927EE0F9795879508950E94DD1CE2
:1039B0006894B1110C94041C08950E94E91B88F0CE
:1039C0009F5798F0B92F9927B751B0F0E1F0660FE3
:1039D000771F881F991F1AF0BA95C9F714C0B13024
:1039E00091F00E94031CB1E008950C94031C672F12
:1039F000782F8827B85F39F0B93FCCF38695779553
:103A00006795B395D9F73EF490958095709561953B
:103A10007F4F8F4F9F4F08950E94281B08F48FEF10
:103A200008950F931F93CF93DF938230910510F485
:103A300082E090E0E0913E08F0913F0820E030E025
:103A4000A0E0B0E0309719F14081518102811381EB
:103A500048175907C8F08417950769F4109731F093
:103A600012960C93129713961C9327C000933E084E
:103A700010933F0822C02115310519F04217530752
:103A800018F49A01BD01EF01DF01F801DBCF211528
:103A90003105F9F0281B390B2430310580F48A8177
:103AA0009B816115710521F0FB019383828304C022
:103AB00090933F0880933E08FE01329644C0FE0179
:103AC000E20FF31F819391932250310939832883A8
:103AD0003AC020913C0830913D08232B41F42091BD
:103AE0000E0130910F0130933D0820933C08209146
:103AF0000C0130910D012115310541F42DB73EB770
:103B00004091100150911101241B350BE0913C08AC
:103B1000F0913D08E217F307A0F42E1B3F0B281786
:103B2000390778F0AC014E5F5F4F2417350748F036
:103B30004E0F5F1F50933D0840933C088193919333
:103B400002C0E0E0F0E0CF01DF91CF911F910F9133
:103B50000895CF93DF93009709F481C0FC01329759
:103B600013821282A0913E08B0913F08109781F411
:103B700020813181820F931F20913C0830913D08B4
:103B80002817390751F5F0933D08E0933C0867C0CA
:103B9000ED0120E030E0CE17DF0740F44A815B8181
:103BA0009E0141155105F1F0EA01F5CFD383C2839F
:103BB00040815181840F951FC817D90759F4888116
:103BC0009981840F951F0296918380838A819B81BE
:103BD000938382832115310529F4F0933F08E09304
:103BE0003E083DC0E901FB83EA8349915991C40F26
:103BF000D51FEC17FD0761F480819181840F951F1B
:103C00000296E90199838883828193819B838A83C9
:103C1000E0E0F0E012968D919C911397009719F0D7
:103C2000FD01DC01F7CF8D919C9111979D012E5FD5
:103C30003F4F820F931F20913C0830913D08281779
:103C4000390769F4309729F410923F0810923E0822
:103C500002C013821282B0933D08A0933C08DF910A
:103C6000CF910895A0E0B0E0E8E3FEE10C940E1CD3
:103C7000EC01009721F4CB010E94111DB4C0FC019E
:103C8000E60FF71F9C0122503109E217F30708F4F1
:103C9000A8C0D9010D911C91119706171707B0F014
:103CA0000530110508F49BC0C801049786179707D3
:103CB00008F495C002501109061B170B01931193CC
:103CC0006D937C93CF010E94A91D89C05B01A01A4E
:103CD000B10A4C01800E911EA0913E08B0913F08A0
:103CE000612C712CE12CF12C109709F446C08D91B8
:103CF0009C911197A815B905B1F56C0142E0C40E6D
:103D0000D11CCA14DB0478F14C018A189B086401A9
:103D100042E0C40ED11C1296BC9012971396AC913F
:103D2000B5E0CB16D10440F0B282A38391828082A9
:103D3000D9016D937C9309C00E5F1F4F800F911FB7
:103D4000F90191838083EB2DFA2FE114F10431F016
:103D5000D7011396FC93EE93129741C0F0933F085E
:103D6000E0933E083CC06816790608F43C017D01EA
:103D700012960D90BC91A02DB7CF80913C089091E8
:103D80003D0888169906E1F466167706C8F4809116
:103D90000C0190910D01009741F48DB79EB74091B1
:103DA000100150911101841B950BE817F907C8F415
:103DB000F0933D08E0933C08F901718360830FC0E4
:103DC000CB010E94111D7C01009759F0A801BE0192
:103DD0000E94F81ECE010E94A91DC70104C0CE0199
:103DE00002C080E090E0CDB7DEB7EEE00C942A1C74
:103DF000FB01DC0102C001900D9241505040D8F708
:103E00000895FB01DC0101900D920020E1F7089577
:103E1000AEE0B0E0EEE0FFE10C94181C0D891E89C5
:103E200086E08C831A8309838FEF9FE79E838D83BF
:103E3000AE01475E5F4F6F89788DCE0101960E947B
:103E40002A1FEF81F885E00FF11F10822E96E4E023
:103E50000C94341CABE0B0E0E0E3FFE10C940A1CEE
:103E60006C017B018A01FC0117821682838181FF2C
:103E7000CCC1CE0101963C01F6019381F70193FD7F
:103E8000859193FF81917F01882309F4BAC185321E
:103E900039F493FD859193FF81917F01853229F457
:103EA000B60190E00E942121E7CF912C212C312CEA
:103EB000FFE1F315D8F08B3279F038F4803279F0E5
:103EC0008332A1F4232D20611DC08D3261F0803337
:103ED00069F4232D216016C0832D8260382EE32DD6
:103EE000E4603E2E2AC0F32DF8601DC037FC2DC0C3
:103EF00020ED280F2A3040F08E32B9F436FC81C113
:103F0000232D2064322E19C036FE06C08AE0989E0A
:103F1000200D1124922E11C0EAE02E9E200D1124B6
:103F2000222EF32DF0623F2E08C08C3621F4832D13
:103F30008068382E02C0883641F4F70193FD8591E0
:103F400093FF81917F018111B3CF982F9F7D95546D
:103F5000933028F40C5F1F4F9FE399830DC0833685
:103F600031F0833771F0833509F059C021C0F80171
:103F7000808189830E5F1F4F88248394912C530185
:103F800013C02801F2E04F0E511CF801A080B1804F
:103F900036FE03C0692D70E002C06FEF7FEFC501F0
:103FA0000E9416214C018201F32DFF773F2E16C08F
:103FB000280122E0420E511CF801A080B18036FE9B
:103FC00003C0692D70E002C06FEF7FEFC5010E9452
:103FD0000B214C01F32DF0683F2E820133FC1BC0F6
:103FE000822D90E088169906B0F4B60180E290E048
:103FF0000E9421212A94F4CFF50137FC859137FEE8
:1040000081915F01B60190E00E94212121102A9444
:1040100021E0821A91088114910471F7E8C0843676
:1040200011F0893641F5F80137FE07C060817181D2
:10403000828193810C5F1F4F08C060817181072EC0
:10404000000C880B990B0E5F1F4FF32DFF763F2E50
:1040500097FF09C090958095709561957F4F8F4F20
:104060009F4FF0683F2E2AE030E0A3010E945D21BF
:10407000882E861845C0853731F4232D2F7EB22E29
:104080002AE030E025C0932D997FB92E8F36C1F0FC
:1040900018F4883579F0B5C0803719F0883721F0E9
:1040A000B0C0E92FE061BE2EB4FE0DC0FB2DF46060
:1040B000BF2E09C034FE0AC0292F2660B22E06C0CA
:1040C00028E030E005C020E130E002C020E132E02D
:1040D000F801B7FE07C060817181828193810C5F16
:1040E0001F4F06C06081718180E090E00E5F1F4F1E
:1040F000A3010E945D21882E8618FB2DFF773F2E9D
:1041000036FE0DC0232D2E7FA22E891458F434FEC6
:104110000BC032FC09C0832D8E7EA82E05C0B82CA2
:10412000A32C03C0B82C01C0B92CA4FE0FC0FE0103
:10413000E80DF11D8081803321F49A2D997EA92EFE
:1041400009C0A2FE06C0B394B39404C08A2D867839
:1041500009F0B394A3FC11C0A0FE06C0B21488F409
:10416000280C922C9B180EC0B21460F4B60180E2A9
:1041700090E00E942121B394F7CFB21418F42B18C9
:1041800002C0982C212CA4FE10C0B60180E390E060
:104190000E942121A2FE17C0A1FC03C088E790E085
:1041A00002C088E590E0B6010CC08A2D867859F0EF
:1041B000A1FE02C08BE201C080E2A7FC8DE2B60145
:1041C00090E00E942121891438F4B60180E390E048
:1041D0000E9421219A94F7CF8A94F301E80DF11DF2
:1041E0008081B60190E00E9421218110F5CF22202C
:1041F00009F442CEB60180E290E00E9421212A9487
:10420000F6CFF6018681978102C08FEF9FEF2B9644
:10421000E2E10C94261CFC010590615070400110F5
:10422000D8F7809590958E0F9F1F0895FC016150DF
:10423000704001900110D8F7809590958E0F9F1FC8
:1042400008950F931F93CF93DF93FB01238121FDEB
:1042500003C08FEF9FEF2CC022FF16C0468157810D
:10426000248135814217530744F4A081B1819D0117
:104270002F5F3F4F318320838C93268137812F5FBF
:104280003F4F3783268314C08B01EC01FB01008470
:10429000F185E02D0995892BE1F6D80116968D91CF
:1042A0009C911797019617969C938E931697CE0123
:1042B000DF91CF911F910F910895FA01AA2728301D
:1042C00051F1203181F1E8946F936E7F6E5F7F4FE3
:1042D0008F4F9F4FAF4FB1E03ED0B4E03CD0670F5F
:1042E000781F891F9A1FA11D680F791F8A1F911DB2
:1042F000A11D6A0F711D811D911DA11D20D009F402
:1043000068943F912AE0269F11243019305D319343
:10431000DEF6CF010895462F4770405D4193B3E02C
:104320000FD0C9F7F6CF462F4F70405D4A3318F0D3
:10433000495D31FD4052419302D0A9F7EACFB4E084
:10434000A6959795879577956795BA95C9F700973C
:104350006105710508959B01AC010A2E06945795DD
:10436000479537952795BA95C9F7620F731F841F34
:0A437000951FA01D0895F894FFCFDB
:10437A00FFFFFFFF00E1000000000000000040080E
:10438A00200000C18081000000020802040202022B
:10439A00010280024002100220030203010380038B
:1043AA00400320031003043501330131012F012D8D
:1043BA00012B01290127012501230121011F011DCB
:1043CA00011B0119010000000023012101E803007B
:1043DA0000000049101C100003F00F14100010F127
:1043EA000F000000004C02BA01E40198021502F322
:1043FA0001070200000000C4023503BB03DA02E52C
:10440A0002E303BF030D0A002C004D505536303528
:10441A003020636F6E6E656374696F6E20737563A7
:10442A006365737366756C004D50553630353020B0
:10443A00636F6E6E656374696F6E206661696C6521
:10444A006400496E697469616C697A696E672049AA
:10445A00324320646576696365732E2E2E00546597
:10446A007374696E672064657669636520636F6E2D
:10447A006E656374696F6E732E2E2E004D41535410
:10448A0045520057616974696E6720636F6E6E6585
:10449A006374696F6E2077697468206D616E6167F5
:1044AA0065720057616974696E6720636F6E6E6525
:1044BA006374696F6E2077697468206F74686572B7
:1044CA00206D6F76657200436F6E6E656374696FF7
:1044DA006E20636F6E6669726D65640053657475EC
:1044EA007020494D550053657475702074696D6567
:1044FA007273004552524F523A205041594C4F4123
:10450A00445F4552524F52004552524F523A20434D
:10451A0052435F4552524F52004552524F523A202F
:10452A0053544F505F425954455F4552524F5200BF
:10453A004552524F523A20556E646566696E6564FB
:10454A00207374617465200058496E707574204434
:10455A00656275673A20004C543A20253375202548
:10456A0073204C3A282536642C202536642C2025C5
:10457A00732900202563256325632563207C202574
:10458A006325632563207C202563256325632563D2
:10459A002000523A282536642C202536642C202502
:1045AA0073292025732052543A2025337500417609
:1045BA00766961746120636F6D756E6963617A698A
:1045CA006F6E6520626C7565746F6F7468004C421B
:0A45DA00004C33005242005233003F
:00000001FF
